{
	"contracts/PasswordManager.sol": {
		"BlockchainPassword": {
			"abi": [
				{
					"inputs": [
						{
							"internalType": "string",
							"name": "encryptedTestPhrase",
							"type": "string"
						}
					],
					"stateMutability": "nonpayable",
					"type": "constructor"
				},
				{
					"inputs": [
						{
							"internalType": "string",
							"name": "name",
							"type": "string"
						},
						{
							"internalType": "string",
							"name": "username",
							"type": "string"
						},
						{
							"internalType": "string",
							"name": "password",
							"type": "string"
						}
					],
					"name": "addLogin",
					"outputs": [
						{
							"internalType": "bool",
							"name": "success",
							"type": "bool"
						}
					],
					"stateMutability": "nonpayable",
					"type": "function"
				},
				{
					"inputs": [
						{
							"internalType": "uint256",
							"name": "id",
							"type": "uint256"
						}
					],
					"name": "getLogin",
					"outputs": [
						{
							"internalType": "string",
							"name": "name",
							"type": "string"
						},
						{
							"internalType": "string",
							"name": "username",
							"type": "string"
						},
						{
							"internalType": "string",
							"name": "password",
							"type": "string"
						}
					],
					"stateMutability": "view",
					"type": "function"
				},
				{
					"inputs": [],
					"name": "getLogins",
					"outputs": [
						{
							"internalType": "string",
							"name": "allLogins",
							"type": "string"
						}
					],
					"stateMutability": "view",
					"type": "function"
				},
				{
					"inputs": [],
					"name": "getOwner",
					"outputs": [
						{
							"internalType": "address",
							"name": "ownerAddress",
							"type": "address"
						}
					],
					"stateMutability": "view",
					"type": "function"
				},
				{
					"inputs": [],
					"name": "getTestPhrase",
					"outputs": [
						{
							"internalType": "string",
							"name": "phrase",
							"type": "string"
						}
					],
					"stateMutability": "view",
					"type": "function"
				},
				{
					"inputs": [],
					"name": "kill",
					"outputs": [],
					"stateMutability": "nonpayable",
					"type": "function"
				},
				{
					"inputs": [
						{
							"internalType": "uint256",
							"name": "index",
							"type": "uint256"
						},
						{
							"internalType": "string",
							"name": "name",
							"type": "string"
						},
						{
							"internalType": "string",
							"name": "username",
							"type": "string"
						},
						{
							"internalType": "string",
							"name": "password",
							"type": "string"
						}
					],
					"name": "setLogin",
					"outputs": [
						{
							"internalType": "bool",
							"name": "success",
							"type": "bool"
						}
					],
					"stateMutability": "nonpayable",
					"type": "function"
				}
			],
			"devdoc": {
				"kind": "dev",
				"methods": {},
				"version": 1
			},
			"evm": {
				"assembly": "    /* \"contracts/PasswordManager.sol\":69:2590  contract BlockchainPassword {... */\n  mstore(0x40, 0x80)\n    /* \"contracts/PasswordManager.sol\":323:463  constructor(string memory encryptedTestPhrase) public {... */\n  callvalue\n  dup1\n  iszero\n  tag_1\n  jumpi\n  0x00\n  dup1\n  revert\ntag_1:\n  pop\n  mload(0x40)\n  sub(codesize, bytecodeSize)\n  dup1\n  bytecodeSize\n  dup4\n  codecopy\n  dup2\n  dup2\n  add\n  0x40\n  mstore\n  dup2\n  add\n  swap1\n  tag_2\n  swap2\n  swap1\n  tag_3\n  jump\t// in\ntag_2:\n    /* \"contracts/PasswordManager.sol\":391:401  msg.sender */\n  caller\n    /* \"contracts/PasswordManager.sol\":383:388  owner */\n  0x00\n  dup1\n    /* \"contracts/PasswordManager.sol\":383:401  owner = msg.sender */\n  0x0100\n  exp\n  dup2\n  sload\n  dup2\n  0xffffffffffffffffffffffffffffffffffffffff\n  mul\n  not\n  and\n  swap1\n  dup4\n  0xffffffffffffffffffffffffffffffffffffffff\n  and\n  mul\n  or\n  swap1\n  sstore\n  pop\n    /* \"contracts/PasswordManager.sol\":419:420  0 */\n  0x00\n    /* \"contracts/PasswordManager.sol\":407:416  numLogins */\n  0x03\n    /* \"contracts/PasswordManager.sol\":407:420  numLogins = 0 */\n  dup2\n  swap1\n  sstore\n  pop\n    /* \"contracts/PasswordManager.sol\":439:458  encryptedTestPhrase */\n  dup1\n    /* \"contracts/PasswordManager.sol\":426:436  testPhrase */\n  0x01\n    /* \"contracts/PasswordManager.sol\":426:458  testPhrase = encryptedTestPhrase */\n  swap1\n  dup2\n  tag_6\n  swap2\n  swap1\n  tag_7\n  jump\t// in\ntag_6:\n  pop\n    /* \"contracts/PasswordManager.sol\":323:463  constructor(string memory encryptedTestPhrase) public {... */\n  pop\n    /* \"contracts/PasswordManager.sol\":69:2590  contract BlockchainPassword {... */\n  jump(tag_8)\n    /* \"#utility.yul\":7:82   */\ntag_9:\n    /* \"#utility.yul\":40:46   */\n  0x00\n    /* \"#utility.yul\":73:75   */\n  0x40\n    /* \"#utility.yul\":67:76   */\n  mload\n    /* \"#utility.yul\":57:76   */\n  swap1\n  pop\n    /* \"#utility.yul\":7:82   */\n  swap1\n  jump\t// out\n    /* \"#utility.yul\":88:205   */\ntag_10:\n    /* \"#utility.yul\":197:198   */\n  0x00\n    /* \"#utility.yul\":194:195   */\n  dup1\n    /* \"#utility.yul\":187:199   */\n  revert\n    /* \"#utility.yul\":211:328   */\ntag_11:\n    /* \"#utility.yul\":320:321   */\n  0x00\n    /* \"#utility.yul\":317:318   */\n  dup1\n    /* \"#utility.yul\":310:322   */\n  revert\n    /* \"#utility.yul\":334:451   */\ntag_12:\n    /* \"#utility.yul\":443:444   */\n  0x00\n    /* \"#utility.yul\":440:441   */\n  dup1\n    /* \"#utility.yul\":433:445   */\n  revert\n    /* \"#utility.yul\":457:574   */\ntag_13:\n    /* \"#utility.yul\":566:567   */\n  0x00\n    /* \"#utility.yul\":563:564   */\n  dup1\n    /* \"#utility.yul\":556:568   */\n  revert\n    /* \"#utility.yul\":580:682   */\ntag_14:\n    /* \"#utility.yul\":621:627   */\n  0x00\n    /* \"#utility.yul\":672:674   */\n  0x1f\n    /* \"#utility.yul\":668:675   */\n  not\n    /* \"#utility.yul\":663:665   */\n  0x1f\n    /* \"#utility.yul\":656:661   */\n  dup4\n    /* \"#utility.yul\":652:666   */\n  add\n    /* \"#utility.yul\":648:676   */\n  and\n    /* \"#utility.yul\":638:676   */\n  swap1\n  pop\n    /* \"#utility.yul\":580:682   */\n  swap2\n  swap1\n  pop\n  jump\t// out\n    /* \"#utility.yul\":688:868   */\ntag_15:\n    /* \"#utility.yul\":736:813   */\n  0x4e487b7100000000000000000000000000000000000000000000000000000000\n    /* \"#utility.yul\":733:734   */\n  0x00\n    /* \"#utility.yul\":726:814   */\n  mstore\n    /* \"#utility.yul\":833:837   */\n  0x41\n    /* \"#utility.yul\":830:831   */\n  0x04\n    /* \"#utility.yul\":823:838   */\n  mstore\n    /* \"#utility.yul\":857:861   */\n  0x24\n    /* \"#utility.yul\":854:855   */\n  0x00\n    /* \"#utility.yul\":847:862   */\n  revert\n    /* \"#utility.yul\":874:1155   */\ntag_16:\n    /* \"#utility.yul\":957:984   */\n  tag_50\n    /* \"#utility.yul\":979:983   */\n  dup3\n    /* \"#utility.yul\":957:984   */\n  tag_14\n  jump\t// in\ntag_50:\n    /* \"#utility.yul\":949:955   */\n  dup2\n    /* \"#utility.yul\":945:985   */\n  add\n    /* \"#utility.yul\":1087:1093   */\n  dup2\n    /* \"#utility.yul\":1075:1085   */\n  dup2\n    /* \"#utility.yul\":1072:1094   */\n  lt\n    /* \"#utility.yul\":1051:1069   */\n  0xffffffffffffffff\n    /* \"#utility.yul\":1039:1049   */\n  dup3\n    /* \"#utility.yul\":1036:1070   */\n  gt\n    /* \"#utility.yul\":1033:1095   */\n  or\n    /* \"#utility.yul\":1030:1118   */\n  iszero\n  tag_51\n  jumpi\n    /* \"#utility.yul\":1098:1116   */\n  tag_52\n  tag_15\n  jump\t// in\ntag_52:\n    /* \"#utility.yul\":1030:1118   */\ntag_51:\n    /* \"#utility.yul\":1138:1148   */\n  dup1\n    /* \"#utility.yul\":1134:1136   */\n  0x40\n    /* \"#utility.yul\":1127:1149   */\n  mstore\n    /* \"#utility.yul\":917:1155   */\n  pop\n    /* \"#utility.yul\":874:1155   */\n  pop\n  pop\n  jump\t// out\n    /* \"#utility.yul\":1161:1290   */\ntag_17:\n    /* \"#utility.yul\":1195:1201   */\n  0x00\n    /* \"#utility.yul\":1222:1242   */\n  tag_54\n  tag_9\n  jump\t// in\ntag_54:\n    /* \"#utility.yul\":1212:1242   */\n  swap1\n  pop\n    /* \"#utility.yul\":1251:1284   */\n  tag_55\n    /* \"#utility.yul\":1279:1283   */\n  dup3\n    /* \"#utility.yul\":1271:1277   */\n  dup3\n    /* \"#utility.yul\":1251:1284   */\n  tag_16\n  jump\t// in\ntag_55:\n    /* \"#utility.yul\":1161:1290   */\n  swap2\n  swap1\n  pop\n  jump\t// out\n    /* \"#utility.yul\":1296:1604   */\ntag_18:\n    /* \"#utility.yul\":1358:1362   */\n  0x00\n    /* \"#utility.yul\":1448:1466   */\n  0xffffffffffffffff\n    /* \"#utility.yul\":1440:1446   */\n  dup3\n    /* \"#utility.yul\":1437:1467   */\n  gt\n    /* \"#utility.yul\":1434:1490   */\n  iszero\n  tag_57\n  jumpi\n    /* \"#utility.yul\":1470:1488   */\n  tag_58\n  tag_15\n  jump\t// in\ntag_58:\n    /* \"#utility.yul\":1434:1490   */\ntag_57:\n    /* \"#utility.yul\":1508:1537   */\n  tag_59\n    /* \"#utility.yul\":1530:1536   */\n  dup3\n    /* \"#utility.yul\":1508:1537   */\n  tag_14\n  jump\t// in\ntag_59:\n    /* \"#utility.yul\":1500:1537   */\n  swap1\n  pop\n    /* \"#utility.yul\":1592:1596   */\n  0x20\n    /* \"#utility.yul\":1586:1590   */\n  dup2\n    /* \"#utility.yul\":1582:1597   */\n  add\n    /* \"#utility.yul\":1574:1597   */\n  swap1\n  pop\n    /* \"#utility.yul\":1296:1604   */\n  swap2\n  swap1\n  pop\n  jump\t// out\n    /* \"#utility.yul\":1610:1749   */\ntag_19:\n    /* \"#utility.yul\":1699:1705   */\n  dup3\n    /* \"#utility.yul\":1694:1697   */\n  dup2\n    /* \"#utility.yul\":1689:1692   */\n  dup4\n    /* \"#utility.yul\":1683:1706   */\n  mcopy\n    /* \"#utility.yul\":1740:1741   */\n  0x00\n    /* \"#utility.yul\":1731:1737   */\n  dup4\n    /* \"#utility.yul\":1726:1729   */\n  dup4\n    /* \"#utility.yul\":1722:1738   */\n  add\n    /* \"#utility.yul\":1715:1742   */\n  mstore\n    /* \"#utility.yul\":1610:1749   */\n  pop\n  pop\n  pop\n  jump\t// out\n    /* \"#utility.yul\":1755:2189   */\ntag_20:\n    /* \"#utility.yul\":1844:1849   */\n  0x00\n    /* \"#utility.yul\":1869:1935   */\n  tag_62\n    /* \"#utility.yul\":1885:1934   */\n  tag_63\n    /* \"#utility.yul\":1927:1933   */\n  dup5\n    /* \"#utility.yul\":1885:1934   */\n  tag_18\n  jump\t// in\ntag_63:\n    /* \"#utility.yul\":1869:1935   */\n  tag_17\n  jump\t// in\ntag_62:\n    /* \"#utility.yul\":1860:1935   */\n  swap1\n  pop\n    /* \"#utility.yul\":1958:1964   */\n  dup3\n    /* \"#utility.yul\":1951:1956   */\n  dup2\n    /* \"#utility.yul\":1944:1965   */\n  mstore\n    /* \"#utility.yul\":1996:2000   */\n  0x20\n    /* \"#utility.yul\":1989:1994   */\n  dup2\n    /* \"#utility.yul\":1985:2001   */\n  add\n    /* \"#utility.yul\":2034:2037   */\n  dup5\n    /* \"#utility.yul\":2025:2031   */\n  dup5\n    /* \"#utility.yul\":2020:2023   */\n  dup5\n    /* \"#utility.yul\":2016:2032   */\n  add\n    /* \"#utility.yul\":2013:2038   */\n  gt\n    /* \"#utility.yul\":2010:2122   */\n  iszero\n  tag_64\n  jumpi\n    /* \"#utility.yul\":2041:2120   */\n  tag_65\n  tag_13\n  jump\t// in\ntag_65:\n    /* \"#utility.yul\":2010:2122   */\ntag_64:\n    /* \"#utility.yul\":2131:2183   */\n  tag_66\n    /* \"#utility.yul\":2176:2182   */\n  dup5\n    /* \"#utility.yul\":2171:2174   */\n  dup3\n    /* \"#utility.yul\":2166:2169   */\n  dup6\n    /* \"#utility.yul\":2131:2183   */\n  tag_19\n  jump\t// in\ntag_66:\n    /* \"#utility.yul\":1850:2189   */\n  pop\n    /* \"#utility.yul\":1755:2189   */\n  swap4\n  swap3\n  pop\n  pop\n  pop\n  jump\t// out\n    /* \"#utility.yul\":2209:2564   */\ntag_21:\n    /* \"#utility.yul\":2276:2281   */\n  0x00\n    /* \"#utility.yul\":2325:2328   */\n  dup3\n    /* \"#utility.yul\":2318:2322   */\n  0x1f\n    /* \"#utility.yul\":2310:2316   */\n  dup4\n    /* \"#utility.yul\":2306:2323   */\n  add\n    /* \"#utility.yul\":2302:2329   */\n  slt\n    /* \"#utility.yul\":2292:2414   */\n  tag_68\n  jumpi\n    /* \"#utility.yul\":2333:2412   */\n  tag_69\n  tag_12\n  jump\t// in\ntag_69:\n    /* \"#utility.yul\":2292:2414   */\ntag_68:\n    /* \"#utility.yul\":2443:2449   */\n  dup2\n    /* \"#utility.yul\":2437:2450   */\n  mload\n    /* \"#utility.yul\":2468:2558   */\n  tag_70\n    /* \"#utility.yul\":2554:2557   */\n  dup5\n    /* \"#utility.yul\":2546:2552   */\n  dup3\n    /* \"#utility.yul\":2539:2543   */\n  0x20\n    /* \"#utility.yul\":2531:2537   */\n  dup7\n    /* \"#utility.yul\":2527:2544   */\n  add\n    /* \"#utility.yul\":2468:2558   */\n  tag_20\n  jump\t// in\ntag_70:\n    /* \"#utility.yul\":2459:2558   */\n  swap2\n  pop\n    /* \"#utility.yul\":2282:2564   */\n  pop\n    /* \"#utility.yul\":2209:2564   */\n  swap3\n  swap2\n  pop\n  pop\n  jump\t// out\n    /* \"#utility.yul\":2570:3094   */\ntag_3:\n    /* \"#utility.yul\":2650:2656   */\n  0x00\n    /* \"#utility.yul\":2699:2701   */\n  0x20\n    /* \"#utility.yul\":2687:2696   */\n  dup3\n    /* \"#utility.yul\":2678:2685   */\n  dup5\n    /* \"#utility.yul\":2674:2697   */\n  sub\n    /* \"#utility.yul\":2670:2702   */\n  slt\n    /* \"#utility.yul\":2667:2786   */\n  iszero\n  tag_72\n  jumpi\n    /* \"#utility.yul\":2705:2784   */\n  tag_73\n  tag_10\n  jump\t// in\ntag_73:\n    /* \"#utility.yul\":2667:2786   */\ntag_72:\n    /* \"#utility.yul\":2846:2847   */\n  0x00\n    /* \"#utility.yul\":2835:2844   */\n  dup3\n    /* \"#utility.yul\":2831:2848   */\n  add\n    /* \"#utility.yul\":2825:2849   */\n  mload\n    /* \"#utility.yul\":2876:2894   */\n  0xffffffffffffffff\n    /* \"#utility.yul\":2868:2874   */\n  dup2\n    /* \"#utility.yul\":2865:2895   */\n  gt\n    /* \"#utility.yul\":2862:2979   */\n  iszero\n  tag_74\n  jumpi\n    /* \"#utility.yul\":2898:2977   */\n  tag_75\n  tag_11\n  jump\t// in\ntag_75:\n    /* \"#utility.yul\":2862:2979   */\ntag_74:\n    /* \"#utility.yul\":3003:3077   */\n  tag_76\n    /* \"#utility.yul\":3069:3076   */\n  dup5\n    /* \"#utility.yul\":3060:3066   */\n  dup3\n    /* \"#utility.yul\":3049:3058   */\n  dup6\n    /* \"#utility.yul\":3045:3067   */\n  add\n    /* \"#utility.yul\":3003:3077   */\n  tag_21\n  jump\t// in\ntag_76:\n    /* \"#utility.yul\":2993:3077   */\n  swap2\n  pop\n    /* \"#utility.yul\":2796:3087   */\n  pop\n    /* \"#utility.yul\":2570:3094   */\n  swap3\n  swap2\n  pop\n  pop\n  jump\t// out\n    /* \"#utility.yul\":3100:3199   */\ntag_22:\n    /* \"#utility.yul\":3152:3158   */\n  0x00\n    /* \"#utility.yul\":3186:3191   */\n  dup2\n    /* \"#utility.yul\":3180:3192   */\n  mload\n    /* \"#utility.yul\":3170:3192   */\n  swap1\n  pop\n    /* \"#utility.yul\":3100:3199   */\n  swap2\n  swap1\n  pop\n  jump\t// out\n    /* \"#utility.yul\":3205:3385   */\ntag_23:\n    /* \"#utility.yul\":3253:3330   */\n  0x4e487b7100000000000000000000000000000000000000000000000000000000\n    /* \"#utility.yul\":3250:3251   */\n  0x00\n    /* \"#utility.yul\":3243:3331   */\n  mstore\n    /* \"#utility.yul\":3350:3354   */\n  0x22\n    /* \"#utility.yul\":3347:3348   */\n  0x04\n    /* \"#utility.yul\":3340:3355   */\n  mstore\n    /* \"#utility.yul\":3374:3378   */\n  0x24\n    /* \"#utility.yul\":3371:3372   */\n  0x00\n    /* \"#utility.yul\":3364:3379   */\n  revert\n    /* \"#utility.yul\":3391:3711   */\ntag_24:\n    /* \"#utility.yul\":3435:3441   */\n  0x00\n    /* \"#utility.yul\":3472:3473   */\n  0x02\n    /* \"#utility.yul\":3466:3470   */\n  dup3\n    /* \"#utility.yul\":3462:3474   */\n  div\n    /* \"#utility.yul\":3452:3474   */\n  swap1\n  pop\n    /* \"#utility.yul\":3519:3520   */\n  0x01\n    /* \"#utility.yul\":3513:3517   */\n  dup3\n    /* \"#utility.yul\":3509:3521   */\n  and\n    /* \"#utility.yul\":3540:3558   */\n  dup1\n    /* \"#utility.yul\":3530:3611   */\n  tag_80\n  jumpi\n    /* \"#utility.yul\":3596:3600   */\n  0x7f\n    /* \"#utility.yul\":3588:3594   */\n  dup3\n    /* \"#utility.yul\":3584:3601   */\n  and\n    /* \"#utility.yul\":3574:3601   */\n  swap2\n  pop\n    /* \"#utility.yul\":3530:3611   */\ntag_80:\n    /* \"#utility.yul\":3658:3660   */\n  0x20\n    /* \"#utility.yul\":3650:3656   */\n  dup3\n    /* \"#utility.yul\":3647:3661   */\n  lt\n    /* \"#utility.yul\":3627:3645   */\n  dup2\n    /* \"#utility.yul\":3624:3662   */\n  sub\n    /* \"#utility.yul\":3621:3705   */\n  tag_81\n  jumpi\n    /* \"#utility.yul\":3677:3695   */\n  tag_82\n  tag_23\n  jump\t// in\ntag_82:\n    /* \"#utility.yul\":3621:3705   */\ntag_81:\n    /* \"#utility.yul\":3442:3711   */\n  pop\n    /* \"#utility.yul\":3391:3711   */\n  swap2\n  swap1\n  pop\n  jump\t// out\n    /* \"#utility.yul\":3717:3858   */\ntag_25:\n    /* \"#utility.yul\":3766:3770   */\n  0x00\n    /* \"#utility.yul\":3789:3792   */\n  dup2\n    /* \"#utility.yul\":3781:3792   */\n  swap1\n  pop\n    /* \"#utility.yul\":3812:3815   */\n  dup2\n    /* \"#utility.yul\":3809:3810   */\n  0x00\n    /* \"#utility.yul\":3802:3816   */\n  mstore\n    /* \"#utility.yul\":3846:3850   */\n  0x20\n    /* \"#utility.yul\":3843:3844   */\n  0x00\n    /* \"#utility.yul\":3833:3851   */\n  keccak256\n    /* \"#utility.yul\":3825:3851   */\n  swap1\n  pop\n    /* \"#utility.yul\":3717:3858   */\n  swap2\n  swap1\n  pop\n  jump\t// out\n    /* \"#utility.yul\":3864:3957   */\ntag_26:\n    /* \"#utility.yul\":3901:3907   */\n  0x00\n    /* \"#utility.yul\":3948:3950   */\n  0x20\n    /* \"#utility.yul\":3943:3945   */\n  0x1f\n    /* \"#utility.yul\":3936:3941   */\n  dup4\n    /* \"#utility.yul\":3932:3946   */\n  add\n    /* \"#utility.yul\":3928:3951   */\n  div\n    /* \"#utility.yul\":3918:3951   */\n  swap1\n  pop\n    /* \"#utility.yul\":3864:3957   */\n  swap2\n  swap1\n  pop\n  jump\t// out\n    /* \"#utility.yul\":3963:4070   */\ntag_27:\n    /* \"#utility.yul\":4007:4015   */\n  0x00\n    /* \"#utility.yul\":4057:4062   */\n  dup3\n    /* \"#utility.yul\":4051:4055   */\n  dup3\n    /* \"#utility.yul\":4047:4063   */\n  shl\n    /* \"#utility.yul\":4026:4063   */\n  swap1\n  pop\n    /* \"#utility.yul\":3963:4070   */\n  swap3\n  swap2\n  pop\n  pop\n  jump\t// out\n    /* \"#utility.yul\":4076:4469   */\ntag_28:\n    /* \"#utility.yul\":4145:4151   */\n  0x00\n    /* \"#utility.yul\":4195:4196   */\n  0x08\n    /* \"#utility.yul\":4183:4193   */\n  dup4\n    /* \"#utility.yul\":4179:4197   */\n  mul\n    /* \"#utility.yul\":4218:4315   */\n  tag_87\n    /* \"#utility.yul\":4248:4314   */\n  0xffffffffffffffffffffffffffffffffffffffffffffffffffffffffffffffff\n    /* \"#utility.yul\":4237:4246   */\n  dup3\n    /* \"#utility.yul\":4218:4315   */\n  tag_27\n  jump\t// in\ntag_87:\n    /* \"#utility.yul\":4336:4375   */\n  tag_88\n    /* \"#utility.yul\":4366:4374   */\n  dup7\n    /* \"#utility.yul\":4355:4364   */\n  dup4\n    /* \"#utility.yul\":4336:4375   */\n  tag_27\n  jump\t// in\ntag_88:\n    /* \"#utility.yul\":4324:4375   */\n  swap6\n  pop\n    /* \"#utility.yul\":4408:4412   */\n  dup1\n    /* \"#utility.yul\":4404:4413   */\n  not\n    /* \"#utility.yul\":4397:4402   */\n  dup5\n    /* \"#utility.yul\":4393:4414   */\n  and\n    /* \"#utility.yul\":4384:4414   */\n  swap4\n  pop\n    /* \"#utility.yul\":4457:4461   */\n  dup1\n    /* \"#utility.yul\":4447:4455   */\n  dup7\n    /* \"#utility.yul\":4443:4462   */\n  and\n    /* \"#utility.yul\":4436:4441   */\n  dup5\n    /* \"#utility.yul\":4433:4463   */\n  or\n    /* \"#utility.yul\":4423:4463   */\n  swap3\n  pop\n    /* \"#utility.yul\":4152:4469   */\n  pop\n  pop\n    /* \"#utility.yul\":4076:4469   */\n  swap4\n  swap3\n  pop\n  pop\n  pop\n  jump\t// out\n    /* \"#utility.yul\":4475:4552   */\ntag_29:\n    /* \"#utility.yul\":4512:4519   */\n  0x00\n    /* \"#utility.yul\":4541:4546   */\n  dup2\n    /* \"#utility.yul\":4530:4546   */\n  swap1\n  pop\n    /* \"#utility.yul\":4475:4552   */\n  swap2\n  swap1\n  pop\n  jump\t// out\n    /* \"#utility.yul\":4558:4618   */\ntag_30:\n    /* \"#utility.yul\":4586:4589   */\n  0x00\n    /* \"#utility.yul\":4607:4612   */\n  dup2\n    /* \"#utility.yul\":4600:4612   */\n  swap1\n  pop\n    /* \"#utility.yul\":4558:4618   */\n  swap2\n  swap1\n  pop\n  jump\t// out\n    /* \"#utility.yul\":4624:4766   */\ntag_31:\n    /* \"#utility.yul\":4674:4683   */\n  0x00\n    /* \"#utility.yul\":4707:4760   */\n  tag_92\n    /* \"#utility.yul\":4725:4759   */\n  tag_93\n    /* \"#utility.yul\":4734:4758   */\n  tag_94\n    /* \"#utility.yul\":4752:4757   */\n  dup5\n    /* \"#utility.yul\":4734:4758   */\n  tag_29\n  jump\t// in\ntag_94:\n    /* \"#utility.yul\":4725:4759   */\n  tag_30\n  jump\t// in\ntag_93:\n    /* \"#utility.yul\":4707:4760   */\n  tag_29\n  jump\t// in\ntag_92:\n    /* \"#utility.yul\":4694:4760   */\n  swap1\n  pop\n    /* \"#utility.yul\":4624:4766   */\n  swap2\n  swap1\n  pop\n  jump\t// out\n    /* \"#utility.yul\":4772:4847   */\ntag_32:\n    /* \"#utility.yul\":4815:4818   */\n  0x00\n    /* \"#utility.yul\":4836:4841   */\n  dup2\n    /* \"#utility.yul\":4829:4841   */\n  swap1\n  pop\n    /* \"#utility.yul\":4772:4847   */\n  swap2\n  swap1\n  pop\n  jump\t// out\n    /* \"#utility.yul\":4853:5122   */\ntag_33:\n    /* \"#utility.yul\":4963:5002   */\n  tag_97\n    /* \"#utility.yul\":4994:5001   */\n  dup4\n    /* \"#utility.yul\":4963:5002   */\n  tag_31\n  jump\t// in\ntag_97:\n    /* \"#utility.yul\":5024:5115   */\n  tag_98\n    /* \"#utility.yul\":5073:5114   */\n  tag_99\n    /* \"#utility.yul\":5097:5113   */\n  dup3\n    /* \"#utility.yul\":5073:5114   */\n  tag_32\n  jump\t// in\ntag_99:\n    /* \"#utility.yul\":5065:5071   */\n  dup5\n    /* \"#utility.yul\":5058:5062   */\n  dup5\n    /* \"#utility.yul\":5052:5063   */\n  sload\n    /* \"#utility.yul\":5024:5115   */\n  tag_28\n  jump\t// in\ntag_98:\n    /* \"#utility.yul\":5018:5022   */\n  dup3\n    /* \"#utility.yul\":5011:5116   */\n  sstore\n    /* \"#utility.yul\":4929:5122   */\n  pop\n    /* \"#utility.yul\":4853:5122   */\n  pop\n  pop\n  pop\n  jump\t// out\n    /* \"#utility.yul\":5128:5201   */\ntag_34:\n    /* \"#utility.yul\":5173:5176   */\n  0x00\n    /* \"#utility.yul\":5128:5201   */\n  swap1\n  jump\t// out\n    /* \"#utility.yul\":5207:5396   */\ntag_35:\n    /* \"#utility.yul\":5284:5316   */\n  tag_102\n  tag_34\n  jump\t// in\ntag_102:\n    /* \"#utility.yul\":5325:5390   */\n  tag_103\n    /* \"#utility.yul\":5383:5389   */\n  dup2\n    /* \"#utility.yul\":5375:5381   */\n  dup5\n    /* \"#utility.yul\":5369:5373   */\n  dup5\n    /* \"#utility.yul\":5325:5390   */\n  tag_33\n  jump\t// in\ntag_103:\n    /* \"#utility.yul\":5260:5396   */\n  pop\n    /* \"#utility.yul\":5207:5396   */\n  pop\n  pop\n  jump\t// out\n    /* \"#utility.yul\":5402:5588   */\ntag_36:\n    /* \"#utility.yul\":5462:5582   */\ntag_105:\n    /* \"#utility.yul\":5479:5482   */\n  dup2\n    /* \"#utility.yul\":5472:5477   */\n  dup2\n    /* \"#utility.yul\":5469:5483   */\n  lt\n    /* \"#utility.yul\":5462:5582   */\n  iszero\n  tag_107\n  jumpi\n    /* \"#utility.yul\":5533:5572   */\n  tag_108\n    /* \"#utility.yul\":5570:5571   */\n  0x00\n    /* \"#utility.yul\":5563:5568   */\n  dup3\n    /* \"#utility.yul\":5533:5572   */\n  tag_35\n  jump\t// in\ntag_108:\n    /* \"#utility.yul\":5506:5507   */\n  0x01\n    /* \"#utility.yul\":5499:5504   */\n  dup2\n    /* \"#utility.yul\":5495:5508   */\n  add\n    /* \"#utility.yul\":5486:5508   */\n  swap1\n  pop\n    /* \"#utility.yul\":5462:5582   */\n  jump(tag_105)\ntag_107:\n    /* \"#utility.yul\":5402:5588   */\n  pop\n  pop\n  jump\t// out\n    /* \"#utility.yul\":5594:6137   */\ntag_37:\n    /* \"#utility.yul\":5695:5697   */\n  0x1f\n    /* \"#utility.yul\":5690:5693   */\n  dup3\n    /* \"#utility.yul\":5687:5698   */\n  gt\n    /* \"#utility.yul\":5684:6130   */\n  iszero\n  tag_110\n  jumpi\n    /* \"#utility.yul\":5729:5767   */\n  tag_111\n    /* \"#utility.yul\":5761:5766   */\n  dup2\n    /* \"#utility.yul\":5729:5767   */\n  tag_25\n  jump\t// in\ntag_111:\n    /* \"#utility.yul\":5813:5842   */\n  tag_112\n    /* \"#utility.yul\":5831:5841   */\n  dup5\n    /* \"#utility.yul\":5813:5842   */\n  tag_26\n  jump\t// in\ntag_112:\n    /* \"#utility.yul\":5803:5811   */\n  dup2\n    /* \"#utility.yul\":5799:5843   */\n  add\n    /* \"#utility.yul\":5996:5998   */\n  0x20\n    /* \"#utility.yul\":5984:5994   */\n  dup6\n    /* \"#utility.yul\":5981:5999   */\n  lt\n    /* \"#utility.yul\":5978:6027   */\n  iszero\n  tag_113\n  jumpi\n    /* \"#utility.yul\":6017:6025   */\n  dup2\n    /* \"#utility.yul\":6002:6025   */\n  swap1\n  pop\n    /* \"#utility.yul\":5978:6027   */\ntag_113:\n    /* \"#utility.yul\":6040:6120   */\n  tag_114\n    /* \"#utility.yul\":6096:6118   */\n  tag_115\n    /* \"#utility.yul\":6114:6117   */\n  dup6\n    /* \"#utility.yul\":6096:6118   */\n  tag_26\n  jump\t// in\ntag_115:\n    /* \"#utility.yul\":6086:6094   */\n  dup4\n    /* \"#utility.yul\":6082:6119   */\n  add\n    /* \"#utility.yul\":6069:6080   */\n  dup3\n    /* \"#utility.yul\":6040:6120   */\n  tag_36\n  jump\t// in\ntag_114:\n    /* \"#utility.yul\":5699:6130   */\n  pop\n  pop\n    /* \"#utility.yul\":5684:6130   */\ntag_110:\n    /* \"#utility.yul\":5594:6137   */\n  pop\n  pop\n  pop\n  jump\t// out\n    /* \"#utility.yul\":6143:6260   */\ntag_38:\n    /* \"#utility.yul\":6197:6205   */\n  0x00\n    /* \"#utility.yul\":6247:6252   */\n  dup3\n    /* \"#utility.yul\":6241:6245   */\n  dup3\n    /* \"#utility.yul\":6237:6253   */\n  shr\n    /* \"#utility.yul\":6216:6253   */\n  swap1\n  pop\n    /* \"#utility.yul\":6143:6260   */\n  swap3\n  swap2\n  pop\n  pop\n  jump\t// out\n    /* \"#utility.yul\":6266:6435   */\ntag_39:\n    /* \"#utility.yul\":6310:6316   */\n  0x00\n    /* \"#utility.yul\":6343:6394   */\n  tag_118\n    /* \"#utility.yul\":6391:6392   */\n  0x00\n    /* \"#utility.yul\":6387:6393   */\n  not\n    /* \"#utility.yul\":6379:6384   */\n  dup5\n    /* \"#utility.yul\":6376:6377   */\n  0x08\n    /* \"#utility.yul\":6372:6385   */\n  mul\n    /* \"#utility.yul\":6343:6394   */\n  tag_38\n  jump\t// in\ntag_118:\n    /* \"#utility.yul\":6339:6395   */\n  not\n    /* \"#utility.yul\":6424:6428   */\n  dup1\n    /* \"#utility.yul\":6418:6422   */\n  dup4\n    /* \"#utility.yul\":6414:6429   */\n  and\n    /* \"#utility.yul\":6404:6429   */\n  swap2\n  pop\n    /* \"#utility.yul\":6317:6435   */\n  pop\n    /* \"#utility.yul\":6266:6435   */\n  swap3\n  swap2\n  pop\n  pop\n  jump\t// out\n    /* \"#utility.yul\":6440:6735   */\ntag_40:\n    /* \"#utility.yul\":6516:6520   */\n  0x00\n    /* \"#utility.yul\":6662:6691   */\n  tag_120\n    /* \"#utility.yul\":6687:6690   */\n  dup4\n    /* \"#utility.yul\":6681:6685   */\n  dup4\n    /* \"#utility.yul\":6662:6691   */\n  tag_39\n  jump\t// in\ntag_120:\n    /* \"#utility.yul\":6654:6691   */\n  swap2\n  pop\n    /* \"#utility.yul\":6724:6727   */\n  dup3\n    /* \"#utility.yul\":6721:6722   */\n  0x02\n    /* \"#utility.yul\":6717:6728   */\n  mul\n    /* \"#utility.yul\":6711:6715   */\n  dup3\n    /* \"#utility.yul\":6708:6729   */\n  or\n    /* \"#utility.yul\":6700:6729   */\n  swap1\n  pop\n    /* \"#utility.yul\":6440:6735   */\n  swap3\n  swap2\n  pop\n  pop\n  jump\t// out\n    /* \"#utility.yul\":6740:8135   */\ntag_7:\n    /* \"#utility.yul\":6857:6894   */\n  tag_122\n    /* \"#utility.yul\":6890:6893   */\n  dup3\n    /* \"#utility.yul\":6857:6894   */\n  tag_22\n  jump\t// in\ntag_122:\n    /* \"#utility.yul\":6959:6977   */\n  0xffffffffffffffff\n    /* \"#utility.yul\":6951:6957   */\n  dup2\n    /* \"#utility.yul\":6948:6978   */\n  gt\n    /* \"#utility.yul\":6945:7001   */\n  iszero\n  tag_123\n  jumpi\n    /* \"#utility.yul\":6981:6999   */\n  tag_124\n  tag_15\n  jump\t// in\ntag_124:\n    /* \"#utility.yul\":6945:7001   */\ntag_123:\n    /* \"#utility.yul\":7025:7063   */\n  tag_125\n    /* \"#utility.yul\":7057:7061   */\n  dup3\n    /* \"#utility.yul\":7051:7062   */\n  sload\n    /* \"#utility.yul\":7025:7063   */\n  tag_24\n  jump\t// in\ntag_125:\n    /* \"#utility.yul\":7110:7177   */\n  tag_126\n    /* \"#utility.yul\":7170:7176   */\n  dup3\n    /* \"#utility.yul\":7162:7168   */\n  dup3\n    /* \"#utility.yul\":7156:7160   */\n  dup6\n    /* \"#utility.yul\":7110:7177   */\n  tag_37\n  jump\t// in\ntag_126:\n    /* \"#utility.yul\":7204:7205   */\n  0x00\n    /* \"#utility.yul\":7228:7232   */\n  0x20\n    /* \"#utility.yul\":7215:7232   */\n  swap1\n  pop\n    /* \"#utility.yul\":7260:7262   */\n  0x1f\n    /* \"#utility.yul\":7252:7258   */\n  dup4\n    /* \"#utility.yul\":7249:7263   */\n  gt\n    /* \"#utility.yul\":7277:7278   */\n  0x01\n    /* \"#utility.yul\":7272:7890   */\n  dup2\n  eq\n  tag_128\n  jumpi\n    /* \"#utility.yul\":7934:7935   */\n  0x00\n    /* \"#utility.yul\":7951:7957   */\n  dup5\n    /* \"#utility.yul\":7948:8025   */\n  iszero\n  tag_129\n  jumpi\n    /* \"#utility.yul\":8000:8009   */\n  dup3\n    /* \"#utility.yul\":7995:7998   */\n  dup8\n    /* \"#utility.yul\":7991:8010   */\n  add\n    /* \"#utility.yul\":7985:8011   */\n  mload\n    /* \"#utility.yul\":7976:8011   */\n  swap1\n  pop\n    /* \"#utility.yul\":7948:8025   */\ntag_129:\n    /* \"#utility.yul\":8051:8118   */\n  tag_130\n    /* \"#utility.yul\":8111:8117   */\n  dup6\n    /* \"#utility.yul\":8104:8109   */\n  dup3\n    /* \"#utility.yul\":8051:8118   */\n  tag_40\n  jump\t// in\ntag_130:\n    /* \"#utility.yul\":8045:8049   */\n  dup7\n    /* \"#utility.yul\":8038:8119   */\n  sstore\n    /* \"#utility.yul\":7907:8129   */\n  pop\n    /* \"#utility.yul\":7242:8129   */\n  jump(tag_127)\n    /* \"#utility.yul\":7272:7890   */\ntag_128:\n    /* \"#utility.yul\":7324:7328   */\n  0x1f\n    /* \"#utility.yul\":7320:7329   */\n  not\n    /* \"#utility.yul\":7312:7318   */\n  dup5\n    /* \"#utility.yul\":7308:7330   */\n  and\n    /* \"#utility.yul\":7358:7395   */\n  tag_131\n    /* \"#utility.yul\":7390:7394   */\n  dup7\n    /* \"#utility.yul\":7358:7395   */\n  tag_25\n  jump\t// in\ntag_131:\n    /* \"#utility.yul\":7417:7418   */\n  0x00\n    /* \"#utility.yul\":7431:7639   */\ntag_132:\n    /* \"#utility.yul\":7445:7452   */\n  dup3\n    /* \"#utility.yul\":7442:7443   */\n  dup2\n    /* \"#utility.yul\":7439:7453   */\n  lt\n    /* \"#utility.yul\":7431:7639   */\n  iszero\n  tag_134\n  jumpi\n    /* \"#utility.yul\":7524:7533   */\n  dup5\n    /* \"#utility.yul\":7519:7522   */\n  dup10\n    /* \"#utility.yul\":7515:7534   */\n  add\n    /* \"#utility.yul\":7509:7535   */\n  mload\n    /* \"#utility.yul\":7501:7507   */\n  dup3\n    /* \"#utility.yul\":7494:7536   */\n  sstore\n    /* \"#utility.yul\":7575:7576   */\n  0x01\n    /* \"#utility.yul\":7567:7573   */\n  dup3\n    /* \"#utility.yul\":7563:7577   */\n  add\n    /* \"#utility.yul\":7553:7577   */\n  swap2\n  pop\n    /* \"#utility.yul\":7622:7624   */\n  0x20\n    /* \"#utility.yul\":7611:7620   */\n  dup6\n    /* \"#utility.yul\":7607:7625   */\n  add\n    /* \"#utility.yul\":7594:7625   */\n  swap5\n  pop\n    /* \"#utility.yul\":7468:7472   */\n  0x20\n    /* \"#utility.yul\":7465:7466   */\n  dup2\n    /* \"#utility.yul\":7461:7473   */\n  add\n    /* \"#utility.yul\":7456:7473   */\n  swap1\n  pop\n    /* \"#utility.yul\":7431:7639   */\n  jump(tag_132)\ntag_134:\n    /* \"#utility.yul\":7667:7673   */\n  dup7\n    /* \"#utility.yul\":7658:7665   */\n  dup4\n    /* \"#utility.yul\":7655:7674   */\n  lt\n    /* \"#utility.yul\":7652:7831   */\n  iszero\n  tag_135\n  jumpi\n    /* \"#utility.yul\":7725:7734   */\n  dup5\n    /* \"#utility.yul\":7720:7723   */\n  dup10\n    /* \"#utility.yul\":7716:7735   */\n  add\n    /* \"#utility.yul\":7710:7736   */\n  mload\n    /* \"#utility.yul\":7768:7816   */\n  tag_136\n    /* \"#utility.yul\":7810:7814   */\n  0x1f\n    /* \"#utility.yul\":7802:7808   */\n  dup10\n    /* \"#utility.yul\":7798:7815   */\n  and\n    /* \"#utility.yul\":7787:7796   */\n  dup3\n    /* \"#utility.yul\":7768:7816   */\n  tag_39\n  jump\t// in\ntag_136:\n    /* \"#utility.yul\":7760:7766   */\n  dup4\n    /* \"#utility.yul\":7753:7817   */\n  sstore\n    /* \"#utility.yul\":7675:7831   */\n  pop\n    /* \"#utility.yul\":7652:7831   */\ntag_135:\n    /* \"#utility.yul\":7877:7878   */\n  0x01\n    /* \"#utility.yul\":7873:7874   */\n  0x02\n    /* \"#utility.yul\":7865:7871   */\n  dup9\n    /* \"#utility.yul\":7861:7875   */\n  mul\n    /* \"#utility.yul\":7857:7879   */\n  add\n    /* \"#utility.yul\":7851:7855   */\n  dup9\n    /* \"#utility.yul\":7844:7880   */\n  sstore\n    /* \"#utility.yul\":7279:7890   */\n  pop\n  pop\n  pop\n    /* \"#utility.yul\":7242:8129   */\ntag_127:\n  pop\n    /* \"#utility.yul\":6832:8135   */\n  pop\n  pop\n  pop\n    /* \"#utility.yul\":6740:8135   */\n  pop\n  pop\n  jump\t// out\n    /* \"contracts/PasswordManager.sol\":69:2590  contract BlockchainPassword {... */\ntag_8:\n  dataSize(sub_0)\n  dup1\n  dataOffset(sub_0)\n  0x00\n  codecopy\n  0x00\n  return\nstop\n\nsub_0: assembly {\n        /* \"contracts/PasswordManager.sol\":69:2590  contract BlockchainPassword {... */\n      mstore(0x40, 0x80)\n      callvalue\n      dup1\n      iszero\n      tag_1\n      jumpi\n      0x00\n      dup1\n      revert\n    tag_1:\n      pop\n      jumpi(tag_2, lt(calldatasize, 0x04))\n      shr(0xe0, calldataload(0x00))\n      dup1\n      0x41c0e1b5\n      gt\n      tag_10\n      jumpi\n      dup1\n      0x41c0e1b5\n      eq\n      tag_6\n      jumpi\n      dup1\n      0x893d20e8\n      eq\n      tag_7\n      jumpi\n      dup1\n      0xd1e831eb\n      eq\n      tag_8\n      jumpi\n      dup1\n      0xe04110b8\n      eq\n      tag_9\n      jumpi\n      jump(tag_2)\n    tag_10:\n      dup1\n      0x25c8203c\n      eq\n      tag_3\n      jumpi\n      dup1\n      0x2c588770\n      eq\n      tag_4\n      jumpi\n      dup1\n      0x3b0ab39a\n      eq\n      tag_5\n      jumpi\n    tag_2:\n      0x00\n      dup1\n      revert\n        /* \"contracts/PasswordManager.sol\":1422:1643  function getLogin(uint id) public view returns (string memory name, string memory username, string memory password) {... */\n    tag_3:\n      tag_11\n      0x04\n      dup1\n      calldatasize\n      sub\n      dup2\n      add\n      swap1\n      tag_12\n      swap2\n      swap1\n      tag_13\n      jump\t// in\n    tag_12:\n      tag_14\n      jump\t// in\n    tag_11:\n      mload(0x40)\n      tag_15\n      swap4\n      swap3\n      swap2\n      swap1\n      tag_16\n      jump\t// in\n    tag_15:\n      mload(0x40)\n      dup1\n      swap2\n      sub\n      swap1\n      return\n        /* \"contracts/PasswordManager.sol\":2311:2407  function getTestPhrase() public view returns (string memory phrase) {... */\n    tag_4:\n      tag_17\n      tag_18\n      jump\t// in\n    tag_17:\n      mload(0x40)\n      tag_19\n      swap2\n      swap1\n      tag_20\n      jump\t// in\n    tag_19:\n      mload(0x40)\n      dup1\n      swap2\n      sub\n      swap1\n      return\n        /* \"contracts/PasswordManager.sol\":467:786  function addLogin(string memory name, string memory username, string memory password) public returns (bool success) {... */\n    tag_5:\n      tag_21\n      0x04\n      dup1\n      calldatasize\n      sub\n      dup2\n      add\n      swap1\n      tag_22\n      swap2\n      swap1\n      tag_23\n      jump\t// in\n    tag_22:\n      tag_24\n      jump\t// in\n    tag_21:\n      mload(0x40)\n      tag_25\n      swap2\n      swap1\n      tag_26\n      jump\t// in\n    tag_25:\n      mload(0x40)\n      dup1\n      swap2\n      sub\n      swap1\n      return\n        /* \"contracts/PasswordManager.sol\":2501:2588  function kill() public {... */\n    tag_6:\n      tag_27\n      tag_28\n      jump\t// in\n    tag_27:\n      stop\n        /* \"contracts/PasswordManager.sol\":2411:2497  function getOwner() public view returns (address ownerAddress) {... */\n    tag_7:\n      tag_29\n      tag_30\n      jump\t// in\n    tag_29:\n      mload(0x40)\n      tag_31\n      swap2\n      swap1\n      tag_32\n      jump\t// in\n    tag_31:\n      mload(0x40)\n      dup1\n      swap2\n      sub\n      swap1\n      return\n        /* \"contracts/PasswordManager.sol\":1647:2307  function getLogins() public view returns (string memory allLogins) {... */\n    tag_8:\n      tag_33\n      tag_34\n      jump\t// in\n    tag_33:\n      mload(0x40)\n      tag_35\n      swap2\n      swap1\n      tag_20\n      jump\t// in\n    tag_35:\n      mload(0x40)\n      dup1\n      swap2\n      sub\n      swap1\n      return\n        /* \"contracts/PasswordManager.sol\":790:1418  function setLogin(uint index, string memory name, string memory username, string memory password) public returns (bool success) {... */\n    tag_9:\n      tag_36\n      0x04\n      dup1\n      calldatasize\n      sub\n      dup2\n      add\n      swap1\n      tag_37\n      swap2\n      swap1\n      tag_38\n      jump\t// in\n    tag_37:\n      tag_39\n      jump\t// in\n    tag_36:\n      mload(0x40)\n      tag_40\n      swap2\n      swap1\n      tag_26\n      jump\t// in\n    tag_40:\n      mload(0x40)\n      dup1\n      swap2\n      sub\n      swap1\n      return\n        /* \"contracts/PasswordManager.sol\":1422:1643  function getLogin(uint id) public view returns (string memory name, string memory username, string memory password) {... */\n    tag_14:\n        /* \"contracts/PasswordManager.sol\":1470:1488  string memory name */\n      0x60\n        /* \"contracts/PasswordManager.sol\":1490:1512  string memory username */\n      dup1\n        /* \"contracts/PasswordManager.sol\":1514:1536  string memory password */\n      0x60\n        /* \"contracts/PasswordManager.sol\":1551:1557  logins */\n      0x02\n        /* \"contracts/PasswordManager.sol\":1551:1561  logins[id] */\n      0x00\n        /* \"contracts/PasswordManager.sol\":1558:1560  id */\n      dup6\n        /* \"contracts/PasswordManager.sol\":1551:1561  logins[id] */\n      dup2\n      mstore\n      0x20\n      add\n      swap1\n      dup2\n      mstore\n      0x20\n      add\n      0x00\n      keccak256\n        /* \"contracts/PasswordManager.sol\":1551:1566  logins[id].name */\n      0x00\n      add\n        /* \"contracts/PasswordManager.sol\":1544:1566  name = logins[id].name */\n      dup1\n      sload\n      tag_42\n      swap1\n      tag_43\n      jump\t// in\n    tag_42:\n      dup1\n      0x1f\n      add\n      0x20\n      dup1\n      swap2\n      div\n      mul\n      0x20\n      add\n      mload(0x40)\n      swap1\n      dup2\n      add\n      0x40\n      mstore\n      dup1\n      swap3\n      swap2\n      swap1\n      dup2\n      dup2\n      mstore\n      0x20\n      add\n      dup3\n      dup1\n      sload\n      tag_44\n      swap1\n      tag_43\n      jump\t// in\n    tag_44:\n      dup1\n      iszero\n      tag_45\n      jumpi\n      dup1\n      0x1f\n      lt\n      tag_46\n      jumpi\n      0x0100\n      dup1\n      dup4\n      sload\n      div\n      mul\n      dup4\n      mstore\n      swap2\n      0x20\n      add\n      swap2\n      jump(tag_45)\n    tag_46:\n      dup3\n      add\n      swap2\n      swap1\n      0x00\n      mstore\n      keccak256(0x00, 0x20)\n      swap1\n    tag_47:\n      dup2\n      sload\n      dup2\n      mstore\n      swap1\n      0x01\n      add\n      swap1\n      0x20\n      add\n      dup1\n      dup4\n      gt\n      tag_47\n      jumpi\n      dup3\n      swap1\n      sub\n      0x1f\n      and\n      dup3\n      add\n      swap2\n    tag_45:\n      pop\n      pop\n      pop\n      pop\n      pop\n      swap3\n      pop\n        /* \"contracts/PasswordManager.sol\":1583:1589  logins */\n      0x02\n        /* \"contracts/PasswordManager.sol\":1583:1593  logins[id] */\n      0x00\n        /* \"contracts/PasswordManager.sol\":1590:1592  id */\n      dup6\n        /* \"contracts/PasswordManager.sol\":1583:1593  logins[id] */\n      dup2\n      mstore\n      0x20\n      add\n      swap1\n      dup2\n      mstore\n      0x20\n      add\n      0x00\n      keccak256\n        /* \"contracts/PasswordManager.sol\":1583:1602  logins[id].username */\n      0x01\n      add\n        /* \"contracts/PasswordManager.sol\":1572:1602  username = logins[id].username */\n      dup1\n      sload\n      tag_48\n      swap1\n      tag_43\n      jump\t// in\n    tag_48:\n      dup1\n      0x1f\n      add\n      0x20\n      dup1\n      swap2\n      div\n      mul\n      0x20\n      add\n      mload(0x40)\n      swap1\n      dup2\n      add\n      0x40\n      mstore\n      dup1\n      swap3\n      swap2\n      swap1\n      dup2\n      dup2\n      mstore\n      0x20\n      add\n      dup3\n      dup1\n      sload\n      tag_49\n      swap1\n      tag_43\n      jump\t// in\n    tag_49:\n      dup1\n      iszero\n      tag_50\n      jumpi\n      dup1\n      0x1f\n      lt\n      tag_51\n      jumpi\n      0x0100\n      dup1\n      dup4\n      sload\n      div\n      mul\n      dup4\n      mstore\n      swap2\n      0x20\n      add\n      swap2\n      jump(tag_50)\n    tag_51:\n      dup3\n      add\n      swap2\n      swap1\n      0x00\n      mstore\n      keccak256(0x00, 0x20)\n      swap1\n    tag_52:\n      dup2\n      sload\n      dup2\n      mstore\n      swap1\n      0x01\n      add\n      swap1\n      0x20\n      add\n      dup1\n      dup4\n      gt\n      tag_52\n      jumpi\n      dup3\n      swap1\n      sub\n      0x1f\n      and\n      dup3\n      add\n      swap2\n    tag_50:\n      pop\n      pop\n      pop\n      pop\n      pop\n      swap2\n      pop\n        /* \"contracts/PasswordManager.sol\":1619:1625  logins */\n      0x02\n        /* \"contracts/PasswordManager.sol\":1619:1629  logins[id] */\n      0x00\n        /* \"contracts/PasswordManager.sol\":1626:1628  id */\n      dup6\n        /* \"contracts/PasswordManager.sol\":1619:1629  logins[id] */\n      dup2\n      mstore\n      0x20\n      add\n      swap1\n      dup2\n      mstore\n      0x20\n      add\n      0x00\n      keccak256\n        /* \"contracts/PasswordManager.sol\":1619:1638  logins[id].password */\n      0x02\n      add\n        /* \"contracts/PasswordManager.sol\":1608:1638  password = logins[id].password */\n      dup1\n      sload\n      tag_53\n      swap1\n      tag_43\n      jump\t// in\n    tag_53:\n      dup1\n      0x1f\n      add\n      0x20\n      dup1\n      swap2\n      div\n      mul\n      0x20\n      add\n      mload(0x40)\n      swap1\n      dup2\n      add\n      0x40\n      mstore\n      dup1\n      swap3\n      swap2\n      swap1\n      dup2\n      dup2\n      mstore\n      0x20\n      add\n      dup3\n      dup1\n      sload\n      tag_54\n      swap1\n      tag_43\n      jump\t// in\n    tag_54:\n      dup1\n      iszero\n      tag_55\n      jumpi\n      dup1\n      0x1f\n      lt\n      tag_56\n      jumpi\n      0x0100\n      dup1\n      dup4\n      sload\n      div\n      mul\n      dup4\n      mstore\n      swap2\n      0x20\n      add\n      swap2\n      jump(tag_55)\n    tag_56:\n      dup3\n      add\n      swap2\n      swap1\n      0x00\n      mstore\n      keccak256(0x00, 0x20)\n      swap1\n    tag_57:\n      dup2\n      sload\n      dup2\n      mstore\n      swap1\n      0x01\n      add\n      swap1\n      0x20\n      add\n      dup1\n      dup4\n      gt\n      tag_57\n      jumpi\n      dup3\n      swap1\n      sub\n      0x1f\n      and\n      dup3\n      add\n      swap2\n    tag_55:\n      pop\n      pop\n      pop\n      pop\n      pop\n      swap1\n      pop\n        /* \"contracts/PasswordManager.sol\":1422:1643  function getLogin(uint id) public view returns (string memory name, string memory username, string memory password) {... */\n      swap2\n      swap4\n      swap1\n      swap3\n      pop\n      jump\t// out\n        /* \"contracts/PasswordManager.sol\":2311:2407  function getTestPhrase() public view returns (string memory phrase) {... */\n    tag_18:\n        /* \"contracts/PasswordManager.sol\":2357:2377  string memory phrase */\n      0x60\n        /* \"contracts/PasswordManager.sol\":2392:2402  testPhrase */\n      0x01\n        /* \"contracts/PasswordManager.sol\":2385:2402  return testPhrase */\n      dup1\n      sload\n      tag_59\n      swap1\n      tag_43\n      jump\t// in\n    tag_59:\n      dup1\n      0x1f\n      add\n      0x20\n      dup1\n      swap2\n      div\n      mul\n      0x20\n      add\n      mload(0x40)\n      swap1\n      dup2\n      add\n      0x40\n      mstore\n      dup1\n      swap3\n      swap2\n      swap1\n      dup2\n      dup2\n      mstore\n      0x20\n      add\n      dup3\n      dup1\n      sload\n      tag_60\n      swap1\n      tag_43\n      jump\t// in\n    tag_60:\n      dup1\n      iszero\n      tag_61\n      jumpi\n      dup1\n      0x1f\n      lt\n      tag_62\n      jumpi\n      0x0100\n      dup1\n      dup4\n      sload\n      div\n      mul\n      dup4\n      mstore\n      swap2\n      0x20\n      add\n      swap2\n      jump(tag_61)\n    tag_62:\n      dup3\n      add\n      swap2\n      swap1\n      0x00\n      mstore\n      keccak256(0x00, 0x20)\n      swap1\n    tag_63:\n      dup2\n      sload\n      dup2\n      mstore\n      swap1\n      0x01\n      add\n      swap1\n      0x20\n      add\n      dup1\n      dup4\n      gt\n      tag_63\n      jumpi\n      dup3\n      swap1\n      sub\n      0x1f\n      and\n      dup3\n      add\n      swap2\n    tag_61:\n      pop\n      pop\n      pop\n      pop\n      pop\n      swap1\n      pop\n        /* \"contracts/PasswordManager.sol\":2311:2407  function getTestPhrase() public view returns (string memory phrase) {... */\n      swap1\n      jump\t// out\n        /* \"contracts/PasswordManager.sol\":467:786  function addLogin(string memory name, string memory username, string memory password) public returns (bool success) {... */\n    tag_24:\n        /* \"contracts/PasswordManager.sol\":569:581  bool success */\n      0x00\n        /* \"contracts/PasswordManager.sol\":607:612  owner */\n      dup1\n      0x00\n      swap1\n      sload\n      swap1\n      0x0100\n      exp\n      swap1\n      div\n      0xffffffffffffffffffffffffffffffffffffffff\n      and\n        /* \"contracts/PasswordManager.sol\":593:612  msg.sender != owner */\n      0xffffffffffffffffffffffffffffffffffffffff\n      and\n        /* \"contracts/PasswordManager.sol\":593:603  msg.sender */\n      caller\n        /* \"contracts/PasswordManager.sol\":593:612  msg.sender != owner */\n      0xffffffffffffffffffffffffffffffffffffffff\n      and\n      eq\n        /* \"contracts/PasswordManager.sol\":589:626  if (msg.sender != owner) return false */\n      tag_65\n      jumpi\n        /* \"contracts/PasswordManager.sol\":621:626  false */\n      0x00\n        /* \"contracts/PasswordManager.sol\":614:626  return false */\n      swap1\n      pop\n      jump(tag_64)\n        /* \"contracts/PasswordManager.sol\":589:626  if (msg.sender != owner) return false */\n    tag_65:\n        /* \"contracts/PasswordManager.sol\":657:661  name */\n      dup4\n        /* \"contracts/PasswordManager.sol\":632:638  logins */\n      0x02\n        /* \"contracts/PasswordManager.sol\":632:649  logins[numLogins] */\n      0x00\n        /* \"contracts/PasswordManager.sol\":639:648  numLogins */\n      sload(0x03)\n        /* \"contracts/PasswordManager.sol\":632:649  logins[numLogins] */\n      dup2\n      mstore\n      0x20\n      add\n      swap1\n      dup2\n      mstore\n      0x20\n      add\n      0x00\n      keccak256\n        /* \"contracts/PasswordManager.sol\":632:654  logins[numLogins].name */\n      0x00\n      add\n        /* \"contracts/PasswordManager.sol\":632:661  logins[numLogins].name = name */\n      swap1\n      dup2\n      tag_66\n      swap2\n      swap1\n      tag_67\n      jump\t// in\n    tag_66:\n      pop\n        /* \"contracts/PasswordManager.sol\":696:704  username */\n      dup3\n        /* \"contracts/PasswordManager.sol\":667:673  logins */\n      0x02\n        /* \"contracts/PasswordManager.sol\":667:684  logins[numLogins] */\n      0x00\n        /* \"contracts/PasswordManager.sol\":674:683  numLogins */\n      sload(0x03)\n        /* \"contracts/PasswordManager.sol\":667:684  logins[numLogins] */\n      dup2\n      mstore\n      0x20\n      add\n      swap1\n      dup2\n      mstore\n      0x20\n      add\n      0x00\n      keccak256\n        /* \"contracts/PasswordManager.sol\":667:693  logins[numLogins].username */\n      0x01\n      add\n        /* \"contracts/PasswordManager.sol\":667:704  logins[numLogins].username = username */\n      swap1\n      dup2\n      tag_68\n      swap2\n      swap1\n      tag_67\n      jump\t// in\n    tag_68:\n      pop\n        /* \"contracts/PasswordManager.sol\":739:747  password */\n      dup2\n        /* \"contracts/PasswordManager.sol\":710:716  logins */\n      0x02\n        /* \"contracts/PasswordManager.sol\":710:727  logins[numLogins] */\n      0x00\n        /* \"contracts/PasswordManager.sol\":717:726  numLogins */\n      sload(0x03)\n        /* \"contracts/PasswordManager.sol\":710:727  logins[numLogins] */\n      dup2\n      mstore\n      0x20\n      add\n      swap1\n      dup2\n      mstore\n      0x20\n      add\n      0x00\n      keccak256\n        /* \"contracts/PasswordManager.sol\":710:736  logins[numLogins].password */\n      0x02\n      add\n        /* \"contracts/PasswordManager.sol\":710:747  logins[numLogins].password = password */\n      swap1\n      dup2\n      tag_69\n      swap2\n      swap1\n      tag_67\n      jump\t// in\n    tag_69:\n      pop\n        /* \"contracts/PasswordManager.sol\":753:762  numLogins */\n      0x03\n      0x00\n        /* \"contracts/PasswordManager.sol\":753:764  numLogins++ */\n      dup2\n      sload\n      dup1\n      swap3\n      swap2\n      swap1\n      tag_70\n      swap1\n      tag_71\n      jump\t// in\n    tag_70:\n      swap2\n      swap1\n      pop\n      sstore\n      pop\n        /* \"contracts/PasswordManager.sol\":777:781  true */\n      0x01\n        /* \"contracts/PasswordManager.sol\":770:781  return true */\n      swap1\n      pop\n        /* \"contracts/PasswordManager.sol\":467:786  function addLogin(string memory name, string memory username, string memory password) public returns (bool success) {... */\n    tag_64:\n      swap4\n      swap3\n      pop\n      pop\n      pop\n      jump\t// out\n        /* \"contracts/PasswordManager.sol\":2501:2588  function kill() public {... */\n    tag_28:\n        /* \"contracts/PasswordManager.sol\":2548:2553  owner */\n      0x00\n      dup1\n      sload\n      swap1\n      0x0100\n      exp\n      swap1\n      div\n      0xffffffffffffffffffffffffffffffffffffffff\n      and\n        /* \"contracts/PasswordManager.sol\":2534:2553  msg.sender == owner */\n      0xffffffffffffffffffffffffffffffffffffffff\n      and\n        /* \"contracts/PasswordManager.sol\":2534:2544  msg.sender */\n      caller\n        /* \"contracts/PasswordManager.sol\":2534:2553  msg.sender == owner */\n      0xffffffffffffffffffffffffffffffffffffffff\n      and\n      sub\n        /* \"contracts/PasswordManager.sol\":2530:2583  if (msg.sender == owner) selfdestruct(payable(owner)) */\n      tag_73\n      jumpi\n        /* \"contracts/PasswordManager.sol\":2576:2581  owner */\n      0x00\n      dup1\n      sload\n      swap1\n      0x0100\n      exp\n      swap1\n      div\n      0xffffffffffffffffffffffffffffffffffffffff\n      and\n        /* \"contracts/PasswordManager.sol\":2555:2583  selfdestruct(payable(owner)) */\n      0xffffffffffffffffffffffffffffffffffffffff\n      and\n      selfdestruct\n        /* \"contracts/PasswordManager.sol\":2530:2583  if (msg.sender == owner) selfdestruct(payable(owner)) */\n    tag_73:\n        /* \"contracts/PasswordManager.sol\":2501:2588  function kill() public {... */\n      jump\t// out\n        /* \"contracts/PasswordManager.sol\":2411:2497  function getOwner() public view returns (address ownerAddress) {... */\n    tag_30:\n        /* \"contracts/PasswordManager.sol\":2452:2472  address ownerAddress */\n      0x00\n        /* \"contracts/PasswordManager.sol\":2487:2492  owner */\n      dup1\n      0x00\n      swap1\n      sload\n      swap1\n      0x0100\n      exp\n      swap1\n      div\n      0xffffffffffffffffffffffffffffffffffffffff\n      and\n        /* \"contracts/PasswordManager.sol\":2480:2492  return owner */\n      swap1\n      pop\n        /* \"contracts/PasswordManager.sol\":2411:2497  function getOwner() public view returns (address ownerAddress) {... */\n      swap1\n      jump\t// out\n        /* \"contracts/PasswordManager.sol\":1647:2307  function getLogins() public view returns (string memory allLogins) {... */\n    tag_34:\n        /* \"contracts/PasswordManager.sol\":1689:1712  string memory allLogins */\n      0x60\n        /* \"contracts/PasswordManager.sol\":1737:1738  0 */\n      0x00\n        /* \"contracts/PasswordManager.sol\":1724:1733  numLogins */\n      sload(0x03)\n        /* \"contracts/PasswordManager.sol\":1724:1738  numLogins == 0 */\n      sub\n        /* \"contracts/PasswordManager.sol\":1720:1749  if (numLogins == 0) return '' */\n      tag_76\n      jumpi\n        /* \"contracts/PasswordManager.sol\":1740:1749  return '' */\n      mload(0x40)\n      dup1\n      0x20\n      add\n      0x40\n      mstore\n      dup1\n      0x00\n      dup2\n      mstore\n      pop\n      swap1\n      pop\n      jump(tag_75)\n        /* \"contracts/PasswordManager.sol\":1720:1749  if (numLogins == 0) return '' */\n    tag_76:\n        /* \"contracts/PasswordManager.sol\":1756:1772  uint totalLength */\n      0x00\n        /* \"contracts/PasswordManager.sol\":1787:1793  uint i */\n      dup1\n        /* \"contracts/PasswordManager.sol\":1782:1894  for (uint i = 0; i < numLogins; i++) {... */\n    tag_77:\n        /* \"contracts/PasswordManager.sol\":1803:1812  numLogins */\n      sload(0x03)\n        /* \"contracts/PasswordManager.sol\":1799:1800  i */\n      dup2\n        /* \"contracts/PasswordManager.sol\":1799:1812  i < numLogins */\n      lt\n        /* \"contracts/PasswordManager.sol\":1782:1894  for (uint i = 0; i < numLogins; i++) {... */\n      iszero\n      tag_78\n      jumpi\n        /* \"contracts/PasswordManager.sol\":1886:1887  1 */\n      0x01\n        /* \"contracts/PasswordManager.sol\":1861:1867  logins */\n      0x02\n        /* \"contracts/PasswordManager.sol\":1861:1870  logins[i] */\n      0x00\n        /* \"contracts/PasswordManager.sol\":1868:1869  i */\n      dup4\n        /* \"contracts/PasswordManager.sol\":1861:1870  logins[i] */\n      dup2\n      mstore\n      0x20\n      add\n      swap1\n      dup2\n      mstore\n      0x20\n      add\n      0x00\n      keccak256\n        /* \"contracts/PasswordManager.sol\":1861:1875  logins[i].name */\n      0x00\n      add\n        /* \"contracts/PasswordManager.sol\":1855:1883  bytes(logins[i].name).length */\n      dup1\n      sload\n      tag_80\n      swap1\n      tag_43\n      jump\t// in\n    tag_80:\n      swap1\n      pop\n        /* \"contracts/PasswordManager.sol\":1841:1852  totalLength */\n      dup4\n        /* \"contracts/PasswordManager.sol\":1841:1883  totalLength + bytes(logins[i].name).length */\n      tag_81\n      swap2\n      swap1\n      tag_82\n      jump\t// in\n    tag_81:\n        /* \"contracts/PasswordManager.sol\":1841:1887  totalLength + bytes(logins[i].name).length + 1 */\n      tag_83\n      swap2\n      swap1\n      tag_82\n      jump\t// in\n    tag_83:\n        /* \"contracts/PasswordManager.sol\":1827:1887  totalLength = totalLength + bytes(logins[i].name).length + 1 */\n      swap2\n      pop\n        /* \"contracts/PasswordManager.sol\":1814:1817  i++ */\n      dup1\n      dup1\n      0x01\n      add\n      swap2\n      pop\n      pop\n        /* \"contracts/PasswordManager.sol\":1782:1894  for (uint i = 0; i < numLogins; i++) {... */\n      jump(tag_77)\n    tag_78:\n      pop\n        /* \"contracts/PasswordManager.sol\":1900:1919  bytes memory result */\n      0x00\n        /* \"contracts/PasswordManager.sol\":1932:1943  totalLength */\n      dup2\n        /* \"contracts/PasswordManager.sol\":1922:1944  new bytes(totalLength) */\n      0xffffffffffffffff\n      dup2\n      gt\n      iszero\n      tag_84\n      jumpi\n      tag_85\n      tag_86\n      jump\t// in\n    tag_85:\n    tag_84:\n      mload(0x40)\n      swap1\n      dup1\n      dup3\n      mstore\n      dup1\n      0x1f\n      add\n      not(0x1f)\n      and\n      0x20\n      add\n      dup3\n      add\n      0x40\n      mstore\n      dup1\n      iszero\n      tag_87\n      jumpi\n      dup2\n      0x20\n      add\n      0x01\n      dup3\n      mul\n      dup1\n      calldatasize\n      dup4\n      calldatacopy\n      dup1\n      dup3\n      add\n      swap2\n      pop\n      pop\n      swap1\n      pop\n    tag_87:\n      pop\n        /* \"contracts/PasswordManager.sol\":1900:1944  bytes memory result = new bytes(totalLength) */\n      swap1\n      pop\n        /* \"contracts/PasswordManager.sol\":1950:1962  uint counter */\n      0x00\n        /* \"contracts/PasswordManager.sol\":1977:1983  uint i */\n      dup1\n        /* \"contracts/PasswordManager.sol\":1972:2275  for (uint i = 0; i < numLogins; i++) {... */\n    tag_88:\n        /* \"contracts/PasswordManager.sol\":1993:2002  numLogins */\n      sload(0x03)\n        /* \"contracts/PasswordManager.sol\":1989:1990  i */\n      dup2\n        /* \"contracts/PasswordManager.sol\":1989:2002  i < numLogins */\n      lt\n        /* \"contracts/PasswordManager.sol\":1972:2275  for (uint i = 0; i < numLogins; i++) {... */\n      iszero\n      tag_89\n      jumpi\n        /* \"contracts/PasswordManager.sol\":2017:2034  bytes memory name */\n      0x00\n        /* \"contracts/PasswordManager.sol\":2043:2049  logins */\n      0x02\n        /* \"contracts/PasswordManager.sol\":2043:2052  logins[i] */\n      0x00\n        /* \"contracts/PasswordManager.sol\":2050:2051  i */\n      dup4\n        /* \"contracts/PasswordManager.sol\":2043:2052  logins[i] */\n      dup2\n      mstore\n      0x20\n      add\n      swap1\n      dup2\n      mstore\n      0x20\n      add\n      0x00\n      keccak256\n        /* \"contracts/PasswordManager.sol\":2043:2057  logins[i].name */\n      0x00\n      add\n        /* \"contracts/PasswordManager.sol\":2017:2058  bytes memory name = bytes(logins[i].name) */\n      dup1\n      sload\n      tag_91\n      swap1\n      tag_43\n      jump\t// in\n    tag_91:\n      dup1\n      0x1f\n      add\n      0x20\n      dup1\n      swap2\n      div\n      mul\n      0x20\n      add\n      mload(0x40)\n      swap1\n      dup2\n      add\n      0x40\n      mstore\n      dup1\n      swap3\n      swap2\n      swap1\n      dup2\n      dup2\n      mstore\n      0x20\n      add\n      dup3\n      dup1\n      sload\n      tag_92\n      swap1\n      tag_43\n      jump\t// in\n    tag_92:\n      dup1\n      iszero\n      tag_93\n      jumpi\n      dup1\n      0x1f\n      lt\n      tag_94\n      jumpi\n      0x0100\n      dup1\n      dup4\n      sload\n      div\n      mul\n      dup4\n      mstore\n      swap2\n      0x20\n      add\n      swap2\n      jump(tag_93)\n    tag_94:\n      dup3\n      add\n      swap2\n      swap1\n      0x00\n      mstore\n      keccak256(0x00, 0x20)\n      swap1\n    tag_95:\n      dup2\n      sload\n      dup2\n      mstore\n      swap1\n      0x01\n      add\n      swap1\n      0x20\n      add\n      dup1\n      dup4\n      gt\n      tag_95\n      jumpi\n      dup3\n      swap1\n      sub\n      0x1f\n      and\n      dup3\n      add\n      swap2\n    tag_93:\n      pop\n      pop\n      pop\n      pop\n      pop\n      swap1\n      pop\n        /* \"contracts/PasswordManager.sol\":2071:2077  uint x */\n      0x00\n        /* \"contracts/PasswordManager.sol\":2066:2168  for (uint x = 0; x < name.length; x++) {... */\n    tag_96:\n        /* \"contracts/PasswordManager.sol\":2087:2091  name */\n      dup2\n        /* \"contracts/PasswordManager.sol\":2087:2098  name.length */\n      mload\n        /* \"contracts/PasswordManager.sol\":2083:2084  x */\n      dup2\n        /* \"contracts/PasswordManager.sol\":2083:2098  x < name.length */\n      lt\n        /* \"contracts/PasswordManager.sol\":2066:2168  for (uint x = 0; x < name.length; x++) {... */\n      iszero\n      tag_97\n      jumpi\n        /* \"contracts/PasswordManager.sol\":2133:2137  name */\n      dup2\n        /* \"contracts/PasswordManager.sol\":2138:2139  x */\n      dup2\n        /* \"contracts/PasswordManager.sol\":2133:2140  name[x] */\n      dup2\n      mload\n      dup2\n      lt\n      tag_99\n      jumpi\n      tag_100\n      tag_101\n      jump\t// in\n    tag_100:\n    tag_99:\n      0x20\n      add\n      add\n      mload\n      0xf8\n      shr\n      0xf8\n      shl\n        /* \"contracts/PasswordManager.sol\":2115:2121  result */\n      dup6\n        /* \"contracts/PasswordManager.sol\":2122:2129  counter */\n      dup6\n        /* \"contracts/PasswordManager.sol\":2115:2130  result[counter] */\n      dup2\n      mload\n      dup2\n      lt\n      tag_102\n      jumpi\n      tag_103\n      tag_101\n      jump\t// in\n    tag_103:\n    tag_102:\n      0x20\n      add\n      add\n        /* \"contracts/PasswordManager.sol\":2115:2140  result[counter] = name[x] */\n      swap1\n      not(0xffffffffffffffffffffffffffffffffffffffffffffffffffffffffffffff)\n      and\n      swap1\n      dup2\n      0x00\n      byte\n      swap1\n      mstore8\n      pop\n        /* \"contracts/PasswordManager.sol\":2150:2159  counter++ */\n      dup4\n      dup1\n      tag_104\n      swap1\n      tag_71\n      jump\t// in\n    tag_104:\n      swap5\n      pop\n      pop\n        /* \"contracts/PasswordManager.sol\":2100:2103  x++ */\n      dup1\n      dup1\n      0x01\n      add\n      swap2\n      pop\n      pop\n        /* \"contracts/PasswordManager.sol\":2066:2168  for (uint x = 0; x < name.length; x++) {... */\n      jump(tag_96)\n    tag_97:\n      pop\n        /* \"contracts/PasswordManager.sol\":2198:2199  1 */\n      0x01\n        /* \"contracts/PasswordManager.sol\":2186:2195  numLogins */\n      sload(0x03)\n        /* \"contracts/PasswordManager.sol\":2186:2199  numLogins - 1 */\n      tag_105\n      swap2\n      swap1\n      tag_106\n      jump\t// in\n    tag_105:\n        /* \"contracts/PasswordManager.sol\":2180:2181  i */\n      dup3\n        /* \"contracts/PasswordManager.sol\":2180:2200  i != (numLogins - 1) */\n      eq\n        /* \"contracts/PasswordManager.sol\":2176:2269  if (i != (numLogins - 1)) {... */\n      tag_107\n      jumpi\n        /* \"contracts/PasswordManager.sol\":2230:2241  bytes1(',') */\n      0x2c00000000000000000000000000000000000000000000000000000000000000\n        /* \"contracts/PasswordManager.sol\":2212:2218  result */\n      dup5\n        /* \"contracts/PasswordManager.sol\":2219:2226  counter */\n      dup5\n        /* \"contracts/PasswordManager.sol\":2212:2227  result[counter] */\n      dup2\n      mload\n      dup2\n      lt\n      tag_108\n      jumpi\n      tag_109\n      tag_101\n      jump\t// in\n    tag_109:\n    tag_108:\n      0x20\n      add\n      add\n        /* \"contracts/PasswordManager.sol\":2212:2241  result[counter] = bytes1(',') */\n      swap1\n      not(0xffffffffffffffffffffffffffffffffffffffffffffffffffffffffffffff)\n      and\n      swap1\n      dup2\n      0x00\n      byte\n      swap1\n      mstore8\n      pop\n        /* \"contracts/PasswordManager.sol\":2251:2260  counter++ */\n      dup3\n      dup1\n      tag_110\n      swap1\n      tag_71\n      jump\t// in\n    tag_110:\n      swap4\n      pop\n      pop\n        /* \"contracts/PasswordManager.sol\":2176:2269  if (i != (numLogins - 1)) {... */\n    tag_107:\n        /* \"contracts/PasswordManager.sol\":2009:2275  {... */\n      pop\n        /* \"contracts/PasswordManager.sol\":2004:2007  i++ */\n      dup1\n      dup1\n      0x01\n      add\n      swap2\n      pop\n      pop\n        /* \"contracts/PasswordManager.sol\":1972:2275  for (uint i = 0; i < numLogins; i++) {... */\n      jump(tag_88)\n    tag_89:\n      pop\n        /* \"contracts/PasswordManager.sol\":2295:2301  result */\n      dup2\n        /* \"contracts/PasswordManager.sol\":2281:2302  return string(result) */\n      swap4\n      pop\n      pop\n      pop\n      pop\n        /* \"contracts/PasswordManager.sol\":1647:2307  function getLogins() public view returns (string memory allLogins) {... */\n    tag_75:\n      swap1\n      jump\t// out\n        /* \"contracts/PasswordManager.sol\":790:1418  function setLogin(uint index, string memory name, string memory username, string memory password) public returns (bool success) {... */\n    tag_39:\n        /* \"contracts/PasswordManager.sol\":904:916  bool success */\n      0x00\n        /* \"contracts/PasswordManager.sol\":942:947  owner */\n      dup1\n      0x00\n      swap1\n      sload\n      swap1\n      0x0100\n      exp\n      swap1\n      div\n      0xffffffffffffffffffffffffffffffffffffffff\n      and\n        /* \"contracts/PasswordManager.sol\":928:947  msg.sender != owner */\n      0xffffffffffffffffffffffffffffffffffffffff\n      and\n        /* \"contracts/PasswordManager.sol\":928:938  msg.sender */\n      caller\n        /* \"contracts/PasswordManager.sol\":928:947  msg.sender != owner */\n      0xffffffffffffffffffffffffffffffffffffffff\n      and\n      eq\n        /* \"contracts/PasswordManager.sol\":924:961  if (msg.sender != owner) return false */\n      tag_112\n      jumpi\n        /* \"contracts/PasswordManager.sol\":956:961  false */\n      0x00\n        /* \"contracts/PasswordManager.sol\":949:961  return false */\n      swap1\n      pop\n      jump(tag_111)\n        /* \"contracts/PasswordManager.sol\":924:961  if (msg.sender != owner) return false */\n    tag_112:\n        /* \"contracts/PasswordManager.sol\":968:987  Login storage login */\n      0x00\n        /* \"contracts/PasswordManager.sol\":990:996  logins */\n      0x02\n        /* \"contracts/PasswordManager.sol\":990:1003  logins[index] */\n      0x00\n        /* \"contracts/PasswordManager.sol\":997:1002  index */\n      dup8\n        /* \"contracts/PasswordManager.sol\":990:1003  logins[index] */\n      dup2\n      mstore\n      0x20\n      add\n      swap1\n      dup2\n      mstore\n      0x20\n      add\n      0x00\n      keccak256\n        /* \"contracts/PasswordManager.sol\":968:1003  Login storage login = logins[index] */\n      swap1\n      pop\n        /* \"contracts/PasswordManager.sol\":1078:1083  login */\n      dup1\n        /* \"contracts/PasswordManager.sol\":1078:1088  login.name */\n      0x00\n      add\n        /* \"contracts/PasswordManager.sol\":1061:1089  abi.encodePacked(login.name) */\n      add(0x20, mload(0x40))\n      tag_113\n      swap2\n      swap1\n      tag_114\n      jump\t// in\n    tag_113:\n      mload(0x40)\n      0x20\n      dup2\n      dup4\n      sub\n      sub\n      dup2\n      mstore\n      swap1\n      0x40\n      mstore\n        /* \"contracts/PasswordManager.sol\":1051:1090  keccak256(abi.encodePacked(login.name)) */\n      dup1\n      mload\n      swap1\n      0x20\n      add\n      keccak256\n        /* \"contracts/PasswordManager.sol\":1041:1045  name */\n      dup6\n        /* \"contracts/PasswordManager.sol\":1024:1046  abi.encodePacked(name) */\n      add(0x20, mload(0x40))\n      tag_115\n      swap2\n      swap1\n      tag_116\n      jump\t// in\n    tag_115:\n      mload(0x40)\n      0x20\n      dup2\n      dup4\n      sub\n      sub\n      dup2\n      mstore\n      swap1\n      0x40\n      mstore\n        /* \"contracts/PasswordManager.sol\":1014:1047  keccak256(abi.encodePacked(name)) */\n      dup1\n      mload\n      swap1\n      0x20\n      add\n      keccak256\n        /* \"contracts/PasswordManager.sol\":1014:1090  keccak256(abi.encodePacked(name)) != keccak256(abi.encodePacked(login.name)) */\n      eq\n        /* \"contracts/PasswordManager.sol\":1010:1124  if (keccak256(abi.encodePacked(name)) != keccak256(abi.encodePacked(login.name))) {... */\n      tag_117\n      jumpi\n        /* \"contracts/PasswordManager.sol\":1113:1117  name */\n      dup5\n        /* \"contracts/PasswordManager.sol\":1100:1105  login */\n      dup2\n        /* \"contracts/PasswordManager.sol\":1100:1110  login.name */\n      0x00\n      add\n        /* \"contracts/PasswordManager.sol\":1100:1117  login.name = name */\n      swap1\n      dup2\n      tag_118\n      swap2\n      swap1\n      tag_67\n      jump\t// in\n    tag_118:\n      pop\n        /* \"contracts/PasswordManager.sol\":1010:1124  if (keccak256(abi.encodePacked(name)) != keccak256(abi.encodePacked(login.name))) {... */\n    tag_117:\n        /* \"contracts/PasswordManager.sol\":1202:1207  login */\n      dup1\n        /* \"contracts/PasswordManager.sol\":1202:1216  login.username */\n      0x01\n      add\n        /* \"contracts/PasswordManager.sol\":1185:1217  abi.encodePacked(login.username) */\n      add(0x20, mload(0x40))\n      tag_119\n      swap2\n      swap1\n      tag_114\n      jump\t// in\n    tag_119:\n      mload(0x40)\n      0x20\n      dup2\n      dup4\n      sub\n      sub\n      dup2\n      mstore\n      swap1\n      0x40\n      mstore\n        /* \"contracts/PasswordManager.sol\":1175:1218  keccak256(abi.encodePacked(login.username)) */\n      dup1\n      mload\n      swap1\n      0x20\n      add\n      keccak256\n        /* \"contracts/PasswordManager.sol\":1161:1169  username */\n      dup5\n        /* \"contracts/PasswordManager.sol\":1144:1170  abi.encodePacked(username) */\n      add(0x20, mload(0x40))\n      tag_120\n      swap2\n      swap1\n      tag_116\n      jump\t// in\n    tag_120:\n      mload(0x40)\n      0x20\n      dup2\n      dup4\n      sub\n      sub\n      dup2\n      mstore\n      swap1\n      0x40\n      mstore\n        /* \"contracts/PasswordManager.sol\":1134:1171  keccak256(abi.encodePacked(username)) */\n      dup1\n      mload\n      swap1\n      0x20\n      add\n      keccak256\n        /* \"contracts/PasswordManager.sol\":1134:1218  keccak256(abi.encodePacked(username)) != keccak256(abi.encodePacked(login.username)) */\n      eq\n        /* \"contracts/PasswordManager.sol\":1130:1260  if (keccak256(abi.encodePacked(username)) != keccak256(abi.encodePacked(login.username))) {... */\n      tag_121\n      jumpi\n        /* \"contracts/PasswordManager.sol\":1245:1253  username */\n      dup4\n        /* \"contracts/PasswordManager.sol\":1228:1233  login */\n      dup2\n        /* \"contracts/PasswordManager.sol\":1228:1242  login.username */\n      0x01\n      add\n        /* \"contracts/PasswordManager.sol\":1228:1253  login.username = username */\n      swap1\n      dup2\n      tag_122\n      swap2\n      swap1\n      tag_67\n      jump\t// in\n    tag_122:\n      pop\n        /* \"contracts/PasswordManager.sol\":1130:1260  if (keccak256(abi.encodePacked(username)) != keccak256(abi.encodePacked(login.username))) {... */\n    tag_121:\n        /* \"contracts/PasswordManager.sol\":1338:1343  login */\n      dup1\n        /* \"contracts/PasswordManager.sol\":1338:1352  login.password */\n      0x02\n      add\n        /* \"contracts/PasswordManager.sol\":1321:1353  abi.encodePacked(login.password) */\n      add(0x20, mload(0x40))\n      tag_123\n      swap2\n      swap1\n      tag_114\n      jump\t// in\n    tag_123:\n      mload(0x40)\n      0x20\n      dup2\n      dup4\n      sub\n      sub\n      dup2\n      mstore\n      swap1\n      0x40\n      mstore\n        /* \"contracts/PasswordManager.sol\":1311:1354  keccak256(abi.encodePacked(login.password)) */\n      dup1\n      mload\n      swap1\n      0x20\n      add\n      keccak256\n        /* \"contracts/PasswordManager.sol\":1297:1305  password */\n      dup4\n        /* \"contracts/PasswordManager.sol\":1280:1306  abi.encodePacked(password) */\n      add(0x20, mload(0x40))\n      tag_124\n      swap2\n      swap1\n      tag_116\n      jump\t// in\n    tag_124:\n      mload(0x40)\n      0x20\n      dup2\n      dup4\n      sub\n      sub\n      dup2\n      mstore\n      swap1\n      0x40\n      mstore\n        /* \"contracts/PasswordManager.sol\":1270:1307  keccak256(abi.encodePacked(password)) */\n      dup1\n      mload\n      swap1\n      0x20\n      add\n      keccak256\n        /* \"contracts/PasswordManager.sol\":1270:1354  keccak256(abi.encodePacked(password)) != keccak256(abi.encodePacked(login.password)) */\n      eq\n        /* \"contracts/PasswordManager.sol\":1266:1396  if (keccak256(abi.encodePacked(password)) != keccak256(abi.encodePacked(login.password))) {... */\n      tag_125\n      jumpi\n        /* \"contracts/PasswordManager.sol\":1381:1389  password */\n      dup3\n        /* \"contracts/PasswordManager.sol\":1364:1369  login */\n      dup2\n        /* \"contracts/PasswordManager.sol\":1364:1378  login.password */\n      0x02\n      add\n        /* \"contracts/PasswordManager.sol\":1364:1389  login.password = password */\n      swap1\n      dup2\n      tag_126\n      swap2\n      swap1\n      tag_67\n      jump\t// in\n    tag_126:\n      pop\n        /* \"contracts/PasswordManager.sol\":1266:1396  if (keccak256(abi.encodePacked(password)) != keccak256(abi.encodePacked(login.password))) {... */\n    tag_125:\n        /* \"contracts/PasswordManager.sol\":1409:1413  true */\n      0x01\n        /* \"contracts/PasswordManager.sol\":1402:1413  return true */\n      swap2\n      pop\n      pop\n        /* \"contracts/PasswordManager.sol\":790:1418  function setLogin(uint index, string memory name, string memory username, string memory password) public returns (bool success) {... */\n    tag_111:\n      swap5\n      swap4\n      pop\n      pop\n      pop\n      pop\n      jump\t// out\n        /* \"#utility.yul\":7:82   */\n    tag_127:\n        /* \"#utility.yul\":40:46   */\n      0x00\n        /* \"#utility.yul\":73:75   */\n      0x40\n        /* \"#utility.yul\":67:76   */\n      mload\n        /* \"#utility.yul\":57:76   */\n      swap1\n      pop\n        /* \"#utility.yul\":7:82   */\n      swap1\n      jump\t// out\n        /* \"#utility.yul\":88:205   */\n    tag_128:\n        /* \"#utility.yul\":197:198   */\n      0x00\n        /* \"#utility.yul\":194:195   */\n      dup1\n        /* \"#utility.yul\":187:199   */\n      revert\n        /* \"#utility.yul\":211:328   */\n    tag_129:\n        /* \"#utility.yul\":320:321   */\n      0x00\n        /* \"#utility.yul\":317:318   */\n      dup1\n        /* \"#utility.yul\":310:322   */\n      revert\n        /* \"#utility.yul\":334:411   */\n    tag_130:\n        /* \"#utility.yul\":371:378   */\n      0x00\n        /* \"#utility.yul\":400:405   */\n      dup2\n        /* \"#utility.yul\":389:405   */\n      swap1\n      pop\n        /* \"#utility.yul\":334:411   */\n      swap2\n      swap1\n      pop\n      jump\t// out\n        /* \"#utility.yul\":417:539   */\n    tag_131:\n        /* \"#utility.yul\":490:514   */\n      tag_177\n        /* \"#utility.yul\":508:513   */\n      dup2\n        /* \"#utility.yul\":490:514   */\n      tag_130\n      jump\t// in\n    tag_177:\n        /* \"#utility.yul\":483:488   */\n      dup2\n        /* \"#utility.yul\":480:515   */\n      eq\n        /* \"#utility.yul\":470:533   */\n      tag_178\n      jumpi\n        /* \"#utility.yul\":529:530   */\n      0x00\n        /* \"#utility.yul\":526:527   */\n      dup1\n        /* \"#utility.yul\":519:531   */\n      revert\n        /* \"#utility.yul\":470:533   */\n    tag_178:\n        /* \"#utility.yul\":417:539   */\n      pop\n      jump\t// out\n        /* \"#utility.yul\":545:684   */\n    tag_132:\n        /* \"#utility.yul\":591:596   */\n      0x00\n        /* \"#utility.yul\":629:635   */\n      dup2\n        /* \"#utility.yul\":616:636   */\n      calldataload\n        /* \"#utility.yul\":607:636   */\n      swap1\n      pop\n        /* \"#utility.yul\":645:678   */\n      tag_180\n        /* \"#utility.yul\":672:677   */\n      dup2\n        /* \"#utility.yul\":645:678   */\n      tag_131\n      jump\t// in\n    tag_180:\n        /* \"#utility.yul\":545:684   */\n      swap3\n      swap2\n      pop\n      pop\n      jump\t// out\n        /* \"#utility.yul\":690:1019   */\n    tag_13:\n        /* \"#utility.yul\":749:755   */\n      0x00\n        /* \"#utility.yul\":798:800   */\n      0x20\n        /* \"#utility.yul\":786:795   */\n      dup3\n        /* \"#utility.yul\":777:784   */\n      dup5\n        /* \"#utility.yul\":773:796   */\n      sub\n        /* \"#utility.yul\":769:801   */\n      slt\n        /* \"#utility.yul\":766:885   */\n      iszero\n      tag_182\n      jumpi\n        /* \"#utility.yul\":804:883   */\n      tag_183\n      tag_128\n      jump\t// in\n    tag_183:\n        /* \"#utility.yul\":766:885   */\n    tag_182:\n        /* \"#utility.yul\":924:925   */\n      0x00\n        /* \"#utility.yul\":949:1002   */\n      tag_184\n        /* \"#utility.yul\":994:1001   */\n      dup5\n        /* \"#utility.yul\":985:991   */\n      dup3\n        /* \"#utility.yul\":974:983   */\n      dup6\n        /* \"#utility.yul\":970:992   */\n      add\n        /* \"#utility.yul\":949:1002   */\n      tag_132\n      jump\t// in\n    tag_184:\n        /* \"#utility.yul\":939:1002   */\n      swap2\n      pop\n        /* \"#utility.yul\":895:1012   */\n      pop\n        /* \"#utility.yul\":690:1019   */\n      swap3\n      swap2\n      pop\n      pop\n      jump\t// out\n        /* \"#utility.yul\":1025:1124   */\n    tag_133:\n        /* \"#utility.yul\":1077:1083   */\n      0x00\n        /* \"#utility.yul\":1111:1116   */\n      dup2\n        /* \"#utility.yul\":1105:1117   */\n      mload\n        /* \"#utility.yul\":1095:1117   */\n      swap1\n      pop\n        /* \"#utility.yul\":1025:1124   */\n      swap2\n      swap1\n      pop\n      jump\t// out\n        /* \"#utility.yul\":1130:1299   */\n    tag_134:\n        /* \"#utility.yul\":1214:1225   */\n      0x00\n        /* \"#utility.yul\":1248:1254   */\n      dup3\n        /* \"#utility.yul\":1243:1246   */\n      dup3\n        /* \"#utility.yul\":1236:1255   */\n      mstore\n        /* \"#utility.yul\":1288:1292   */\n      0x20\n        /* \"#utility.yul\":1283:1286   */\n      dup3\n        /* \"#utility.yul\":1279:1293   */\n      add\n        /* \"#utility.yul\":1264:1293   */\n      swap1\n      pop\n        /* \"#utility.yul\":1130:1299   */\n      swap3\n      swap2\n      pop\n      pop\n      jump\t// out\n        /* \"#utility.yul\":1305:1444   */\n    tag_135:\n        /* \"#utility.yul\":1394:1400   */\n      dup3\n        /* \"#utility.yul\":1389:1392   */\n      dup2\n        /* \"#utility.yul\":1384:1387   */\n      dup4\n        /* \"#utility.yul\":1378:1401   */\n      mcopy\n        /* \"#utility.yul\":1435:1436   */\n      0x00\n        /* \"#utility.yul\":1426:1432   */\n      dup4\n        /* \"#utility.yul\":1421:1424   */\n      dup4\n        /* \"#utility.yul\":1417:1433   */\n      add\n        /* \"#utility.yul\":1410:1437   */\n      mstore\n        /* \"#utility.yul\":1305:1444   */\n      pop\n      pop\n      pop\n      jump\t// out\n        /* \"#utility.yul\":1450:1552   */\n    tag_136:\n        /* \"#utility.yul\":1491:1497   */\n      0x00\n        /* \"#utility.yul\":1542:1544   */\n      0x1f\n        /* \"#utility.yul\":1538:1545   */\n      not\n        /* \"#utility.yul\":1533:1535   */\n      0x1f\n        /* \"#utility.yul\":1526:1531   */\n      dup4\n        /* \"#utility.yul\":1522:1536   */\n      add\n        /* \"#utility.yul\":1518:1546   */\n      and\n        /* \"#utility.yul\":1508:1546   */\n      swap1\n      pop\n        /* \"#utility.yul\":1450:1552   */\n      swap2\n      swap1\n      pop\n      jump\t// out\n        /* \"#utility.yul\":1558:1935   */\n    tag_137:\n        /* \"#utility.yul\":1646:1649   */\n      0x00\n        /* \"#utility.yul\":1674:1713   */\n      tag_190\n        /* \"#utility.yul\":1707:1712   */\n      dup3\n        /* \"#utility.yul\":1674:1713   */\n      tag_133\n      jump\t// in\n    tag_190:\n        /* \"#utility.yul\":1729:1800   */\n      tag_191\n        /* \"#utility.yul\":1793:1799   */\n      dup2\n        /* \"#utility.yul\":1788:1791   */\n      dup6\n        /* \"#utility.yul\":1729:1800   */\n      tag_134\n      jump\t// in\n    tag_191:\n        /* \"#utility.yul\":1722:1800   */\n      swap4\n      pop\n        /* \"#utility.yul\":1809:1874   */\n      tag_192\n        /* \"#utility.yul\":1867:1873   */\n      dup2\n        /* \"#utility.yul\":1862:1865   */\n      dup6\n        /* \"#utility.yul\":1855:1859   */\n      0x20\n        /* \"#utility.yul\":1848:1853   */\n      dup7\n        /* \"#utility.yul\":1844:1860   */\n      add\n        /* \"#utility.yul\":1809:1874   */\n      tag_135\n      jump\t// in\n    tag_192:\n        /* \"#utility.yul\":1899:1928   */\n      tag_193\n        /* \"#utility.yul\":1921:1927   */\n      dup2\n        /* \"#utility.yul\":1899:1928   */\n      tag_136\n      jump\t// in\n    tag_193:\n        /* \"#utility.yul\":1894:1897   */\n      dup5\n        /* \"#utility.yul\":1890:1929   */\n      add\n        /* \"#utility.yul\":1883:1929   */\n      swap2\n      pop\n        /* \"#utility.yul\":1650:1935   */\n      pop\n        /* \"#utility.yul\":1558:1935   */\n      swap3\n      swap2\n      pop\n      pop\n      jump\t// out\n        /* \"#utility.yul\":1941:2656   */\n    tag_16:\n        /* \"#utility.yul\":2150:2154   */\n      0x00\n        /* \"#utility.yul\":2188:2190   */\n      0x60\n        /* \"#utility.yul\":2177:2186   */\n      dup3\n        /* \"#utility.yul\":2173:2191   */\n      add\n        /* \"#utility.yul\":2165:2191   */\n      swap1\n      pop\n        /* \"#utility.yul\":2237:2246   */\n      dup2\n        /* \"#utility.yul\":2231:2235   */\n      dup2\n        /* \"#utility.yul\":2227:2247   */\n      sub\n        /* \"#utility.yul\":2223:2224   */\n      0x00\n        /* \"#utility.yul\":2212:2221   */\n      dup4\n        /* \"#utility.yul\":2208:2225   */\n      add\n        /* \"#utility.yul\":2201:2248   */\n      mstore\n        /* \"#utility.yul\":2265:2343   */\n      tag_195\n        /* \"#utility.yul\":2338:2342   */\n      dup2\n        /* \"#utility.yul\":2329:2335   */\n      dup7\n        /* \"#utility.yul\":2265:2343   */\n      tag_137\n      jump\t// in\n    tag_195:\n        /* \"#utility.yul\":2257:2343   */\n      swap1\n      pop\n        /* \"#utility.yul\":2390:2399   */\n      dup2\n        /* \"#utility.yul\":2384:2388   */\n      dup2\n        /* \"#utility.yul\":2380:2400   */\n      sub\n        /* \"#utility.yul\":2375:2377   */\n      0x20\n        /* \"#utility.yul\":2364:2373   */\n      dup4\n        /* \"#utility.yul\":2360:2378   */\n      add\n        /* \"#utility.yul\":2353:2401   */\n      mstore\n        /* \"#utility.yul\":2418:2496   */\n      tag_196\n        /* \"#utility.yul\":2491:2495   */\n      dup2\n        /* \"#utility.yul\":2482:2488   */\n      dup6\n        /* \"#utility.yul\":2418:2496   */\n      tag_137\n      jump\t// in\n    tag_196:\n        /* \"#utility.yul\":2410:2496   */\n      swap1\n      pop\n        /* \"#utility.yul\":2543:2552   */\n      dup2\n        /* \"#utility.yul\":2537:2541   */\n      dup2\n        /* \"#utility.yul\":2533:2553   */\n      sub\n        /* \"#utility.yul\":2528:2530   */\n      0x40\n        /* \"#utility.yul\":2517:2526   */\n      dup4\n        /* \"#utility.yul\":2513:2531   */\n      add\n        /* \"#utility.yul\":2506:2554   */\n      mstore\n        /* \"#utility.yul\":2571:2649   */\n      tag_197\n        /* \"#utility.yul\":2644:2648   */\n      dup2\n        /* \"#utility.yul\":2635:2641   */\n      dup5\n        /* \"#utility.yul\":2571:2649   */\n      tag_137\n      jump\t// in\n    tag_197:\n        /* \"#utility.yul\":2563:2649   */\n      swap1\n      pop\n        /* \"#utility.yul\":1941:2656   */\n      swap5\n      swap4\n      pop\n      pop\n      pop\n      pop\n      jump\t// out\n        /* \"#utility.yul\":2662:2975   */\n    tag_20:\n        /* \"#utility.yul\":2775:2779   */\n      0x00\n        /* \"#utility.yul\":2813:2815   */\n      0x20\n        /* \"#utility.yul\":2802:2811   */\n      dup3\n        /* \"#utility.yul\":2798:2816   */\n      add\n        /* \"#utility.yul\":2790:2816   */\n      swap1\n      pop\n        /* \"#utility.yul\":2862:2871   */\n      dup2\n        /* \"#utility.yul\":2856:2860   */\n      dup2\n        /* \"#utility.yul\":2852:2872   */\n      sub\n        /* \"#utility.yul\":2848:2849   */\n      0x00\n        /* \"#utility.yul\":2837:2846   */\n      dup4\n        /* \"#utility.yul\":2833:2850   */\n      add\n        /* \"#utility.yul\":2826:2873   */\n      mstore\n        /* \"#utility.yul\":2890:2968   */\n      tag_199\n        /* \"#utility.yul\":2963:2967   */\n      dup2\n        /* \"#utility.yul\":2954:2960   */\n      dup5\n        /* \"#utility.yul\":2890:2968   */\n      tag_137\n      jump\t// in\n    tag_199:\n        /* \"#utility.yul\":2882:2968   */\n      swap1\n      pop\n        /* \"#utility.yul\":2662:2975   */\n      swap3\n      swap2\n      pop\n      pop\n      jump\t// out\n        /* \"#utility.yul\":2981:3098   */\n    tag_138:\n        /* \"#utility.yul\":3090:3091   */\n      0x00\n        /* \"#utility.yul\":3087:3088   */\n      dup1\n        /* \"#utility.yul\":3080:3092   */\n      revert\n        /* \"#utility.yul\":3104:3221   */\n    tag_139:\n        /* \"#utility.yul\":3213:3214   */\n      0x00\n        /* \"#utility.yul\":3210:3211   */\n      dup1\n        /* \"#utility.yul\":3203:3215   */\n      revert\n        /* \"#utility.yul\":3227:3407   */\n    tag_86:\n        /* \"#utility.yul\":3275:3352   */\n      0x4e487b7100000000000000000000000000000000000000000000000000000000\n        /* \"#utility.yul\":3272:3273   */\n      0x00\n        /* \"#utility.yul\":3265:3353   */\n      mstore\n        /* \"#utility.yul\":3372:3376   */\n      0x41\n        /* \"#utility.yul\":3369:3370   */\n      0x04\n        /* \"#utility.yul\":3362:3377   */\n      mstore\n        /* \"#utility.yul\":3396:3400   */\n      0x24\n        /* \"#utility.yul\":3393:3394   */\n      0x00\n        /* \"#utility.yul\":3386:3401   */\n      revert\n        /* \"#utility.yul\":3413:3694   */\n    tag_140:\n        /* \"#utility.yul\":3496:3523   */\n      tag_204\n        /* \"#utility.yul\":3518:3522   */\n      dup3\n        /* \"#utility.yul\":3496:3523   */\n      tag_136\n      jump\t// in\n    tag_204:\n        /* \"#utility.yul\":3488:3494   */\n      dup2\n        /* \"#utility.yul\":3484:3524   */\n      add\n        /* \"#utility.yul\":3626:3632   */\n      dup2\n        /* \"#utility.yul\":3614:3624   */\n      dup2\n        /* \"#utility.yul\":3611:3633   */\n      lt\n        /* \"#utility.yul\":3590:3608   */\n      0xffffffffffffffff\n        /* \"#utility.yul\":3578:3588   */\n      dup3\n        /* \"#utility.yul\":3575:3609   */\n      gt\n        /* \"#utility.yul\":3572:3634   */\n      or\n        /* \"#utility.yul\":3569:3657   */\n      iszero\n      tag_205\n      jumpi\n        /* \"#utility.yul\":3637:3655   */\n      tag_206\n      tag_86\n      jump\t// in\n    tag_206:\n        /* \"#utility.yul\":3569:3657   */\n    tag_205:\n        /* \"#utility.yul\":3677:3687   */\n      dup1\n        /* \"#utility.yul\":3673:3675   */\n      0x40\n        /* \"#utility.yul\":3666:3688   */\n      mstore\n        /* \"#utility.yul\":3456:3694   */\n      pop\n        /* \"#utility.yul\":3413:3694   */\n      pop\n      pop\n      jump\t// out\n        /* \"#utility.yul\":3700:3829   */\n    tag_141:\n        /* \"#utility.yul\":3734:3740   */\n      0x00\n        /* \"#utility.yul\":3761:3781   */\n      tag_208\n      tag_127\n      jump\t// in\n    tag_208:\n        /* \"#utility.yul\":3751:3781   */\n      swap1\n      pop\n        /* \"#utility.yul\":3790:3823   */\n      tag_209\n        /* \"#utility.yul\":3818:3822   */\n      dup3\n        /* \"#utility.yul\":3810:3816   */\n      dup3\n        /* \"#utility.yul\":3790:3823   */\n      tag_140\n      jump\t// in\n    tag_209:\n        /* \"#utility.yul\":3700:3829   */\n      swap2\n      swap1\n      pop\n      jump\t// out\n        /* \"#utility.yul\":3835:4143   */\n    tag_142:\n        /* \"#utility.yul\":3897:3901   */\n      0x00\n        /* \"#utility.yul\":3987:4005   */\n      0xffffffffffffffff\n        /* \"#utility.yul\":3979:3985   */\n      dup3\n        /* \"#utility.yul\":3976:4006   */\n      gt\n        /* \"#utility.yul\":3973:4029   */\n      iszero\n      tag_211\n      jumpi\n        /* \"#utility.yul\":4009:4027   */\n      tag_212\n      tag_86\n      jump\t// in\n    tag_212:\n        /* \"#utility.yul\":3973:4029   */\n    tag_211:\n        /* \"#utility.yul\":4047:4076   */\n      tag_213\n        /* \"#utility.yul\":4069:4075   */\n      dup3\n        /* \"#utility.yul\":4047:4076   */\n      tag_136\n      jump\t// in\n    tag_213:\n        /* \"#utility.yul\":4039:4076   */\n      swap1\n      pop\n        /* \"#utility.yul\":4131:4135   */\n      0x20\n        /* \"#utility.yul\":4125:4129   */\n      dup2\n        /* \"#utility.yul\":4121:4136   */\n      add\n        /* \"#utility.yul\":4113:4136   */\n      swap1\n      pop\n        /* \"#utility.yul\":3835:4143   */\n      swap2\n      swap1\n      pop\n      jump\t// out\n        /* \"#utility.yul\":4149:4297   */\n    tag_143:\n        /* \"#utility.yul\":4247:4253   */\n      dup3\n        /* \"#utility.yul\":4242:4245   */\n      dup2\n        /* \"#utility.yul\":4237:4240   */\n      dup4\n        /* \"#utility.yul\":4224:4254   */\n      calldatacopy\n        /* \"#utility.yul\":4288:4289   */\n      0x00\n        /* \"#utility.yul\":4279:4285   */\n      dup4\n        /* \"#utility.yul\":4274:4277   */\n      dup4\n        /* \"#utility.yul\":4270:4286   */\n      add\n        /* \"#utility.yul\":4263:4290   */\n      mstore\n        /* \"#utility.yul\":4149:4297   */\n      pop\n      pop\n      pop\n      jump\t// out\n        /* \"#utility.yul\":4303:4728   */\n    tag_144:\n        /* \"#utility.yul\":4381:4386   */\n      0x00\n        /* \"#utility.yul\":4406:4472   */\n      tag_216\n        /* \"#utility.yul\":4422:4471   */\n      tag_217\n        /* \"#utility.yul\":4464:4470   */\n      dup5\n        /* \"#utility.yul\":4422:4471   */\n      tag_142\n      jump\t// in\n    tag_217:\n        /* \"#utility.yul\":4406:4472   */\n      tag_141\n      jump\t// in\n    tag_216:\n        /* \"#utility.yul\":4397:4472   */\n      swap1\n      pop\n        /* \"#utility.yul\":4495:4501   */\n      dup3\n        /* \"#utility.yul\":4488:4493   */\n      dup2\n        /* \"#utility.yul\":4481:4502   */\n      mstore\n        /* \"#utility.yul\":4533:4537   */\n      0x20\n        /* \"#utility.yul\":4526:4531   */\n      dup2\n        /* \"#utility.yul\":4522:4538   */\n      add\n        /* \"#utility.yul\":4571:4574   */\n      dup5\n        /* \"#utility.yul\":4562:4568   */\n      dup5\n        /* \"#utility.yul\":4557:4560   */\n      dup5\n        /* \"#utility.yul\":4553:4569   */\n      add\n        /* \"#utility.yul\":4550:4575   */\n      gt\n        /* \"#utility.yul\":4547:4659   */\n      iszero\n      tag_218\n      jumpi\n        /* \"#utility.yul\":4578:4657   */\n      tag_219\n      tag_139\n      jump\t// in\n    tag_219:\n        /* \"#utility.yul\":4547:4659   */\n    tag_218:\n        /* \"#utility.yul\":4668:4722   */\n      tag_220\n        /* \"#utility.yul\":4715:4721   */\n      dup5\n        /* \"#utility.yul\":4710:4713   */\n      dup3\n        /* \"#utility.yul\":4705:4708   */\n      dup6\n        /* \"#utility.yul\":4668:4722   */\n      tag_143\n      jump\t// in\n    tag_220:\n        /* \"#utility.yul\":4387:4728   */\n      pop\n        /* \"#utility.yul\":4303:4728   */\n      swap4\n      swap3\n      pop\n      pop\n      pop\n      jump\t// out\n        /* \"#utility.yul\":4748:5088   */\n    tag_145:\n        /* \"#utility.yul\":4804:4809   */\n      0x00\n        /* \"#utility.yul\":4853:4856   */\n      dup3\n        /* \"#utility.yul\":4846:4850   */\n      0x1f\n        /* \"#utility.yul\":4838:4844   */\n      dup4\n        /* \"#utility.yul\":4834:4851   */\n      add\n        /* \"#utility.yul\":4830:4857   */\n      slt\n        /* \"#utility.yul\":4820:4942   */\n      tag_222\n      jumpi\n        /* \"#utility.yul\":4861:4940   */\n      tag_223\n      tag_138\n      jump\t// in\n    tag_223:\n        /* \"#utility.yul\":4820:4942   */\n    tag_222:\n        /* \"#utility.yul\":4978:4984   */\n      dup2\n        /* \"#utility.yul\":4965:4985   */\n      calldataload\n        /* \"#utility.yul\":5003:5082   */\n      tag_224\n        /* \"#utility.yul\":5078:5081   */\n      dup5\n        /* \"#utility.yul\":5070:5076   */\n      dup3\n        /* \"#utility.yul\":5063:5067   */\n      0x20\n        /* \"#utility.yul\":5055:5061   */\n      dup7\n        /* \"#utility.yul\":5051:5068   */\n      add\n        /* \"#utility.yul\":5003:5082   */\n      tag_144\n      jump\t// in\n    tag_224:\n        /* \"#utility.yul\":4994:5082   */\n      swap2\n      pop\n        /* \"#utility.yul\":4810:5088   */\n      pop\n        /* \"#utility.yul\":4748:5088   */\n      swap3\n      swap2\n      pop\n      pop\n      jump\t// out\n        /* \"#utility.yul\":5094:6253   */\n    tag_23:\n        /* \"#utility.yul\":5201:5207   */\n      0x00\n        /* \"#utility.yul\":5209:5215   */\n      dup1\n        /* \"#utility.yul\":5217:5223   */\n      0x00\n        /* \"#utility.yul\":5266:5268   */\n      0x60\n        /* \"#utility.yul\":5254:5263   */\n      dup5\n        /* \"#utility.yul\":5245:5252   */\n      dup7\n        /* \"#utility.yul\":5241:5264   */\n      sub\n        /* \"#utility.yul\":5237:5269   */\n      slt\n        /* \"#utility.yul\":5234:5353   */\n      iszero\n      tag_226\n      jumpi\n        /* \"#utility.yul\":5272:5351   */\n      tag_227\n      tag_128\n      jump\t// in\n    tag_227:\n        /* \"#utility.yul\":5234:5353   */\n    tag_226:\n        /* \"#utility.yul\":5420:5421   */\n      0x00\n        /* \"#utility.yul\":5409:5418   */\n      dup5\n        /* \"#utility.yul\":5405:5422   */\n      add\n        /* \"#utility.yul\":5392:5423   */\n      calldataload\n        /* \"#utility.yul\":5450:5468   */\n      0xffffffffffffffff\n        /* \"#utility.yul\":5442:5448   */\n      dup2\n        /* \"#utility.yul\":5439:5469   */\n      gt\n        /* \"#utility.yul\":5436:5553   */\n      iszero\n      tag_228\n      jumpi\n        /* \"#utility.yul\":5472:5551   */\n      tag_229\n      tag_129\n      jump\t// in\n    tag_229:\n        /* \"#utility.yul\":5436:5553   */\n    tag_228:\n        /* \"#utility.yul\":5577:5640   */\n      tag_230\n        /* \"#utility.yul\":5632:5639   */\n      dup7\n        /* \"#utility.yul\":5623:5629   */\n      dup3\n        /* \"#utility.yul\":5612:5621   */\n      dup8\n        /* \"#utility.yul\":5608:5630   */\n      add\n        /* \"#utility.yul\":5577:5640   */\n      tag_145\n      jump\t// in\n    tag_230:\n        /* \"#utility.yul\":5567:5640   */\n      swap4\n      pop\n        /* \"#utility.yul\":5363:5650   */\n      pop\n        /* \"#utility.yul\":5717:5719   */\n      0x20\n        /* \"#utility.yul\":5706:5715   */\n      dup5\n        /* \"#utility.yul\":5702:5720   */\n      add\n        /* \"#utility.yul\":5689:5721   */\n      calldataload\n        /* \"#utility.yul\":5748:5766   */\n      0xffffffffffffffff\n        /* \"#utility.yul\":5740:5746   */\n      dup2\n        /* \"#utility.yul\":5737:5767   */\n      gt\n        /* \"#utility.yul\":5734:5851   */\n      iszero\n      tag_231\n      jumpi\n        /* \"#utility.yul\":5770:5849   */\n      tag_232\n      tag_129\n      jump\t// in\n    tag_232:\n        /* \"#utility.yul\":5734:5851   */\n    tag_231:\n        /* \"#utility.yul\":5875:5938   */\n      tag_233\n        /* \"#utility.yul\":5930:5937   */\n      dup7\n        /* \"#utility.yul\":5921:5927   */\n      dup3\n        /* \"#utility.yul\":5910:5919   */\n      dup8\n        /* \"#utility.yul\":5906:5928   */\n      add\n        /* \"#utility.yul\":5875:5938   */\n      tag_145\n      jump\t// in\n    tag_233:\n        /* \"#utility.yul\":5865:5938   */\n      swap3\n      pop\n        /* \"#utility.yul\":5660:5948   */\n      pop\n        /* \"#utility.yul\":6015:6017   */\n      0x40\n        /* \"#utility.yul\":6004:6013   */\n      dup5\n        /* \"#utility.yul\":6000:6018   */\n      add\n        /* \"#utility.yul\":5987:6019   */\n      calldataload\n        /* \"#utility.yul\":6046:6064   */\n      0xffffffffffffffff\n        /* \"#utility.yul\":6038:6044   */\n      dup2\n        /* \"#utility.yul\":6035:6065   */\n      gt\n        /* \"#utility.yul\":6032:6149   */\n      iszero\n      tag_234\n      jumpi\n        /* \"#utility.yul\":6068:6147   */\n      tag_235\n      tag_129\n      jump\t// in\n    tag_235:\n        /* \"#utility.yul\":6032:6149   */\n    tag_234:\n        /* \"#utility.yul\":6173:6236   */\n      tag_236\n        /* \"#utility.yul\":6228:6235   */\n      dup7\n        /* \"#utility.yul\":6219:6225   */\n      dup3\n        /* \"#utility.yul\":6208:6217   */\n      dup8\n        /* \"#utility.yul\":6204:6226   */\n      add\n        /* \"#utility.yul\":6173:6236   */\n      tag_145\n      jump\t// in\n    tag_236:\n        /* \"#utility.yul\":6163:6236   */\n      swap2\n      pop\n        /* \"#utility.yul\":5958:6246   */\n      pop\n        /* \"#utility.yul\":5094:6253   */\n      swap3\n      pop\n      swap3\n      pop\n      swap3\n      jump\t// out\n        /* \"#utility.yul\":6259:6349   */\n    tag_146:\n        /* \"#utility.yul\":6293:6300   */\n      0x00\n        /* \"#utility.yul\":6336:6341   */\n      dup2\n        /* \"#utility.yul\":6329:6342   */\n      iszero\n        /* \"#utility.yul\":6322:6343   */\n      iszero\n        /* \"#utility.yul\":6311:6343   */\n      swap1\n      pop\n        /* \"#utility.yul\":6259:6349   */\n      swap2\n      swap1\n      pop\n      jump\t// out\n        /* \"#utility.yul\":6355:6464   */\n    tag_147:\n        /* \"#utility.yul\":6436:6457   */\n      tag_239\n        /* \"#utility.yul\":6451:6456   */\n      dup2\n        /* \"#utility.yul\":6436:6457   */\n      tag_146\n      jump\t// in\n    tag_239:\n        /* \"#utility.yul\":6431:6434   */\n      dup3\n        /* \"#utility.yul\":6424:6458   */\n      mstore\n        /* \"#utility.yul\":6355:6464   */\n      pop\n      pop\n      jump\t// out\n        /* \"#utility.yul\":6470:6680   */\n    tag_26:\n        /* \"#utility.yul\":6557:6561   */\n      0x00\n        /* \"#utility.yul\":6595:6597   */\n      0x20\n        /* \"#utility.yul\":6584:6593   */\n      dup3\n        /* \"#utility.yul\":6580:6598   */\n      add\n        /* \"#utility.yul\":6572:6598   */\n      swap1\n      pop\n        /* \"#utility.yul\":6608:6673   */\n      tag_241\n        /* \"#utility.yul\":6670:6671   */\n      0x00\n        /* \"#utility.yul\":6659:6668   */\n      dup4\n        /* \"#utility.yul\":6655:6672   */\n      add\n        /* \"#utility.yul\":6646:6652   */\n      dup5\n        /* \"#utility.yul\":6608:6673   */\n      tag_147\n      jump\t// in\n    tag_241:\n        /* \"#utility.yul\":6470:6680   */\n      swap3\n      swap2\n      pop\n      pop\n      jump\t// out\n        /* \"#utility.yul\":6686:6812   */\n    tag_148:\n        /* \"#utility.yul\":6723:6730   */\n      0x00\n        /* \"#utility.yul\":6763:6805   */\n      0xffffffffffffffffffffffffffffffffffffffff\n        /* \"#utility.yul\":6756:6761   */\n      dup3\n        /* \"#utility.yul\":6752:6806   */\n      and\n        /* \"#utility.yul\":6741:6806   */\n      swap1\n      pop\n        /* \"#utility.yul\":6686:6812   */\n      swap2\n      swap1\n      pop\n      jump\t// out\n        /* \"#utility.yul\":6818:6914   */\n    tag_149:\n        /* \"#utility.yul\":6855:6862   */\n      0x00\n        /* \"#utility.yul\":6884:6908   */\n      tag_244\n        /* \"#utility.yul\":6902:6907   */\n      dup3\n        /* \"#utility.yul\":6884:6908   */\n      tag_148\n      jump\t// in\n    tag_244:\n        /* \"#utility.yul\":6873:6908   */\n      swap1\n      pop\n        /* \"#utility.yul\":6818:6914   */\n      swap2\n      swap1\n      pop\n      jump\t// out\n        /* \"#utility.yul\":6920:7038   */\n    tag_150:\n        /* \"#utility.yul\":7007:7031   */\n      tag_246\n        /* \"#utility.yul\":7025:7030   */\n      dup2\n        /* \"#utility.yul\":7007:7031   */\n      tag_149\n      jump\t// in\n    tag_246:\n        /* \"#utility.yul\":7002:7005   */\n      dup3\n        /* \"#utility.yul\":6995:7032   */\n      mstore\n        /* \"#utility.yul\":6920:7038   */\n      pop\n      pop\n      jump\t// out\n        /* \"#utility.yul\":7044:7266   */\n    tag_32:\n        /* \"#utility.yul\":7137:7141   */\n      0x00\n        /* \"#utility.yul\":7175:7177   */\n      0x20\n        /* \"#utility.yul\":7164:7173   */\n      dup3\n        /* \"#utility.yul\":7160:7178   */\n      add\n        /* \"#utility.yul\":7152:7178   */\n      swap1\n      pop\n        /* \"#utility.yul\":7188:7259   */\n      tag_248\n        /* \"#utility.yul\":7256:7257   */\n      0x00\n        /* \"#utility.yul\":7245:7254   */\n      dup4\n        /* \"#utility.yul\":7241:7258   */\n      add\n        /* \"#utility.yul\":7232:7238   */\n      dup5\n        /* \"#utility.yul\":7188:7259   */\n      tag_150\n      jump\t// in\n    tag_248:\n        /* \"#utility.yul\":7044:7266   */\n      swap3\n      swap2\n      pop\n      pop\n      jump\t// out\n        /* \"#utility.yul\":7272:8577   */\n    tag_38:\n        /* \"#utility.yul\":7388:7394   */\n      0x00\n        /* \"#utility.yul\":7396:7402   */\n      dup1\n        /* \"#utility.yul\":7404:7410   */\n      0x00\n        /* \"#utility.yul\":7412:7418   */\n      dup1\n        /* \"#utility.yul\":7461:7464   */\n      0x80\n        /* \"#utility.yul\":7449:7458   */\n      dup6\n        /* \"#utility.yul\":7440:7447   */\n      dup8\n        /* \"#utility.yul\":7436:7459   */\n      sub\n        /* \"#utility.yul\":7432:7465   */\n      slt\n        /* \"#utility.yul\":7429:7549   */\n      iszero\n      tag_250\n      jumpi\n        /* \"#utility.yul\":7468:7547   */\n      tag_251\n      tag_128\n      jump\t// in\n    tag_251:\n        /* \"#utility.yul\":7429:7549   */\n    tag_250:\n        /* \"#utility.yul\":7588:7589   */\n      0x00\n        /* \"#utility.yul\":7613:7666   */\n      tag_252\n        /* \"#utility.yul\":7658:7665   */\n      dup8\n        /* \"#utility.yul\":7649:7655   */\n      dup3\n        /* \"#utility.yul\":7638:7647   */\n      dup9\n        /* \"#utility.yul\":7634:7656   */\n      add\n        /* \"#utility.yul\":7613:7666   */\n      tag_132\n      jump\t// in\n    tag_252:\n        /* \"#utility.yul\":7603:7666   */\n      swap5\n      pop\n        /* \"#utility.yul\":7559:7676   */\n      pop\n        /* \"#utility.yul\":7743:7745   */\n      0x20\n        /* \"#utility.yul\":7732:7741   */\n      dup6\n        /* \"#utility.yul\":7728:7746   */\n      add\n        /* \"#utility.yul\":7715:7747   */\n      calldataload\n        /* \"#utility.yul\":7774:7792   */\n      0xffffffffffffffff\n        /* \"#utility.yul\":7766:7772   */\n      dup2\n        /* \"#utility.yul\":7763:7793   */\n      gt\n        /* \"#utility.yul\":7760:7877   */\n      iszero\n      tag_253\n      jumpi\n        /* \"#utility.yul\":7796:7875   */\n      tag_254\n      tag_129\n      jump\t// in\n    tag_254:\n        /* \"#utility.yul\":7760:7877   */\n    tag_253:\n        /* \"#utility.yul\":7901:7964   */\n      tag_255\n        /* \"#utility.yul\":7956:7963   */\n      dup8\n        /* \"#utility.yul\":7947:7953   */\n      dup3\n        /* \"#utility.yul\":7936:7945   */\n      dup9\n        /* \"#utility.yul\":7932:7954   */\n      add\n        /* \"#utility.yul\":7901:7964   */\n      tag_145\n      jump\t// in\n    tag_255:\n        /* \"#utility.yul\":7891:7964   */\n      swap4\n      pop\n        /* \"#utility.yul\":7686:7974   */\n      pop\n        /* \"#utility.yul\":8041:8043   */\n      0x40\n        /* \"#utility.yul\":8030:8039   */\n      dup6\n        /* \"#utility.yul\":8026:8044   */\n      add\n        /* \"#utility.yul\":8013:8045   */\n      calldataload\n        /* \"#utility.yul\":8072:8090   */\n      0xffffffffffffffff\n        /* \"#utility.yul\":8064:8070   */\n      dup2\n        /* \"#utility.yul\":8061:8091   */\n      gt\n        /* \"#utility.yul\":8058:8175   */\n      iszero\n      tag_256\n      jumpi\n        /* \"#utility.yul\":8094:8173   */\n      tag_257\n      tag_129\n      jump\t// in\n    tag_257:\n        /* \"#utility.yul\":8058:8175   */\n    tag_256:\n        /* \"#utility.yul\":8199:8262   */\n      tag_258\n        /* \"#utility.yul\":8254:8261   */\n      dup8\n        /* \"#utility.yul\":8245:8251   */\n      dup3\n        /* \"#utility.yul\":8234:8243   */\n      dup9\n        /* \"#utility.yul\":8230:8252   */\n      add\n        /* \"#utility.yul\":8199:8262   */\n      tag_145\n      jump\t// in\n    tag_258:\n        /* \"#utility.yul\":8189:8262   */\n      swap3\n      pop\n        /* \"#utility.yul\":7984:8272   */\n      pop\n        /* \"#utility.yul\":8339:8341   */\n      0x60\n        /* \"#utility.yul\":8328:8337   */\n      dup6\n        /* \"#utility.yul\":8324:8342   */\n      add\n        /* \"#utility.yul\":8311:8343   */\n      calldataload\n        /* \"#utility.yul\":8370:8388   */\n      0xffffffffffffffff\n        /* \"#utility.yul\":8362:8368   */\n      dup2\n        /* \"#utility.yul\":8359:8389   */\n      gt\n        /* \"#utility.yul\":8356:8473   */\n      iszero\n      tag_259\n      jumpi\n        /* \"#utility.yul\":8392:8471   */\n      tag_260\n      tag_129\n      jump\t// in\n    tag_260:\n        /* \"#utility.yul\":8356:8473   */\n    tag_259:\n        /* \"#utility.yul\":8497:8560   */\n      tag_261\n        /* \"#utility.yul\":8552:8559   */\n      dup8\n        /* \"#utility.yul\":8543:8549   */\n      dup3\n        /* \"#utility.yul\":8532:8541   */\n      dup9\n        /* \"#utility.yul\":8528:8550   */\n      add\n        /* \"#utility.yul\":8497:8560   */\n      tag_145\n      jump\t// in\n    tag_261:\n        /* \"#utility.yul\":8487:8560   */\n      swap2\n      pop\n        /* \"#utility.yul\":8282:8570   */\n      pop\n        /* \"#utility.yul\":7272:8577   */\n      swap3\n      swap6\n      swap2\n      swap5\n      pop\n      swap3\n      pop\n      jump\t// out\n        /* \"#utility.yul\":8583:8763   */\n    tag_151:\n        /* \"#utility.yul\":8631:8708   */\n      0x4e487b7100000000000000000000000000000000000000000000000000000000\n        /* \"#utility.yul\":8628:8629   */\n      0x00\n        /* \"#utility.yul\":8621:8709   */\n      mstore\n        /* \"#utility.yul\":8728:8732   */\n      0x22\n        /* \"#utility.yul\":8725:8726   */\n      0x04\n        /* \"#utility.yul\":8718:8733   */\n      mstore\n        /* \"#utility.yul\":8752:8756   */\n      0x24\n        /* \"#utility.yul\":8749:8750   */\n      0x00\n        /* \"#utility.yul\":8742:8757   */\n      revert\n        /* \"#utility.yul\":8769:9089   */\n    tag_43:\n        /* \"#utility.yul\":8813:8819   */\n      0x00\n        /* \"#utility.yul\":8850:8851   */\n      0x02\n        /* \"#utility.yul\":8844:8848   */\n      dup3\n        /* \"#utility.yul\":8840:8852   */\n      div\n        /* \"#utility.yul\":8830:8852   */\n      swap1\n      pop\n        /* \"#utility.yul\":8897:8898   */\n      0x01\n        /* \"#utility.yul\":8891:8895   */\n      dup3\n        /* \"#utility.yul\":8887:8899   */\n      and\n        /* \"#utility.yul\":8918:8936   */\n      dup1\n        /* \"#utility.yul\":8908:8989   */\n      tag_264\n      jumpi\n        /* \"#utility.yul\":8974:8978   */\n      0x7f\n        /* \"#utility.yul\":8966:8972   */\n      dup3\n        /* \"#utility.yul\":8962:8979   */\n      and\n        /* \"#utility.yul\":8952:8979   */\n      swap2\n      pop\n        /* \"#utility.yul\":8908:8989   */\n    tag_264:\n        /* \"#utility.yul\":9036:9038   */\n      0x20\n        /* \"#utility.yul\":9028:9034   */\n      dup3\n        /* \"#utility.yul\":9025:9039   */\n      lt\n        /* \"#utility.yul\":9005:9023   */\n      dup2\n        /* \"#utility.yul\":9002:9040   */\n      sub\n        /* \"#utility.yul\":8999:9083   */\n      tag_265\n      jumpi\n        /* \"#utility.yul\":9055:9073   */\n      tag_266\n      tag_151\n      jump\t// in\n    tag_266:\n        /* \"#utility.yul\":8999:9083   */\n    tag_265:\n        /* \"#utility.yul\":8820:9089   */\n      pop\n        /* \"#utility.yul\":8769:9089   */\n      swap2\n      swap1\n      pop\n      jump\t// out\n        /* \"#utility.yul\":9095:9236   */\n    tag_152:\n        /* \"#utility.yul\":9144:9148   */\n      0x00\n        /* \"#utility.yul\":9167:9170   */\n      dup2\n        /* \"#utility.yul\":9159:9170   */\n      swap1\n      pop\n        /* \"#utility.yul\":9190:9193   */\n      dup2\n        /* \"#utility.yul\":9187:9188   */\n      0x00\n        /* \"#utility.yul\":9180:9194   */\n      mstore\n        /* \"#utility.yul\":9224:9228   */\n      0x20\n        /* \"#utility.yul\":9221:9222   */\n      0x00\n        /* \"#utility.yul\":9211:9229   */\n      keccak256\n        /* \"#utility.yul\":9203:9229   */\n      swap1\n      pop\n        /* \"#utility.yul\":9095:9236   */\n      swap2\n      swap1\n      pop\n      jump\t// out\n        /* \"#utility.yul\":9242:9335   */\n    tag_153:\n        /* \"#utility.yul\":9279:9285   */\n      0x00\n        /* \"#utility.yul\":9326:9328   */\n      0x20\n        /* \"#utility.yul\":9321:9323   */\n      0x1f\n        /* \"#utility.yul\":9314:9319   */\n      dup4\n        /* \"#utility.yul\":9310:9324   */\n      add\n        /* \"#utility.yul\":9306:9329   */\n      div\n        /* \"#utility.yul\":9296:9329   */\n      swap1\n      pop\n        /* \"#utility.yul\":9242:9335   */\n      swap2\n      swap1\n      pop\n      jump\t// out\n        /* \"#utility.yul\":9341:9448   */\n    tag_154:\n        /* \"#utility.yul\":9385:9393   */\n      0x00\n        /* \"#utility.yul\":9435:9440   */\n      dup3\n        /* \"#utility.yul\":9429:9433   */\n      dup3\n        /* \"#utility.yul\":9425:9441   */\n      shl\n        /* \"#utility.yul\":9404:9441   */\n      swap1\n      pop\n        /* \"#utility.yul\":9341:9448   */\n      swap3\n      swap2\n      pop\n      pop\n      jump\t// out\n        /* \"#utility.yul\":9454:9847   */\n    tag_155:\n        /* \"#utility.yul\":9523:9529   */\n      0x00\n        /* \"#utility.yul\":9573:9574   */\n      0x08\n        /* \"#utility.yul\":9561:9571   */\n      dup4\n        /* \"#utility.yul\":9557:9575   */\n      mul\n        /* \"#utility.yul\":9596:9693   */\n      tag_271\n        /* \"#utility.yul\":9626:9692   */\n      0xffffffffffffffffffffffffffffffffffffffffffffffffffffffffffffffff\n        /* \"#utility.yul\":9615:9624   */\n      dup3\n        /* \"#utility.yul\":9596:9693   */\n      tag_154\n      jump\t// in\n    tag_271:\n        /* \"#utility.yul\":9714:9753   */\n      tag_272\n        /* \"#utility.yul\":9744:9752   */\n      dup7\n        /* \"#utility.yul\":9733:9742   */\n      dup4\n        /* \"#utility.yul\":9714:9753   */\n      tag_154\n      jump\t// in\n    tag_272:\n        /* \"#utility.yul\":9702:9753   */\n      swap6\n      pop\n        /* \"#utility.yul\":9786:9790   */\n      dup1\n        /* \"#utility.yul\":9782:9791   */\n      not\n        /* \"#utility.yul\":9775:9780   */\n      dup5\n        /* \"#utility.yul\":9771:9792   */\n      and\n        /* \"#utility.yul\":9762:9792   */\n      swap4\n      pop\n        /* \"#utility.yul\":9835:9839   */\n      dup1\n        /* \"#utility.yul\":9825:9833   */\n      dup7\n        /* \"#utility.yul\":9821:9840   */\n      and\n        /* \"#utility.yul\":9814:9819   */\n      dup5\n        /* \"#utility.yul\":9811:9841   */\n      or\n        /* \"#utility.yul\":9801:9841   */\n      swap3\n      pop\n        /* \"#utility.yul\":9530:9847   */\n      pop\n      pop\n        /* \"#utility.yul\":9454:9847   */\n      swap4\n      swap3\n      pop\n      pop\n      pop\n      jump\t// out\n        /* \"#utility.yul\":9853:9913   */\n    tag_156:\n        /* \"#utility.yul\":9881:9884   */\n      0x00\n        /* \"#utility.yul\":9902:9907   */\n      dup2\n        /* \"#utility.yul\":9895:9907   */\n      swap1\n      pop\n        /* \"#utility.yul\":9853:9913   */\n      swap2\n      swap1\n      pop\n      jump\t// out\n        /* \"#utility.yul\":9919:10061   */\n    tag_157:\n        /* \"#utility.yul\":9969:9978   */\n      0x00\n        /* \"#utility.yul\":10002:10055   */\n      tag_275\n        /* \"#utility.yul\":10020:10054   */\n      tag_276\n        /* \"#utility.yul\":10029:10053   */\n      tag_277\n        /* \"#utility.yul\":10047:10052   */\n      dup5\n        /* \"#utility.yul\":10029:10053   */\n      tag_130\n      jump\t// in\n    tag_277:\n        /* \"#utility.yul\":10020:10054   */\n      tag_156\n      jump\t// in\n    tag_276:\n        /* \"#utility.yul\":10002:10055   */\n      tag_130\n      jump\t// in\n    tag_275:\n        /* \"#utility.yul\":9989:10055   */\n      swap1\n      pop\n        /* \"#utility.yul\":9919:10061   */\n      swap2\n      swap1\n      pop\n      jump\t// out\n        /* \"#utility.yul\":10067:10142   */\n    tag_158:\n        /* \"#utility.yul\":10110:10113   */\n      0x00\n        /* \"#utility.yul\":10131:10136   */\n      dup2\n        /* \"#utility.yul\":10124:10136   */\n      swap1\n      pop\n        /* \"#utility.yul\":10067:10142   */\n      swap2\n      swap1\n      pop\n      jump\t// out\n        /* \"#utility.yul\":10148:10417   */\n    tag_159:\n        /* \"#utility.yul\":10258:10297   */\n      tag_280\n        /* \"#utility.yul\":10289:10296   */\n      dup4\n        /* \"#utility.yul\":10258:10297   */\n      tag_157\n      jump\t// in\n    tag_280:\n        /* \"#utility.yul\":10319:10410   */\n      tag_281\n        /* \"#utility.yul\":10368:10409   */\n      tag_282\n        /* \"#utility.yul\":10392:10408   */\n      dup3\n        /* \"#utility.yul\":10368:10409   */\n      tag_158\n      jump\t// in\n    tag_282:\n        /* \"#utility.yul\":10360:10366   */\n      dup5\n        /* \"#utility.yul\":10353:10357   */\n      dup5\n        /* \"#utility.yul\":10347:10358   */\n      sload\n        /* \"#utility.yul\":10319:10410   */\n      tag_155\n      jump\t// in\n    tag_281:\n        /* \"#utility.yul\":10313:10317   */\n      dup3\n        /* \"#utility.yul\":10306:10411   */\n      sstore\n        /* \"#utility.yul\":10224:10417   */\n      pop\n        /* \"#utility.yul\":10148:10417   */\n      pop\n      pop\n      pop\n      jump\t// out\n        /* \"#utility.yul\":10423:10496   */\n    tag_160:\n        /* \"#utility.yul\":10468:10471   */\n      0x00\n        /* \"#utility.yul\":10423:10496   */\n      swap1\n      jump\t// out\n        /* \"#utility.yul\":10502:10691   */\n    tag_161:\n        /* \"#utility.yul\":10579:10611   */\n      tag_285\n      tag_160\n      jump\t// in\n    tag_285:\n        /* \"#utility.yul\":10620:10685   */\n      tag_286\n        /* \"#utility.yul\":10678:10684   */\n      dup2\n        /* \"#utility.yul\":10670:10676   */\n      dup5\n        /* \"#utility.yul\":10664:10668   */\n      dup5\n        /* \"#utility.yul\":10620:10685   */\n      tag_159\n      jump\t// in\n    tag_286:\n        /* \"#utility.yul\":10555:10691   */\n      pop\n        /* \"#utility.yul\":10502:10691   */\n      pop\n      pop\n      jump\t// out\n        /* \"#utility.yul\":10697:10883   */\n    tag_162:\n        /* \"#utility.yul\":10757:10877   */\n    tag_288:\n        /* \"#utility.yul\":10774:10777   */\n      dup2\n        /* \"#utility.yul\":10767:10772   */\n      dup2\n        /* \"#utility.yul\":10764:10778   */\n      lt\n        /* \"#utility.yul\":10757:10877   */\n      iszero\n      tag_290\n      jumpi\n        /* \"#utility.yul\":10828:10867   */\n      tag_291\n        /* \"#utility.yul\":10865:10866   */\n      0x00\n        /* \"#utility.yul\":10858:10863   */\n      dup3\n        /* \"#utility.yul\":10828:10867   */\n      tag_161\n      jump\t// in\n    tag_291:\n        /* \"#utility.yul\":10801:10802   */\n      0x01\n        /* \"#utility.yul\":10794:10799   */\n      dup2\n        /* \"#utility.yul\":10790:10803   */\n      add\n        /* \"#utility.yul\":10781:10803   */\n      swap1\n      pop\n        /* \"#utility.yul\":10757:10877   */\n      jump(tag_288)\n    tag_290:\n        /* \"#utility.yul\":10697:10883   */\n      pop\n      pop\n      jump\t// out\n        /* \"#utility.yul\":10889:11432   */\n    tag_163:\n        /* \"#utility.yul\":10990:10992   */\n      0x1f\n        /* \"#utility.yul\":10985:10988   */\n      dup3\n        /* \"#utility.yul\":10982:10993   */\n      gt\n        /* \"#utility.yul\":10979:11425   */\n      iszero\n      tag_293\n      jumpi\n        /* \"#utility.yul\":11024:11062   */\n      tag_294\n        /* \"#utility.yul\":11056:11061   */\n      dup2\n        /* \"#utility.yul\":11024:11062   */\n      tag_152\n      jump\t// in\n    tag_294:\n        /* \"#utility.yul\":11108:11137   */\n      tag_295\n        /* \"#utility.yul\":11126:11136   */\n      dup5\n        /* \"#utility.yul\":11108:11137   */\n      tag_153\n      jump\t// in\n    tag_295:\n        /* \"#utility.yul\":11098:11106   */\n      dup2\n        /* \"#utility.yul\":11094:11138   */\n      add\n        /* \"#utility.yul\":11291:11293   */\n      0x20\n        /* \"#utility.yul\":11279:11289   */\n      dup6\n        /* \"#utility.yul\":11276:11294   */\n      lt\n        /* \"#utility.yul\":11273:11322   */\n      iszero\n      tag_296\n      jumpi\n        /* \"#utility.yul\":11312:11320   */\n      dup2\n        /* \"#utility.yul\":11297:11320   */\n      swap1\n      pop\n        /* \"#utility.yul\":11273:11322   */\n    tag_296:\n        /* \"#utility.yul\":11335:11415   */\n      tag_297\n        /* \"#utility.yul\":11391:11413   */\n      tag_298\n        /* \"#utility.yul\":11409:11412   */\n      dup6\n        /* \"#utility.yul\":11391:11413   */\n      tag_153\n      jump\t// in\n    tag_298:\n        /* \"#utility.yul\":11381:11389   */\n      dup4\n        /* \"#utility.yul\":11377:11414   */\n      add\n        /* \"#utility.yul\":11364:11375   */\n      dup3\n        /* \"#utility.yul\":11335:11415   */\n      tag_162\n      jump\t// in\n    tag_297:\n        /* \"#utility.yul\":10994:11425   */\n      pop\n      pop\n        /* \"#utility.yul\":10979:11425   */\n    tag_293:\n        /* \"#utility.yul\":10889:11432   */\n      pop\n      pop\n      pop\n      jump\t// out\n        /* \"#utility.yul\":11438:11555   */\n    tag_164:\n        /* \"#utility.yul\":11492:11500   */\n      0x00\n        /* \"#utility.yul\":11542:11547   */\n      dup3\n        /* \"#utility.yul\":11536:11540   */\n      dup3\n        /* \"#utility.yul\":11532:11548   */\n      shr\n        /* \"#utility.yul\":11511:11548   */\n      swap1\n      pop\n        /* \"#utility.yul\":11438:11555   */\n      swap3\n      swap2\n      pop\n      pop\n      jump\t// out\n        /* \"#utility.yul\":11561:11730   */\n    tag_165:\n        /* \"#utility.yul\":11605:11611   */\n      0x00\n        /* \"#utility.yul\":11638:11689   */\n      tag_301\n        /* \"#utility.yul\":11686:11687   */\n      0x00\n        /* \"#utility.yul\":11682:11688   */\n      not\n        /* \"#utility.yul\":11674:11679   */\n      dup5\n        /* \"#utility.yul\":11671:11672   */\n      0x08\n        /* \"#utility.yul\":11667:11680   */\n      mul\n        /* \"#utility.yul\":11638:11689   */\n      tag_164\n      jump\t// in\n    tag_301:\n        /* \"#utility.yul\":11634:11690   */\n      not\n        /* \"#utility.yul\":11719:11723   */\n      dup1\n        /* \"#utility.yul\":11713:11717   */\n      dup4\n        /* \"#utility.yul\":11709:11724   */\n      and\n        /* \"#utility.yul\":11699:11724   */\n      swap2\n      pop\n        /* \"#utility.yul\":11612:11730   */\n      pop\n        /* \"#utility.yul\":11561:11730   */\n      swap3\n      swap2\n      pop\n      pop\n      jump\t// out\n        /* \"#utility.yul\":11735:12030   */\n    tag_166:\n        /* \"#utility.yul\":11811:11815   */\n      0x00\n        /* \"#utility.yul\":11957:11986   */\n      tag_303\n        /* \"#utility.yul\":11982:11985   */\n      dup4\n        /* \"#utility.yul\":11976:11980   */\n      dup4\n        /* \"#utility.yul\":11957:11986   */\n      tag_165\n      jump\t// in\n    tag_303:\n        /* \"#utility.yul\":11949:11986   */\n      swap2\n      pop\n        /* \"#utility.yul\":12019:12022   */\n      dup3\n        /* \"#utility.yul\":12016:12017   */\n      0x02\n        /* \"#utility.yul\":12012:12023   */\n      mul\n        /* \"#utility.yul\":12006:12010   */\n      dup3\n        /* \"#utility.yul\":12003:12024   */\n      or\n        /* \"#utility.yul\":11995:12024   */\n      swap1\n      pop\n        /* \"#utility.yul\":11735:12030   */\n      swap3\n      swap2\n      pop\n      pop\n      jump\t// out\n        /* \"#utility.yul\":12035:13430   */\n    tag_67:\n        /* \"#utility.yul\":12152:12189   */\n      tag_305\n        /* \"#utility.yul\":12185:12188   */\n      dup3\n        /* \"#utility.yul\":12152:12189   */\n      tag_133\n      jump\t// in\n    tag_305:\n        /* \"#utility.yul\":12254:12272   */\n      0xffffffffffffffff\n        /* \"#utility.yul\":12246:12252   */\n      dup2\n        /* \"#utility.yul\":12243:12273   */\n      gt\n        /* \"#utility.yul\":12240:12296   */\n      iszero\n      tag_306\n      jumpi\n        /* \"#utility.yul\":12276:12294   */\n      tag_307\n      tag_86\n      jump\t// in\n    tag_307:\n        /* \"#utility.yul\":12240:12296   */\n    tag_306:\n        /* \"#utility.yul\":12320:12358   */\n      tag_308\n        /* \"#utility.yul\":12352:12356   */\n      dup3\n        /* \"#utility.yul\":12346:12357   */\n      sload\n        /* \"#utility.yul\":12320:12358   */\n      tag_43\n      jump\t// in\n    tag_308:\n        /* \"#utility.yul\":12405:12472   */\n      tag_309\n        /* \"#utility.yul\":12465:12471   */\n      dup3\n        /* \"#utility.yul\":12457:12463   */\n      dup3\n        /* \"#utility.yul\":12451:12455   */\n      dup6\n        /* \"#utility.yul\":12405:12472   */\n      tag_163\n      jump\t// in\n    tag_309:\n        /* \"#utility.yul\":12499:12500   */\n      0x00\n        /* \"#utility.yul\":12523:12527   */\n      0x20\n        /* \"#utility.yul\":12510:12527   */\n      swap1\n      pop\n        /* \"#utility.yul\":12555:12557   */\n      0x1f\n        /* \"#utility.yul\":12547:12553   */\n      dup4\n        /* \"#utility.yul\":12544:12558   */\n      gt\n        /* \"#utility.yul\":12572:12573   */\n      0x01\n        /* \"#utility.yul\":12567:13185   */\n      dup2\n      eq\n      tag_311\n      jumpi\n        /* \"#utility.yul\":13229:13230   */\n      0x00\n        /* \"#utility.yul\":13246:13252   */\n      dup5\n        /* \"#utility.yul\":13243:13320   */\n      iszero\n      tag_312\n      jumpi\n        /* \"#utility.yul\":13295:13304   */\n      dup3\n        /* \"#utility.yul\":13290:13293   */\n      dup8\n        /* \"#utility.yul\":13286:13305   */\n      add\n        /* \"#utility.yul\":13280:13306   */\n      mload\n        /* \"#utility.yul\":13271:13306   */\n      swap1\n      pop\n        /* \"#utility.yul\":13243:13320   */\n    tag_312:\n        /* \"#utility.yul\":13346:13413   */\n      tag_313\n        /* \"#utility.yul\":13406:13412   */\n      dup6\n        /* \"#utility.yul\":13399:13404   */\n      dup3\n        /* \"#utility.yul\":13346:13413   */\n      tag_166\n      jump\t// in\n    tag_313:\n        /* \"#utility.yul\":13340:13344   */\n      dup7\n        /* \"#utility.yul\":13333:13414   */\n      sstore\n        /* \"#utility.yul\":13202:13424   */\n      pop\n        /* \"#utility.yul\":12537:13424   */\n      jump(tag_310)\n        /* \"#utility.yul\":12567:13185   */\n    tag_311:\n        /* \"#utility.yul\":12619:12623   */\n      0x1f\n        /* \"#utility.yul\":12615:12624   */\n      not\n        /* \"#utility.yul\":12607:12613   */\n      dup5\n        /* \"#utility.yul\":12603:12625   */\n      and\n        /* \"#utility.yul\":12653:12690   */\n      tag_314\n        /* \"#utility.yul\":12685:12689   */\n      dup7\n        /* \"#utility.yul\":12653:12690   */\n      tag_152\n      jump\t// in\n    tag_314:\n        /* \"#utility.yul\":12712:12713   */\n      0x00\n        /* \"#utility.yul\":12726:12934   */\n    tag_315:\n        /* \"#utility.yul\":12740:12747   */\n      dup3\n        /* \"#utility.yul\":12737:12738   */\n      dup2\n        /* \"#utility.yul\":12734:12748   */\n      lt\n        /* \"#utility.yul\":12726:12934   */\n      iszero\n      tag_317\n      jumpi\n        /* \"#utility.yul\":12819:12828   */\n      dup5\n        /* \"#utility.yul\":12814:12817   */\n      dup10\n        /* \"#utility.yul\":12810:12829   */\n      add\n        /* \"#utility.yul\":12804:12830   */\n      mload\n        /* \"#utility.yul\":12796:12802   */\n      dup3\n        /* \"#utility.yul\":12789:12831   */\n      sstore\n        /* \"#utility.yul\":12870:12871   */\n      0x01\n        /* \"#utility.yul\":12862:12868   */\n      dup3\n        /* \"#utility.yul\":12858:12872   */\n      add\n        /* \"#utility.yul\":12848:12872   */\n      swap2\n      pop\n        /* \"#utility.yul\":12917:12919   */\n      0x20\n        /* \"#utility.yul\":12906:12915   */\n      dup6\n        /* \"#utility.yul\":12902:12920   */\n      add\n        /* \"#utility.yul\":12889:12920   */\n      swap5\n      pop\n        /* \"#utility.yul\":12763:12767   */\n      0x20\n        /* \"#utility.yul\":12760:12761   */\n      dup2\n        /* \"#utility.yul\":12756:12768   */\n      add\n        /* \"#utility.yul\":12751:12768   */\n      swap1\n      pop\n        /* \"#utility.yul\":12726:12934   */\n      jump(tag_315)\n    tag_317:\n        /* \"#utility.yul\":12962:12968   */\n      dup7\n        /* \"#utility.yul\":12953:12960   */\n      dup4\n        /* \"#utility.yul\":12950:12969   */\n      lt\n        /* \"#utility.yul\":12947:13126   */\n      iszero\n      tag_318\n      jumpi\n        /* \"#utility.yul\":13020:13029   */\n      dup5\n        /* \"#utility.yul\":13015:13018   */\n      dup10\n        /* \"#utility.yul\":13011:13030   */\n      add\n        /* \"#utility.yul\":13005:13031   */\n      mload\n        /* \"#utility.yul\":13063:13111   */\n      tag_319\n        /* \"#utility.yul\":13105:13109   */\n      0x1f\n        /* \"#utility.yul\":13097:13103   */\n      dup10\n        /* \"#utility.yul\":13093:13110   */\n      and\n        /* \"#utility.yul\":13082:13091   */\n      dup3\n        /* \"#utility.yul\":13063:13111   */\n      tag_165\n      jump\t// in\n    tag_319:\n        /* \"#utility.yul\":13055:13061   */\n      dup4\n        /* \"#utility.yul\":13048:13112   */\n      sstore\n        /* \"#utility.yul\":12970:13126   */\n      pop\n        /* \"#utility.yul\":12947:13126   */\n    tag_318:\n        /* \"#utility.yul\":13172:13173   */\n      0x01\n        /* \"#utility.yul\":13168:13169   */\n      0x02\n        /* \"#utility.yul\":13160:13166   */\n      dup9\n        /* \"#utility.yul\":13156:13170   */\n      mul\n        /* \"#utility.yul\":13152:13174   */\n      add\n        /* \"#utility.yul\":13146:13150   */\n      dup9\n        /* \"#utility.yul\":13139:13175   */\n      sstore\n        /* \"#utility.yul\":12574:13185   */\n      pop\n      pop\n      pop\n        /* \"#utility.yul\":12537:13424   */\n    tag_310:\n      pop\n        /* \"#utility.yul\":12127:13430   */\n      pop\n      pop\n      pop\n        /* \"#utility.yul\":12035:13430   */\n      pop\n      pop\n      jump\t// out\n        /* \"#utility.yul\":13436:13616   */\n    tag_167:\n        /* \"#utility.yul\":13484:13561   */\n      0x4e487b7100000000000000000000000000000000000000000000000000000000\n        /* \"#utility.yul\":13481:13482   */\n      0x00\n        /* \"#utility.yul\":13474:13562   */\n      mstore\n        /* \"#utility.yul\":13581:13585   */\n      0x11\n        /* \"#utility.yul\":13578:13579   */\n      0x04\n        /* \"#utility.yul\":13571:13586   */\n      mstore\n        /* \"#utility.yul\":13605:13609   */\n      0x24\n        /* \"#utility.yul\":13602:13603   */\n      0x00\n        /* \"#utility.yul\":13595:13610   */\n      revert\n        /* \"#utility.yul\":13622:13855   */\n    tag_71:\n        /* \"#utility.yul\":13661:13664   */\n      0x00\n        /* \"#utility.yul\":13684:13708   */\n      tag_322\n        /* \"#utility.yul\":13702:13707   */\n      dup3\n        /* \"#utility.yul\":13684:13708   */\n      tag_130\n      jump\t// in\n    tag_322:\n        /* \"#utility.yul\":13675:13708   */\n      swap2\n      pop\n        /* \"#utility.yul\":13730:13796   */\n      0xffffffffffffffffffffffffffffffffffffffffffffffffffffffffffffffff\n        /* \"#utility.yul\":13723:13728   */\n      dup3\n        /* \"#utility.yul\":13720:13797   */\n      sub\n        /* \"#utility.yul\":13717:13820   */\n      tag_323\n      jumpi\n        /* \"#utility.yul\":13800:13818   */\n      tag_324\n      tag_167\n      jump\t// in\n    tag_324:\n        /* \"#utility.yul\":13717:13820   */\n    tag_323:\n        /* \"#utility.yul\":13847:13848   */\n      0x01\n        /* \"#utility.yul\":13840:13845   */\n      dup3\n        /* \"#utility.yul\":13836:13849   */\n      add\n        /* \"#utility.yul\":13829:13849   */\n      swap1\n      pop\n        /* \"#utility.yul\":13622:13855   */\n      swap2\n      swap1\n      pop\n      jump\t// out\n        /* \"#utility.yul\":13861:14052   */\n    tag_82:\n        /* \"#utility.yul\":13901:13904   */\n      0x00\n        /* \"#utility.yul\":13920:13940   */\n      tag_326\n        /* \"#utility.yul\":13938:13939   */\n      dup3\n        /* \"#utility.yul\":13920:13940   */\n      tag_130\n      jump\t// in\n    tag_326:\n        /* \"#utility.yul\":13915:13940   */\n      swap2\n      pop\n        /* \"#utility.yul\":13954:13974   */\n      tag_327\n        /* \"#utility.yul\":13972:13973   */\n      dup4\n        /* \"#utility.yul\":13954:13974   */\n      tag_130\n      jump\t// in\n    tag_327:\n        /* \"#utility.yul\":13949:13974   */\n      swap3\n      pop\n        /* \"#utility.yul\":13997:13998   */\n      dup3\n        /* \"#utility.yul\":13994:13995   */\n      dup3\n        /* \"#utility.yul\":13990:13999   */\n      add\n        /* \"#utility.yul\":13983:13999   */\n      swap1\n      pop\n        /* \"#utility.yul\":14018:14021   */\n      dup1\n        /* \"#utility.yul\":14015:14016   */\n      dup3\n        /* \"#utility.yul\":14012:14022   */\n      gt\n        /* \"#utility.yul\":14009:14045   */\n      iszero\n      tag_328\n      jumpi\n        /* \"#utility.yul\":14025:14043   */\n      tag_329\n      tag_167\n      jump\t// in\n    tag_329:\n        /* \"#utility.yul\":14009:14045   */\n    tag_328:\n        /* \"#utility.yul\":13861:14052   */\n      swap3\n      swap2\n      pop\n      pop\n      jump\t// out\n        /* \"#utility.yul\":14058:14238   */\n    tag_101:\n        /* \"#utility.yul\":14106:14183   */\n      0x4e487b7100000000000000000000000000000000000000000000000000000000\n        /* \"#utility.yul\":14103:14104   */\n      0x00\n        /* \"#utility.yul\":14096:14184   */\n      mstore\n        /* \"#utility.yul\":14203:14207   */\n      0x32\n        /* \"#utility.yul\":14200:14201   */\n      0x04\n        /* \"#utility.yul\":14193:14208   */\n      mstore\n        /* \"#utility.yul\":14227:14231   */\n      0x24\n        /* \"#utility.yul\":14224:14225   */\n      0x00\n        /* \"#utility.yul\":14217:14232   */\n      revert\n        /* \"#utility.yul\":14244:14438   */\n    tag_106:\n        /* \"#utility.yul\":14284:14288   */\n      0x00\n        /* \"#utility.yul\":14304:14324   */\n      tag_332\n        /* \"#utility.yul\":14322:14323   */\n      dup3\n        /* \"#utility.yul\":14304:14324   */\n      tag_130\n      jump\t// in\n    tag_332:\n        /* \"#utility.yul\":14299:14324   */\n      swap2\n      pop\n        /* \"#utility.yul\":14338:14358   */\n      tag_333\n        /* \"#utility.yul\":14356:14357   */\n      dup4\n        /* \"#utility.yul\":14338:14358   */\n      tag_130\n      jump\t// in\n    tag_333:\n        /* \"#utility.yul\":14333:14358   */\n      swap3\n      pop\n        /* \"#utility.yul\":14382:14383   */\n      dup3\n        /* \"#utility.yul\":14379:14380   */\n      dup3\n        /* \"#utility.yul\":14375:14384   */\n      sub\n        /* \"#utility.yul\":14367:14384   */\n      swap1\n      pop\n        /* \"#utility.yul\":14406:14407   */\n      dup2\n        /* \"#utility.yul\":14400:14404   */\n      dup2\n        /* \"#utility.yul\":14397:14408   */\n      gt\n        /* \"#utility.yul\":14394:14431   */\n      iszero\n      tag_334\n      jumpi\n        /* \"#utility.yul\":14411:14429   */\n      tag_335\n      tag_167\n      jump\t// in\n    tag_335:\n        /* \"#utility.yul\":14394:14431   */\n    tag_334:\n        /* \"#utility.yul\":14244:14438   */\n      swap3\n      swap2\n      pop\n      pop\n      jump\t// out\n        /* \"#utility.yul\":14444:14592   */\n    tag_168:\n        /* \"#utility.yul\":14546:14557   */\n      0x00\n        /* \"#utility.yul\":14583:14586   */\n      dup2\n        /* \"#utility.yul\":14568:14586   */\n      swap1\n      pop\n        /* \"#utility.yul\":14444:14592   */\n      swap3\n      swap2\n      pop\n      pop\n      jump\t// out\n        /* \"#utility.yul\":14622:15496   */\n    tag_169:\n        /* \"#utility.yul\":14725:14728   */\n      0x00\n        /* \"#utility.yul\":14762:14767   */\n      dup2\n        /* \"#utility.yul\":14756:14768   */\n      sload\n        /* \"#utility.yul\":14791:14827   */\n      tag_338\n        /* \"#utility.yul\":14817:14826   */\n      dup2\n        /* \"#utility.yul\":14791:14827   */\n      tag_43\n      jump\t// in\n    tag_338:\n        /* \"#utility.yul\":14843:14932   */\n      tag_339\n        /* \"#utility.yul\":14925:14931   */\n      dup2\n        /* \"#utility.yul\":14920:14923   */\n      dup7\n        /* \"#utility.yul\":14843:14932   */\n      tag_168\n      jump\t// in\n    tag_339:\n        /* \"#utility.yul\":14836:14932   */\n      swap5\n      pop\n        /* \"#utility.yul\":14963:14964   */\n      0x01\n        /* \"#utility.yul\":14952:14961   */\n      dup3\n        /* \"#utility.yul\":14948:14965   */\n      and\n        /* \"#utility.yul\":14979:14980   */\n      0x00\n        /* \"#utility.yul\":14974:15140   */\n      dup2\n      eq\n      tag_341\n      jumpi\n        /* \"#utility.yul\":15154:15155   */\n      0x01\n        /* \"#utility.yul\":15149:15490   */\n      dup2\n      eq\n      tag_342\n      jumpi\n        /* \"#utility.yul\":14941:15490   */\n      jump(tag_340)\n        /* \"#utility.yul\":14974:15140   */\n    tag_341:\n        /* \"#utility.yul\":15058:15062   */\n      0xff\n        /* \"#utility.yul\":15054:15063   */\n      not\n        /* \"#utility.yul\":15043:15052   */\n      dup4\n        /* \"#utility.yul\":15039:15064   */\n      and\n        /* \"#utility.yul\":15034:15037   */\n      dup7\n        /* \"#utility.yul\":15027:15065   */\n      mstore\n        /* \"#utility.yul\":15120:15126   */\n      dup2\n        /* \"#utility.yul\":15113:15127   */\n      iszero\n        /* \"#utility.yul\":15106:15128   */\n      iszero\n        /* \"#utility.yul\":15098:15104   */\n      dup3\n        /* \"#utility.yul\":15094:15129   */\n      mul\n        /* \"#utility.yul\":15089:15092   */\n      dup7\n        /* \"#utility.yul\":15085:15130   */\n      add\n        /* \"#utility.yul\":15078:15130   */\n      swap4\n      pop\n        /* \"#utility.yul\":14974:15140   */\n      jump(tag_340)\n        /* \"#utility.yul\":15149:15490   */\n    tag_342:\n        /* \"#utility.yul\":15216:15254   */\n      tag_343\n        /* \"#utility.yul\":15248:15253   */\n      dup6\n        /* \"#utility.yul\":15216:15254   */\n      tag_152\n      jump\t// in\n    tag_343:\n        /* \"#utility.yul\":15276:15277   */\n      0x00\n        /* \"#utility.yul\":15290:15444   */\n    tag_344:\n        /* \"#utility.yul\":15304:15310   */\n      dup4\n        /* \"#utility.yul\":15301:15302   */\n      dup2\n        /* \"#utility.yul\":15298:15311   */\n      lt\n        /* \"#utility.yul\":15290:15444   */\n      iszero\n      tag_346\n      jumpi\n        /* \"#utility.yul\":15378:15385   */\n      dup2\n        /* \"#utility.yul\":15372:15386   */\n      sload\n        /* \"#utility.yul\":15368:15369   */\n      dup2\n        /* \"#utility.yul\":15363:15366   */\n      dup10\n        /* \"#utility.yul\":15359:15370   */\n      add\n        /* \"#utility.yul\":15352:15387   */\n      mstore\n        /* \"#utility.yul\":15428:15429   */\n      0x01\n        /* \"#utility.yul\":15419:15426   */\n      dup3\n        /* \"#utility.yul\":15415:15430   */\n      add\n        /* \"#utility.yul\":15404:15430   */\n      swap2\n      pop\n        /* \"#utility.yul\":15326:15330   */\n      0x20\n        /* \"#utility.yul\":15323:15324   */\n      dup2\n        /* \"#utility.yul\":15319:15331   */\n      add\n        /* \"#utility.yul\":15314:15331   */\n      swap1\n      pop\n        /* \"#utility.yul\":15290:15444   */\n      jump(tag_344)\n    tag_346:\n        /* \"#utility.yul\":15473:15479   */\n      dup4\n        /* \"#utility.yul\":15468:15471   */\n      dup9\n        /* \"#utility.yul\":15464:15480   */\n      add\n        /* \"#utility.yul\":15457:15480   */\n      swap6\n      pop\n        /* \"#utility.yul\":15156:15490   */\n      pop\n      pop\n        /* \"#utility.yul\":14941:15490   */\n    tag_340:\n      pop\n        /* \"#utility.yul\":14729:15496   */\n      pop\n      pop\n        /* \"#utility.yul\":14622:15496   */\n      swap3\n      swap2\n      pop\n      pop\n      jump\t// out\n        /* \"#utility.yul\":15502:15771   */\n    tag_114:\n        /* \"#utility.yul\":15631:15634   */\n      0x00\n        /* \"#utility.yul\":15653:15745   */\n      tag_348\n        /* \"#utility.yul\":15741:15744   */\n      dup3\n        /* \"#utility.yul\":15732:15738   */\n      dup5\n        /* \"#utility.yul\":15653:15745   */\n      tag_169\n      jump\t// in\n    tag_348:\n        /* \"#utility.yul\":15646:15745   */\n      swap2\n      pop\n        /* \"#utility.yul\":15762:15765   */\n      dup2\n        /* \"#utility.yul\":15755:15765   */\n      swap1\n      pop\n        /* \"#utility.yul\":15502:15771   */\n      swap3\n      swap2\n      pop\n      pop\n      jump\t// out\n        /* \"#utility.yul\":15777:16167   */\n    tag_170:\n        /* \"#utility.yul\":15883:15886   */\n      0x00\n        /* \"#utility.yul\":15911:15950   */\n      tag_350\n        /* \"#utility.yul\":15944:15949   */\n      dup3\n        /* \"#utility.yul\":15911:15950   */\n      tag_133\n      jump\t// in\n    tag_350:\n        /* \"#utility.yul\":15966:16055   */\n      tag_351\n        /* \"#utility.yul\":16048:16054   */\n      dup2\n        /* \"#utility.yul\":16043:16046   */\n      dup6\n        /* \"#utility.yul\":15966:16055   */\n      tag_168\n      jump\t// in\n    tag_351:\n        /* \"#utility.yul\":15959:16055   */\n      swap4\n      pop\n        /* \"#utility.yul\":16064:16129   */\n      tag_352\n        /* \"#utility.yul\":16122:16128   */\n      dup2\n        /* \"#utility.yul\":16117:16120   */\n      dup6\n        /* \"#utility.yul\":16110:16114   */\n      0x20\n        /* \"#utility.yul\":16103:16108   */\n      dup7\n        /* \"#utility.yul\":16099:16115   */\n      add\n        /* \"#utility.yul\":16064:16129   */\n      tag_135\n      jump\t// in\n    tag_352:\n        /* \"#utility.yul\":16154:16160   */\n      dup1\n        /* \"#utility.yul\":16149:16152   */\n      dup5\n        /* \"#utility.yul\":16145:16161   */\n      add\n        /* \"#utility.yul\":16138:16161   */\n      swap2\n      pop\n        /* \"#utility.yul\":15887:16167   */\n      pop\n        /* \"#utility.yul\":15777:16167   */\n      swap3\n      swap2\n      pop\n      pop\n      jump\t// out\n        /* \"#utility.yul\":16173:16448   */\n    tag_116:\n        /* \"#utility.yul\":16305:16308   */\n      0x00\n        /* \"#utility.yul\":16327:16422   */\n      tag_354\n        /* \"#utility.yul\":16418:16421   */\n      dup3\n        /* \"#utility.yul\":16409:16415   */\n      dup5\n        /* \"#utility.yul\":16327:16422   */\n      tag_170\n      jump\t// in\n    tag_354:\n        /* \"#utility.yul\":16320:16422   */\n      swap2\n      pop\n        /* \"#utility.yul\":16439:16442   */\n      dup2\n        /* \"#utility.yul\":16432:16442   */\n      swap1\n      pop\n        /* \"#utility.yul\":16173:16448   */\n      swap3\n      swap2\n      pop\n      pop\n      jump\t// out\n\n    auxdata: 0xa26469706673582212207286866fc6269493369a47020bfa2a90200466d9c4bbbe0c4f286bfb7e74c12464736f6c63430008190033\n}\n",
				"bytecode": {
					"linkReferences": {},
					"object": "608060405234801561000f575f80fd5b50604051611821380380611821833981810160405281019061003191906101da565b335f806101000a81548173ffffffffffffffffffffffffffffffffffffffff021916908373ffffffffffffffffffffffffffffffffffffffff1602179055505f6003819055508060019081610086919061042e565b50506104fd565b5f604051905090565b5f80fd5b5f80fd5b5f80fd5b5f80fd5b5f601f19601f8301169050919050565b7f4e487b71000000000000000000000000000000000000000000000000000000005f52604160045260245ffd5b6100ec826100a6565b810181811067ffffffffffffffff8211171561010b5761010a6100b6565b5b80604052505050565b5f61011d61008d565b905061012982826100e3565b919050565b5f67ffffffffffffffff821115610148576101476100b6565b5b610151826100a6565b9050602081019050919050565b8281835e5f83830152505050565b5f61017e6101798461012e565b610114565b90508281526020810184848401111561019a576101996100a2565b5b6101a584828561015e565b509392505050565b5f82601f8301126101c1576101c061009e565b5b81516101d184826020860161016c565b91505092915050565b5f602082840312156101ef576101ee610096565b5b5f82015167ffffffffffffffff81111561020c5761020b61009a565b5b610218848285016101ad565b91505092915050565b5f81519050919050565b7f4e487b71000000000000000000000000000000000000000000000000000000005f52602260045260245ffd5b5f600282049050600182168061026f57607f821691505b6020821081036102825761028161022b565b5b50919050565b5f819050815f5260205f209050919050565b5f6020601f8301049050919050565b5f82821b905092915050565b5f600883026102e47fffffffffffffffffffffffffffffffffffffffffffffffffffffffffffffffff826102a9565b6102ee86836102a9565b95508019841693508086168417925050509392505050565b5f819050919050565b5f819050919050565b5f61033261032d61032884610306565b61030f565b610306565b9050919050565b5f819050919050565b61034b83610318565b61035f61035782610339565b8484546102b5565b825550505050565b5f90565b610373610367565b61037e818484610342565b505050565b5b818110156103a1576103965f8261036b565b600181019050610384565b5050565b601f8211156103e6576103b781610288565b6103c08461029a565b810160208510156103cf578190505b6103e36103db8561029a565b830182610383565b50505b505050565b5f82821c905092915050565b5f6104065f19846008026103eb565b1980831691505092915050565b5f61041e83836103f7565b9150826002028217905092915050565b61043782610221565b67ffffffffffffffff8111156104505761044f6100b6565b5b61045a8254610258565b6104658282856103a5565b5f60209050601f831160018114610496575f8415610484578287015190505b61048e8582610413565b8655506104f5565b601f1984166104a486610288565b5f5b828110156104cb578489015182556001820191506020850194506020810190506104a6565b868310156104e857848901516104e4601f8916826103f7565b8355505b6001600288020188555050505b505050505050565b6113178061050a5f395ff3fe608060405234801561000f575f80fd5b506004361061007b575f3560e01c806341c0e1b51161005957806341c0e1b5146100ff578063893d20e814610109578063d1e831eb14610127578063e04110b8146101455761007b565b806325c8203c1461007f5780632c588770146100b15780633b0ab39a146100cf575b5f80fd5b61009960048036038101906100949190610a13565b610175565b6040516100a893929190610aae565b60405180910390f35b6100b9610357565b6040516100c69190610af8565b60405180910390f35b6100e960048036038101906100e49190610c44565b6103e7565b6040516100f69190610d02565b60405180910390f35b6101076104d1565b005b61011161055d565b60405161011e9190610d5a565b60405180910390f35b61012f610584565b60405161013c9190610af8565b60405180910390f35b61015f600480360381019061015a9190610d73565b610818565b60405161016c9190610d02565b60405180910390f35b606080606060025f8581526020019081526020015f205f01805461019890610e58565b80601f01602080910402602001604051908101604052809291908181526020018280546101c490610e58565b801561020f5780601f106101e65761010080835404028352916020019161020f565b820191905f5260205f20905b8154815290600101906020018083116101f257829003601f168201915b5050505050925060025f8581526020019081526020015f20600101805461023590610e58565b80601f016020809104026020016040519081016040528092919081815260200182805461026190610e58565b80156102ac5780601f10610283576101008083540402835291602001916102ac565b820191905f5260205f20905b81548152906001019060200180831161028f57829003601f168201915b5050505050915060025f8581526020019081526020015f2060020180546102d290610e58565b80601f01602080910402602001604051908101604052809291908181526020018280546102fe90610e58565b80156103495780601f1061032057610100808354040283529160200191610349565b820191905f5260205f20905b81548152906001019060200180831161032c57829003601f168201915b505050505090509193909250565b60606001805461036690610e58565b80601f016020809104026020016040519081016040528092919081815260200182805461039290610e58565b80156103dd5780601f106103b4576101008083540402835291602001916103dd565b820191905f5260205f20905b8154815290600101906020018083116103c057829003601f168201915b5050505050905090565b5f805f9054906101000a900473ffffffffffffffffffffffffffffffffffffffff1673ffffffffffffffffffffffffffffffffffffffff163373ffffffffffffffffffffffffffffffffffffffff1614610443575f90506104ca565b8360025f60035481526020019081526020015f205f0190816104659190611025565b508260025f60035481526020019081526020015f2060010190816104899190611025565b508160025f60035481526020019081526020015f2060020190816104ad9190611025565b5060035f8154809291906104c090611121565b9190505550600190505b9392505050565b5f8054906101000a900473ffffffffffffffffffffffffffffffffffffffff1673ffffffffffffffffffffffffffffffffffffffff163373ffffffffffffffffffffffffffffffffffffffff160361055b575f8054906101000a900473ffffffffffffffffffffffffffffffffffffffff1673ffffffffffffffffffffffffffffffffffffffff16ff5b565b5f805f9054906101000a900473ffffffffffffffffffffffffffffffffffffffff16905090565b60605f600354036105a55760405180602001604052805f8152509050610815565b5f805b6003548110156105f857600160025f8381526020019081526020015f205f0180546105d290610e58565b9050836105df9190611168565b6105e99190611168565b915080806001019150506105a8565b505f8167ffffffffffffffff81111561061457610613610b20565b5b6040519080825280601f01601f1916602001820160405280156106465781602001600182028036833780820191505090505b5090505f805b60035481101561080d575f60025f8381526020019081526020015f205f01805461067590610e58565b80601f01602080910402602001604051908101604052809291908181526020018280546106a190610e58565b80156106ec5780601f106106c3576101008083540402835291602001916106ec565b820191905f5260205f20905b8154815290600101906020018083116106cf57829003601f168201915b505050505090505f5b8151811015610778578181815181106107115761071061119b565b5b602001015160f81c60f81b85858151811061072f5761072e61119b565b5b60200101907effffffffffffffffffffffffffffffffffffffffffffffffffffffffffffff191690815f1a905350838061076890611121565b94505080806001019150506106f5565b50600160035461078891906111c8565b82146107ff577f2c000000000000000000000000000000000000000000000000000000000000008484815181106107c2576107c161119b565b5b60200101907effffffffffffffffffffffffffffffffffffffffffffffffffffffffffffff191690815f1a90535082806107fb90611121565b9350505b50808060010191505061064c565b508193505050505b90565b5f805f9054906101000a900473ffffffffffffffffffffffffffffffffffffffff1673ffffffffffffffffffffffffffffffffffffffff163373ffffffffffffffffffffffffffffffffffffffff1614610874575f90506109c7565b5f60025f8781526020019081526020015f209050805f0160405160200161089b9190611285565b60405160208183030381529060405280519060200120856040516020016108c291906112cb565b60405160208183030381529060405280519060200120146108ef5784815f0190816108ed9190611025565b505b806001016040516020016109039190611285565b604051602081830303815290604052805190602001208460405160200161092a91906112cb565b604051602081830303815290604052805190602001201461095857838160010190816109569190611025565b505b8060020160405160200161096c9190611285565b604051602081830303815290604052805190602001208360405160200161099391906112cb565b60405160208183030381529060405280519060200120146109c157828160020190816109bf9190611025565b505b60019150505b949350505050565b5f604051905090565b5f80fd5b5f80fd5b5f819050919050565b6109f2816109e0565b81146109fc575f80fd5b50565b5f81359050610a0d816109e9565b92915050565b5f60208284031215610a2857610a276109d8565b5b5f610a35848285016109ff565b91505092915050565b5f81519050919050565b5f82825260208201905092915050565b8281835e5f83830152505050565b5f601f19601f8301169050919050565b5f610a8082610a3e565b610a8a8185610a48565b9350610a9a818560208601610a58565b610aa381610a66565b840191505092915050565b5f6060820190508181035f830152610ac68186610a76565b90508181036020830152610ada8185610a76565b90508181036040830152610aee8184610a76565b9050949350505050565b5f6020820190508181035f830152610b108184610a76565b905092915050565b5f80fd5b5f80fd5b7f4e487b71000000000000000000000000000000000000000000000000000000005f52604160045260245ffd5b610b5682610a66565b810181811067ffffffffffffffff82111715610b7557610b74610b20565b5b80604052505050565b5f610b876109cf565b9050610b938282610b4d565b919050565b5f67ffffffffffffffff821115610bb257610bb1610b20565b5b610bbb82610a66565b9050602081019050919050565b828183375f83830152505050565b5f610be8610be384610b98565b610b7e565b905082815260208101848484011115610c0457610c03610b1c565b5b610c0f848285610bc8565b509392505050565b5f82601f830112610c2b57610c2a610b18565b5b8135610c3b848260208601610bd6565b91505092915050565b5f805f60608486031215610c5b57610c5a6109d8565b5b5f84013567ffffffffffffffff811115610c7857610c776109dc565b5b610c8486828701610c17565b935050602084013567ffffffffffffffff811115610ca557610ca46109dc565b5b610cb186828701610c17565b925050604084013567ffffffffffffffff811115610cd257610cd16109dc565b5b610cde86828701610c17565b9150509250925092565b5f8115159050919050565b610cfc81610ce8565b82525050565b5f602082019050610d155f830184610cf3565b92915050565b5f73ffffffffffffffffffffffffffffffffffffffff82169050919050565b5f610d4482610d1b565b9050919050565b610d5481610d3a565b82525050565b5f602082019050610d6d5f830184610d4b565b92915050565b5f805f8060808587031215610d8b57610d8a6109d8565b5b5f610d98878288016109ff565b945050602085013567ffffffffffffffff811115610db957610db86109dc565b5b610dc587828801610c17565b935050604085013567ffffffffffffffff811115610de657610de56109dc565b5b610df287828801610c17565b925050606085013567ffffffffffffffff811115610e1357610e126109dc565b5b610e1f87828801610c17565b91505092959194509250565b7f4e487b71000000000000000000000000000000000000000000000000000000005f52602260045260245ffd5b5f6002820490506001821680610e6f57607f821691505b602082108103610e8257610e81610e2b565b5b50919050565b5f819050815f5260205f209050919050565b5f6020601f8301049050919050565b5f82821b905092915050565b5f60088302610ee47fffffffffffffffffffffffffffffffffffffffffffffffffffffffffffffffff82610ea9565b610eee8683610ea9565b95508019841693508086168417925050509392505050565b5f819050919050565b5f610f29610f24610f1f846109e0565b610f06565b6109e0565b9050919050565b5f819050919050565b610f4283610f0f565b610f56610f4e82610f30565b848454610eb5565b825550505050565b5f90565b610f6a610f5e565b610f75818484610f39565b505050565b5b81811015610f9857610f8d5f82610f62565b600181019050610f7b565b5050565b601f821115610fdd57610fae81610e88565b610fb784610e9a565b81016020851015610fc6578190505b610fda610fd285610e9a565b830182610f7a565b50505b505050565b5f82821c905092915050565b5f610ffd5f1984600802610fe2565b1980831691505092915050565b5f6110158383610fee565b9150826002028217905092915050565b61102e82610a3e565b67ffffffffffffffff81111561104757611046610b20565b5b6110518254610e58565b61105c828285610f9c565b5f60209050601f83116001811461108d575f841561107b578287015190505b611085858261100a565b8655506110ec565b601f19841661109b86610e88565b5f5b828110156110c25784890151825560018201915060208501945060208101905061109d565b868310156110df57848901516110db601f891682610fee565b8355505b6001600288020188555050505b505050505050565b7f4e487b71000000000000000000000000000000000000000000000000000000005f52601160045260245ffd5b5f61112b826109e0565b91507fffffffffffffffffffffffffffffffffffffffffffffffffffffffffffffffff820361115d5761115c6110f4565b5b600182019050919050565b5f611172826109e0565b915061117d836109e0565b9250828201905080821115611195576111946110f4565b5b92915050565b7f4e487b71000000000000000000000000000000000000000000000000000000005f52603260045260245ffd5b5f6111d2826109e0565b91506111dd836109e0565b92508282039050818111156111f5576111f46110f4565b5b92915050565b5f81905092915050565b5f815461121181610e58565b61121b81866111fb565b9450600182165f8114611235576001811461124a5761127c565b60ff198316865281151582028601935061127c565b61125385610e88565b5f5b8381101561127457815481890152600182019150602081019050611255565b838801955050505b50505092915050565b5f6112908284611205565b915081905092915050565b5f6112a582610a3e565b6112af81856111fb565b93506112bf818560208601610a58565b80840191505092915050565b5f6112d6828461129b565b91508190509291505056fea26469706673582212207286866fc6269493369a47020bfa2a90200466d9c4bbbe0c4f286bfb7e74c12464736f6c63430008190033",
					"opcodes": "PUSH1 0x80 PUSH1 0x40 MSTORE CALLVALUE DUP1 ISZERO PUSH2 0xF JUMPI PUSH0 DUP1 REVERT JUMPDEST POP PUSH1 0x40 MLOAD PUSH2 0x1821 CODESIZE SUB DUP1 PUSH2 0x1821 DUP4 CODECOPY DUP2 DUP2 ADD PUSH1 0x40 MSTORE DUP2 ADD SWAP1 PUSH2 0x31 SWAP2 SWAP1 PUSH2 0x1DA JUMP JUMPDEST CALLER PUSH0 DUP1 PUSH2 0x100 EXP DUP2 SLOAD DUP2 PUSH20 0xFFFFFFFFFFFFFFFFFFFFFFFFFFFFFFFFFFFFFFFF MUL NOT AND SWAP1 DUP4 PUSH20 0xFFFFFFFFFFFFFFFFFFFFFFFFFFFFFFFFFFFFFFFF AND MUL OR SWAP1 SSTORE POP PUSH0 PUSH1 0x3 DUP2 SWAP1 SSTORE POP DUP1 PUSH1 0x1 SWAP1 DUP2 PUSH2 0x86 SWAP2 SWAP1 PUSH2 0x42E JUMP JUMPDEST POP POP PUSH2 0x4FD JUMP JUMPDEST PUSH0 PUSH1 0x40 MLOAD SWAP1 POP SWAP1 JUMP JUMPDEST PUSH0 DUP1 REVERT JUMPDEST PUSH0 DUP1 REVERT JUMPDEST PUSH0 DUP1 REVERT JUMPDEST PUSH0 DUP1 REVERT JUMPDEST PUSH0 PUSH1 0x1F NOT PUSH1 0x1F DUP4 ADD AND SWAP1 POP SWAP2 SWAP1 POP JUMP JUMPDEST PUSH32 0x4E487B7100000000000000000000000000000000000000000000000000000000 PUSH0 MSTORE PUSH1 0x41 PUSH1 0x4 MSTORE PUSH1 0x24 PUSH0 REVERT JUMPDEST PUSH2 0xEC DUP3 PUSH2 0xA6 JUMP JUMPDEST DUP2 ADD DUP2 DUP2 LT PUSH8 0xFFFFFFFFFFFFFFFF DUP3 GT OR ISZERO PUSH2 0x10B JUMPI PUSH2 0x10A PUSH2 0xB6 JUMP JUMPDEST JUMPDEST DUP1 PUSH1 0x40 MSTORE POP POP POP JUMP JUMPDEST PUSH0 PUSH2 0x11D PUSH2 0x8D JUMP JUMPDEST SWAP1 POP PUSH2 0x129 DUP3 DUP3 PUSH2 0xE3 JUMP JUMPDEST SWAP2 SWAP1 POP JUMP JUMPDEST PUSH0 PUSH8 0xFFFFFFFFFFFFFFFF DUP3 GT ISZERO PUSH2 0x148 JUMPI PUSH2 0x147 PUSH2 0xB6 JUMP JUMPDEST JUMPDEST PUSH2 0x151 DUP3 PUSH2 0xA6 JUMP JUMPDEST SWAP1 POP PUSH1 0x20 DUP2 ADD SWAP1 POP SWAP2 SWAP1 POP JUMP JUMPDEST DUP3 DUP2 DUP4 MCOPY PUSH0 DUP4 DUP4 ADD MSTORE POP POP POP JUMP JUMPDEST PUSH0 PUSH2 0x17E PUSH2 0x179 DUP5 PUSH2 0x12E JUMP JUMPDEST PUSH2 0x114 JUMP JUMPDEST SWAP1 POP DUP3 DUP2 MSTORE PUSH1 0x20 DUP2 ADD DUP5 DUP5 DUP5 ADD GT ISZERO PUSH2 0x19A JUMPI PUSH2 0x199 PUSH2 0xA2 JUMP JUMPDEST JUMPDEST PUSH2 0x1A5 DUP5 DUP3 DUP6 PUSH2 0x15E JUMP JUMPDEST POP SWAP4 SWAP3 POP POP POP JUMP JUMPDEST PUSH0 DUP3 PUSH1 0x1F DUP4 ADD SLT PUSH2 0x1C1 JUMPI PUSH2 0x1C0 PUSH2 0x9E JUMP JUMPDEST JUMPDEST DUP2 MLOAD PUSH2 0x1D1 DUP5 DUP3 PUSH1 0x20 DUP7 ADD PUSH2 0x16C JUMP JUMPDEST SWAP2 POP POP SWAP3 SWAP2 POP POP JUMP JUMPDEST PUSH0 PUSH1 0x20 DUP3 DUP5 SUB SLT ISZERO PUSH2 0x1EF JUMPI PUSH2 0x1EE PUSH2 0x96 JUMP JUMPDEST JUMPDEST PUSH0 DUP3 ADD MLOAD PUSH8 0xFFFFFFFFFFFFFFFF DUP2 GT ISZERO PUSH2 0x20C JUMPI PUSH2 0x20B PUSH2 0x9A JUMP JUMPDEST JUMPDEST PUSH2 0x218 DUP5 DUP3 DUP6 ADD PUSH2 0x1AD JUMP JUMPDEST SWAP2 POP POP SWAP3 SWAP2 POP POP JUMP JUMPDEST PUSH0 DUP2 MLOAD SWAP1 POP SWAP2 SWAP1 POP JUMP JUMPDEST PUSH32 0x4E487B7100000000000000000000000000000000000000000000000000000000 PUSH0 MSTORE PUSH1 0x22 PUSH1 0x4 MSTORE PUSH1 0x24 PUSH0 REVERT JUMPDEST PUSH0 PUSH1 0x2 DUP3 DIV SWAP1 POP PUSH1 0x1 DUP3 AND DUP1 PUSH2 0x26F JUMPI PUSH1 0x7F DUP3 AND SWAP2 POP JUMPDEST PUSH1 0x20 DUP3 LT DUP2 SUB PUSH2 0x282 JUMPI PUSH2 0x281 PUSH2 0x22B JUMP JUMPDEST JUMPDEST POP SWAP2 SWAP1 POP JUMP JUMPDEST PUSH0 DUP2 SWAP1 POP DUP2 PUSH0 MSTORE PUSH1 0x20 PUSH0 KECCAK256 SWAP1 POP SWAP2 SWAP1 POP JUMP JUMPDEST PUSH0 PUSH1 0x20 PUSH1 0x1F DUP4 ADD DIV SWAP1 POP SWAP2 SWAP1 POP JUMP JUMPDEST PUSH0 DUP3 DUP3 SHL SWAP1 POP SWAP3 SWAP2 POP POP JUMP JUMPDEST PUSH0 PUSH1 0x8 DUP4 MUL PUSH2 0x2E4 PUSH32 0xFFFFFFFFFFFFFFFFFFFFFFFFFFFFFFFFFFFFFFFFFFFFFFFFFFFFFFFFFFFFFFFF DUP3 PUSH2 0x2A9 JUMP JUMPDEST PUSH2 0x2EE DUP7 DUP4 PUSH2 0x2A9 JUMP JUMPDEST SWAP6 POP DUP1 NOT DUP5 AND SWAP4 POP DUP1 DUP7 AND DUP5 OR SWAP3 POP POP POP SWAP4 SWAP3 POP POP POP JUMP JUMPDEST PUSH0 DUP2 SWAP1 POP SWAP2 SWAP1 POP JUMP JUMPDEST PUSH0 DUP2 SWAP1 POP SWAP2 SWAP1 POP JUMP JUMPDEST PUSH0 PUSH2 0x332 PUSH2 0x32D PUSH2 0x328 DUP5 PUSH2 0x306 JUMP JUMPDEST PUSH2 0x30F JUMP JUMPDEST PUSH2 0x306 JUMP JUMPDEST SWAP1 POP SWAP2 SWAP1 POP JUMP JUMPDEST PUSH0 DUP2 SWAP1 POP SWAP2 SWAP1 POP JUMP JUMPDEST PUSH2 0x34B DUP4 PUSH2 0x318 JUMP JUMPDEST PUSH2 0x35F PUSH2 0x357 DUP3 PUSH2 0x339 JUMP JUMPDEST DUP5 DUP5 SLOAD PUSH2 0x2B5 JUMP JUMPDEST DUP3 SSTORE POP POP POP POP JUMP JUMPDEST PUSH0 SWAP1 JUMP JUMPDEST PUSH2 0x373 PUSH2 0x367 JUMP JUMPDEST PUSH2 0x37E DUP2 DUP5 DUP5 PUSH2 0x342 JUMP JUMPDEST POP POP POP JUMP JUMPDEST JUMPDEST DUP2 DUP2 LT ISZERO PUSH2 0x3A1 JUMPI PUSH2 0x396 PUSH0 DUP3 PUSH2 0x36B JUMP JUMPDEST PUSH1 0x1 DUP2 ADD SWAP1 POP PUSH2 0x384 JUMP JUMPDEST POP POP JUMP JUMPDEST PUSH1 0x1F DUP3 GT ISZERO PUSH2 0x3E6 JUMPI PUSH2 0x3B7 DUP2 PUSH2 0x288 JUMP JUMPDEST PUSH2 0x3C0 DUP5 PUSH2 0x29A JUMP JUMPDEST DUP2 ADD PUSH1 0x20 DUP6 LT ISZERO PUSH2 0x3CF JUMPI DUP2 SWAP1 POP JUMPDEST PUSH2 0x3E3 PUSH2 0x3DB DUP6 PUSH2 0x29A JUMP JUMPDEST DUP4 ADD DUP3 PUSH2 0x383 JUMP JUMPDEST POP POP JUMPDEST POP POP POP JUMP JUMPDEST PUSH0 DUP3 DUP3 SHR SWAP1 POP SWAP3 SWAP2 POP POP JUMP JUMPDEST PUSH0 PUSH2 0x406 PUSH0 NOT DUP5 PUSH1 0x8 MUL PUSH2 0x3EB JUMP JUMPDEST NOT DUP1 DUP4 AND SWAP2 POP POP SWAP3 SWAP2 POP POP JUMP JUMPDEST PUSH0 PUSH2 0x41E DUP4 DUP4 PUSH2 0x3F7 JUMP JUMPDEST SWAP2 POP DUP3 PUSH1 0x2 MUL DUP3 OR SWAP1 POP SWAP3 SWAP2 POP POP JUMP JUMPDEST PUSH2 0x437 DUP3 PUSH2 0x221 JUMP JUMPDEST PUSH8 0xFFFFFFFFFFFFFFFF DUP2 GT ISZERO PUSH2 0x450 JUMPI PUSH2 0x44F PUSH2 0xB6 JUMP JUMPDEST JUMPDEST PUSH2 0x45A DUP3 SLOAD PUSH2 0x258 JUMP JUMPDEST PUSH2 0x465 DUP3 DUP3 DUP6 PUSH2 0x3A5 JUMP JUMPDEST PUSH0 PUSH1 0x20 SWAP1 POP PUSH1 0x1F DUP4 GT PUSH1 0x1 DUP2 EQ PUSH2 0x496 JUMPI PUSH0 DUP5 ISZERO PUSH2 0x484 JUMPI DUP3 DUP8 ADD MLOAD SWAP1 POP JUMPDEST PUSH2 0x48E DUP6 DUP3 PUSH2 0x413 JUMP JUMPDEST DUP7 SSTORE POP PUSH2 0x4F5 JUMP JUMPDEST PUSH1 0x1F NOT DUP5 AND PUSH2 0x4A4 DUP7 PUSH2 0x288 JUMP JUMPDEST PUSH0 JUMPDEST DUP3 DUP2 LT ISZERO PUSH2 0x4CB JUMPI DUP5 DUP10 ADD MLOAD DUP3 SSTORE PUSH1 0x1 DUP3 ADD SWAP2 POP PUSH1 0x20 DUP6 ADD SWAP5 POP PUSH1 0x20 DUP2 ADD SWAP1 POP PUSH2 0x4A6 JUMP JUMPDEST DUP7 DUP4 LT ISZERO PUSH2 0x4E8 JUMPI DUP5 DUP10 ADD MLOAD PUSH2 0x4E4 PUSH1 0x1F DUP10 AND DUP3 PUSH2 0x3F7 JUMP JUMPDEST DUP4 SSTORE POP JUMPDEST PUSH1 0x1 PUSH1 0x2 DUP9 MUL ADD DUP9 SSTORE POP POP POP JUMPDEST POP POP POP POP POP POP JUMP JUMPDEST PUSH2 0x1317 DUP1 PUSH2 0x50A PUSH0 CODECOPY PUSH0 RETURN INVALID PUSH1 0x80 PUSH1 0x40 MSTORE CALLVALUE DUP1 ISZERO PUSH2 0xF JUMPI PUSH0 DUP1 REVERT JUMPDEST POP PUSH1 0x4 CALLDATASIZE LT PUSH2 0x7B JUMPI PUSH0 CALLDATALOAD PUSH1 0xE0 SHR DUP1 PUSH4 0x41C0E1B5 GT PUSH2 0x59 JUMPI DUP1 PUSH4 0x41C0E1B5 EQ PUSH2 0xFF JUMPI DUP1 PUSH4 0x893D20E8 EQ PUSH2 0x109 JUMPI DUP1 PUSH4 0xD1E831EB EQ PUSH2 0x127 JUMPI DUP1 PUSH4 0xE04110B8 EQ PUSH2 0x145 JUMPI PUSH2 0x7B JUMP JUMPDEST DUP1 PUSH4 0x25C8203C EQ PUSH2 0x7F JUMPI DUP1 PUSH4 0x2C588770 EQ PUSH2 0xB1 JUMPI DUP1 PUSH4 0x3B0AB39A EQ PUSH2 0xCF JUMPI JUMPDEST PUSH0 DUP1 REVERT JUMPDEST PUSH2 0x99 PUSH1 0x4 DUP1 CALLDATASIZE SUB DUP2 ADD SWAP1 PUSH2 0x94 SWAP2 SWAP1 PUSH2 0xA13 JUMP JUMPDEST PUSH2 0x175 JUMP JUMPDEST PUSH1 0x40 MLOAD PUSH2 0xA8 SWAP4 SWAP3 SWAP2 SWAP1 PUSH2 0xAAE JUMP JUMPDEST PUSH1 0x40 MLOAD DUP1 SWAP2 SUB SWAP1 RETURN JUMPDEST PUSH2 0xB9 PUSH2 0x357 JUMP JUMPDEST PUSH1 0x40 MLOAD PUSH2 0xC6 SWAP2 SWAP1 PUSH2 0xAF8 JUMP JUMPDEST PUSH1 0x40 MLOAD DUP1 SWAP2 SUB SWAP1 RETURN JUMPDEST PUSH2 0xE9 PUSH1 0x4 DUP1 CALLDATASIZE SUB DUP2 ADD SWAP1 PUSH2 0xE4 SWAP2 SWAP1 PUSH2 0xC44 JUMP JUMPDEST PUSH2 0x3E7 JUMP JUMPDEST PUSH1 0x40 MLOAD PUSH2 0xF6 SWAP2 SWAP1 PUSH2 0xD02 JUMP JUMPDEST PUSH1 0x40 MLOAD DUP1 SWAP2 SUB SWAP1 RETURN JUMPDEST PUSH2 0x107 PUSH2 0x4D1 JUMP JUMPDEST STOP JUMPDEST PUSH2 0x111 PUSH2 0x55D JUMP JUMPDEST PUSH1 0x40 MLOAD PUSH2 0x11E SWAP2 SWAP1 PUSH2 0xD5A JUMP JUMPDEST PUSH1 0x40 MLOAD DUP1 SWAP2 SUB SWAP1 RETURN JUMPDEST PUSH2 0x12F PUSH2 0x584 JUMP JUMPDEST PUSH1 0x40 MLOAD PUSH2 0x13C SWAP2 SWAP1 PUSH2 0xAF8 JUMP JUMPDEST PUSH1 0x40 MLOAD DUP1 SWAP2 SUB SWAP1 RETURN JUMPDEST PUSH2 0x15F PUSH1 0x4 DUP1 CALLDATASIZE SUB DUP2 ADD SWAP1 PUSH2 0x15A SWAP2 SWAP1 PUSH2 0xD73 JUMP JUMPDEST PUSH2 0x818 JUMP JUMPDEST PUSH1 0x40 MLOAD PUSH2 0x16C SWAP2 SWAP1 PUSH2 0xD02 JUMP JUMPDEST PUSH1 0x40 MLOAD DUP1 SWAP2 SUB SWAP1 RETURN JUMPDEST PUSH1 0x60 DUP1 PUSH1 0x60 PUSH1 0x2 PUSH0 DUP6 DUP2 MSTORE PUSH1 0x20 ADD SWAP1 DUP2 MSTORE PUSH1 0x20 ADD PUSH0 KECCAK256 PUSH0 ADD DUP1 SLOAD PUSH2 0x198 SWAP1 PUSH2 0xE58 JUMP JUMPDEST DUP1 PUSH1 0x1F ADD PUSH1 0x20 DUP1 SWAP2 DIV MUL PUSH1 0x20 ADD PUSH1 0x40 MLOAD SWAP1 DUP2 ADD PUSH1 0x40 MSTORE DUP1 SWAP3 SWAP2 SWAP1 DUP2 DUP2 MSTORE PUSH1 0x20 ADD DUP3 DUP1 SLOAD PUSH2 0x1C4 SWAP1 PUSH2 0xE58 JUMP JUMPDEST DUP1 ISZERO PUSH2 0x20F JUMPI DUP1 PUSH1 0x1F LT PUSH2 0x1E6 JUMPI PUSH2 0x100 DUP1 DUP4 SLOAD DIV MUL DUP4 MSTORE SWAP2 PUSH1 0x20 ADD SWAP2 PUSH2 0x20F JUMP JUMPDEST DUP3 ADD SWAP2 SWAP1 PUSH0 MSTORE PUSH1 0x20 PUSH0 KECCAK256 SWAP1 JUMPDEST DUP2 SLOAD DUP2 MSTORE SWAP1 PUSH1 0x1 ADD SWAP1 PUSH1 0x20 ADD DUP1 DUP4 GT PUSH2 0x1F2 JUMPI DUP3 SWAP1 SUB PUSH1 0x1F AND DUP3 ADD SWAP2 JUMPDEST POP POP POP POP POP SWAP3 POP PUSH1 0x2 PUSH0 DUP6 DUP2 MSTORE PUSH1 0x20 ADD SWAP1 DUP2 MSTORE PUSH1 0x20 ADD PUSH0 KECCAK256 PUSH1 0x1 ADD DUP1 SLOAD PUSH2 0x235 SWAP1 PUSH2 0xE58 JUMP JUMPDEST DUP1 PUSH1 0x1F ADD PUSH1 0x20 DUP1 SWAP2 DIV MUL PUSH1 0x20 ADD PUSH1 0x40 MLOAD SWAP1 DUP2 ADD PUSH1 0x40 MSTORE DUP1 SWAP3 SWAP2 SWAP1 DUP2 DUP2 MSTORE PUSH1 0x20 ADD DUP3 DUP1 SLOAD PUSH2 0x261 SWAP1 PUSH2 0xE58 JUMP JUMPDEST DUP1 ISZERO PUSH2 0x2AC JUMPI DUP1 PUSH1 0x1F LT PUSH2 0x283 JUMPI PUSH2 0x100 DUP1 DUP4 SLOAD DIV MUL DUP4 MSTORE SWAP2 PUSH1 0x20 ADD SWAP2 PUSH2 0x2AC JUMP JUMPDEST DUP3 ADD SWAP2 SWAP1 PUSH0 MSTORE PUSH1 0x20 PUSH0 KECCAK256 SWAP1 JUMPDEST DUP2 SLOAD DUP2 MSTORE SWAP1 PUSH1 0x1 ADD SWAP1 PUSH1 0x20 ADD DUP1 DUP4 GT PUSH2 0x28F JUMPI DUP3 SWAP1 SUB PUSH1 0x1F AND DUP3 ADD SWAP2 JUMPDEST POP POP POP POP POP SWAP2 POP PUSH1 0x2 PUSH0 DUP6 DUP2 MSTORE PUSH1 0x20 ADD SWAP1 DUP2 MSTORE PUSH1 0x20 ADD PUSH0 KECCAK256 PUSH1 0x2 ADD DUP1 SLOAD PUSH2 0x2D2 SWAP1 PUSH2 0xE58 JUMP JUMPDEST DUP1 PUSH1 0x1F ADD PUSH1 0x20 DUP1 SWAP2 DIV MUL PUSH1 0x20 ADD PUSH1 0x40 MLOAD SWAP1 DUP2 ADD PUSH1 0x40 MSTORE DUP1 SWAP3 SWAP2 SWAP1 DUP2 DUP2 MSTORE PUSH1 0x20 ADD DUP3 DUP1 SLOAD PUSH2 0x2FE SWAP1 PUSH2 0xE58 JUMP JUMPDEST DUP1 ISZERO PUSH2 0x349 JUMPI DUP1 PUSH1 0x1F LT PUSH2 0x320 JUMPI PUSH2 0x100 DUP1 DUP4 SLOAD DIV MUL DUP4 MSTORE SWAP2 PUSH1 0x20 ADD SWAP2 PUSH2 0x349 JUMP JUMPDEST DUP3 ADD SWAP2 SWAP1 PUSH0 MSTORE PUSH1 0x20 PUSH0 KECCAK256 SWAP1 JUMPDEST DUP2 SLOAD DUP2 MSTORE SWAP1 PUSH1 0x1 ADD SWAP1 PUSH1 0x20 ADD DUP1 DUP4 GT PUSH2 0x32C JUMPI DUP3 SWAP1 SUB PUSH1 0x1F AND DUP3 ADD SWAP2 JUMPDEST POP POP POP POP POP SWAP1 POP SWAP2 SWAP4 SWAP1 SWAP3 POP JUMP JUMPDEST PUSH1 0x60 PUSH1 0x1 DUP1 SLOAD PUSH2 0x366 SWAP1 PUSH2 0xE58 JUMP JUMPDEST DUP1 PUSH1 0x1F ADD PUSH1 0x20 DUP1 SWAP2 DIV MUL PUSH1 0x20 ADD PUSH1 0x40 MLOAD SWAP1 DUP2 ADD PUSH1 0x40 MSTORE DUP1 SWAP3 SWAP2 SWAP1 DUP2 DUP2 MSTORE PUSH1 0x20 ADD DUP3 DUP1 SLOAD PUSH2 0x392 SWAP1 PUSH2 0xE58 JUMP JUMPDEST DUP1 ISZERO PUSH2 0x3DD JUMPI DUP1 PUSH1 0x1F LT PUSH2 0x3B4 JUMPI PUSH2 0x100 DUP1 DUP4 SLOAD DIV MUL DUP4 MSTORE SWAP2 PUSH1 0x20 ADD SWAP2 PUSH2 0x3DD JUMP JUMPDEST DUP3 ADD SWAP2 SWAP1 PUSH0 MSTORE PUSH1 0x20 PUSH0 KECCAK256 SWAP1 JUMPDEST DUP2 SLOAD DUP2 MSTORE SWAP1 PUSH1 0x1 ADD SWAP1 PUSH1 0x20 ADD DUP1 DUP4 GT PUSH2 0x3C0 JUMPI DUP3 SWAP1 SUB PUSH1 0x1F AND DUP3 ADD SWAP2 JUMPDEST POP POP POP POP POP SWAP1 POP SWAP1 JUMP JUMPDEST PUSH0 DUP1 PUSH0 SWAP1 SLOAD SWAP1 PUSH2 0x100 EXP SWAP1 DIV PUSH20 0xFFFFFFFFFFFFFFFFFFFFFFFFFFFFFFFFFFFFFFFF AND PUSH20 0xFFFFFFFFFFFFFFFFFFFFFFFFFFFFFFFFFFFFFFFF AND CALLER PUSH20 0xFFFFFFFFFFFFFFFFFFFFFFFFFFFFFFFFFFFFFFFF AND EQ PUSH2 0x443 JUMPI PUSH0 SWAP1 POP PUSH2 0x4CA JUMP JUMPDEST DUP4 PUSH1 0x2 PUSH0 PUSH1 0x3 SLOAD DUP2 MSTORE PUSH1 0x20 ADD SWAP1 DUP2 MSTORE PUSH1 0x20 ADD PUSH0 KECCAK256 PUSH0 ADD SWAP1 DUP2 PUSH2 0x465 SWAP2 SWAP1 PUSH2 0x1025 JUMP JUMPDEST POP DUP3 PUSH1 0x2 PUSH0 PUSH1 0x3 SLOAD DUP2 MSTORE PUSH1 0x20 ADD SWAP1 DUP2 MSTORE PUSH1 0x20 ADD PUSH0 KECCAK256 PUSH1 0x1 ADD SWAP1 DUP2 PUSH2 0x489 SWAP2 SWAP1 PUSH2 0x1025 JUMP JUMPDEST POP DUP2 PUSH1 0x2 PUSH0 PUSH1 0x3 SLOAD DUP2 MSTORE PUSH1 0x20 ADD SWAP1 DUP2 MSTORE PUSH1 0x20 ADD PUSH0 KECCAK256 PUSH1 0x2 ADD SWAP1 DUP2 PUSH2 0x4AD SWAP2 SWAP1 PUSH2 0x1025 JUMP JUMPDEST POP PUSH1 0x3 PUSH0 DUP2 SLOAD DUP1 SWAP3 SWAP2 SWAP1 PUSH2 0x4C0 SWAP1 PUSH2 0x1121 JUMP JUMPDEST SWAP2 SWAP1 POP SSTORE POP PUSH1 0x1 SWAP1 POP JUMPDEST SWAP4 SWAP3 POP POP POP JUMP JUMPDEST PUSH0 DUP1 SLOAD SWAP1 PUSH2 0x100 EXP SWAP1 DIV PUSH20 0xFFFFFFFFFFFFFFFFFFFFFFFFFFFFFFFFFFFFFFFF AND PUSH20 0xFFFFFFFFFFFFFFFFFFFFFFFFFFFFFFFFFFFFFFFF AND CALLER PUSH20 0xFFFFFFFFFFFFFFFFFFFFFFFFFFFFFFFFFFFFFFFF AND SUB PUSH2 0x55B JUMPI PUSH0 DUP1 SLOAD SWAP1 PUSH2 0x100 EXP SWAP1 DIV PUSH20 0xFFFFFFFFFFFFFFFFFFFFFFFFFFFFFFFFFFFFFFFF AND PUSH20 0xFFFFFFFFFFFFFFFFFFFFFFFFFFFFFFFFFFFFFFFF AND SELFDESTRUCT JUMPDEST JUMP JUMPDEST PUSH0 DUP1 PUSH0 SWAP1 SLOAD SWAP1 PUSH2 0x100 EXP SWAP1 DIV PUSH20 0xFFFFFFFFFFFFFFFFFFFFFFFFFFFFFFFFFFFFFFFF AND SWAP1 POP SWAP1 JUMP JUMPDEST PUSH1 0x60 PUSH0 PUSH1 0x3 SLOAD SUB PUSH2 0x5A5 JUMPI PUSH1 0x40 MLOAD DUP1 PUSH1 0x20 ADD PUSH1 0x40 MSTORE DUP1 PUSH0 DUP2 MSTORE POP SWAP1 POP PUSH2 0x815 JUMP JUMPDEST PUSH0 DUP1 JUMPDEST PUSH1 0x3 SLOAD DUP2 LT ISZERO PUSH2 0x5F8 JUMPI PUSH1 0x1 PUSH1 0x2 PUSH0 DUP4 DUP2 MSTORE PUSH1 0x20 ADD SWAP1 DUP2 MSTORE PUSH1 0x20 ADD PUSH0 KECCAK256 PUSH0 ADD DUP1 SLOAD PUSH2 0x5D2 SWAP1 PUSH2 0xE58 JUMP JUMPDEST SWAP1 POP DUP4 PUSH2 0x5DF SWAP2 SWAP1 PUSH2 0x1168 JUMP JUMPDEST PUSH2 0x5E9 SWAP2 SWAP1 PUSH2 0x1168 JUMP JUMPDEST SWAP2 POP DUP1 DUP1 PUSH1 0x1 ADD SWAP2 POP POP PUSH2 0x5A8 JUMP JUMPDEST POP PUSH0 DUP2 PUSH8 0xFFFFFFFFFFFFFFFF DUP2 GT ISZERO PUSH2 0x614 JUMPI PUSH2 0x613 PUSH2 0xB20 JUMP JUMPDEST JUMPDEST PUSH1 0x40 MLOAD SWAP1 DUP1 DUP3 MSTORE DUP1 PUSH1 0x1F ADD PUSH1 0x1F NOT AND PUSH1 0x20 ADD DUP3 ADD PUSH1 0x40 MSTORE DUP1 ISZERO PUSH2 0x646 JUMPI DUP2 PUSH1 0x20 ADD PUSH1 0x1 DUP3 MUL DUP1 CALLDATASIZE DUP4 CALLDATACOPY DUP1 DUP3 ADD SWAP2 POP POP SWAP1 POP JUMPDEST POP SWAP1 POP PUSH0 DUP1 JUMPDEST PUSH1 0x3 SLOAD DUP2 LT ISZERO PUSH2 0x80D JUMPI PUSH0 PUSH1 0x2 PUSH0 DUP4 DUP2 MSTORE PUSH1 0x20 ADD SWAP1 DUP2 MSTORE PUSH1 0x20 ADD PUSH0 KECCAK256 PUSH0 ADD DUP1 SLOAD PUSH2 0x675 SWAP1 PUSH2 0xE58 JUMP JUMPDEST DUP1 PUSH1 0x1F ADD PUSH1 0x20 DUP1 SWAP2 DIV MUL PUSH1 0x20 ADD PUSH1 0x40 MLOAD SWAP1 DUP2 ADD PUSH1 0x40 MSTORE DUP1 SWAP3 SWAP2 SWAP1 DUP2 DUP2 MSTORE PUSH1 0x20 ADD DUP3 DUP1 SLOAD PUSH2 0x6A1 SWAP1 PUSH2 0xE58 JUMP JUMPDEST DUP1 ISZERO PUSH2 0x6EC JUMPI DUP1 PUSH1 0x1F LT PUSH2 0x6C3 JUMPI PUSH2 0x100 DUP1 DUP4 SLOAD DIV MUL DUP4 MSTORE SWAP2 PUSH1 0x20 ADD SWAP2 PUSH2 0x6EC JUMP JUMPDEST DUP3 ADD SWAP2 SWAP1 PUSH0 MSTORE PUSH1 0x20 PUSH0 KECCAK256 SWAP1 JUMPDEST DUP2 SLOAD DUP2 MSTORE SWAP1 PUSH1 0x1 ADD SWAP1 PUSH1 0x20 ADD DUP1 DUP4 GT PUSH2 0x6CF JUMPI DUP3 SWAP1 SUB PUSH1 0x1F AND DUP3 ADD SWAP2 JUMPDEST POP POP POP POP POP SWAP1 POP PUSH0 JUMPDEST DUP2 MLOAD DUP2 LT ISZERO PUSH2 0x778 JUMPI DUP2 DUP2 DUP2 MLOAD DUP2 LT PUSH2 0x711 JUMPI PUSH2 0x710 PUSH2 0x119B JUMP JUMPDEST JUMPDEST PUSH1 0x20 ADD ADD MLOAD PUSH1 0xF8 SHR PUSH1 0xF8 SHL DUP6 DUP6 DUP2 MLOAD DUP2 LT PUSH2 0x72F JUMPI PUSH2 0x72E PUSH2 0x119B JUMP JUMPDEST JUMPDEST PUSH1 0x20 ADD ADD SWAP1 PUSH31 0xFFFFFFFFFFFFFFFFFFFFFFFFFFFFFFFFFFFFFFFFFFFFFFFFFFFFFFFFFFFFFF NOT AND SWAP1 DUP2 PUSH0 BYTE SWAP1 MSTORE8 POP DUP4 DUP1 PUSH2 0x768 SWAP1 PUSH2 0x1121 JUMP JUMPDEST SWAP5 POP POP DUP1 DUP1 PUSH1 0x1 ADD SWAP2 POP POP PUSH2 0x6F5 JUMP JUMPDEST POP PUSH1 0x1 PUSH1 0x3 SLOAD PUSH2 0x788 SWAP2 SWAP1 PUSH2 0x11C8 JUMP JUMPDEST DUP3 EQ PUSH2 0x7FF JUMPI PUSH32 0x2C00000000000000000000000000000000000000000000000000000000000000 DUP5 DUP5 DUP2 MLOAD DUP2 LT PUSH2 0x7C2 JUMPI PUSH2 0x7C1 PUSH2 0x119B JUMP JUMPDEST JUMPDEST PUSH1 0x20 ADD ADD SWAP1 PUSH31 0xFFFFFFFFFFFFFFFFFFFFFFFFFFFFFFFFFFFFFFFFFFFFFFFFFFFFFFFFFFFFFF NOT AND SWAP1 DUP2 PUSH0 BYTE SWAP1 MSTORE8 POP DUP3 DUP1 PUSH2 0x7FB SWAP1 PUSH2 0x1121 JUMP JUMPDEST SWAP4 POP POP JUMPDEST POP DUP1 DUP1 PUSH1 0x1 ADD SWAP2 POP POP PUSH2 0x64C JUMP JUMPDEST POP DUP2 SWAP4 POP POP POP POP JUMPDEST SWAP1 JUMP JUMPDEST PUSH0 DUP1 PUSH0 SWAP1 SLOAD SWAP1 PUSH2 0x100 EXP SWAP1 DIV PUSH20 0xFFFFFFFFFFFFFFFFFFFFFFFFFFFFFFFFFFFFFFFF AND PUSH20 0xFFFFFFFFFFFFFFFFFFFFFFFFFFFFFFFFFFFFFFFF AND CALLER PUSH20 0xFFFFFFFFFFFFFFFFFFFFFFFFFFFFFFFFFFFFFFFF AND EQ PUSH2 0x874 JUMPI PUSH0 SWAP1 POP PUSH2 0x9C7 JUMP JUMPDEST PUSH0 PUSH1 0x2 PUSH0 DUP8 DUP2 MSTORE PUSH1 0x20 ADD SWAP1 DUP2 MSTORE PUSH1 0x20 ADD PUSH0 KECCAK256 SWAP1 POP DUP1 PUSH0 ADD PUSH1 0x40 MLOAD PUSH1 0x20 ADD PUSH2 0x89B SWAP2 SWAP1 PUSH2 0x1285 JUMP JUMPDEST PUSH1 0x40 MLOAD PUSH1 0x20 DUP2 DUP4 SUB SUB DUP2 MSTORE SWAP1 PUSH1 0x40 MSTORE DUP1 MLOAD SWAP1 PUSH1 0x20 ADD KECCAK256 DUP6 PUSH1 0x40 MLOAD PUSH1 0x20 ADD PUSH2 0x8C2 SWAP2 SWAP1 PUSH2 0x12CB JUMP JUMPDEST PUSH1 0x40 MLOAD PUSH1 0x20 DUP2 DUP4 SUB SUB DUP2 MSTORE SWAP1 PUSH1 0x40 MSTORE DUP1 MLOAD SWAP1 PUSH1 0x20 ADD KECCAK256 EQ PUSH2 0x8EF JUMPI DUP5 DUP2 PUSH0 ADD SWAP1 DUP2 PUSH2 0x8ED SWAP2 SWAP1 PUSH2 0x1025 JUMP JUMPDEST POP JUMPDEST DUP1 PUSH1 0x1 ADD PUSH1 0x40 MLOAD PUSH1 0x20 ADD PUSH2 0x903 SWAP2 SWAP1 PUSH2 0x1285 JUMP JUMPDEST PUSH1 0x40 MLOAD PUSH1 0x20 DUP2 DUP4 SUB SUB DUP2 MSTORE SWAP1 PUSH1 0x40 MSTORE DUP1 MLOAD SWAP1 PUSH1 0x20 ADD KECCAK256 DUP5 PUSH1 0x40 MLOAD PUSH1 0x20 ADD PUSH2 0x92A SWAP2 SWAP1 PUSH2 0x12CB JUMP JUMPDEST PUSH1 0x40 MLOAD PUSH1 0x20 DUP2 DUP4 SUB SUB DUP2 MSTORE SWAP1 PUSH1 0x40 MSTORE DUP1 MLOAD SWAP1 PUSH1 0x20 ADD KECCAK256 EQ PUSH2 0x958 JUMPI DUP4 DUP2 PUSH1 0x1 ADD SWAP1 DUP2 PUSH2 0x956 SWAP2 SWAP1 PUSH2 0x1025 JUMP JUMPDEST POP JUMPDEST DUP1 PUSH1 0x2 ADD PUSH1 0x40 MLOAD PUSH1 0x20 ADD PUSH2 0x96C SWAP2 SWAP1 PUSH2 0x1285 JUMP JUMPDEST PUSH1 0x40 MLOAD PUSH1 0x20 DUP2 DUP4 SUB SUB DUP2 MSTORE SWAP1 PUSH1 0x40 MSTORE DUP1 MLOAD SWAP1 PUSH1 0x20 ADD KECCAK256 DUP4 PUSH1 0x40 MLOAD PUSH1 0x20 ADD PUSH2 0x993 SWAP2 SWAP1 PUSH2 0x12CB JUMP JUMPDEST PUSH1 0x40 MLOAD PUSH1 0x20 DUP2 DUP4 SUB SUB DUP2 MSTORE SWAP1 PUSH1 0x40 MSTORE DUP1 MLOAD SWAP1 PUSH1 0x20 ADD KECCAK256 EQ PUSH2 0x9C1 JUMPI DUP3 DUP2 PUSH1 0x2 ADD SWAP1 DUP2 PUSH2 0x9BF SWAP2 SWAP1 PUSH2 0x1025 JUMP JUMPDEST POP JUMPDEST PUSH1 0x1 SWAP2 POP POP JUMPDEST SWAP5 SWAP4 POP POP POP POP JUMP JUMPDEST PUSH0 PUSH1 0x40 MLOAD SWAP1 POP SWAP1 JUMP JUMPDEST PUSH0 DUP1 REVERT JUMPDEST PUSH0 DUP1 REVERT JUMPDEST PUSH0 DUP2 SWAP1 POP SWAP2 SWAP1 POP JUMP JUMPDEST PUSH2 0x9F2 DUP2 PUSH2 0x9E0 JUMP JUMPDEST DUP2 EQ PUSH2 0x9FC JUMPI PUSH0 DUP1 REVERT JUMPDEST POP JUMP JUMPDEST PUSH0 DUP2 CALLDATALOAD SWAP1 POP PUSH2 0xA0D DUP2 PUSH2 0x9E9 JUMP JUMPDEST SWAP3 SWAP2 POP POP JUMP JUMPDEST PUSH0 PUSH1 0x20 DUP3 DUP5 SUB SLT ISZERO PUSH2 0xA28 JUMPI PUSH2 0xA27 PUSH2 0x9D8 JUMP JUMPDEST JUMPDEST PUSH0 PUSH2 0xA35 DUP5 DUP3 DUP6 ADD PUSH2 0x9FF JUMP JUMPDEST SWAP2 POP POP SWAP3 SWAP2 POP POP JUMP JUMPDEST PUSH0 DUP2 MLOAD SWAP1 POP SWAP2 SWAP1 POP JUMP JUMPDEST PUSH0 DUP3 DUP3 MSTORE PUSH1 0x20 DUP3 ADD SWAP1 POP SWAP3 SWAP2 POP POP JUMP JUMPDEST DUP3 DUP2 DUP4 MCOPY PUSH0 DUP4 DUP4 ADD MSTORE POP POP POP JUMP JUMPDEST PUSH0 PUSH1 0x1F NOT PUSH1 0x1F DUP4 ADD AND SWAP1 POP SWAP2 SWAP1 POP JUMP JUMPDEST PUSH0 PUSH2 0xA80 DUP3 PUSH2 0xA3E JUMP JUMPDEST PUSH2 0xA8A DUP2 DUP6 PUSH2 0xA48 JUMP JUMPDEST SWAP4 POP PUSH2 0xA9A DUP2 DUP6 PUSH1 0x20 DUP7 ADD PUSH2 0xA58 JUMP JUMPDEST PUSH2 0xAA3 DUP2 PUSH2 0xA66 JUMP JUMPDEST DUP5 ADD SWAP2 POP POP SWAP3 SWAP2 POP POP JUMP JUMPDEST PUSH0 PUSH1 0x60 DUP3 ADD SWAP1 POP DUP2 DUP2 SUB PUSH0 DUP4 ADD MSTORE PUSH2 0xAC6 DUP2 DUP7 PUSH2 0xA76 JUMP JUMPDEST SWAP1 POP DUP2 DUP2 SUB PUSH1 0x20 DUP4 ADD MSTORE PUSH2 0xADA DUP2 DUP6 PUSH2 0xA76 JUMP JUMPDEST SWAP1 POP DUP2 DUP2 SUB PUSH1 0x40 DUP4 ADD MSTORE PUSH2 0xAEE DUP2 DUP5 PUSH2 0xA76 JUMP JUMPDEST SWAP1 POP SWAP5 SWAP4 POP POP POP POP JUMP JUMPDEST PUSH0 PUSH1 0x20 DUP3 ADD SWAP1 POP DUP2 DUP2 SUB PUSH0 DUP4 ADD MSTORE PUSH2 0xB10 DUP2 DUP5 PUSH2 0xA76 JUMP JUMPDEST SWAP1 POP SWAP3 SWAP2 POP POP JUMP JUMPDEST PUSH0 DUP1 REVERT JUMPDEST PUSH0 DUP1 REVERT JUMPDEST PUSH32 0x4E487B7100000000000000000000000000000000000000000000000000000000 PUSH0 MSTORE PUSH1 0x41 PUSH1 0x4 MSTORE PUSH1 0x24 PUSH0 REVERT JUMPDEST PUSH2 0xB56 DUP3 PUSH2 0xA66 JUMP JUMPDEST DUP2 ADD DUP2 DUP2 LT PUSH8 0xFFFFFFFFFFFFFFFF DUP3 GT OR ISZERO PUSH2 0xB75 JUMPI PUSH2 0xB74 PUSH2 0xB20 JUMP JUMPDEST JUMPDEST DUP1 PUSH1 0x40 MSTORE POP POP POP JUMP JUMPDEST PUSH0 PUSH2 0xB87 PUSH2 0x9CF JUMP JUMPDEST SWAP1 POP PUSH2 0xB93 DUP3 DUP3 PUSH2 0xB4D JUMP JUMPDEST SWAP2 SWAP1 POP JUMP JUMPDEST PUSH0 PUSH8 0xFFFFFFFFFFFFFFFF DUP3 GT ISZERO PUSH2 0xBB2 JUMPI PUSH2 0xBB1 PUSH2 0xB20 JUMP JUMPDEST JUMPDEST PUSH2 0xBBB DUP3 PUSH2 0xA66 JUMP JUMPDEST SWAP1 POP PUSH1 0x20 DUP2 ADD SWAP1 POP SWAP2 SWAP1 POP JUMP JUMPDEST DUP3 DUP2 DUP4 CALLDATACOPY PUSH0 DUP4 DUP4 ADD MSTORE POP POP POP JUMP JUMPDEST PUSH0 PUSH2 0xBE8 PUSH2 0xBE3 DUP5 PUSH2 0xB98 JUMP JUMPDEST PUSH2 0xB7E JUMP JUMPDEST SWAP1 POP DUP3 DUP2 MSTORE PUSH1 0x20 DUP2 ADD DUP5 DUP5 DUP5 ADD GT ISZERO PUSH2 0xC04 JUMPI PUSH2 0xC03 PUSH2 0xB1C JUMP JUMPDEST JUMPDEST PUSH2 0xC0F DUP5 DUP3 DUP6 PUSH2 0xBC8 JUMP JUMPDEST POP SWAP4 SWAP3 POP POP POP JUMP JUMPDEST PUSH0 DUP3 PUSH1 0x1F DUP4 ADD SLT PUSH2 0xC2B JUMPI PUSH2 0xC2A PUSH2 0xB18 JUMP JUMPDEST JUMPDEST DUP2 CALLDATALOAD PUSH2 0xC3B DUP5 DUP3 PUSH1 0x20 DUP7 ADD PUSH2 0xBD6 JUMP JUMPDEST SWAP2 POP POP SWAP3 SWAP2 POP POP JUMP JUMPDEST PUSH0 DUP1 PUSH0 PUSH1 0x60 DUP5 DUP7 SUB SLT ISZERO PUSH2 0xC5B JUMPI PUSH2 0xC5A PUSH2 0x9D8 JUMP JUMPDEST JUMPDEST PUSH0 DUP5 ADD CALLDATALOAD PUSH8 0xFFFFFFFFFFFFFFFF DUP2 GT ISZERO PUSH2 0xC78 JUMPI PUSH2 0xC77 PUSH2 0x9DC JUMP JUMPDEST JUMPDEST PUSH2 0xC84 DUP7 DUP3 DUP8 ADD PUSH2 0xC17 JUMP JUMPDEST SWAP4 POP POP PUSH1 0x20 DUP5 ADD CALLDATALOAD PUSH8 0xFFFFFFFFFFFFFFFF DUP2 GT ISZERO PUSH2 0xCA5 JUMPI PUSH2 0xCA4 PUSH2 0x9DC JUMP JUMPDEST JUMPDEST PUSH2 0xCB1 DUP7 DUP3 DUP8 ADD PUSH2 0xC17 JUMP JUMPDEST SWAP3 POP POP PUSH1 0x40 DUP5 ADD CALLDATALOAD PUSH8 0xFFFFFFFFFFFFFFFF DUP2 GT ISZERO PUSH2 0xCD2 JUMPI PUSH2 0xCD1 PUSH2 0x9DC JUMP JUMPDEST JUMPDEST PUSH2 0xCDE DUP7 DUP3 DUP8 ADD PUSH2 0xC17 JUMP JUMPDEST SWAP2 POP POP SWAP3 POP SWAP3 POP SWAP3 JUMP JUMPDEST PUSH0 DUP2 ISZERO ISZERO SWAP1 POP SWAP2 SWAP1 POP JUMP JUMPDEST PUSH2 0xCFC DUP2 PUSH2 0xCE8 JUMP JUMPDEST DUP3 MSTORE POP POP JUMP JUMPDEST PUSH0 PUSH1 0x20 DUP3 ADD SWAP1 POP PUSH2 0xD15 PUSH0 DUP4 ADD DUP5 PUSH2 0xCF3 JUMP JUMPDEST SWAP3 SWAP2 POP POP JUMP JUMPDEST PUSH0 PUSH20 0xFFFFFFFFFFFFFFFFFFFFFFFFFFFFFFFFFFFFFFFF DUP3 AND SWAP1 POP SWAP2 SWAP1 POP JUMP JUMPDEST PUSH0 PUSH2 0xD44 DUP3 PUSH2 0xD1B JUMP JUMPDEST SWAP1 POP SWAP2 SWAP1 POP JUMP JUMPDEST PUSH2 0xD54 DUP2 PUSH2 0xD3A JUMP JUMPDEST DUP3 MSTORE POP POP JUMP JUMPDEST PUSH0 PUSH1 0x20 DUP3 ADD SWAP1 POP PUSH2 0xD6D PUSH0 DUP4 ADD DUP5 PUSH2 0xD4B JUMP JUMPDEST SWAP3 SWAP2 POP POP JUMP JUMPDEST PUSH0 DUP1 PUSH0 DUP1 PUSH1 0x80 DUP6 DUP8 SUB SLT ISZERO PUSH2 0xD8B JUMPI PUSH2 0xD8A PUSH2 0x9D8 JUMP JUMPDEST JUMPDEST PUSH0 PUSH2 0xD98 DUP8 DUP3 DUP9 ADD PUSH2 0x9FF JUMP JUMPDEST SWAP5 POP POP PUSH1 0x20 DUP6 ADD CALLDATALOAD PUSH8 0xFFFFFFFFFFFFFFFF DUP2 GT ISZERO PUSH2 0xDB9 JUMPI PUSH2 0xDB8 PUSH2 0x9DC JUMP JUMPDEST JUMPDEST PUSH2 0xDC5 DUP8 DUP3 DUP9 ADD PUSH2 0xC17 JUMP JUMPDEST SWAP4 POP POP PUSH1 0x40 DUP6 ADD CALLDATALOAD PUSH8 0xFFFFFFFFFFFFFFFF DUP2 GT ISZERO PUSH2 0xDE6 JUMPI PUSH2 0xDE5 PUSH2 0x9DC JUMP JUMPDEST JUMPDEST PUSH2 0xDF2 DUP8 DUP3 DUP9 ADD PUSH2 0xC17 JUMP JUMPDEST SWAP3 POP POP PUSH1 0x60 DUP6 ADD CALLDATALOAD PUSH8 0xFFFFFFFFFFFFFFFF DUP2 GT ISZERO PUSH2 0xE13 JUMPI PUSH2 0xE12 PUSH2 0x9DC JUMP JUMPDEST JUMPDEST PUSH2 0xE1F DUP8 DUP3 DUP9 ADD PUSH2 0xC17 JUMP JUMPDEST SWAP2 POP POP SWAP3 SWAP6 SWAP2 SWAP5 POP SWAP3 POP JUMP JUMPDEST PUSH32 0x4E487B7100000000000000000000000000000000000000000000000000000000 PUSH0 MSTORE PUSH1 0x22 PUSH1 0x4 MSTORE PUSH1 0x24 PUSH0 REVERT JUMPDEST PUSH0 PUSH1 0x2 DUP3 DIV SWAP1 POP PUSH1 0x1 DUP3 AND DUP1 PUSH2 0xE6F JUMPI PUSH1 0x7F DUP3 AND SWAP2 POP JUMPDEST PUSH1 0x20 DUP3 LT DUP2 SUB PUSH2 0xE82 JUMPI PUSH2 0xE81 PUSH2 0xE2B JUMP JUMPDEST JUMPDEST POP SWAP2 SWAP1 POP JUMP JUMPDEST PUSH0 DUP2 SWAP1 POP DUP2 PUSH0 MSTORE PUSH1 0x20 PUSH0 KECCAK256 SWAP1 POP SWAP2 SWAP1 POP JUMP JUMPDEST PUSH0 PUSH1 0x20 PUSH1 0x1F DUP4 ADD DIV SWAP1 POP SWAP2 SWAP1 POP JUMP JUMPDEST PUSH0 DUP3 DUP3 SHL SWAP1 POP SWAP3 SWAP2 POP POP JUMP JUMPDEST PUSH0 PUSH1 0x8 DUP4 MUL PUSH2 0xEE4 PUSH32 0xFFFFFFFFFFFFFFFFFFFFFFFFFFFFFFFFFFFFFFFFFFFFFFFFFFFFFFFFFFFFFFFF DUP3 PUSH2 0xEA9 JUMP JUMPDEST PUSH2 0xEEE DUP7 DUP4 PUSH2 0xEA9 JUMP JUMPDEST SWAP6 POP DUP1 NOT DUP5 AND SWAP4 POP DUP1 DUP7 AND DUP5 OR SWAP3 POP POP POP SWAP4 SWAP3 POP POP POP JUMP JUMPDEST PUSH0 DUP2 SWAP1 POP SWAP2 SWAP1 POP JUMP JUMPDEST PUSH0 PUSH2 0xF29 PUSH2 0xF24 PUSH2 0xF1F DUP5 PUSH2 0x9E0 JUMP JUMPDEST PUSH2 0xF06 JUMP JUMPDEST PUSH2 0x9E0 JUMP JUMPDEST SWAP1 POP SWAP2 SWAP1 POP JUMP JUMPDEST PUSH0 DUP2 SWAP1 POP SWAP2 SWAP1 POP JUMP JUMPDEST PUSH2 0xF42 DUP4 PUSH2 0xF0F JUMP JUMPDEST PUSH2 0xF56 PUSH2 0xF4E DUP3 PUSH2 0xF30 JUMP JUMPDEST DUP5 DUP5 SLOAD PUSH2 0xEB5 JUMP JUMPDEST DUP3 SSTORE POP POP POP POP JUMP JUMPDEST PUSH0 SWAP1 JUMP JUMPDEST PUSH2 0xF6A PUSH2 0xF5E JUMP JUMPDEST PUSH2 0xF75 DUP2 DUP5 DUP5 PUSH2 0xF39 JUMP JUMPDEST POP POP POP JUMP JUMPDEST JUMPDEST DUP2 DUP2 LT ISZERO PUSH2 0xF98 JUMPI PUSH2 0xF8D PUSH0 DUP3 PUSH2 0xF62 JUMP JUMPDEST PUSH1 0x1 DUP2 ADD SWAP1 POP PUSH2 0xF7B JUMP JUMPDEST POP POP JUMP JUMPDEST PUSH1 0x1F DUP3 GT ISZERO PUSH2 0xFDD JUMPI PUSH2 0xFAE DUP2 PUSH2 0xE88 JUMP JUMPDEST PUSH2 0xFB7 DUP5 PUSH2 0xE9A JUMP JUMPDEST DUP2 ADD PUSH1 0x20 DUP6 LT ISZERO PUSH2 0xFC6 JUMPI DUP2 SWAP1 POP JUMPDEST PUSH2 0xFDA PUSH2 0xFD2 DUP6 PUSH2 0xE9A JUMP JUMPDEST DUP4 ADD DUP3 PUSH2 0xF7A JUMP JUMPDEST POP POP JUMPDEST POP POP POP JUMP JUMPDEST PUSH0 DUP3 DUP3 SHR SWAP1 POP SWAP3 SWAP2 POP POP JUMP JUMPDEST PUSH0 PUSH2 0xFFD PUSH0 NOT DUP5 PUSH1 0x8 MUL PUSH2 0xFE2 JUMP JUMPDEST NOT DUP1 DUP4 AND SWAP2 POP POP SWAP3 SWAP2 POP POP JUMP JUMPDEST PUSH0 PUSH2 0x1015 DUP4 DUP4 PUSH2 0xFEE JUMP JUMPDEST SWAP2 POP DUP3 PUSH1 0x2 MUL DUP3 OR SWAP1 POP SWAP3 SWAP2 POP POP JUMP JUMPDEST PUSH2 0x102E DUP3 PUSH2 0xA3E JUMP JUMPDEST PUSH8 0xFFFFFFFFFFFFFFFF DUP2 GT ISZERO PUSH2 0x1047 JUMPI PUSH2 0x1046 PUSH2 0xB20 JUMP JUMPDEST JUMPDEST PUSH2 0x1051 DUP3 SLOAD PUSH2 0xE58 JUMP JUMPDEST PUSH2 0x105C DUP3 DUP3 DUP6 PUSH2 0xF9C JUMP JUMPDEST PUSH0 PUSH1 0x20 SWAP1 POP PUSH1 0x1F DUP4 GT PUSH1 0x1 DUP2 EQ PUSH2 0x108D JUMPI PUSH0 DUP5 ISZERO PUSH2 0x107B JUMPI DUP3 DUP8 ADD MLOAD SWAP1 POP JUMPDEST PUSH2 0x1085 DUP6 DUP3 PUSH2 0x100A JUMP JUMPDEST DUP7 SSTORE POP PUSH2 0x10EC JUMP JUMPDEST PUSH1 0x1F NOT DUP5 AND PUSH2 0x109B DUP7 PUSH2 0xE88 JUMP JUMPDEST PUSH0 JUMPDEST DUP3 DUP2 LT ISZERO PUSH2 0x10C2 JUMPI DUP5 DUP10 ADD MLOAD DUP3 SSTORE PUSH1 0x1 DUP3 ADD SWAP2 POP PUSH1 0x20 DUP6 ADD SWAP5 POP PUSH1 0x20 DUP2 ADD SWAP1 POP PUSH2 0x109D JUMP JUMPDEST DUP7 DUP4 LT ISZERO PUSH2 0x10DF JUMPI DUP5 DUP10 ADD MLOAD PUSH2 0x10DB PUSH1 0x1F DUP10 AND DUP3 PUSH2 0xFEE JUMP JUMPDEST DUP4 SSTORE POP JUMPDEST PUSH1 0x1 PUSH1 0x2 DUP9 MUL ADD DUP9 SSTORE POP POP POP JUMPDEST POP POP POP POP POP POP JUMP JUMPDEST PUSH32 0x4E487B7100000000000000000000000000000000000000000000000000000000 PUSH0 MSTORE PUSH1 0x11 PUSH1 0x4 MSTORE PUSH1 0x24 PUSH0 REVERT JUMPDEST PUSH0 PUSH2 0x112B DUP3 PUSH2 0x9E0 JUMP JUMPDEST SWAP2 POP PUSH32 0xFFFFFFFFFFFFFFFFFFFFFFFFFFFFFFFFFFFFFFFFFFFFFFFFFFFFFFFFFFFFFFFF DUP3 SUB PUSH2 0x115D JUMPI PUSH2 0x115C PUSH2 0x10F4 JUMP JUMPDEST JUMPDEST PUSH1 0x1 DUP3 ADD SWAP1 POP SWAP2 SWAP1 POP JUMP JUMPDEST PUSH0 PUSH2 0x1172 DUP3 PUSH2 0x9E0 JUMP JUMPDEST SWAP2 POP PUSH2 0x117D DUP4 PUSH2 0x9E0 JUMP JUMPDEST SWAP3 POP DUP3 DUP3 ADD SWAP1 POP DUP1 DUP3 GT ISZERO PUSH2 0x1195 JUMPI PUSH2 0x1194 PUSH2 0x10F4 JUMP JUMPDEST JUMPDEST SWAP3 SWAP2 POP POP JUMP JUMPDEST PUSH32 0x4E487B7100000000000000000000000000000000000000000000000000000000 PUSH0 MSTORE PUSH1 0x32 PUSH1 0x4 MSTORE PUSH1 0x24 PUSH0 REVERT JUMPDEST PUSH0 PUSH2 0x11D2 DUP3 PUSH2 0x9E0 JUMP JUMPDEST SWAP2 POP PUSH2 0x11DD DUP4 PUSH2 0x9E0 JUMP JUMPDEST SWAP3 POP DUP3 DUP3 SUB SWAP1 POP DUP2 DUP2 GT ISZERO PUSH2 0x11F5 JUMPI PUSH2 0x11F4 PUSH2 0x10F4 JUMP JUMPDEST JUMPDEST SWAP3 SWAP2 POP POP JUMP JUMPDEST PUSH0 DUP2 SWAP1 POP SWAP3 SWAP2 POP POP JUMP JUMPDEST PUSH0 DUP2 SLOAD PUSH2 0x1211 DUP2 PUSH2 0xE58 JUMP JUMPDEST PUSH2 0x121B DUP2 DUP7 PUSH2 0x11FB JUMP JUMPDEST SWAP5 POP PUSH1 0x1 DUP3 AND PUSH0 DUP2 EQ PUSH2 0x1235 JUMPI PUSH1 0x1 DUP2 EQ PUSH2 0x124A JUMPI PUSH2 0x127C JUMP JUMPDEST PUSH1 0xFF NOT DUP4 AND DUP7 MSTORE DUP2 ISZERO ISZERO DUP3 MUL DUP7 ADD SWAP4 POP PUSH2 0x127C JUMP JUMPDEST PUSH2 0x1253 DUP6 PUSH2 0xE88 JUMP JUMPDEST PUSH0 JUMPDEST DUP4 DUP2 LT ISZERO PUSH2 0x1274 JUMPI DUP2 SLOAD DUP2 DUP10 ADD MSTORE PUSH1 0x1 DUP3 ADD SWAP2 POP PUSH1 0x20 DUP2 ADD SWAP1 POP PUSH2 0x1255 JUMP JUMPDEST DUP4 DUP9 ADD SWAP6 POP POP POP JUMPDEST POP POP POP SWAP3 SWAP2 POP POP JUMP JUMPDEST PUSH0 PUSH2 0x1290 DUP3 DUP5 PUSH2 0x1205 JUMP JUMPDEST SWAP2 POP DUP2 SWAP1 POP SWAP3 SWAP2 POP POP JUMP JUMPDEST PUSH0 PUSH2 0x12A5 DUP3 PUSH2 0xA3E JUMP JUMPDEST PUSH2 0x12AF DUP2 DUP6 PUSH2 0x11FB JUMP JUMPDEST SWAP4 POP PUSH2 0x12BF DUP2 DUP6 PUSH1 0x20 DUP7 ADD PUSH2 0xA58 JUMP JUMPDEST DUP1 DUP5 ADD SWAP2 POP POP SWAP3 SWAP2 POP POP JUMP JUMPDEST PUSH0 PUSH2 0x12D6 DUP3 DUP5 PUSH2 0x129B JUMP JUMPDEST SWAP2 POP DUP2 SWAP1 POP SWAP3 SWAP2 POP POP JUMP INVALID LOG2 PUSH5 0x6970667358 0x22 SLT KECCAK256 PUSH19 0x86866FC6269493369A47020BFA2A90200466D9 0xC4 0xBB 0xBE 0xC 0x4F 0x28 PUSH12 0xFB7E74C12464736F6C634300 ADDMOD NOT STOP CALLER "
				},
				"gasEstimates": {
					"creation": {
						"codeDepositCost": "977400",
						"executionCost": "infinite",
						"totalCost": "infinite"
					},
					"external": {
						"addLogin(string,string,string)": "infinite",
						"getLogin(uint256)": "infinite",
						"getLogins()": "infinite",
						"getOwner()": "2537",
						"getTestPhrase()": "infinite",
						"kill()": "32040",
						"setLogin(uint256,string,string,string)": "infinite"
					}
				},
				"methodIdentifiers": {
					"addLogin(string,string,string)": "3b0ab39a",
					"getLogin(uint256)": "25c8203c",
					"getLogins()": "d1e831eb",
					"getOwner()": "893d20e8",
					"getTestPhrase()": "2c588770",
					"kill()": "41c0e1b5",
					"setLogin(uint256,string,string,string)": "e04110b8"
				}
			},
			"storageLayout": {
				"storage": [
					{
						"astId": 3,
						"contract": "contracts/PasswordManager.sol:BlockchainPassword",
						"label": "owner",
						"offset": 0,
						"slot": "0",
						"type": "t_address"
					},
					{
						"astId": 5,
						"contract": "contracts/PasswordManager.sol:BlockchainPassword",
						"label": "testPhrase",
						"offset": 0,
						"slot": "1",
						"type": "t_string_storage"
					},
					{
						"astId": 17,
						"contract": "contracts/PasswordManager.sol:BlockchainPassword",
						"label": "logins",
						"offset": 0,
						"slot": "2",
						"type": "t_mapping(t_uint256,t_struct(Login)12_storage)"
					},
					{
						"astId": 19,
						"contract": "contracts/PasswordManager.sol:BlockchainPassword",
						"label": "numLogins",
						"offset": 0,
						"slot": "3",
						"type": "t_uint256"
					}
				],
				"types": {
					"t_address": {
						"encoding": "inplace",
						"label": "address",
						"numberOfBytes": "20"
					},
					"t_mapping(t_uint256,t_struct(Login)12_storage)": {
						"encoding": "mapping",
						"key": "t_uint256",
						"label": "mapping(uint256 => struct BlockchainPassword.Login)",
						"numberOfBytes": "32",
						"value": "t_struct(Login)12_storage"
					},
					"t_string_storage": {
						"encoding": "bytes",
						"label": "string",
						"numberOfBytes": "32"
					},
					"t_struct(Login)12_storage": {
						"encoding": "inplace",
						"label": "struct BlockchainPassword.Login",
						"members": [
							{
								"astId": 7,
								"contract": "contracts/PasswordManager.sol:BlockchainPassword",
								"label": "name",
								"offset": 0,
								"slot": "0",
								"type": "t_string_storage"
							},
							{
								"astId": 9,
								"contract": "contracts/PasswordManager.sol:BlockchainPassword",
								"label": "username",
								"offset": 0,
								"slot": "1",
								"type": "t_string_storage"
							},
							{
								"astId": 11,
								"contract": "contracts/PasswordManager.sol:BlockchainPassword",
								"label": "password",
								"offset": 0,
								"slot": "2",
								"type": "t_string_storage"
							}
						],
						"numberOfBytes": "96"
					},
					"t_uint256": {
						"encoding": "inplace",
						"label": "uint256",
						"numberOfBytes": "32"
					}
				}
			},
			"userdoc": {
				"kind": "user",
				"methods": {},
				"version": 1
			}
		}
	}
}