{
	"contracts/14_Twitter.sol": {
		"Twitter": {
			"abi": [
				{
					"inputs": [],
					"stateMutability": "nonpayable",
					"type": "constructor"
				},
				{
					"inputs": [
						{
							"internalType": "address",
							"name": "owner",
							"type": "address"
						}
					],
					"name": "OwnableInvalidOwner",
					"type": "error"
				},
				{
					"inputs": [
						{
							"internalType": "address",
							"name": "account",
							"type": "address"
						}
					],
					"name": "OwnableUnauthorizedAccount",
					"type": "error"
				},
				{
					"anonymous": false,
					"inputs": [
						{
							"indexed": true,
							"internalType": "address",
							"name": "previousOwner",
							"type": "address"
						},
						{
							"indexed": true,
							"internalType": "address",
							"name": "newOwner",
							"type": "address"
						}
					],
					"name": "OwnershipTransferred",
					"type": "event"
				},
				{
					"anonymous": false,
					"inputs": [
						{
							"indexed": false,
							"internalType": "uint256",
							"name": "id",
							"type": "uint256"
						},
						{
							"indexed": false,
							"internalType": "address",
							"name": "author",
							"type": "address"
						},
						{
							"indexed": false,
							"internalType": "string",
							"name": "content",
							"type": "string"
						},
						{
							"indexed": false,
							"internalType": "uint256",
							"name": "timestamp",
							"type": "uint256"
						}
					],
					"name": "TweetCreated",
					"type": "event"
				},
				{
					"anonymous": false,
					"inputs": [
						{
							"indexed": false,
							"internalType": "address",
							"name": "liker",
							"type": "address"
						},
						{
							"indexed": false,
							"internalType": "address",
							"name": "tweetAuthor",
							"type": "address"
						},
						{
							"indexed": false,
							"internalType": "uint256",
							"name": "tweetId",
							"type": "uint256"
						},
						{
							"indexed": false,
							"internalType": "uint256",
							"name": "newLikeCount",
							"type": "uint256"
						}
					],
					"name": "TweetLiked",
					"type": "event"
				},
				{
					"anonymous": false,
					"inputs": [
						{
							"indexed": false,
							"internalType": "address",
							"name": "unliker",
							"type": "address"
						},
						{
							"indexed": false,
							"internalType": "address",
							"name": "tweetAuthor",
							"type": "address"
						},
						{
							"indexed": false,
							"internalType": "uint256",
							"name": "tweetId",
							"type": "uint256"
						},
						{
							"indexed": false,
							"internalType": "uint256",
							"name": "newLikeCount",
							"type": "uint256"
						}
					],
					"name": "TweetUnliked",
					"type": "event"
				},
				{
					"inputs": [],
					"name": "MAX_TWEET_LENGTH",
					"outputs": [
						{
							"internalType": "uint16",
							"name": "",
							"type": "uint16"
						}
					],
					"stateMutability": "view",
					"type": "function"
				},
				{
					"inputs": [
						{
							"internalType": "uint16",
							"name": "newTweetLength",
							"type": "uint16"
						}
					],
					"name": "changeTweetLength",
					"outputs": [],
					"stateMutability": "nonpayable",
					"type": "function"
				},
				{
					"inputs": [
						{
							"internalType": "string",
							"name": "_tweet",
							"type": "string"
						}
					],
					"name": "createTweet",
					"outputs": [],
					"stateMutability": "nonpayable",
					"type": "function"
				},
				{
					"inputs": [
						{
							"internalType": "address",
							"name": "_owner",
							"type": "address"
						}
					],
					"name": "getAllTweets",
					"outputs": [
						{
							"components": [
								{
									"internalType": "uint256",
									"name": "id",
									"type": "uint256"
								},
								{
									"internalType": "address",
									"name": "author",
									"type": "address"
								},
								{
									"internalType": "string",
									"name": "content",
									"type": "string"
								},
								{
									"internalType": "uint256",
									"name": "timestamp",
									"type": "uint256"
								},
								{
									"internalType": "uint256",
									"name": "likes",
									"type": "uint256"
								}
							],
							"internalType": "struct Twitter.Tweet[]",
							"name": "",
							"type": "tuple[]"
						}
					],
					"stateMutability": "view",
					"type": "function"
				},
				{
					"inputs": [
						{
							"internalType": "uint256",
							"name": "_i",
							"type": "uint256"
						}
					],
					"name": "getTweet",
					"outputs": [
						{
							"components": [
								{
									"internalType": "uint256",
									"name": "id",
									"type": "uint256"
								},
								{
									"internalType": "address",
									"name": "author",
									"type": "address"
								},
								{
									"internalType": "string",
									"name": "content",
									"type": "string"
								},
								{
									"internalType": "uint256",
									"name": "timestamp",
									"type": "uint256"
								},
								{
									"internalType": "uint256",
									"name": "likes",
									"type": "uint256"
								}
							],
							"internalType": "struct Twitter.Tweet",
							"name": "",
							"type": "tuple"
						}
					],
					"stateMutability": "view",
					"type": "function"
				},
				{
					"inputs": [
						{
							"internalType": "address",
							"name": "author",
							"type": "address"
						},
						{
							"internalType": "uint256",
							"name": "id",
							"type": "uint256"
						}
					],
					"name": "likeTweet",
					"outputs": [],
					"stateMutability": "nonpayable",
					"type": "function"
				},
				{
					"inputs": [],
					"name": "owner",
					"outputs": [
						{
							"internalType": "address",
							"name": "",
							"type": "address"
						}
					],
					"stateMutability": "view",
					"type": "function"
				},
				{
					"inputs": [],
					"name": "renounceOwnership",
					"outputs": [],
					"stateMutability": "nonpayable",
					"type": "function"
				},
				{
					"inputs": [
						{
							"internalType": "address",
							"name": "newOwner",
							"type": "address"
						}
					],
					"name": "transferOwnership",
					"outputs": [],
					"stateMutability": "nonpayable",
					"type": "function"
				},
				{
					"inputs": [
						{
							"internalType": "address",
							"name": "",
							"type": "address"
						},
						{
							"internalType": "uint256",
							"name": "",
							"type": "uint256"
						}
					],
					"name": "tweets",
					"outputs": [
						{
							"internalType": "uint256",
							"name": "id",
							"type": "uint256"
						},
						{
							"internalType": "address",
							"name": "author",
							"type": "address"
						},
						{
							"internalType": "string",
							"name": "content",
							"type": "string"
						},
						{
							"internalType": "uint256",
							"name": "timestamp",
							"type": "uint256"
						},
						{
							"internalType": "uint256",
							"name": "likes",
							"type": "uint256"
						}
					],
					"stateMutability": "view",
					"type": "function"
				},
				{
					"inputs": [
						{
							"internalType": "address",
							"name": "author",
							"type": "address"
						},
						{
							"internalType": "uint256",
							"name": "id",
							"type": "uint256"
						}
					],
					"name": "unlikeTweet",
					"outputs": [],
					"stateMutability": "nonpayable",
					"type": "function"
				}
			],
			"devdoc": {
				"errors": {
					"OwnableInvalidOwner(address)": [
						{
							"details": "The owner is not a valid owner account. (eg. `address(0)`)"
						}
					],
					"OwnableUnauthorizedAccount(address)": [
						{
							"details": "The caller account is not authorized to perform an operation."
						}
					]
				},
				"kind": "dev",
				"methods": {
					"owner()": {
						"details": "Returns the address of the current owner."
					},
					"renounceOwnership()": {
						"details": "Leaves the contract without owner. It will not be possible to call `onlyOwner` functions. Can only be called by the current owner. NOTE: Renouncing ownership will leave the contract without an owner, thereby disabling any functionality that is only available to the owner."
					},
					"transferOwnership(address)": {
						"details": "Transfers ownership of the contract to a new account (`newOwner`). Can only be called by the current owner."
					}
				},
				"version": 1
			},
			"evm": {
				"assembly": "    /* \"contracts/14_Twitter.sol\":113:2264  contract Twitter is Ownable{... */\n  mstore(0x40, 0x80)\n    /* \"contracts/14_Twitter.sol\":180:183  280 */\n  0x0118\n    /* \"contracts/14_Twitter.sol\":147:183  uint16 public MAX_TWEET_LENGTH = 280 */\n  0x00\n  exp(0x0100, 0x14)\n  dup2\n  sload\n  dup2\n  0xffff\n  mul\n  not\n  and\n  swap1\n  dup4\n  0xffff\n  and\n  mul\n  or\n  swap1\n  sstore\n  pop\n    /* \"contracts/14_Twitter.sol\":693:729  constructor() Ownable(msg.sender) {} */\n  callvalue\n  dup1\n  iszero\n  tag_1\n  jumpi\n  0x00\n  dup1\n  revert\ntag_1:\n  pop\n    /* \"contracts/14_Twitter.sol\":715:725  msg.sender */\n  caller\n    /* \"@openzeppelin/contracts/access/Ownable.sol\":1304:1305  0 */\n  0x00\n    /* \"@openzeppelin/contracts/access/Ownable.sol\":1280:1306  initialOwner == address(0) */\n  0xffffffffffffffffffffffffffffffffffffffff\n  and\n    /* \"@openzeppelin/contracts/access/Ownable.sol\":1280:1292  initialOwner */\n  dup2\n    /* \"@openzeppelin/contracts/access/Ownable.sol\":1280:1306  initialOwner == address(0) */\n  0xffffffffffffffffffffffffffffffffffffffff\n  and\n  sub\n    /* \"@openzeppelin/contracts/access/Ownable.sol\":1276:1371  if (initialOwner == address(0)) {... */\n  tag_5\n  jumpi\n    /* \"@openzeppelin/contracts/access/Ownable.sol\":1357:1358  0 */\n  0x00\n    /* \"@openzeppelin/contracts/access/Ownable.sol\":1329:1360  OwnableInvalidOwner(address(0)) */\n  mload(0x40)\n  0x1e4fbdf700000000000000000000000000000000000000000000000000000000\n  dup2\n  mstore\n  0x04\n  add\n  tag_6\n  swap2\n  swap1\n  tag_7\n  jump\t// in\ntag_6:\n  mload(0x40)\n  dup1\n  swap2\n  sub\n  swap1\n  revert\n    /* \"@openzeppelin/contracts/access/Ownable.sol\":1276:1371  if (initialOwner == address(0)) {... */\ntag_5:\n    /* \"@openzeppelin/contracts/access/Ownable.sol\":1380:1412  _transferOwnership(initialOwner) */\n  tag_8\n    /* \"@openzeppelin/contracts/access/Ownable.sol\":1399:1411  initialOwner */\n  dup2\n    /* \"@openzeppelin/contracts/access/Ownable.sol\":1380:1398  _transferOwnership */\n  shl(0x20, tag_9)\n    /* \"@openzeppelin/contracts/access/Ownable.sol\":1380:1412  _transferOwnership(initialOwner) */\n  0x20\n  shr\n  jump\t// in\ntag_8:\n    /* \"@openzeppelin/contracts/access/Ownable.sol\":1232:1419  constructor(address initialOwner) {... */\n  pop\n    /* \"contracts/14_Twitter.sol\":113:2264  contract Twitter is Ownable{... */\n  jump(tag_11)\n    /* \"@openzeppelin/contracts/access/Ownable.sol\":2919:3106  function _transferOwnership(address newOwner) internal virtual {... */\ntag_9:\n    /* \"@openzeppelin/contracts/access/Ownable.sol\":2992:3008  address oldOwner */\n  0x00\n    /* \"@openzeppelin/contracts/access/Ownable.sol\":3011:3017  _owner */\n  dup1\n  0x00\n  swap1\n  sload\n  swap1\n  0x0100\n  exp\n  swap1\n  div\n  0xffffffffffffffffffffffffffffffffffffffff\n  and\n    /* \"@openzeppelin/contracts/access/Ownable.sol\":2992:3017  address oldOwner = _owner */\n  swap1\n  pop\n    /* \"@openzeppelin/contracts/access/Ownable.sol\":3036:3044  newOwner */\n  dup2\n    /* \"@openzeppelin/contracts/access/Ownable.sol\":3027:3033  _owner */\n  0x00\n  dup1\n    /* \"@openzeppelin/contracts/access/Ownable.sol\":3027:3044  _owner = newOwner */\n  0x0100\n  exp\n  dup2\n  sload\n  dup2\n  0xffffffffffffffffffffffffffffffffffffffff\n  mul\n  not\n  and\n  swap1\n  dup4\n  0xffffffffffffffffffffffffffffffffffffffff\n  and\n  mul\n  or\n  swap1\n  sstore\n  pop\n    /* \"@openzeppelin/contracts/access/Ownable.sol\":3090:3098  newOwner */\n  dup2\n    /* \"@openzeppelin/contracts/access/Ownable.sol\":3059:3099  OwnershipTransferred(oldOwner, newOwner) */\n  0xffffffffffffffffffffffffffffffffffffffff\n  and\n    /* \"@openzeppelin/contracts/access/Ownable.sol\":3080:3088  oldOwner */\n  dup2\n    /* \"@openzeppelin/contracts/access/Ownable.sol\":3059:3099  OwnershipTransferred(oldOwner, newOwner) */\n  0xffffffffffffffffffffffffffffffffffffffff\n  and\n  0x8be0079c531659141344cd1fd0a4f28419497f9722a3daafe3b4186f6b6457e0\n  mload(0x40)\n  mload(0x40)\n  dup1\n  swap2\n  sub\n  swap1\n  log3\n    /* \"@openzeppelin/contracts/access/Ownable.sol\":2982:3106  {... */\n  pop\n    /* \"@openzeppelin/contracts/access/Ownable.sol\":2919:3106  function _transferOwnership(address newOwner) internal virtual {... */\n  pop\n  jump\t// out\n    /* \"#utility.yul\":7:133   */\ntag_13:\n    /* \"#utility.yul\":44:51   */\n  0x00\n    /* \"#utility.yul\":84:126   */\n  0xffffffffffffffffffffffffffffffffffffffff\n    /* \"#utility.yul\":77:82   */\n  dup3\n    /* \"#utility.yul\":73:127   */\n  and\n    /* \"#utility.yul\":62:127   */\n  swap1\n  pop\n    /* \"#utility.yul\":7:133   */\n  swap2\n  swap1\n  pop\n  jump\t// out\n    /* \"#utility.yul\":139:235   */\ntag_14:\n    /* \"#utility.yul\":176:183   */\n  0x00\n    /* \"#utility.yul\":205:229   */\n  tag_19\n    /* \"#utility.yul\":223:228   */\n  dup3\n    /* \"#utility.yul\":205:229   */\n  tag_13\n  jump\t// in\ntag_19:\n    /* \"#utility.yul\":194:229   */\n  swap1\n  pop\n    /* \"#utility.yul\":139:235   */\n  swap2\n  swap1\n  pop\n  jump\t// out\n    /* \"#utility.yul\":241:359   */\ntag_15:\n    /* \"#utility.yul\":328:352   */\n  tag_21\n    /* \"#utility.yul\":346:351   */\n  dup2\n    /* \"#utility.yul\":328:352   */\n  tag_14\n  jump\t// in\ntag_21:\n    /* \"#utility.yul\":323:326   */\n  dup3\n    /* \"#utility.yul\":316:353   */\n  mstore\n    /* \"#utility.yul\":241:359   */\n  pop\n  pop\n  jump\t// out\n    /* \"#utility.yul\":365:587   */\ntag_7:\n    /* \"#utility.yul\":458:462   */\n  0x00\n    /* \"#utility.yul\":496:498   */\n  0x20\n    /* \"#utility.yul\":485:494   */\n  dup3\n    /* \"#utility.yul\":481:499   */\n  add\n    /* \"#utility.yul\":473:499   */\n  swap1\n  pop\n    /* \"#utility.yul\":509:580   */\n  tag_23\n    /* \"#utility.yul\":577:578   */\n  0x00\n    /* \"#utility.yul\":566:575   */\n  dup4\n    /* \"#utility.yul\":562:579   */\n  add\n    /* \"#utility.yul\":553:559   */\n  dup5\n    /* \"#utility.yul\":509:580   */\n  tag_15\n  jump\t// in\ntag_23:\n    /* \"#utility.yul\":365:587   */\n  swap3\n  swap2\n  pop\n  pop\n  jump\t// out\n    /* \"contracts/14_Twitter.sol\":113:2264  contract Twitter is Ownable{... */\ntag_11:\n  dataSize(sub_0)\n  dup1\n  dataOffset(sub_0)\n  0x00\n  codecopy\n  0x00\n  return\nstop\n\nsub_0: assembly {\n        /* \"contracts/14_Twitter.sol\":113:2264  contract Twitter is Ownable{... */\n      mstore(0x40, 0x80)\n      callvalue\n      dup1\n      iszero\n      tag_1\n      jumpi\n      0x00\n      dup1\n      revert\n    tag_1:\n      pop\n      jumpi(tag_2, lt(calldatasize, 0x04))\n      shr(0xe0, calldataload(0x00))\n      dup1\n      0x6eb10797\n      gt\n      tag_14\n      jumpi\n      dup1\n      0x6eb10797\n      eq\n      tag_8\n      jumpi\n      dup1\n      0x715018a6\n      eq\n      tag_9\n      jumpi\n      dup1\n      0x7c9cd2bc\n      eq\n      tag_10\n      jumpi\n      dup1\n      0x8da5cb5b\n      eq\n      tag_11\n      jumpi\n      dup1\n      0xc3ad5ecb\n      eq\n      tag_12\n      jumpi\n      dup1\n      0xf2fde38b\n      eq\n      tag_13\n      jumpi\n      jump(tag_2)\n    tag_14:\n      dup1\n      0x05a1b4a9\n      eq\n      tag_3\n      jumpi\n      dup1\n      0x12e7ee1c\n      eq\n      tag_4\n      jumpi\n      dup1\n      0x3d9b569f\n      eq\n      tag_5\n      jumpi\n      dup1\n      0x58bfa4ab\n      eq\n      tag_6\n      jumpi\n      dup1\n      0x63378216\n      eq\n      tag_7\n      jumpi\n    tag_2:\n      0x00\n      dup1\n      revert\n        /* \"contracts/14_Twitter.sol\":333:375  mapping(address => Tweet[] ) public tweets */\n    tag_3:\n      tag_15\n      0x04\n      dup1\n      calldatasize\n      sub\n      dup2\n      add\n      swap1\n      tag_16\n      swap2\n      swap1\n      tag_17\n      jump\t// in\n    tag_16:\n      tag_18\n      jump\t// in\n    tag_15:\n      mload(0x40)\n      tag_19\n      swap6\n      swap5\n      swap4\n      swap3\n      swap2\n      swap1\n      tag_20\n      jump\t// in\n    tag_19:\n      mload(0x40)\n      dup1\n      swap2\n      sub\n      swap1\n      return\n        /* \"contracts/14_Twitter.sol\":2148:2261  function getAllTweets(address _owner) public view returns (Tweet[] memory ){... */\n    tag_4:\n      tag_21\n      0x04\n      dup1\n      calldatasize\n      sub\n      dup2\n      add\n      swap1\n      tag_22\n      swap2\n      swap1\n      tag_23\n      jump\t// in\n    tag_22:\n      tag_24\n      jump\t// in\n    tag_21:\n      mload(0x40)\n      tag_25\n      swap2\n      swap1\n      tag_26\n      jump\t// in\n    tag_25:\n      mload(0x40)\n      dup1\n      swap2\n      sub\n      swap1\n      return\n        /* \"contracts/14_Twitter.sol\":1699:2027  function unlikeTweet(address author, uint256 id) external {... */\n    tag_5:\n      tag_27\n      0x04\n      dup1\n      calldatasize\n      sub\n      dup2\n      add\n      swap1\n      tag_28\n      swap2\n      swap1\n      tag_17\n      jump\t// in\n    tag_28:\n      tag_29\n      jump\t// in\n    tag_27:\n      stop\n        /* \"contracts/14_Twitter.sol\":739:856  function changeTweetLength(uint16 newTweetLength) public onlyOwner {... */\n    tag_6:\n      tag_30\n      0x04\n      dup1\n      calldatasize\n      sub\n      dup2\n      add\n      swap1\n      tag_31\n      swap2\n      swap1\n      tag_32\n      jump\t// in\n    tag_31:\n      tag_33\n      jump\t// in\n    tag_30:\n      stop\n        /* \"contracts/14_Twitter.sol\":1408:1693  function likeTweet(address author, uint256 id) external {  ... */\n    tag_7:\n      tag_34\n      0x04\n      dup1\n      calldatasize\n      sub\n      dup2\n      add\n      swap1\n      tag_35\n      swap2\n      swap1\n      tag_17\n      jump\t// in\n    tag_35:\n      tag_36\n      jump\t// in\n    tag_34:\n      stop\n        /* \"contracts/14_Twitter.sol\":147:183  uint16 public MAX_TWEET_LENGTH = 280 */\n    tag_8:\n      tag_37\n      tag_38\n      jump\t// in\n    tag_37:\n      mload(0x40)\n      tag_39\n      swap2\n      swap1\n      tag_40\n      jump\t// in\n    tag_39:\n      mload(0x40)\n      dup1\n      swap2\n      sub\n      swap1\n      return\n        /* \"@openzeppelin/contracts/access/Ownable.sol\":2300:2401  function renounceOwnership() public virtual onlyOwner {... */\n    tag_9:\n      tag_41\n      tag_42\n      jump\t// in\n    tag_41:\n      stop\n        /* \"contracts/14_Twitter.sol\":862:1402  function createTweet(string memory _tweet) public {... */\n    tag_10:\n      tag_43\n      0x04\n      dup1\n      calldatasize\n      sub\n      dup2\n      add\n      swap1\n      tag_44\n      swap2\n      swap1\n      tag_45\n      jump\t// in\n    tag_44:\n      tag_46\n      jump\t// in\n    tag_43:\n      stop\n        /* \"@openzeppelin/contracts/access/Ownable.sol\":1645:1730  function owner() public view virtual returns (address) {... */\n    tag_11:\n      tag_47\n      tag_48\n      jump\t// in\n    tag_47:\n      mload(0x40)\n      tag_49\n      swap2\n      swap1\n      tag_50\n      jump\t// in\n    tag_49:\n      mload(0x40)\n      dup1\n      swap2\n      sub\n      swap1\n      return\n        /* \"contracts/14_Twitter.sol\":2033:2142  function getTweet( uint _i) public view returns (Tweet memory) {... */\n    tag_12:\n      tag_51\n      0x04\n      dup1\n      calldatasize\n      sub\n      dup2\n      add\n      swap1\n      tag_52\n      swap2\n      swap1\n      tag_53\n      jump\t// in\n    tag_52:\n      tag_54\n      jump\t// in\n    tag_51:\n      mload(0x40)\n      tag_55\n      swap2\n      swap1\n      tag_56\n      jump\t// in\n    tag_55:\n      mload(0x40)\n      dup1\n      swap2\n      sub\n      swap1\n      return\n        /* \"@openzeppelin/contracts/access/Ownable.sol\":2550:2765  function transferOwnership(address newOwner) public virtual onlyOwner {... */\n    tag_13:\n      tag_57\n      0x04\n      dup1\n      calldatasize\n      sub\n      dup2\n      add\n      swap1\n      tag_58\n      swap2\n      swap1\n      tag_23\n      jump\t// in\n    tag_58:\n      tag_59\n      jump\t// in\n    tag_57:\n      stop\n        /* \"contracts/14_Twitter.sol\":333:375  mapping(address => Tweet[] ) public tweets */\n    tag_18:\n      mstore(0x20, 0x01)\n      dup2\n      0x00\n      mstore\n      keccak256(0x00, 0x40)\n      dup2\n      dup2\n      sload\n      dup2\n      lt\n      tag_60\n      jumpi\n      0x00\n      dup1\n      revert\n    tag_60:\n      swap1\n      0x00\n      mstore\n      keccak256(0x00, 0x20)\n      swap1\n      0x05\n      mul\n      add\n      0x00\n      swap2\n      pop\n      swap2\n      pop\n      pop\n      dup1\n      0x00\n      add\n      sload\n      swap1\n      dup1\n      0x01\n      add\n      0x00\n      swap1\n      sload\n      swap1\n      0x0100\n      exp\n      swap1\n      div\n      0xffffffffffffffffffffffffffffffffffffffff\n      and\n      swap1\n      dup1\n      0x02\n      add\n      dup1\n      sload\n      tag_62\n      swap1\n      tag_63\n      jump\t// in\n    tag_62:\n      dup1\n      0x1f\n      add\n      0x20\n      dup1\n      swap2\n      div\n      mul\n      0x20\n      add\n      mload(0x40)\n      swap1\n      dup2\n      add\n      0x40\n      mstore\n      dup1\n      swap3\n      swap2\n      swap1\n      dup2\n      dup2\n      mstore\n      0x20\n      add\n      dup3\n      dup1\n      sload\n      tag_64\n      swap1\n      tag_63\n      jump\t// in\n    tag_64:\n      dup1\n      iszero\n      tag_65\n      jumpi\n      dup1\n      0x1f\n      lt\n      tag_66\n      jumpi\n      0x0100\n      dup1\n      dup4\n      sload\n      div\n      mul\n      dup4\n      mstore\n      swap2\n      0x20\n      add\n      swap2\n      jump(tag_65)\n    tag_66:\n      dup3\n      add\n      swap2\n      swap1\n      0x00\n      mstore\n      keccak256(0x00, 0x20)\n      swap1\n    tag_67:\n      dup2\n      sload\n      dup2\n      mstore\n      swap1\n      0x01\n      add\n      swap1\n      0x20\n      add\n      dup1\n      dup4\n      gt\n      tag_67\n      jumpi\n      dup3\n      swap1\n      sub\n      0x1f\n      and\n      dup3\n      add\n      swap2\n    tag_65:\n      pop\n      pop\n      pop\n      pop\n      pop\n      swap1\n      dup1\n      0x03\n      add\n      sload\n      swap1\n      dup1\n      0x04\n      add\n      sload\n      swap1\n      pop\n      dup6\n      jump\t// out\n        /* \"contracts/14_Twitter.sol\":2148:2261  function getAllTweets(address _owner) public view returns (Tweet[] memory ){... */\n    tag_24:\n        /* \"contracts/14_Twitter.sol\":2207:2221  Tweet[] memory */\n      0x60\n        /* \"contracts/14_Twitter.sol\":2240:2246  tweets */\n      0x01\n        /* \"contracts/14_Twitter.sol\":2240:2254  tweets[_owner] */\n      0x00\n        /* \"contracts/14_Twitter.sol\":2247:2253  _owner */\n      dup4\n        /* \"contracts/14_Twitter.sol\":2240:2254  tweets[_owner] */\n      0xffffffffffffffffffffffffffffffffffffffff\n      and\n      0xffffffffffffffffffffffffffffffffffffffff\n      and\n      dup2\n      mstore\n      0x20\n      add\n      swap1\n      dup2\n      mstore\n      0x20\n      add\n      0x00\n      keccak256\n        /* \"contracts/14_Twitter.sol\":2233:2254  return tweets[_owner] */\n      dup1\n      sload\n      dup1\n      0x20\n      mul\n      0x20\n      add\n      mload(0x40)\n      swap1\n      dup2\n      add\n      0x40\n      mstore\n      dup1\n      swap3\n      swap2\n      swap1\n      dup2\n      dup2\n      mstore\n      0x20\n      add\n      0x00\n      swap1\n    tag_69:\n      dup3\n      dup3\n      lt\n      iszero\n      tag_70\n      jumpi\n      dup4\n      dup3\n      swap1\n      0x00\n      mstore\n      keccak256(0x00, 0x20)\n      swap1\n      0x05\n      mul\n      add\n      mload(0x40)\n      dup1\n      0xa0\n      add\n      0x40\n      mstore\n      swap1\n      dup2\n      0x00\n      dup3\n      add\n      sload\n      dup2\n      mstore\n      0x20\n      add\n      0x01\n      dup3\n      add\n      0x00\n      swap1\n      sload\n      swap1\n      0x0100\n      exp\n      swap1\n      div\n      0xffffffffffffffffffffffffffffffffffffffff\n      and\n      0xffffffffffffffffffffffffffffffffffffffff\n      and\n      0xffffffffffffffffffffffffffffffffffffffff\n      and\n      dup2\n      mstore\n      0x20\n      add\n      0x02\n      dup3\n      add\n      dup1\n      sload\n      tag_72\n      swap1\n      tag_63\n      jump\t// in\n    tag_72:\n      dup1\n      0x1f\n      add\n      0x20\n      dup1\n      swap2\n      div\n      mul\n      0x20\n      add\n      mload(0x40)\n      swap1\n      dup2\n      add\n      0x40\n      mstore\n      dup1\n      swap3\n      swap2\n      swap1\n      dup2\n      dup2\n      mstore\n      0x20\n      add\n      dup3\n      dup1\n      sload\n      tag_73\n      swap1\n      tag_63\n      jump\t// in\n    tag_73:\n      dup1\n      iszero\n      tag_74\n      jumpi\n      dup1\n      0x1f\n      lt\n      tag_75\n      jumpi\n      0x0100\n      dup1\n      dup4\n      sload\n      div\n      mul\n      dup4\n      mstore\n      swap2\n      0x20\n      add\n      swap2\n      jump(tag_74)\n    tag_75:\n      dup3\n      add\n      swap2\n      swap1\n      0x00\n      mstore\n      keccak256(0x00, 0x20)\n      swap1\n    tag_76:\n      dup2\n      sload\n      dup2\n      mstore\n      swap1\n      0x01\n      add\n      swap1\n      0x20\n      add\n      dup1\n      dup4\n      gt\n      tag_76\n      jumpi\n      dup3\n      swap1\n      sub\n      0x1f\n      and\n      dup3\n      add\n      swap2\n    tag_74:\n      pop\n      pop\n      pop\n      pop\n      pop\n      dup2\n      mstore\n      0x20\n      add\n      0x03\n      dup3\n      add\n      sload\n      dup2\n      mstore\n      0x20\n      add\n      0x04\n      dup3\n      add\n      sload\n      dup2\n      mstore\n      pop\n      pop\n      dup2\n      mstore\n      0x20\n      add\n      swap1\n      0x01\n      add\n      swap1\n      jump(tag_69)\n    tag_70:\n      pop\n      pop\n      pop\n      pop\n      swap1\n      pop\n        /* \"contracts/14_Twitter.sol\":2148:2261  function getAllTweets(address _owner) public view returns (Tweet[] memory ){... */\n      swap2\n      swap1\n      pop\n      jump\t// out\n        /* \"contracts/14_Twitter.sol\":1699:2027  function unlikeTweet(address author, uint256 id) external {... */\n    tag_29:\n        /* \"contracts/14_Twitter.sol\":1800:1802  id */\n      dup1\n        /* \"contracts/14_Twitter.sol\":1775:1781  tweets */\n      0x01\n        /* \"contracts/14_Twitter.sol\":1775:1789  tweets[author] */\n      0x00\n        /* \"contracts/14_Twitter.sol\":1782:1788  author */\n      dup5\n        /* \"contracts/14_Twitter.sol\":1775:1789  tweets[author] */\n      0xffffffffffffffffffffffffffffffffffffffff\n      and\n      0xffffffffffffffffffffffffffffffffffffffff\n      and\n      dup2\n      mstore\n      0x20\n      add\n      swap1\n      dup2\n      mstore\n      0x20\n      add\n      0x00\n      keccak256\n        /* \"contracts/14_Twitter.sol\":1790:1792  id */\n      dup3\n        /* \"contracts/14_Twitter.sol\":1775:1793  tweets[author][id] */\n      dup2\n      sload\n      dup2\n      lt\n      tag_78\n      jumpi\n      tag_79\n      tag_80\n      jump\t// in\n    tag_79:\n    tag_78:\n      swap1\n      0x00\n      mstore\n      keccak256(0x00, 0x20)\n      swap1\n      0x05\n      mul\n      add\n        /* \"contracts/14_Twitter.sol\":1775:1796  tweets[author][id].id */\n      0x00\n      add\n      sload\n        /* \"contracts/14_Twitter.sol\":1775:1802  tweets[author][id].id == id */\n      eq\n        /* \"contracts/14_Twitter.sol\":1767:1827  require(tweets[author][id].id == id, \"TWEET DOES NOT EXIST\") */\n      tag_82\n      jumpi\n      mload(0x40)\n      0x08c379a000000000000000000000000000000000000000000000000000000000\n      dup2\n      mstore\n      0x04\n      add\n      tag_83\n      swap1\n      tag_84\n      jump\t// in\n    tag_83:\n      mload(0x40)\n      dup1\n      swap2\n      sub\n      swap1\n      revert\n    tag_82:\n        /* \"contracts/14_Twitter.sol\":1872:1873  0 */\n      0x00\n        /* \"contracts/14_Twitter.sol\":1845:1851  tweets */\n      0x01\n        /* \"contracts/14_Twitter.sol\":1845:1859  tweets[author] */\n      0x00\n        /* \"contracts/14_Twitter.sol\":1852:1858  author */\n      dup5\n        /* \"contracts/14_Twitter.sol\":1845:1859  tweets[author] */\n      0xffffffffffffffffffffffffffffffffffffffff\n      and\n      0xffffffffffffffffffffffffffffffffffffffff\n      and\n      dup2\n      mstore\n      0x20\n      add\n      swap1\n      dup2\n      mstore\n      0x20\n      add\n      0x00\n      keccak256\n        /* \"contracts/14_Twitter.sol\":1860:1862  id */\n      dup3\n        /* \"contracts/14_Twitter.sol\":1845:1863  tweets[author][id] */\n      dup2\n      sload\n      dup2\n      lt\n      tag_85\n      jumpi\n      tag_86\n      tag_80\n      jump\t// in\n    tag_86:\n    tag_85:\n      swap1\n      0x00\n      mstore\n      keccak256(0x00, 0x20)\n      swap1\n      0x05\n      mul\n      add\n        /* \"contracts/14_Twitter.sol\":1845:1869  tweets[author][id].likes */\n      0x04\n      add\n      sload\n        /* \"contracts/14_Twitter.sol\":1845:1873  tweets[author][id].likes > 0 */\n      gt\n        /* \"contracts/14_Twitter.sol\":1837:1896  require(tweets[author][id].likes > 0, \"TWEET HAS NO LIKES\") */\n      tag_88\n      jumpi\n      mload(0x40)\n      0x08c379a000000000000000000000000000000000000000000000000000000000\n      dup2\n      mstore\n      0x04\n      add\n      tag_89\n      swap1\n      tag_90\n      jump\t// in\n    tag_89:\n      mload(0x40)\n      dup1\n      swap2\n      sub\n      swap1\n      revert\n    tag_88:\n        /* \"contracts/14_Twitter.sol\":1915:1921  tweets */\n      0x01\n        /* \"contracts/14_Twitter.sol\":1915:1929  tweets[author] */\n      0x00\n        /* \"contracts/14_Twitter.sol\":1922:1928  author */\n      dup4\n        /* \"contracts/14_Twitter.sol\":1915:1929  tweets[author] */\n      0xffffffffffffffffffffffffffffffffffffffff\n      and\n      0xffffffffffffffffffffffffffffffffffffffff\n      and\n      dup2\n      mstore\n      0x20\n      add\n      swap1\n      dup2\n      mstore\n      0x20\n      add\n      0x00\n      keccak256\n        /* \"contracts/14_Twitter.sol\":1930:1932  id */\n      dup2\n        /* \"contracts/14_Twitter.sol\":1915:1933  tweets[author][id] */\n      dup2\n      sload\n      dup2\n      lt\n      tag_91\n      jumpi\n      tag_92\n      tag_80\n      jump\t// in\n    tag_92:\n    tag_91:\n      swap1\n      0x00\n      mstore\n      keccak256(0x00, 0x20)\n      swap1\n      0x05\n      mul\n      add\n        /* \"contracts/14_Twitter.sol\":1915:1939  tweets[author][id].likes */\n      0x04\n      add\n      0x00\n        /* \"contracts/14_Twitter.sol\":1915:1941  tweets[author][id].likes-- */\n      dup2\n      sload\n      dup1\n      swap3\n      swap2\n      swap1\n      tag_94\n      swap1\n      tag_95\n      jump\t// in\n    tag_94:\n      swap2\n      swap1\n      pop\n      sstore\n      pop\n        /* \"contracts/14_Twitter.sol\":1957:2020  TweetUnliked(msg.sender, author, id, tweets[author][id].likes ) */\n      0x762c2616349603ac16eba0de8e6141b79129a07ab63bd99e0a80b3a471716943\n        /* \"contracts/14_Twitter.sol\":1970:1980  msg.sender */\n      caller\n        /* \"contracts/14_Twitter.sol\":1982:1988  author */\n      dup4\n        /* \"contracts/14_Twitter.sol\":1990:1992  id */\n      dup4\n        /* \"contracts/14_Twitter.sol\":1994:2000  tweets */\n      0x01\n        /* \"contracts/14_Twitter.sol\":1994:2008  tweets[author] */\n      0x00\n        /* \"contracts/14_Twitter.sol\":2001:2007  author */\n      dup8\n        /* \"contracts/14_Twitter.sol\":1994:2008  tweets[author] */\n      0xffffffffffffffffffffffffffffffffffffffff\n      and\n      0xffffffffffffffffffffffffffffffffffffffff\n      and\n      dup2\n      mstore\n      0x20\n      add\n      swap1\n      dup2\n      mstore\n      0x20\n      add\n      0x00\n      keccak256\n        /* \"contracts/14_Twitter.sol\":2009:2011  id */\n      dup6\n        /* \"contracts/14_Twitter.sol\":1994:2012  tweets[author][id] */\n      dup2\n      sload\n      dup2\n      lt\n      tag_96\n      jumpi\n      tag_97\n      tag_80\n      jump\t// in\n    tag_97:\n    tag_96:\n      swap1\n      0x00\n      mstore\n      keccak256(0x00, 0x20)\n      swap1\n      0x05\n      mul\n      add\n        /* \"contracts/14_Twitter.sol\":1994:2018  tweets[author][id].likes */\n      0x04\n      add\n      sload\n        /* \"contracts/14_Twitter.sol\":1957:2020  TweetUnliked(msg.sender, author, id, tweets[author][id].likes ) */\n      mload(0x40)\n      tag_99\n      swap5\n      swap4\n      swap3\n      swap2\n      swap1\n      tag_100\n      jump\t// in\n    tag_99:\n      mload(0x40)\n      dup1\n      swap2\n      sub\n      swap1\n      log1\n        /* \"contracts/14_Twitter.sol\":1699:2027  function unlikeTweet(address author, uint256 id) external {... */\n      pop\n      pop\n      jump\t// out\n        /* \"contracts/14_Twitter.sol\":739:856  function changeTweetLength(uint16 newTweetLength) public onlyOwner {... */\n    tag_33:\n        /* \"@openzeppelin/contracts/access/Ownable.sol\":1538:1551  _checkOwner() */\n      tag_102\n        /* \"@openzeppelin/contracts/access/Ownable.sol\":1538:1549  _checkOwner */\n      tag_103\n        /* \"@openzeppelin/contracts/access/Ownable.sol\":1538:1551  _checkOwner() */\n      jump\t// in\n    tag_102:\n        /* \"contracts/14_Twitter.sol\":835:849  newTweetLength */\n      dup1\n        /* \"contracts/14_Twitter.sol\":816:832  MAX_TWEET_LENGTH */\n      0x00\n      0x14\n        /* \"contracts/14_Twitter.sol\":816:849  MAX_TWEET_LENGTH = newTweetLength */\n      0x0100\n      exp\n      dup2\n      sload\n      dup2\n      0xffff\n      mul\n      not\n      and\n      swap1\n      dup4\n      0xffff\n      and\n      mul\n      or\n      swap1\n      sstore\n      pop\n        /* \"contracts/14_Twitter.sol\":739:856  function changeTweetLength(uint16 newTweetLength) public onlyOwner {... */\n      pop\n      jump\t// out\n        /* \"contracts/14_Twitter.sol\":1408:1693  function likeTweet(address author, uint256 id) external {  ... */\n    tag_36:\n        /* \"contracts/14_Twitter.sol\":1509:1511  id */\n      dup1\n        /* \"contracts/14_Twitter.sol\":1484:1490  tweets */\n      0x01\n        /* \"contracts/14_Twitter.sol\":1484:1498  tweets[author] */\n      0x00\n        /* \"contracts/14_Twitter.sol\":1491:1497  author */\n      dup5\n        /* \"contracts/14_Twitter.sol\":1484:1498  tweets[author] */\n      0xffffffffffffffffffffffffffffffffffffffff\n      and\n      0xffffffffffffffffffffffffffffffffffffffff\n      and\n      dup2\n      mstore\n      0x20\n      add\n      swap1\n      dup2\n      mstore\n      0x20\n      add\n      0x00\n      keccak256\n        /* \"contracts/14_Twitter.sol\":1499:1501  id */\n      dup3\n        /* \"contracts/14_Twitter.sol\":1484:1502  tweets[author][id] */\n      dup2\n      sload\n      dup2\n      lt\n      tag_106\n      jumpi\n      tag_107\n      tag_80\n      jump\t// in\n    tag_107:\n    tag_106:\n      swap1\n      0x00\n      mstore\n      keccak256(0x00, 0x20)\n      swap1\n      0x05\n      mul\n      add\n        /* \"contracts/14_Twitter.sol\":1484:1505  tweets[author][id].id */\n      0x00\n      add\n      sload\n        /* \"contracts/14_Twitter.sol\":1484:1511  tweets[author][id].id == id */\n      eq\n        /* \"contracts/14_Twitter.sol\":1476:1536  require(tweets[author][id].id == id, \"TWEET DOES NOT EXIST\") */\n      tag_109\n      jumpi\n      mload(0x40)\n      0x08c379a000000000000000000000000000000000000000000000000000000000\n      dup2\n      mstore\n      0x04\n      add\n      tag_110\n      swap1\n      tag_84\n      jump\t// in\n    tag_110:\n      mload(0x40)\n      dup1\n      swap2\n      sub\n      swap1\n      revert\n    tag_109:\n        /* \"contracts/14_Twitter.sol\":1547:1553  tweets */\n      0x01\n        /* \"contracts/14_Twitter.sol\":1547:1561  tweets[author] */\n      0x00\n        /* \"contracts/14_Twitter.sol\":1554:1560  author */\n      dup4\n        /* \"contracts/14_Twitter.sol\":1547:1561  tweets[author] */\n      0xffffffffffffffffffffffffffffffffffffffff\n      and\n      0xffffffffffffffffffffffffffffffffffffffff\n      and\n      dup2\n      mstore\n      0x20\n      add\n      swap1\n      dup2\n      mstore\n      0x20\n      add\n      0x00\n      keccak256\n        /* \"contracts/14_Twitter.sol\":1562:1564  id */\n      dup2\n        /* \"contracts/14_Twitter.sol\":1547:1565  tweets[author][id] */\n      dup2\n      sload\n      dup2\n      lt\n      tag_111\n      jumpi\n      tag_112\n      tag_80\n      jump\t// in\n    tag_112:\n    tag_111:\n      swap1\n      0x00\n      mstore\n      keccak256(0x00, 0x20)\n      swap1\n      0x05\n      mul\n      add\n        /* \"contracts/14_Twitter.sol\":1547:1571  tweets[author][id].likes */\n      0x04\n      add\n      0x00\n        /* \"contracts/14_Twitter.sol\":1547:1573  tweets[author][id].likes++ */\n      dup2\n      sload\n      dup1\n      swap3\n      swap2\n      swap1\n      tag_114\n      swap1\n      tag_115\n      jump\t// in\n    tag_114:\n      swap2\n      swap1\n      pop\n      sstore\n      pop\n        /* \"contracts/14_Twitter.sol\":1626:1686  TweetLiked(msg.sender, author, id, tweets[author][id].likes) */\n      0xe8a76fc0f16d11a00d1e93b689b63d76cf60af914dd3d915375dc41d01a0c3c8\n        /* \"contracts/14_Twitter.sol\":1637:1647  msg.sender */\n      caller\n        /* \"contracts/14_Twitter.sol\":1649:1655  author */\n      dup4\n        /* \"contracts/14_Twitter.sol\":1657:1659  id */\n      dup4\n        /* \"contracts/14_Twitter.sol\":1661:1667  tweets */\n      0x01\n        /* \"contracts/14_Twitter.sol\":1661:1675  tweets[author] */\n      0x00\n        /* \"contracts/14_Twitter.sol\":1668:1674  author */\n      dup8\n        /* \"contracts/14_Twitter.sol\":1661:1675  tweets[author] */\n      0xffffffffffffffffffffffffffffffffffffffff\n      and\n      0xffffffffffffffffffffffffffffffffffffffff\n      and\n      dup2\n      mstore\n      0x20\n      add\n      swap1\n      dup2\n      mstore\n      0x20\n      add\n      0x00\n      keccak256\n        /* \"contracts/14_Twitter.sol\":1676:1678  id */\n      dup6\n        /* \"contracts/14_Twitter.sol\":1661:1679  tweets[author][id] */\n      dup2\n      sload\n      dup2\n      lt\n      tag_116\n      jumpi\n      tag_117\n      tag_80\n      jump\t// in\n    tag_117:\n    tag_116:\n      swap1\n      0x00\n      mstore\n      keccak256(0x00, 0x20)\n      swap1\n      0x05\n      mul\n      add\n        /* \"contracts/14_Twitter.sol\":1661:1685  tweets[author][id].likes */\n      0x04\n      add\n      sload\n        /* \"contracts/14_Twitter.sol\":1626:1686  TweetLiked(msg.sender, author, id, tweets[author][id].likes) */\n      mload(0x40)\n      tag_119\n      swap5\n      swap4\n      swap3\n      swap2\n      swap1\n      tag_100\n      jump\t// in\n    tag_119:\n      mload(0x40)\n      dup1\n      swap2\n      sub\n      swap1\n      log1\n        /* \"contracts/14_Twitter.sol\":1408:1693  function likeTweet(address author, uint256 id) external {  ... */\n      pop\n      pop\n      jump\t// out\n        /* \"contracts/14_Twitter.sol\":147:183  uint16 public MAX_TWEET_LENGTH = 280 */\n    tag_38:\n      0x00\n      0x14\n      swap1\n      sload\n      swap1\n      0x0100\n      exp\n      swap1\n      div\n      0xffff\n      and\n      dup2\n      jump\t// out\n        /* \"@openzeppelin/contracts/access/Ownable.sol\":2300:2401  function renounceOwnership() public virtual onlyOwner {... */\n    tag_42:\n        /* \"@openzeppelin/contracts/access/Ownable.sol\":1538:1551  _checkOwner() */\n      tag_121\n        /* \"@openzeppelin/contracts/access/Ownable.sol\":1538:1549  _checkOwner */\n      tag_103\n        /* \"@openzeppelin/contracts/access/Ownable.sol\":1538:1551  _checkOwner() */\n      jump\t// in\n    tag_121:\n        /* \"@openzeppelin/contracts/access/Ownable.sol\":2364:2394  _transferOwnership(address(0)) */\n      tag_123\n        /* \"@openzeppelin/contracts/access/Ownable.sol\":2391:2392  0 */\n      0x00\n        /* \"@openzeppelin/contracts/access/Ownable.sol\":2364:2382  _transferOwnership */\n      tag_124\n        /* \"@openzeppelin/contracts/access/Ownable.sol\":2364:2394  _transferOwnership(address(0)) */\n      jump\t// in\n    tag_123:\n        /* \"@openzeppelin/contracts/access/Ownable.sol\":2300:2401  function renounceOwnership() public virtual onlyOwner {... */\n      jump\t// out\n        /* \"contracts/14_Twitter.sol\":862:1402  function createTweet(string memory _tweet) public {... */\n    tag_46:\n        /* \"contracts/14_Twitter.sol\":954:970  MAX_TWEET_LENGTH */\n      0x00\n      0x14\n      swap1\n      sload\n      swap1\n      0x0100\n      exp\n      swap1\n      div\n      0xffff\n      and\n        /* \"contracts/14_Twitter.sol\":930:970  bytes(_tweet).length <= MAX_TWEET_LENGTH */\n      0xffff\n      and\n        /* \"contracts/14_Twitter.sol\":936:942  _tweet */\n      dup2\n        /* \"contracts/14_Twitter.sol\":930:950  bytes(_tweet).length */\n      mload\n        /* \"contracts/14_Twitter.sol\":930:970  bytes(_tweet).length <= MAX_TWEET_LENGTH */\n      gt\n      iszero\n        /* \"contracts/14_Twitter.sol\":922:998  require(bytes(_tweet).length <= MAX_TWEET_LENGTH, \"Tweet is too long bro!\" ) */\n      tag_126\n      jumpi\n      mload(0x40)\n      0x08c379a000000000000000000000000000000000000000000000000000000000\n      dup2\n      mstore\n      0x04\n      add\n      tag_127\n      swap1\n      tag_128\n      jump\t// in\n    tag_127:\n      mload(0x40)\n      dup1\n      swap2\n      sub\n      swap1\n      revert\n    tag_126:\n        /* \"contracts/14_Twitter.sol\":1009:1030  Tweet memory newTweet */\n      0x00\n        /* \"contracts/14_Twitter.sol\":1033:1216  Tweet({... */\n      mload(0x40)\n      dup1\n      0xa0\n      add\n      0x40\n      mstore\n      dup1\n        /* \"contracts/14_Twitter.sol\":1057:1063  tweets */\n      0x01\n        /* \"contracts/14_Twitter.sol\":1057:1075  tweets[msg.sender] */\n      0x00\n        /* \"contracts/14_Twitter.sol\":1064:1074  msg.sender */\n      caller\n        /* \"contracts/14_Twitter.sol\":1057:1075  tweets[msg.sender] */\n      0xffffffffffffffffffffffffffffffffffffffff\n      and\n      0xffffffffffffffffffffffffffffffffffffffff\n      and\n      dup2\n      mstore\n      0x20\n      add\n      swap1\n      dup2\n      mstore\n      0x20\n      add\n      0x00\n      keccak256\n        /* \"contracts/14_Twitter.sol\":1057:1082  tweets[msg.sender].length */\n      dup1\n      sload\n      swap1\n      pop\n        /* \"contracts/14_Twitter.sol\":1033:1216  Tweet({... */\n      dup2\n      mstore\n      0x20\n      add\n        /* \"contracts/14_Twitter.sol\":1104:1114  msg.sender */\n      caller\n        /* \"contracts/14_Twitter.sol\":1033:1216  Tweet({... */\n      0xffffffffffffffffffffffffffffffffffffffff\n      and\n      dup2\n      mstore\n      0x20\n      add\n        /* \"contracts/14_Twitter.sol\":1137:1143  _tweet */\n      dup4\n        /* \"contracts/14_Twitter.sol\":1033:1216  Tweet({... */\n      dup2\n      mstore\n      0x20\n      add\n        /* \"contracts/14_Twitter.sol\":1168:1183  block.timestamp */\n      timestamp\n        /* \"contracts/14_Twitter.sol\":1033:1216  Tweet({... */\n      dup2\n      mstore\n      0x20\n      add\n        /* \"contracts/14_Twitter.sol\":1204:1205  0 */\n      0x00\n        /* \"contracts/14_Twitter.sol\":1033:1216  Tweet({... */\n      dup2\n      mstore\n      pop\n        /* \"contracts/14_Twitter.sol\":1009:1216  Tweet memory newTweet = Tweet({... */\n      swap1\n      pop\n        /* \"contracts/14_Twitter.sol\":1227:1233  tweets */\n      0x01\n        /* \"contracts/14_Twitter.sol\":1227:1245  tweets[msg.sender] */\n      0x00\n        /* \"contracts/14_Twitter.sol\":1234:1244  msg.sender */\n      caller\n        /* \"contracts/14_Twitter.sol\":1227:1245  tweets[msg.sender] */\n      0xffffffffffffffffffffffffffffffffffffffff\n      and\n      0xffffffffffffffffffffffffffffffffffffffff\n      and\n      dup2\n      mstore\n      0x20\n      add\n      swap1\n      dup2\n      mstore\n      0x20\n      add\n      0x00\n      keccak256\n        /* \"contracts/14_Twitter.sol\":1251:1259  newTweet */\n      dup2\n        /* \"contracts/14_Twitter.sol\":1227:1260  tweets[msg.sender].push(newTweet) */\n      swap1\n      dup1\n      0x01\n      dup2\n      sload\n      add\n      dup1\n      dup3\n      sstore\n      dup1\n      swap2\n      pop\n      pop\n      0x01\n      swap1\n      sub\n      swap1\n      0x00\n      mstore\n      keccak256(0x00, 0x20)\n      swap1\n      0x05\n      mul\n      add\n      0x00\n      swap1\n      swap2\n      swap1\n      swap2\n      swap1\n      swap2\n      pop\n      0x00\n      dup3\n      add\n      mload\n      dup2\n      0x00\n      add\n      sstore\n      0x20\n      dup3\n      add\n      mload\n      dup2\n      0x01\n      add\n      exp(0x0100, 0x00)\n      dup2\n      sload\n      dup2\n      0xffffffffffffffffffffffffffffffffffffffff\n      mul\n      not\n      and\n      swap1\n      dup4\n      0xffffffffffffffffffffffffffffffffffffffff\n      and\n      mul\n      or\n      swap1\n      sstore\n      pop\n      0x40\n      dup3\n      add\n      mload\n      dup2\n      0x02\n      add\n      swap1\n      dup2\n      tag_130\n      swap2\n      swap1\n      tag_131\n      jump\t// in\n    tag_130:\n      pop\n      0x60\n      dup3\n      add\n      mload\n      dup2\n      0x03\n      add\n      sstore\n      0x80\n      dup3\n      add\n      mload\n      dup2\n      0x04\n      add\n      sstore\n      pop\n      pop\n        /* \"contracts/14_Twitter.sol\":1315:1395  TweetCreated(newTweet.id, newTweet.author, newTweet.content, newTweet.timestamp) */\n      0x16fd3c13e9d46923e0a8bce11c7b473ec508a72e6c96cd2404b29ce972afc29e\n        /* \"contracts/14_Twitter.sol\":1328:1336  newTweet */\n      dup2\n        /* \"contracts/14_Twitter.sol\":1328:1339  newTweet.id */\n      0x00\n      add\n      mload\n        /* \"contracts/14_Twitter.sol\":1341:1349  newTweet */\n      dup3\n        /* \"contracts/14_Twitter.sol\":1341:1356  newTweet.author */\n      0x20\n      add\n      mload\n        /* \"contracts/14_Twitter.sol\":1358:1366  newTweet */\n      dup4\n        /* \"contracts/14_Twitter.sol\":1358:1374  newTweet.content */\n      0x40\n      add\n      mload\n        /* \"contracts/14_Twitter.sol\":1376:1384  newTweet */\n      dup5\n        /* \"contracts/14_Twitter.sol\":1376:1394  newTweet.timestamp */\n      0x60\n      add\n      mload\n        /* \"contracts/14_Twitter.sol\":1315:1395  TweetCreated(newTweet.id, newTweet.author, newTweet.content, newTweet.timestamp) */\n      mload(0x40)\n      tag_132\n      swap5\n      swap4\n      swap3\n      swap2\n      swap1\n      tag_133\n      jump\t// in\n    tag_132:\n      mload(0x40)\n      dup1\n      swap2\n      sub\n      swap1\n      log1\n        /* \"contracts/14_Twitter.sol\":912:1402  {... */\n      pop\n        /* \"contracts/14_Twitter.sol\":862:1402  function createTweet(string memory _tweet) public {... */\n      pop\n      jump\t// out\n        /* \"@openzeppelin/contracts/access/Ownable.sol\":1645:1730  function owner() public view virtual returns (address) {... */\n    tag_48:\n        /* \"@openzeppelin/contracts/access/Ownable.sol\":1691:1698  address */\n      0x00\n        /* \"@openzeppelin/contracts/access/Ownable.sol\":1717:1723  _owner */\n      dup1\n      0x00\n      swap1\n      sload\n      swap1\n      0x0100\n      exp\n      swap1\n      div\n      0xffffffffffffffffffffffffffffffffffffffff\n      and\n        /* \"@openzeppelin/contracts/access/Ownable.sol\":1710:1723  return _owner */\n      swap1\n      pop\n        /* \"@openzeppelin/contracts/access/Ownable.sol\":1645:1730  function owner() public view virtual returns (address) {... */\n      swap1\n      jump\t// out\n        /* \"contracts/14_Twitter.sol\":2033:2142  function getTweet( uint _i) public view returns (Tweet memory) {... */\n    tag_54:\n        /* \"contracts/14_Twitter.sol\":2082:2094  Tweet memory */\n      tag_135\n      tag_136\n      jump\t// in\n    tag_135:\n        /* \"contracts/14_Twitter.sol\":2113:2119  tweets */\n      0x01\n        /* \"contracts/14_Twitter.sol\":2113:2131  tweets[msg.sender] */\n      0x00\n        /* \"contracts/14_Twitter.sol\":2120:2130  msg.sender */\n      caller\n        /* \"contracts/14_Twitter.sol\":2113:2131  tweets[msg.sender] */\n      0xffffffffffffffffffffffffffffffffffffffff\n      and\n      0xffffffffffffffffffffffffffffffffffffffff\n      and\n      dup2\n      mstore\n      0x20\n      add\n      swap1\n      dup2\n      mstore\n      0x20\n      add\n      0x00\n      keccak256\n        /* \"contracts/14_Twitter.sol\":2132:2134  _i */\n      dup3\n        /* \"contracts/14_Twitter.sol\":2113:2135  tweets[msg.sender][_i] */\n      dup2\n      sload\n      dup2\n      lt\n      tag_138\n      jumpi\n      tag_139\n      tag_80\n      jump\t// in\n    tag_139:\n    tag_138:\n      swap1\n      0x00\n      mstore\n      keccak256(0x00, 0x20)\n      swap1\n      0x05\n      mul\n      add\n        /* \"contracts/14_Twitter.sol\":2106:2135  return tweets[msg.sender][_i] */\n      mload(0x40)\n      dup1\n      0xa0\n      add\n      0x40\n      mstore\n      swap1\n      dup2\n      0x00\n      dup3\n      add\n      sload\n      dup2\n      mstore\n      0x20\n      add\n      0x01\n      dup3\n      add\n      0x00\n      swap1\n      sload\n      swap1\n      0x0100\n      exp\n      swap1\n      div\n      0xffffffffffffffffffffffffffffffffffffffff\n      and\n      0xffffffffffffffffffffffffffffffffffffffff\n      and\n      0xffffffffffffffffffffffffffffffffffffffff\n      and\n      dup2\n      mstore\n      0x20\n      add\n      0x02\n      dup3\n      add\n      dup1\n      sload\n      tag_141\n      swap1\n      tag_63\n      jump\t// in\n    tag_141:\n      dup1\n      0x1f\n      add\n      0x20\n      dup1\n      swap2\n      div\n      mul\n      0x20\n      add\n      mload(0x40)\n      swap1\n      dup2\n      add\n      0x40\n      mstore\n      dup1\n      swap3\n      swap2\n      swap1\n      dup2\n      dup2\n      mstore\n      0x20\n      add\n      dup3\n      dup1\n      sload\n      tag_142\n      swap1\n      tag_63\n      jump\t// in\n    tag_142:\n      dup1\n      iszero\n      tag_143\n      jumpi\n      dup1\n      0x1f\n      lt\n      tag_144\n      jumpi\n      0x0100\n      dup1\n      dup4\n      sload\n      div\n      mul\n      dup4\n      mstore\n      swap2\n      0x20\n      add\n      swap2\n      jump(tag_143)\n    tag_144:\n      dup3\n      add\n      swap2\n      swap1\n      0x00\n      mstore\n      keccak256(0x00, 0x20)\n      swap1\n    tag_145:\n      dup2\n      sload\n      dup2\n      mstore\n      swap1\n      0x01\n      add\n      swap1\n      0x20\n      add\n      dup1\n      dup4\n      gt\n      tag_145\n      jumpi\n      dup3\n      swap1\n      sub\n      0x1f\n      and\n      dup3\n      add\n      swap2\n    tag_143:\n      pop\n      pop\n      pop\n      pop\n      pop\n      dup2\n      mstore\n      0x20\n      add\n      0x03\n      dup3\n      add\n      sload\n      dup2\n      mstore\n      0x20\n      add\n      0x04\n      dup3\n      add\n      sload\n      dup2\n      mstore\n      pop\n      pop\n      swap1\n      pop\n        /* \"contracts/14_Twitter.sol\":2033:2142  function getTweet( uint _i) public view returns (Tweet memory) {... */\n      swap2\n      swap1\n      pop\n      jump\t// out\n        /* \"@openzeppelin/contracts/access/Ownable.sol\":2550:2765  function transferOwnership(address newOwner) public virtual onlyOwner {... */\n    tag_59:\n        /* \"@openzeppelin/contracts/access/Ownable.sol\":1538:1551  _checkOwner() */\n      tag_147\n        /* \"@openzeppelin/contracts/access/Ownable.sol\":1538:1549  _checkOwner */\n      tag_103\n        /* \"@openzeppelin/contracts/access/Ownable.sol\":1538:1551  _checkOwner() */\n      jump\t// in\n    tag_147:\n        /* \"@openzeppelin/contracts/access/Ownable.sol\":2654:2655  0 */\n      0x00\n        /* \"@openzeppelin/contracts/access/Ownable.sol\":2634:2656  newOwner == address(0) */\n      0xffffffffffffffffffffffffffffffffffffffff\n      and\n        /* \"@openzeppelin/contracts/access/Ownable.sol\":2634:2642  newOwner */\n      dup2\n        /* \"@openzeppelin/contracts/access/Ownable.sol\":2634:2656  newOwner == address(0) */\n      0xffffffffffffffffffffffffffffffffffffffff\n      and\n      sub\n        /* \"@openzeppelin/contracts/access/Ownable.sol\":2630:2721  if (newOwner == address(0)) {... */\n      tag_149\n      jumpi\n        /* \"@openzeppelin/contracts/access/Ownable.sol\":2707:2708  0 */\n      0x00\n        /* \"@openzeppelin/contracts/access/Ownable.sol\":2679:2710  OwnableInvalidOwner(address(0)) */\n      mload(0x40)\n      0x1e4fbdf700000000000000000000000000000000000000000000000000000000\n      dup2\n      mstore\n      0x04\n      add\n      tag_150\n      swap2\n      swap1\n      tag_50\n      jump\t// in\n    tag_150:\n      mload(0x40)\n      dup1\n      swap2\n      sub\n      swap1\n      revert\n        /* \"@openzeppelin/contracts/access/Ownable.sol\":2630:2721  if (newOwner == address(0)) {... */\n    tag_149:\n        /* \"@openzeppelin/contracts/access/Ownable.sol\":2730:2758  _transferOwnership(newOwner) */\n      tag_151\n        /* \"@openzeppelin/contracts/access/Ownable.sol\":2749:2757  newOwner */\n      dup2\n        /* \"@openzeppelin/contracts/access/Ownable.sol\":2730:2748  _transferOwnership */\n      tag_124\n        /* \"@openzeppelin/contracts/access/Ownable.sol\":2730:2758  _transferOwnership(newOwner) */\n      jump\t// in\n    tag_151:\n        /* \"@openzeppelin/contracts/access/Ownable.sol\":2550:2765  function transferOwnership(address newOwner) public virtual onlyOwner {... */\n      pop\n      jump\t// out\n        /* \"@openzeppelin/contracts/access/Ownable.sol\":1803:1965  function _checkOwner() internal view virtual {... */\n    tag_103:\n        /* \"@openzeppelin/contracts/access/Ownable.sol\":1873:1885  _msgSender() */\n      tag_153\n        /* \"@openzeppelin/contracts/access/Ownable.sol\":1873:1883  _msgSender */\n      tag_154\n        /* \"@openzeppelin/contracts/access/Ownable.sol\":1873:1885  _msgSender() */\n      jump\t// in\n    tag_153:\n        /* \"@openzeppelin/contracts/access/Ownable.sol\":1862:1885  owner() != _msgSender() */\n      0xffffffffffffffffffffffffffffffffffffffff\n      and\n        /* \"@openzeppelin/contracts/access/Ownable.sol\":1862:1869  owner() */\n      tag_155\n        /* \"@openzeppelin/contracts/access/Ownable.sol\":1862:1867  owner */\n      tag_48\n        /* \"@openzeppelin/contracts/access/Ownable.sol\":1862:1869  owner() */\n      jump\t// in\n    tag_155:\n        /* \"@openzeppelin/contracts/access/Ownable.sol\":1862:1885  owner() != _msgSender() */\n      0xffffffffffffffffffffffffffffffffffffffff\n      and\n      eq\n        /* \"@openzeppelin/contracts/access/Ownable.sol\":1858:1959  if (owner() != _msgSender()) {... */\n      tag_156\n      jumpi\n        /* \"@openzeppelin/contracts/access/Ownable.sol\":1935:1947  _msgSender() */\n      tag_157\n        /* \"@openzeppelin/contracts/access/Ownable.sol\":1935:1945  _msgSender */\n      tag_154\n        /* \"@openzeppelin/contracts/access/Ownable.sol\":1935:1947  _msgSender() */\n      jump\t// in\n    tag_157:\n        /* \"@openzeppelin/contracts/access/Ownable.sol\":1908:1948  OwnableUnauthorizedAccount(_msgSender()) */\n      mload(0x40)\n      0x118cdaa700000000000000000000000000000000000000000000000000000000\n      dup2\n      mstore\n      0x04\n      add\n      tag_158\n      swap2\n      swap1\n      tag_50\n      jump\t// in\n    tag_158:\n      mload(0x40)\n      dup1\n      swap2\n      sub\n      swap1\n      revert\n        /* \"@openzeppelin/contracts/access/Ownable.sol\":1858:1959  if (owner() != _msgSender()) {... */\n    tag_156:\n        /* \"@openzeppelin/contracts/access/Ownable.sol\":1803:1965  function _checkOwner() internal view virtual {... */\n      jump\t// out\n        /* \"@openzeppelin/contracts/access/Ownable.sol\":2919:3106  function _transferOwnership(address newOwner) internal virtual {... */\n    tag_124:\n        /* \"@openzeppelin/contracts/access/Ownable.sol\":2992:3008  address oldOwner */\n      0x00\n        /* \"@openzeppelin/contracts/access/Ownable.sol\":3011:3017  _owner */\n      dup1\n      0x00\n      swap1\n      sload\n      swap1\n      0x0100\n      exp\n      swap1\n      div\n      0xffffffffffffffffffffffffffffffffffffffff\n      and\n        /* \"@openzeppelin/contracts/access/Ownable.sol\":2992:3017  address oldOwner = _owner */\n      swap1\n      pop\n        /* \"@openzeppelin/contracts/access/Ownable.sol\":3036:3044  newOwner */\n      dup2\n        /* \"@openzeppelin/contracts/access/Ownable.sol\":3027:3033  _owner */\n      0x00\n      dup1\n        /* \"@openzeppelin/contracts/access/Ownable.sol\":3027:3044  _owner = newOwner */\n      0x0100\n      exp\n      dup2\n      sload\n      dup2\n      0xffffffffffffffffffffffffffffffffffffffff\n      mul\n      not\n      and\n      swap1\n      dup4\n      0xffffffffffffffffffffffffffffffffffffffff\n      and\n      mul\n      or\n      swap1\n      sstore\n      pop\n        /* \"@openzeppelin/contracts/access/Ownable.sol\":3090:3098  newOwner */\n      dup2\n        /* \"@openzeppelin/contracts/access/Ownable.sol\":3059:3099  OwnershipTransferred(oldOwner, newOwner) */\n      0xffffffffffffffffffffffffffffffffffffffff\n      and\n        /* \"@openzeppelin/contracts/access/Ownable.sol\":3080:3088  oldOwner */\n      dup2\n        /* \"@openzeppelin/contracts/access/Ownable.sol\":3059:3099  OwnershipTransferred(oldOwner, newOwner) */\n      0xffffffffffffffffffffffffffffffffffffffff\n      and\n      0x8be0079c531659141344cd1fd0a4f28419497f9722a3daafe3b4186f6b6457e0\n      mload(0x40)\n      mload(0x40)\n      dup1\n      swap2\n      sub\n      swap1\n      log3\n        /* \"@openzeppelin/contracts/access/Ownable.sol\":2982:3106  {... */\n      pop\n        /* \"@openzeppelin/contracts/access/Ownable.sol\":2919:3106  function _transferOwnership(address newOwner) internal virtual {... */\n      pop\n      jump\t// out\n        /* \"@openzeppelin/contracts/utils/Context.sol\":663:759  function _msgSender() internal view virtual returns (address) {... */\n    tag_154:\n        /* \"@openzeppelin/contracts/utils/Context.sol\":716:723  address */\n      0x00\n        /* \"@openzeppelin/contracts/utils/Context.sol\":742:752  msg.sender */\n      caller\n        /* \"@openzeppelin/contracts/utils/Context.sol\":735:752  return msg.sender */\n      swap1\n      pop\n        /* \"@openzeppelin/contracts/utils/Context.sol\":663:759  function _msgSender() internal view virtual returns (address) {... */\n      swap1\n      jump\t// out\n    tag_136:\n      mload(0x40)\n      dup1\n      0xa0\n      add\n      0x40\n      mstore\n      dup1\n      0x00\n      dup2\n      mstore\n      0x20\n      add\n      and(0xffffffffffffffffffffffffffffffffffffffff, 0x00)\n      dup2\n      mstore\n      0x20\n      add\n      0x60\n      dup2\n      mstore\n      0x20\n      add\n      0x00\n      dup2\n      mstore\n      0x20\n      add\n      0x00\n      dup2\n      mstore\n      pop\n      swap1\n      jump\t// out\n        /* \"#utility.yul\":7:82   */\n    tag_161:\n        /* \"#utility.yul\":40:46   */\n      0x00\n        /* \"#utility.yul\":73:75   */\n      0x40\n        /* \"#utility.yul\":67:76   */\n      mload\n        /* \"#utility.yul\":57:76   */\n      swap1\n      pop\n        /* \"#utility.yul\":7:82   */\n      swap1\n      jump\t// out\n        /* \"#utility.yul\":88:205   */\n    tag_162:\n        /* \"#utility.yul\":197:198   */\n      0x00\n        /* \"#utility.yul\":194:195   */\n      dup1\n        /* \"#utility.yul\":187:199   */\n      revert\n        /* \"#utility.yul\":211:328   */\n    tag_163:\n        /* \"#utility.yul\":320:321   */\n      0x00\n        /* \"#utility.yul\":317:318   */\n      dup1\n        /* \"#utility.yul\":310:322   */\n      revert\n        /* \"#utility.yul\":334:460   */\n    tag_164:\n        /* \"#utility.yul\":371:378   */\n      0x00\n        /* \"#utility.yul\":411:453   */\n      0xffffffffffffffffffffffffffffffffffffffff\n        /* \"#utility.yul\":404:409   */\n      dup3\n        /* \"#utility.yul\":400:454   */\n      and\n        /* \"#utility.yul\":389:454   */\n      swap1\n      pop\n        /* \"#utility.yul\":334:460   */\n      swap2\n      swap1\n      pop\n      jump\t// out\n        /* \"#utility.yul\":466:562   */\n    tag_165:\n        /* \"#utility.yul\":503:510   */\n      0x00\n        /* \"#utility.yul\":532:556   */\n      tag_232\n        /* \"#utility.yul\":550:555   */\n      dup3\n        /* \"#utility.yul\":532:556   */\n      tag_164\n      jump\t// in\n    tag_232:\n        /* \"#utility.yul\":521:556   */\n      swap1\n      pop\n        /* \"#utility.yul\":466:562   */\n      swap2\n      swap1\n      pop\n      jump\t// out\n        /* \"#utility.yul\":568:690   */\n    tag_166:\n        /* \"#utility.yul\":641:665   */\n      tag_234\n        /* \"#utility.yul\":659:664   */\n      dup2\n        /* \"#utility.yul\":641:665   */\n      tag_165\n      jump\t// in\n    tag_234:\n        /* \"#utility.yul\":634:639   */\n      dup2\n        /* \"#utility.yul\":631:666   */\n      eq\n        /* \"#utility.yul\":621:684   */\n      tag_235\n      jumpi\n        /* \"#utility.yul\":680:681   */\n      0x00\n        /* \"#utility.yul\":677:678   */\n      dup1\n        /* \"#utility.yul\":670:682   */\n      revert\n        /* \"#utility.yul\":621:684   */\n    tag_235:\n        /* \"#utility.yul\":568:690   */\n      pop\n      jump\t// out\n        /* \"#utility.yul\":696:835   */\n    tag_167:\n        /* \"#utility.yul\":742:747   */\n      0x00\n        /* \"#utility.yul\":780:786   */\n      dup2\n        /* \"#utility.yul\":767:787   */\n      calldataload\n        /* \"#utility.yul\":758:787   */\n      swap1\n      pop\n        /* \"#utility.yul\":796:829   */\n      tag_237\n        /* \"#utility.yul\":823:828   */\n      dup2\n        /* \"#utility.yul\":796:829   */\n      tag_166\n      jump\t// in\n    tag_237:\n        /* \"#utility.yul\":696:835   */\n      swap3\n      swap2\n      pop\n      pop\n      jump\t// out\n        /* \"#utility.yul\":841:918   */\n    tag_168:\n        /* \"#utility.yul\":878:885   */\n      0x00\n        /* \"#utility.yul\":907:912   */\n      dup2\n        /* \"#utility.yul\":896:912   */\n      swap1\n      pop\n        /* \"#utility.yul\":841:918   */\n      swap2\n      swap1\n      pop\n      jump\t// out\n        /* \"#utility.yul\":924:1046   */\n    tag_169:\n        /* \"#utility.yul\":997:1021   */\n      tag_240\n        /* \"#utility.yul\":1015:1020   */\n      dup2\n        /* \"#utility.yul\":997:1021   */\n      tag_168\n      jump\t// in\n    tag_240:\n        /* \"#utility.yul\":990:995   */\n      dup2\n        /* \"#utility.yul\":987:1022   */\n      eq\n        /* \"#utility.yul\":977:1040   */\n      tag_241\n      jumpi\n        /* \"#utility.yul\":1036:1037   */\n      0x00\n        /* \"#utility.yul\":1033:1034   */\n      dup1\n        /* \"#utility.yul\":1026:1038   */\n      revert\n        /* \"#utility.yul\":977:1040   */\n    tag_241:\n        /* \"#utility.yul\":924:1046   */\n      pop\n      jump\t// out\n        /* \"#utility.yul\":1052:1191   */\n    tag_170:\n        /* \"#utility.yul\":1098:1103   */\n      0x00\n        /* \"#utility.yul\":1136:1142   */\n      dup2\n        /* \"#utility.yul\":1123:1143   */\n      calldataload\n        /* \"#utility.yul\":1114:1143   */\n      swap1\n      pop\n        /* \"#utility.yul\":1152:1185   */\n      tag_243\n        /* \"#utility.yul\":1179:1184   */\n      dup2\n        /* \"#utility.yul\":1152:1185   */\n      tag_169\n      jump\t// in\n    tag_243:\n        /* \"#utility.yul\":1052:1191   */\n      swap3\n      swap2\n      pop\n      pop\n      jump\t// out\n        /* \"#utility.yul\":1197:1671   */\n    tag_17:\n        /* \"#utility.yul\":1265:1271   */\n      0x00\n        /* \"#utility.yul\":1273:1279   */\n      dup1\n        /* \"#utility.yul\":1322:1324   */\n      0x40\n        /* \"#utility.yul\":1310:1319   */\n      dup4\n        /* \"#utility.yul\":1301:1308   */\n      dup6\n        /* \"#utility.yul\":1297:1320   */\n      sub\n        /* \"#utility.yul\":1293:1325   */\n      slt\n        /* \"#utility.yul\":1290:1409   */\n      iszero\n      tag_245\n      jumpi\n        /* \"#utility.yul\":1328:1407   */\n      tag_246\n      tag_162\n      jump\t// in\n    tag_246:\n        /* \"#utility.yul\":1290:1409   */\n    tag_245:\n        /* \"#utility.yul\":1448:1449   */\n      0x00\n        /* \"#utility.yul\":1473:1526   */\n      tag_247\n        /* \"#utility.yul\":1518:1525   */\n      dup6\n        /* \"#utility.yul\":1509:1515   */\n      dup3\n        /* \"#utility.yul\":1498:1507   */\n      dup7\n        /* \"#utility.yul\":1494:1516   */\n      add\n        /* \"#utility.yul\":1473:1526   */\n      tag_167\n      jump\t// in\n    tag_247:\n        /* \"#utility.yul\":1463:1526   */\n      swap3\n      pop\n        /* \"#utility.yul\":1419:1536   */\n      pop\n        /* \"#utility.yul\":1575:1577   */\n      0x20\n        /* \"#utility.yul\":1601:1654   */\n      tag_248\n        /* \"#utility.yul\":1646:1653   */\n      dup6\n        /* \"#utility.yul\":1637:1643   */\n      dup3\n        /* \"#utility.yul\":1626:1635   */\n      dup7\n        /* \"#utility.yul\":1622:1644   */\n      add\n        /* \"#utility.yul\":1601:1654   */\n      tag_170\n      jump\t// in\n    tag_248:\n        /* \"#utility.yul\":1591:1654   */\n      swap2\n      pop\n        /* \"#utility.yul\":1546:1664   */\n      pop\n        /* \"#utility.yul\":1197:1671   */\n      swap3\n      pop\n      swap3\n      swap1\n      pop\n      jump\t// out\n        /* \"#utility.yul\":1677:1795   */\n    tag_171:\n        /* \"#utility.yul\":1764:1788   */\n      tag_250\n        /* \"#utility.yul\":1782:1787   */\n      dup2\n        /* \"#utility.yul\":1764:1788   */\n      tag_168\n      jump\t// in\n    tag_250:\n        /* \"#utility.yul\":1759:1762   */\n      dup3\n        /* \"#utility.yul\":1752:1789   */\n      mstore\n        /* \"#utility.yul\":1677:1795   */\n      pop\n      pop\n      jump\t// out\n        /* \"#utility.yul\":1801:1919   */\n    tag_172:\n        /* \"#utility.yul\":1888:1912   */\n      tag_252\n        /* \"#utility.yul\":1906:1911   */\n      dup2\n        /* \"#utility.yul\":1888:1912   */\n      tag_165\n      jump\t// in\n    tag_252:\n        /* \"#utility.yul\":1883:1886   */\n      dup3\n        /* \"#utility.yul\":1876:1913   */\n      mstore\n        /* \"#utility.yul\":1801:1919   */\n      pop\n      pop\n      jump\t// out\n        /* \"#utility.yul\":1925:2024   */\n    tag_173:\n        /* \"#utility.yul\":1977:1983   */\n      0x00\n        /* \"#utility.yul\":2011:2016   */\n      dup2\n        /* \"#utility.yul\":2005:2017   */\n      mload\n        /* \"#utility.yul\":1995:2017   */\n      swap1\n      pop\n        /* \"#utility.yul\":1925:2024   */\n      swap2\n      swap1\n      pop\n      jump\t// out\n        /* \"#utility.yul\":2030:2199   */\n    tag_174:\n        /* \"#utility.yul\":2114:2125   */\n      0x00\n        /* \"#utility.yul\":2148:2154   */\n      dup3\n        /* \"#utility.yul\":2143:2146   */\n      dup3\n        /* \"#utility.yul\":2136:2155   */\n      mstore\n        /* \"#utility.yul\":2188:2192   */\n      0x20\n        /* \"#utility.yul\":2183:2186   */\n      dup3\n        /* \"#utility.yul\":2179:2193   */\n      add\n        /* \"#utility.yul\":2164:2193   */\n      swap1\n      pop\n        /* \"#utility.yul\":2030:2199   */\n      swap3\n      swap2\n      pop\n      pop\n      jump\t// out\n        /* \"#utility.yul\":2205:2344   */\n    tag_175:\n        /* \"#utility.yul\":2294:2300   */\n      dup3\n        /* \"#utility.yul\":2289:2292   */\n      dup2\n        /* \"#utility.yul\":2284:2287   */\n      dup4\n        /* \"#utility.yul\":2278:2301   */\n      mcopy\n        /* \"#utility.yul\":2335:2336   */\n      0x00\n        /* \"#utility.yul\":2326:2332   */\n      dup4\n        /* \"#utility.yul\":2321:2324   */\n      dup4\n        /* \"#utility.yul\":2317:2333   */\n      add\n        /* \"#utility.yul\":2310:2337   */\n      mstore\n        /* \"#utility.yul\":2205:2344   */\n      pop\n      pop\n      pop\n      jump\t// out\n        /* \"#utility.yul\":2350:2452   */\n    tag_176:\n        /* \"#utility.yul\":2391:2397   */\n      0x00\n        /* \"#utility.yul\":2442:2444   */\n      0x1f\n        /* \"#utility.yul\":2438:2445   */\n      not\n        /* \"#utility.yul\":2433:2435   */\n      0x1f\n        /* \"#utility.yul\":2426:2431   */\n      dup4\n        /* \"#utility.yul\":2422:2436   */\n      add\n        /* \"#utility.yul\":2418:2446   */\n      and\n        /* \"#utility.yul\":2408:2446   */\n      swap1\n      pop\n        /* \"#utility.yul\":2350:2452   */\n      swap2\n      swap1\n      pop\n      jump\t// out\n        /* \"#utility.yul\":2458:2835   */\n    tag_177:\n        /* \"#utility.yul\":2546:2549   */\n      0x00\n        /* \"#utility.yul\":2574:2613   */\n      tag_258\n        /* \"#utility.yul\":2607:2612   */\n      dup3\n        /* \"#utility.yul\":2574:2613   */\n      tag_173\n      jump\t// in\n    tag_258:\n        /* \"#utility.yul\":2629:2700   */\n      tag_259\n        /* \"#utility.yul\":2693:2699   */\n      dup2\n        /* \"#utility.yul\":2688:2691   */\n      dup6\n        /* \"#utility.yul\":2629:2700   */\n      tag_174\n      jump\t// in\n    tag_259:\n        /* \"#utility.yul\":2622:2700   */\n      swap4\n      pop\n        /* \"#utility.yul\":2709:2774   */\n      tag_260\n        /* \"#utility.yul\":2767:2773   */\n      dup2\n        /* \"#utility.yul\":2762:2765   */\n      dup6\n        /* \"#utility.yul\":2755:2759   */\n      0x20\n        /* \"#utility.yul\":2748:2753   */\n      dup7\n        /* \"#utility.yul\":2744:2760   */\n      add\n        /* \"#utility.yul\":2709:2774   */\n      tag_175\n      jump\t// in\n    tag_260:\n        /* \"#utility.yul\":2799:2828   */\n      tag_261\n        /* \"#utility.yul\":2821:2827   */\n      dup2\n        /* \"#utility.yul\":2799:2828   */\n      tag_176\n      jump\t// in\n    tag_261:\n        /* \"#utility.yul\":2794:2797   */\n      dup5\n        /* \"#utility.yul\":2790:2829   */\n      add\n        /* \"#utility.yul\":2783:2829   */\n      swap2\n      pop\n        /* \"#utility.yul\":2550:2835   */\n      pop\n        /* \"#utility.yul\":2458:2835   */\n      swap3\n      swap2\n      pop\n      pop\n      jump\t// out\n        /* \"#utility.yul\":2841:3596   */\n    tag_20:\n        /* \"#utility.yul\":3066:3070   */\n      0x00\n        /* \"#utility.yul\":3104:3107   */\n      0xa0\n        /* \"#utility.yul\":3093:3102   */\n      dup3\n        /* \"#utility.yul\":3089:3108   */\n      add\n        /* \"#utility.yul\":3081:3108   */\n      swap1\n      pop\n        /* \"#utility.yul\":3118:3189   */\n      tag_263\n        /* \"#utility.yul\":3186:3187   */\n      0x00\n        /* \"#utility.yul\":3175:3184   */\n      dup4\n        /* \"#utility.yul\":3171:3188   */\n      add\n        /* \"#utility.yul\":3162:3168   */\n      dup9\n        /* \"#utility.yul\":3118:3189   */\n      tag_171\n      jump\t// in\n    tag_263:\n        /* \"#utility.yul\":3199:3271   */\n      tag_264\n        /* \"#utility.yul\":3267:3269   */\n      0x20\n        /* \"#utility.yul\":3256:3265   */\n      dup4\n        /* \"#utility.yul\":3252:3270   */\n      add\n        /* \"#utility.yul\":3243:3249   */\n      dup8\n        /* \"#utility.yul\":3199:3271   */\n      tag_172\n      jump\t// in\n    tag_264:\n        /* \"#utility.yul\":3318:3327   */\n      dup2\n        /* \"#utility.yul\":3312:3316   */\n      dup2\n        /* \"#utility.yul\":3308:3328   */\n      sub\n        /* \"#utility.yul\":3303:3305   */\n      0x40\n        /* \"#utility.yul\":3292:3301   */\n      dup4\n        /* \"#utility.yul\":3288:3306   */\n      add\n        /* \"#utility.yul\":3281:3329   */\n      mstore\n        /* \"#utility.yul\":3346:3424   */\n      tag_265\n        /* \"#utility.yul\":3419:3423   */\n      dup2\n        /* \"#utility.yul\":3410:3416   */\n      dup7\n        /* \"#utility.yul\":3346:3424   */\n      tag_177\n      jump\t// in\n    tag_265:\n        /* \"#utility.yul\":3338:3424   */\n      swap1\n      pop\n        /* \"#utility.yul\":3434:3506   */\n      tag_266\n        /* \"#utility.yul\":3502:3504   */\n      0x60\n        /* \"#utility.yul\":3491:3500   */\n      dup4\n        /* \"#utility.yul\":3487:3505   */\n      add\n        /* \"#utility.yul\":3478:3484   */\n      dup6\n        /* \"#utility.yul\":3434:3506   */\n      tag_171\n      jump\t// in\n    tag_266:\n        /* \"#utility.yul\":3516:3589   */\n      tag_267\n        /* \"#utility.yul\":3584:3587   */\n      0x80\n        /* \"#utility.yul\":3573:3582   */\n      dup4\n        /* \"#utility.yul\":3569:3588   */\n      add\n        /* \"#utility.yul\":3560:3566   */\n      dup5\n        /* \"#utility.yul\":3516:3589   */\n      tag_171\n      jump\t// in\n    tag_267:\n        /* \"#utility.yul\":2841:3596   */\n      swap7\n      swap6\n      pop\n      pop\n      pop\n      pop\n      pop\n      pop\n      jump\t// out\n        /* \"#utility.yul\":3602:3931   */\n    tag_23:\n        /* \"#utility.yul\":3661:3667   */\n      0x00\n        /* \"#utility.yul\":3710:3712   */\n      0x20\n        /* \"#utility.yul\":3698:3707   */\n      dup3\n        /* \"#utility.yul\":3689:3696   */\n      dup5\n        /* \"#utility.yul\":3685:3708   */\n      sub\n        /* \"#utility.yul\":3681:3713   */\n      slt\n        /* \"#utility.yul\":3678:3797   */\n      iszero\n      tag_269\n      jumpi\n        /* \"#utility.yul\":3716:3795   */\n      tag_270\n      tag_162\n      jump\t// in\n    tag_270:\n        /* \"#utility.yul\":3678:3797   */\n    tag_269:\n        /* \"#utility.yul\":3836:3837   */\n      0x00\n        /* \"#utility.yul\":3861:3914   */\n      tag_271\n        /* \"#utility.yul\":3906:3913   */\n      dup5\n        /* \"#utility.yul\":3897:3903   */\n      dup3\n        /* \"#utility.yul\":3886:3895   */\n      dup6\n        /* \"#utility.yul\":3882:3904   */\n      add\n        /* \"#utility.yul\":3861:3914   */\n      tag_167\n      jump\t// in\n    tag_271:\n        /* \"#utility.yul\":3851:3914   */\n      swap2\n      pop\n        /* \"#utility.yul\":3807:3924   */\n      pop\n        /* \"#utility.yul\":3602:3931   */\n      swap3\n      swap2\n      pop\n      pop\n      jump\t// out\n        /* \"#utility.yul\":3937:4073   */\n    tag_178:\n        /* \"#utility.yul\":4026:4032   */\n      0x00\n        /* \"#utility.yul\":4060:4065   */\n      dup2\n        /* \"#utility.yul\":4054:4066   */\n      mload\n        /* \"#utility.yul\":4044:4066   */\n      swap1\n      pop\n        /* \"#utility.yul\":3937:4073   */\n      swap2\n      swap1\n      pop\n      jump\t// out\n        /* \"#utility.yul\":4079:4285   */\n    tag_179:\n        /* \"#utility.yul\":4200:4211   */\n      0x00\n        /* \"#utility.yul\":4234:4240   */\n      dup3\n        /* \"#utility.yul\":4229:4232   */\n      dup3\n        /* \"#utility.yul\":4222:4241   */\n      mstore\n        /* \"#utility.yul\":4274:4278   */\n      0x20\n        /* \"#utility.yul\":4269:4272   */\n      dup3\n        /* \"#utility.yul\":4265:4279   */\n      add\n        /* \"#utility.yul\":4250:4279   */\n      swap1\n      pop\n        /* \"#utility.yul\":4079:4285   */\n      swap3\n      swap2\n      pop\n      pop\n      jump\t// out\n        /* \"#utility.yul\":4291:4445   */\n    tag_180:\n        /* \"#utility.yul\":4380:4384   */\n      0x00\n        /* \"#utility.yul\":4403:4406   */\n      dup2\n        /* \"#utility.yul\":4395:4406   */\n      swap1\n      pop\n        /* \"#utility.yul\":4433:4437   */\n      0x20\n        /* \"#utility.yul\":4428:4431   */\n      dup3\n        /* \"#utility.yul\":4424:4438   */\n      add\n        /* \"#utility.yul\":4416:4438   */\n      swap1\n      pop\n        /* \"#utility.yul\":4291:4445   */\n      swap2\n      swap1\n      pop\n      jump\t// out\n        /* \"#utility.yul\":4451:4559   */\n    tag_181:\n        /* \"#utility.yul\":4528:4552   */\n      tag_276\n        /* \"#utility.yul\":4546:4551   */\n      dup2\n        /* \"#utility.yul\":4528:4552   */\n      tag_168\n      jump\t// in\n    tag_276:\n        /* \"#utility.yul\":4523:4526   */\n      dup3\n        /* \"#utility.yul\":4516:4553   */\n      mstore\n        /* \"#utility.yul\":4451:4559   */\n      pop\n      pop\n      jump\t// out\n        /* \"#utility.yul\":4565:4673   */\n    tag_182:\n        /* \"#utility.yul\":4642:4666   */\n      tag_278\n        /* \"#utility.yul\":4660:4665   */\n      dup2\n        /* \"#utility.yul\":4642:4666   */\n      tag_165\n      jump\t// in\n    tag_278:\n        /* \"#utility.yul\":4637:4640   */\n      dup3\n        /* \"#utility.yul\":4630:4667   */\n      mstore\n        /* \"#utility.yul\":4565:4673   */\n      pop\n      pop\n      jump\t// out\n        /* \"#utility.yul\":4679:4838   */\n    tag_183:\n        /* \"#utility.yul\":4753:4764   */\n      0x00\n        /* \"#utility.yul\":4787:4793   */\n      dup3\n        /* \"#utility.yul\":4782:4785   */\n      dup3\n        /* \"#utility.yul\":4775:4794   */\n      mstore\n        /* \"#utility.yul\":4827:4831   */\n      0x20\n        /* \"#utility.yul\":4822:4825   */\n      dup3\n        /* \"#utility.yul\":4818:4832   */\n      add\n        /* \"#utility.yul\":4803:4832   */\n      swap1\n      pop\n        /* \"#utility.yul\":4679:4838   */\n      swap3\n      swap2\n      pop\n      pop\n      jump\t// out\n        /* \"#utility.yul\":4844:5201   */\n    tag_184:\n        /* \"#utility.yul\":4922:4925   */\n      0x00\n        /* \"#utility.yul\":4950:4989   */\n      tag_281\n        /* \"#utility.yul\":4983:4988   */\n      dup3\n        /* \"#utility.yul\":4950:4989   */\n      tag_173\n      jump\t// in\n    tag_281:\n        /* \"#utility.yul\":5005:5066   */\n      tag_282\n        /* \"#utility.yul\":5059:5065   */\n      dup2\n        /* \"#utility.yul\":5054:5057   */\n      dup6\n        /* \"#utility.yul\":5005:5066   */\n      tag_183\n      jump\t// in\n    tag_282:\n        /* \"#utility.yul\":4998:5066   */\n      swap4\n      pop\n        /* \"#utility.yul\":5075:5140   */\n      tag_283\n        /* \"#utility.yul\":5133:5139   */\n      dup2\n        /* \"#utility.yul\":5128:5131   */\n      dup6\n        /* \"#utility.yul\":5121:5125   */\n      0x20\n        /* \"#utility.yul\":5114:5119   */\n      dup7\n        /* \"#utility.yul\":5110:5126   */\n      add\n        /* \"#utility.yul\":5075:5140   */\n      tag_175\n      jump\t// in\n    tag_283:\n        /* \"#utility.yul\":5165:5194   */\n      tag_284\n        /* \"#utility.yul\":5187:5193   */\n      dup2\n        /* \"#utility.yul\":5165:5194   */\n      tag_176\n      jump\t// in\n    tag_284:\n        /* \"#utility.yul\":5160:5163   */\n      dup5\n        /* \"#utility.yul\":5156:5195   */\n      add\n        /* \"#utility.yul\":5149:5195   */\n      swap2\n      pop\n        /* \"#utility.yul\":4926:5201   */\n      pop\n        /* \"#utility.yul\":4844:5201   */\n      swap3\n      swap2\n      pop\n      pop\n      jump\t// out\n        /* \"#utility.yul\":5259:6380   */\n    tag_185:\n        /* \"#utility.yul\":5362:5365   */\n      0x00\n        /* \"#utility.yul\":5398:5402   */\n      0xa0\n        /* \"#utility.yul\":5393:5396   */\n      dup4\n        /* \"#utility.yul\":5389:5403   */\n      add\n        /* \"#utility.yul\":5483:5487   */\n      0x00\n        /* \"#utility.yul\":5476:5481   */\n      dup4\n        /* \"#utility.yul\":5472:5488   */\n      add\n        /* \"#utility.yul\":5466:5489   */\n      mload\n        /* \"#utility.yul\":5502:5565   */\n      tag_286\n        /* \"#utility.yul\":5559:5563   */\n      0x00\n        /* \"#utility.yul\":5554:5557   */\n      dup7\n        /* \"#utility.yul\":5550:5564   */\n      add\n        /* \"#utility.yul\":5536:5548   */\n      dup3\n        /* \"#utility.yul\":5502:5565   */\n      tag_181\n      jump\t// in\n    tag_286:\n        /* \"#utility.yul\":5413:5575   */\n      pop\n        /* \"#utility.yul\":5659:5663   */\n      0x20\n        /* \"#utility.yul\":5652:5657   */\n      dup4\n        /* \"#utility.yul\":5648:5664   */\n      add\n        /* \"#utility.yul\":5642:5665   */\n      mload\n        /* \"#utility.yul\":5678:5741   */\n      tag_287\n        /* \"#utility.yul\":5735:5739   */\n      0x20\n        /* \"#utility.yul\":5730:5733   */\n      dup7\n        /* \"#utility.yul\":5726:5740   */\n      add\n        /* \"#utility.yul\":5712:5724   */\n      dup3\n        /* \"#utility.yul\":5678:5741   */\n      tag_182\n      jump\t// in\n    tag_287:\n        /* \"#utility.yul\":5585:5751   */\n      pop\n        /* \"#utility.yul\":5836:5840   */\n      0x40\n        /* \"#utility.yul\":5829:5834   */\n      dup4\n        /* \"#utility.yul\":5825:5841   */\n      add\n        /* \"#utility.yul\":5819:5842   */\n      mload\n        /* \"#utility.yul\":5889:5892   */\n      dup5\n        /* \"#utility.yul\":5883:5887   */\n      dup3\n        /* \"#utility.yul\":5879:5893   */\n      sub\n        /* \"#utility.yul\":5872:5876   */\n      0x40\n        /* \"#utility.yul\":5867:5870   */\n      dup7\n        /* \"#utility.yul\":5863:5877   */\n      add\n        /* \"#utility.yul\":5856:5894   */\n      mstore\n        /* \"#utility.yul\":5915:5988   */\n      tag_288\n        /* \"#utility.yul\":5983:5987   */\n      dup3\n        /* \"#utility.yul\":5969:5981   */\n      dup3\n        /* \"#utility.yul\":5915:5988   */\n      tag_184\n      jump\t// in\n    tag_288:\n        /* \"#utility.yul\":5907:5988   */\n      swap2\n      pop\n        /* \"#utility.yul\":5761:5999   */\n      pop\n        /* \"#utility.yul\":6086:6090   */\n      0x60\n        /* \"#utility.yul\":6079:6084   */\n      dup4\n        /* \"#utility.yul\":6075:6091   */\n      add\n        /* \"#utility.yul\":6069:6092   */\n      mload\n        /* \"#utility.yul\":6105:6168   */\n      tag_289\n        /* \"#utility.yul\":6162:6166   */\n      0x60\n        /* \"#utility.yul\":6157:6160   */\n      dup7\n        /* \"#utility.yul\":6153:6167   */\n      add\n        /* \"#utility.yul\":6139:6151   */\n      dup3\n        /* \"#utility.yul\":6105:6168   */\n      tag_181\n      jump\t// in\n    tag_289:\n        /* \"#utility.yul\":6009:6178   */\n      pop\n        /* \"#utility.yul\":6261:6265   */\n      0x80\n        /* \"#utility.yul\":6254:6259   */\n      dup4\n        /* \"#utility.yul\":6250:6266   */\n      add\n        /* \"#utility.yul\":6244:6267   */\n      mload\n        /* \"#utility.yul\":6280:6343   */\n      tag_290\n        /* \"#utility.yul\":6337:6341   */\n      0x80\n        /* \"#utility.yul\":6332:6335   */\n      dup7\n        /* \"#utility.yul\":6328:6342   */\n      add\n        /* \"#utility.yul\":6314:6326   */\n      dup3\n        /* \"#utility.yul\":6280:6343   */\n      tag_181\n      jump\t// in\n    tag_290:\n        /* \"#utility.yul\":6188:6353   */\n      pop\n        /* \"#utility.yul\":6370:6374   */\n      dup1\n        /* \"#utility.yul\":6363:6374   */\n      swap2\n      pop\n        /* \"#utility.yul\":5367:6380   */\n      pop\n        /* \"#utility.yul\":5259:6380   */\n      swap3\n      swap2\n      pop\n      pop\n      jump\t// out\n        /* \"#utility.yul\":6386:6630   */\n    tag_186:\n        /* \"#utility.yul\":6499:6509   */\n      0x00\n        /* \"#utility.yul\":6534:6624   */\n      tag_292\n        /* \"#utility.yul\":6620:6623   */\n      dup4\n        /* \"#utility.yul\":6612:6618   */\n      dup4\n        /* \"#utility.yul\":6534:6624   */\n      tag_185\n      jump\t// in\n    tag_292:\n        /* \"#utility.yul\":6520:6624   */\n      swap1\n      pop\n        /* \"#utility.yul\":6386:6630   */\n      swap3\n      swap2\n      pop\n      pop\n      jump\t// out\n        /* \"#utility.yul\":6636:6771   */\n    tag_187:\n        /* \"#utility.yul\":6728:6732   */\n      0x00\n        /* \"#utility.yul\":6760:6764   */\n      0x20\n        /* \"#utility.yul\":6755:6758   */\n      dup3\n        /* \"#utility.yul\":6751:6765   */\n      add\n        /* \"#utility.yul\":6743:6765   */\n      swap1\n      pop\n        /* \"#utility.yul\":6636:6771   */\n      swap2\n      swap1\n      pop\n      jump\t// out\n        /* \"#utility.yul\":6833:7920   */\n    tag_188:\n        /* \"#utility.yul\":6996:6999   */\n      0x00\n        /* \"#utility.yul\":7025:7101   */\n      tag_295\n        /* \"#utility.yul\":7095:7100   */\n      dup3\n        /* \"#utility.yul\":7025:7101   */\n      tag_178\n      jump\t// in\n    tag_295:\n        /* \"#utility.yul\":7117:7225   */\n      tag_296\n        /* \"#utility.yul\":7218:7224   */\n      dup2\n        /* \"#utility.yul\":7213:7216   */\n      dup6\n        /* \"#utility.yul\":7117:7225   */\n      tag_179\n      jump\t// in\n    tag_296:\n        /* \"#utility.yul\":7110:7225   */\n      swap4\n      pop\n        /* \"#utility.yul\":7251:7254   */\n      dup4\n        /* \"#utility.yul\":7296:7300   */\n      0x20\n        /* \"#utility.yul\":7288:7294   */\n      dup3\n        /* \"#utility.yul\":7284:7301   */\n      mul\n        /* \"#utility.yul\":7279:7282   */\n      dup6\n        /* \"#utility.yul\":7275:7302   */\n      add\n        /* \"#utility.yul\":7326:7404   */\n      tag_297\n        /* \"#utility.yul\":7398:7403   */\n      dup6\n        /* \"#utility.yul\":7326:7404   */\n      tag_180\n      jump\t// in\n    tag_297:\n        /* \"#utility.yul\":7427:7434   */\n      dup1\n        /* \"#utility.yul\":7458:7459   */\n      0x00\n        /* \"#utility.yul\":7443:7875   */\n    tag_298:\n        /* \"#utility.yul\":7468:7474   */\n      dup6\n        /* \"#utility.yul\":7465:7466   */\n      dup2\n        /* \"#utility.yul\":7462:7475   */\n      lt\n        /* \"#utility.yul\":7443:7875   */\n      iszero\n      tag_300\n      jumpi\n        /* \"#utility.yul\":7539:7548   */\n      dup5\n        /* \"#utility.yul\":7533:7537   */\n      dup5\n        /* \"#utility.yul\":7529:7549   */\n      sub\n        /* \"#utility.yul\":7524:7527   */\n      dup10\n        /* \"#utility.yul\":7517:7550   */\n      mstore\n        /* \"#utility.yul\":7590:7596   */\n      dup2\n        /* \"#utility.yul\":7584:7597   */\n      mload\n        /* \"#utility.yul\":7618:7726   */\n      tag_301\n        /* \"#utility.yul\":7721:7725   */\n      dup6\n        /* \"#utility.yul\":7706:7719   */\n      dup3\n        /* \"#utility.yul\":7618:7726   */\n      tag_186\n      jump\t// in\n    tag_301:\n        /* \"#utility.yul\":7610:7726   */\n      swap5\n      pop\n        /* \"#utility.yul\":7749:7831   */\n      tag_302\n        /* \"#utility.yul\":7824:7830   */\n      dup4\n        /* \"#utility.yul\":7749:7831   */\n      tag_187\n      jump\t// in\n    tag_302:\n        /* \"#utility.yul\":7739:7831   */\n      swap3\n      pop\n        /* \"#utility.yul\":7860:7864   */\n      0x20\n        /* \"#utility.yul\":7855:7858   */\n      dup11\n        /* \"#utility.yul\":7851:7865   */\n      add\n        /* \"#utility.yul\":7844:7865   */\n      swap10\n      pop\n        /* \"#utility.yul\":7503:7875   */\n      pop\n        /* \"#utility.yul\":7490:7491   */\n      0x01\n        /* \"#utility.yul\":7487:7488   */\n      dup2\n        /* \"#utility.yul\":7483:7492   */\n      add\n        /* \"#utility.yul\":7478:7492   */\n      swap1\n      pop\n        /* \"#utility.yul\":7443:7875   */\n      jump(tag_298)\n    tag_300:\n        /* \"#utility.yul\":7447:7461   */\n      pop\n        /* \"#utility.yul\":7891:7895   */\n      dup3\n        /* \"#utility.yul\":7884:7895   */\n      swap8\n      pop\n        /* \"#utility.yul\":7911:7914   */\n      dup8\n        /* \"#utility.yul\":7904:7914   */\n      swap6\n      pop\n        /* \"#utility.yul\":7001:7920   */\n      pop\n      pop\n      pop\n      pop\n      pop\n        /* \"#utility.yul\":6833:7920   */\n      swap3\n      swap2\n      pop\n      pop\n      jump\t// out\n        /* \"#utility.yul\":7926:8387   */\n    tag_26:\n        /* \"#utility.yul\":8113:8117   */\n      0x00\n        /* \"#utility.yul\":8151:8153   */\n      0x20\n        /* \"#utility.yul\":8140:8149   */\n      dup3\n        /* \"#utility.yul\":8136:8154   */\n      add\n        /* \"#utility.yul\":8128:8154   */\n      swap1\n      pop\n        /* \"#utility.yul\":8200:8209   */\n      dup2\n        /* \"#utility.yul\":8194:8198   */\n      dup2\n        /* \"#utility.yul\":8190:8210   */\n      sub\n        /* \"#utility.yul\":8186:8187   */\n      0x00\n        /* \"#utility.yul\":8175:8184   */\n      dup4\n        /* \"#utility.yul\":8171:8188   */\n      add\n        /* \"#utility.yul\":8164:8211   */\n      mstore\n        /* \"#utility.yul\":8228:8380   */\n      tag_304\n        /* \"#utility.yul\":8375:8379   */\n      dup2\n        /* \"#utility.yul\":8366:8372   */\n      dup5\n        /* \"#utility.yul\":8228:8380   */\n      tag_188\n      jump\t// in\n    tag_304:\n        /* \"#utility.yul\":8220:8380   */\n      swap1\n      pop\n        /* \"#utility.yul\":7926:8387   */\n      swap3\n      swap2\n      pop\n      pop\n      jump\t// out\n        /* \"#utility.yul\":8393:8482   */\n    tag_189:\n        /* \"#utility.yul\":8429:8436   */\n      0x00\n        /* \"#utility.yul\":8469:8475   */\n      0xffff\n        /* \"#utility.yul\":8462:8467   */\n      dup3\n        /* \"#utility.yul\":8458:8476   */\n      and\n        /* \"#utility.yul\":8447:8476   */\n      swap1\n      pop\n        /* \"#utility.yul\":8393:8482   */\n      swap2\n      swap1\n      pop\n      jump\t// out\n        /* \"#utility.yul\":8488:8608   */\n    tag_190:\n        /* \"#utility.yul\":8560:8583   */\n      tag_307\n        /* \"#utility.yul\":8577:8582   */\n      dup2\n        /* \"#utility.yul\":8560:8583   */\n      tag_189\n      jump\t// in\n    tag_307:\n        /* \"#utility.yul\":8553:8558   */\n      dup2\n        /* \"#utility.yul\":8550:8584   */\n      eq\n        /* \"#utility.yul\":8540:8602   */\n      tag_308\n      jumpi\n        /* \"#utility.yul\":8598:8599   */\n      0x00\n        /* \"#utility.yul\":8595:8596   */\n      dup1\n        /* \"#utility.yul\":8588:8600   */\n      revert\n        /* \"#utility.yul\":8540:8602   */\n    tag_308:\n        /* \"#utility.yul\":8488:8608   */\n      pop\n      jump\t// out\n        /* \"#utility.yul\":8614:8751   */\n    tag_191:\n        /* \"#utility.yul\":8659:8664   */\n      0x00\n        /* \"#utility.yul\":8697:8703   */\n      dup2\n        /* \"#utility.yul\":8684:8704   */\n      calldataload\n        /* \"#utility.yul\":8675:8704   */\n      swap1\n      pop\n        /* \"#utility.yul\":8713:8745   */\n      tag_310\n        /* \"#utility.yul\":8739:8744   */\n      dup2\n        /* \"#utility.yul\":8713:8745   */\n      tag_190\n      jump\t// in\n    tag_310:\n        /* \"#utility.yul\":8614:8751   */\n      swap3\n      swap2\n      pop\n      pop\n      jump\t// out\n        /* \"#utility.yul\":8757:9084   */\n    tag_32:\n        /* \"#utility.yul\":8815:8821   */\n      0x00\n        /* \"#utility.yul\":8864:8866   */\n      0x20\n        /* \"#utility.yul\":8852:8861   */\n      dup3\n        /* \"#utility.yul\":8843:8850   */\n      dup5\n        /* \"#utility.yul\":8839:8862   */\n      sub\n        /* \"#utility.yul\":8835:8867   */\n      slt\n        /* \"#utility.yul\":8832:8951   */\n      iszero\n      tag_312\n      jumpi\n        /* \"#utility.yul\":8870:8949   */\n      tag_313\n      tag_162\n      jump\t// in\n    tag_313:\n        /* \"#utility.yul\":8832:8951   */\n    tag_312:\n        /* \"#utility.yul\":8990:8991   */\n      0x00\n        /* \"#utility.yul\":9015:9067   */\n      tag_314\n        /* \"#utility.yul\":9059:9066   */\n      dup5\n        /* \"#utility.yul\":9050:9056   */\n      dup3\n        /* \"#utility.yul\":9039:9048   */\n      dup6\n        /* \"#utility.yul\":9035:9057   */\n      add\n        /* \"#utility.yul\":9015:9067   */\n      tag_191\n      jump\t// in\n    tag_314:\n        /* \"#utility.yul\":9005:9067   */\n      swap2\n      pop\n        /* \"#utility.yul\":8961:9077   */\n      pop\n        /* \"#utility.yul\":8757:9084   */\n      swap3\n      swap2\n      pop\n      pop\n      jump\t// out\n        /* \"#utility.yul\":9090:9205   */\n    tag_192:\n        /* \"#utility.yul\":9175:9198   */\n      tag_316\n        /* \"#utility.yul\":9192:9197   */\n      dup2\n        /* \"#utility.yul\":9175:9198   */\n      tag_189\n      jump\t// in\n    tag_316:\n        /* \"#utility.yul\":9170:9173   */\n      dup3\n        /* \"#utility.yul\":9163:9199   */\n      mstore\n        /* \"#utility.yul\":9090:9205   */\n      pop\n      pop\n      jump\t// out\n        /* \"#utility.yul\":9211:9429   */\n    tag_40:\n        /* \"#utility.yul\":9302:9306   */\n      0x00\n        /* \"#utility.yul\":9340:9342   */\n      0x20\n        /* \"#utility.yul\":9329:9338   */\n      dup3\n        /* \"#utility.yul\":9325:9343   */\n      add\n        /* \"#utility.yul\":9317:9343   */\n      swap1\n      pop\n        /* \"#utility.yul\":9353:9422   */\n      tag_318\n        /* \"#utility.yul\":9419:9420   */\n      0x00\n        /* \"#utility.yul\":9408:9417   */\n      dup4\n        /* \"#utility.yul\":9404:9421   */\n      add\n        /* \"#utility.yul\":9395:9401   */\n      dup5\n        /* \"#utility.yul\":9353:9422   */\n      tag_192\n      jump\t// in\n    tag_318:\n        /* \"#utility.yul\":9211:9429   */\n      swap3\n      swap2\n      pop\n      pop\n      jump\t// out\n        /* \"#utility.yul\":9435:9552   */\n    tag_193:\n        /* \"#utility.yul\":9544:9545   */\n      0x00\n        /* \"#utility.yul\":9541:9542   */\n      dup1\n        /* \"#utility.yul\":9534:9546   */\n      revert\n        /* \"#utility.yul\":9558:9675   */\n    tag_194:\n        /* \"#utility.yul\":9667:9668   */\n      0x00\n        /* \"#utility.yul\":9664:9665   */\n      dup1\n        /* \"#utility.yul\":9657:9669   */\n      revert\n        /* \"#utility.yul\":9681:9861   */\n    tag_195:\n        /* \"#utility.yul\":9729:9806   */\n      0x4e487b7100000000000000000000000000000000000000000000000000000000\n        /* \"#utility.yul\":9726:9727   */\n      0x00\n        /* \"#utility.yul\":9719:9807   */\n      mstore\n        /* \"#utility.yul\":9826:9830   */\n      0x41\n        /* \"#utility.yul\":9823:9824   */\n      0x04\n        /* \"#utility.yul\":9816:9831   */\n      mstore\n        /* \"#utility.yul\":9850:9854   */\n      0x24\n        /* \"#utility.yul\":9847:9848   */\n      0x00\n        /* \"#utility.yul\":9840:9855   */\n      revert\n        /* \"#utility.yul\":9867:10148   */\n    tag_196:\n        /* \"#utility.yul\":9950:9977   */\n      tag_323\n        /* \"#utility.yul\":9972:9976   */\n      dup3\n        /* \"#utility.yul\":9950:9977   */\n      tag_176\n      jump\t// in\n    tag_323:\n        /* \"#utility.yul\":9942:9948   */\n      dup2\n        /* \"#utility.yul\":9938:9978   */\n      add\n        /* \"#utility.yul\":10080:10086   */\n      dup2\n        /* \"#utility.yul\":10068:10078   */\n      dup2\n        /* \"#utility.yul\":10065:10087   */\n      lt\n        /* \"#utility.yul\":10044:10062   */\n      0xffffffffffffffff\n        /* \"#utility.yul\":10032:10042   */\n      dup3\n        /* \"#utility.yul\":10029:10063   */\n      gt\n        /* \"#utility.yul\":10026:10088   */\n      or\n        /* \"#utility.yul\":10023:10111   */\n      iszero\n      tag_324\n      jumpi\n        /* \"#utility.yul\":10091:10109   */\n      tag_325\n      tag_195\n      jump\t// in\n    tag_325:\n        /* \"#utility.yul\":10023:10111   */\n    tag_324:\n        /* \"#utility.yul\":10131:10141   */\n      dup1\n        /* \"#utility.yul\":10127:10129   */\n      0x40\n        /* \"#utility.yul\":10120:10142   */\n      mstore\n        /* \"#utility.yul\":9910:10148   */\n      pop\n        /* \"#utility.yul\":9867:10148   */\n      pop\n      pop\n      jump\t// out\n        /* \"#utility.yul\":10154:10283   */\n    tag_197:\n        /* \"#utility.yul\":10188:10194   */\n      0x00\n        /* \"#utility.yul\":10215:10235   */\n      tag_327\n      tag_161\n      jump\t// in\n    tag_327:\n        /* \"#utility.yul\":10205:10235   */\n      swap1\n      pop\n        /* \"#utility.yul\":10244:10277   */\n      tag_328\n        /* \"#utility.yul\":10272:10276   */\n      dup3\n        /* \"#utility.yul\":10264:10270   */\n      dup3\n        /* \"#utility.yul\":10244:10277   */\n      tag_196\n      jump\t// in\n    tag_328:\n        /* \"#utility.yul\":10154:10283   */\n      swap2\n      swap1\n      pop\n      jump\t// out\n        /* \"#utility.yul\":10289:10597   */\n    tag_198:\n        /* \"#utility.yul\":10351:10355   */\n      0x00\n        /* \"#utility.yul\":10441:10459   */\n      0xffffffffffffffff\n        /* \"#utility.yul\":10433:10439   */\n      dup3\n        /* \"#utility.yul\":10430:10460   */\n      gt\n        /* \"#utility.yul\":10427:10483   */\n      iszero\n      tag_330\n      jumpi\n        /* \"#utility.yul\":10463:10481   */\n      tag_331\n      tag_195\n      jump\t// in\n    tag_331:\n        /* \"#utility.yul\":10427:10483   */\n    tag_330:\n        /* \"#utility.yul\":10501:10530   */\n      tag_332\n        /* \"#utility.yul\":10523:10529   */\n      dup3\n        /* \"#utility.yul\":10501:10530   */\n      tag_176\n      jump\t// in\n    tag_332:\n        /* \"#utility.yul\":10493:10530   */\n      swap1\n      pop\n        /* \"#utility.yul\":10585:10589   */\n      0x20\n        /* \"#utility.yul\":10579:10583   */\n      dup2\n        /* \"#utility.yul\":10575:10590   */\n      add\n        /* \"#utility.yul\":10567:10590   */\n      swap1\n      pop\n        /* \"#utility.yul\":10289:10597   */\n      swap2\n      swap1\n      pop\n      jump\t// out\n        /* \"#utility.yul\":10603:10751   */\n    tag_199:\n        /* \"#utility.yul\":10701:10707   */\n      dup3\n        /* \"#utility.yul\":10696:10699   */\n      dup2\n        /* \"#utility.yul\":10691:10694   */\n      dup4\n        /* \"#utility.yul\":10678:10708   */\n      calldatacopy\n        /* \"#utility.yul\":10742:10743   */\n      0x00\n        /* \"#utility.yul\":10733:10739   */\n      dup4\n        /* \"#utility.yul\":10728:10731   */\n      dup4\n        /* \"#utility.yul\":10724:10740   */\n      add\n        /* \"#utility.yul\":10717:10744   */\n      mstore\n        /* \"#utility.yul\":10603:10751   */\n      pop\n      pop\n      pop\n      jump\t// out\n        /* \"#utility.yul\":10757:11182   */\n    tag_200:\n        /* \"#utility.yul\":10835:10840   */\n      0x00\n        /* \"#utility.yul\":10860:10926   */\n      tag_335\n        /* \"#utility.yul\":10876:10925   */\n      tag_336\n        /* \"#utility.yul\":10918:10924   */\n      dup5\n        /* \"#utility.yul\":10876:10925   */\n      tag_198\n      jump\t// in\n    tag_336:\n        /* \"#utility.yul\":10860:10926   */\n      tag_197\n      jump\t// in\n    tag_335:\n        /* \"#utility.yul\":10851:10926   */\n      swap1\n      pop\n        /* \"#utility.yul\":10949:10955   */\n      dup3\n        /* \"#utility.yul\":10942:10947   */\n      dup2\n        /* \"#utility.yul\":10935:10956   */\n      mstore\n        /* \"#utility.yul\":10987:10991   */\n      0x20\n        /* \"#utility.yul\":10980:10985   */\n      dup2\n        /* \"#utility.yul\":10976:10992   */\n      add\n        /* \"#utility.yul\":11025:11028   */\n      dup5\n        /* \"#utility.yul\":11016:11022   */\n      dup5\n        /* \"#utility.yul\":11011:11014   */\n      dup5\n        /* \"#utility.yul\":11007:11023   */\n      add\n        /* \"#utility.yul\":11004:11029   */\n      gt\n        /* \"#utility.yul\":11001:11113   */\n      iszero\n      tag_337\n      jumpi\n        /* \"#utility.yul\":11032:11111   */\n      tag_338\n      tag_194\n      jump\t// in\n    tag_338:\n        /* \"#utility.yul\":11001:11113   */\n    tag_337:\n        /* \"#utility.yul\":11122:11176   */\n      tag_339\n        /* \"#utility.yul\":11169:11175   */\n      dup5\n        /* \"#utility.yul\":11164:11167   */\n      dup3\n        /* \"#utility.yul\":11159:11162   */\n      dup6\n        /* \"#utility.yul\":11122:11176   */\n      tag_199\n      jump\t// in\n    tag_339:\n        /* \"#utility.yul\":10841:11182   */\n      pop\n        /* \"#utility.yul\":10757:11182   */\n      swap4\n      swap3\n      pop\n      pop\n      pop\n      jump\t// out\n        /* \"#utility.yul\":11202:11542   */\n    tag_201:\n        /* \"#utility.yul\":11258:11263   */\n      0x00\n        /* \"#utility.yul\":11307:11310   */\n      dup3\n        /* \"#utility.yul\":11300:11304   */\n      0x1f\n        /* \"#utility.yul\":11292:11298   */\n      dup4\n        /* \"#utility.yul\":11288:11305   */\n      add\n        /* \"#utility.yul\":11284:11311   */\n      slt\n        /* \"#utility.yul\":11274:11396   */\n      tag_341\n      jumpi\n        /* \"#utility.yul\":11315:11394   */\n      tag_342\n      tag_193\n      jump\t// in\n    tag_342:\n        /* \"#utility.yul\":11274:11396   */\n    tag_341:\n        /* \"#utility.yul\":11432:11438   */\n      dup2\n        /* \"#utility.yul\":11419:11439   */\n      calldataload\n        /* \"#utility.yul\":11457:11536   */\n      tag_343\n        /* \"#utility.yul\":11532:11535   */\n      dup5\n        /* \"#utility.yul\":11524:11530   */\n      dup3\n        /* \"#utility.yul\":11517:11521   */\n      0x20\n        /* \"#utility.yul\":11509:11515   */\n      dup7\n        /* \"#utility.yul\":11505:11522   */\n      add\n        /* \"#utility.yul\":11457:11536   */\n      tag_200\n      jump\t// in\n    tag_343:\n        /* \"#utility.yul\":11448:11536   */\n      swap2\n      pop\n        /* \"#utility.yul\":11264:11542   */\n      pop\n        /* \"#utility.yul\":11202:11542   */\n      swap3\n      swap2\n      pop\n      pop\n      jump\t// out\n        /* \"#utility.yul\":11548:12057   */\n    tag_45:\n        /* \"#utility.yul\":11617:11623   */\n      0x00\n        /* \"#utility.yul\":11666:11668   */\n      0x20\n        /* \"#utility.yul\":11654:11663   */\n      dup3\n        /* \"#utility.yul\":11645:11652   */\n      dup5\n        /* \"#utility.yul\":11641:11664   */\n      sub\n        /* \"#utility.yul\":11637:11669   */\n      slt\n        /* \"#utility.yul\":11634:11753   */\n      iszero\n      tag_345\n      jumpi\n        /* \"#utility.yul\":11672:11751   */\n      tag_346\n      tag_162\n      jump\t// in\n    tag_346:\n        /* \"#utility.yul\":11634:11753   */\n    tag_345:\n        /* \"#utility.yul\":11820:11821   */\n      0x00\n        /* \"#utility.yul\":11809:11818   */\n      dup3\n        /* \"#utility.yul\":11805:11822   */\n      add\n        /* \"#utility.yul\":11792:11823   */\n      calldataload\n        /* \"#utility.yul\":11850:11868   */\n      0xffffffffffffffff\n        /* \"#utility.yul\":11842:11848   */\n      dup2\n        /* \"#utility.yul\":11839:11869   */\n      gt\n        /* \"#utility.yul\":11836:11953   */\n      iszero\n      tag_347\n      jumpi\n        /* \"#utility.yul\":11872:11951   */\n      tag_348\n      tag_163\n      jump\t// in\n    tag_348:\n        /* \"#utility.yul\":11836:11953   */\n    tag_347:\n        /* \"#utility.yul\":11977:12040   */\n      tag_349\n        /* \"#utility.yul\":12032:12039   */\n      dup5\n        /* \"#utility.yul\":12023:12029   */\n      dup3\n        /* \"#utility.yul\":12012:12021   */\n      dup6\n        /* \"#utility.yul\":12008:12030   */\n      add\n        /* \"#utility.yul\":11977:12040   */\n      tag_201\n      jump\t// in\n    tag_349:\n        /* \"#utility.yul\":11967:12040   */\n      swap2\n      pop\n        /* \"#utility.yul\":11763:12050   */\n      pop\n        /* \"#utility.yul\":11548:12057   */\n      swap3\n      swap2\n      pop\n      pop\n      jump\t// out\n        /* \"#utility.yul\":12063:12285   */\n    tag_50:\n        /* \"#utility.yul\":12156:12160   */\n      0x00\n        /* \"#utility.yul\":12194:12196   */\n      0x20\n        /* \"#utility.yul\":12183:12192   */\n      dup3\n        /* \"#utility.yul\":12179:12197   */\n      add\n        /* \"#utility.yul\":12171:12197   */\n      swap1\n      pop\n        /* \"#utility.yul\":12207:12278   */\n      tag_351\n        /* \"#utility.yul\":12275:12276   */\n      0x00\n        /* \"#utility.yul\":12264:12273   */\n      dup4\n        /* \"#utility.yul\":12260:12277   */\n      add\n        /* \"#utility.yul\":12251:12257   */\n      dup5\n        /* \"#utility.yul\":12207:12278   */\n      tag_172\n      jump\t// in\n    tag_351:\n        /* \"#utility.yul\":12063:12285   */\n      swap3\n      swap2\n      pop\n      pop\n      jump\t// out\n        /* \"#utility.yul\":12291:12620   */\n    tag_53:\n        /* \"#utility.yul\":12350:12356   */\n      0x00\n        /* \"#utility.yul\":12399:12401   */\n      0x20\n        /* \"#utility.yul\":12387:12396   */\n      dup3\n        /* \"#utility.yul\":12378:12385   */\n      dup5\n        /* \"#utility.yul\":12374:12397   */\n      sub\n        /* \"#utility.yul\":12370:12402   */\n      slt\n        /* \"#utility.yul\":12367:12486   */\n      iszero\n      tag_353\n      jumpi\n        /* \"#utility.yul\":12405:12484   */\n      tag_354\n      tag_162\n      jump\t// in\n    tag_354:\n        /* \"#utility.yul\":12367:12486   */\n    tag_353:\n        /* \"#utility.yul\":12525:12526   */\n      0x00\n        /* \"#utility.yul\":12550:12603   */\n      tag_355\n        /* \"#utility.yul\":12595:12602   */\n      dup5\n        /* \"#utility.yul\":12586:12592   */\n      dup3\n        /* \"#utility.yul\":12575:12584   */\n      dup6\n        /* \"#utility.yul\":12571:12593   */\n      add\n        /* \"#utility.yul\":12550:12603   */\n      tag_170\n      jump\t// in\n    tag_355:\n        /* \"#utility.yul\":12540:12603   */\n      swap2\n      pop\n        /* \"#utility.yul\":12496:12613   */\n      pop\n        /* \"#utility.yul\":12291:12620   */\n      swap3\n      swap2\n      pop\n      pop\n      jump\t// out\n        /* \"#utility.yul\":12678:13809   */\n    tag_202:\n        /* \"#utility.yul\":12791:12794   */\n      0x00\n        /* \"#utility.yul\":12827:12831   */\n      0xa0\n        /* \"#utility.yul\":12822:12825   */\n      dup4\n        /* \"#utility.yul\":12818:12832   */\n      add\n        /* \"#utility.yul\":12912:12916   */\n      0x00\n        /* \"#utility.yul\":12905:12910   */\n      dup4\n        /* \"#utility.yul\":12901:12917   */\n      add\n        /* \"#utility.yul\":12895:12918   */\n      mload\n        /* \"#utility.yul\":12931:12994   */\n      tag_357\n        /* \"#utility.yul\":12988:12992   */\n      0x00\n        /* \"#utility.yul\":12983:12986   */\n      dup7\n        /* \"#utility.yul\":12979:12993   */\n      add\n        /* \"#utility.yul\":12965:12977   */\n      dup3\n        /* \"#utility.yul\":12931:12994   */\n      tag_181\n      jump\t// in\n    tag_357:\n        /* \"#utility.yul\":12842:13004   */\n      pop\n        /* \"#utility.yul\":13088:13092   */\n      0x20\n        /* \"#utility.yul\":13081:13086   */\n      dup4\n        /* \"#utility.yul\":13077:13093   */\n      add\n        /* \"#utility.yul\":13071:13094   */\n      mload\n        /* \"#utility.yul\":13107:13170   */\n      tag_358\n        /* \"#utility.yul\":13164:13168   */\n      0x20\n        /* \"#utility.yul\":13159:13162   */\n      dup7\n        /* \"#utility.yul\":13155:13169   */\n      add\n        /* \"#utility.yul\":13141:13153   */\n      dup3\n        /* \"#utility.yul\":13107:13170   */\n      tag_182\n      jump\t// in\n    tag_358:\n        /* \"#utility.yul\":13014:13180   */\n      pop\n        /* \"#utility.yul\":13265:13269   */\n      0x40\n        /* \"#utility.yul\":13258:13263   */\n      dup4\n        /* \"#utility.yul\":13254:13270   */\n      add\n        /* \"#utility.yul\":13248:13271   */\n      mload\n        /* \"#utility.yul\":13318:13321   */\n      dup5\n        /* \"#utility.yul\":13312:13316   */\n      dup3\n        /* \"#utility.yul\":13308:13322   */\n      sub\n        /* \"#utility.yul\":13301:13305   */\n      0x40\n        /* \"#utility.yul\":13296:13299   */\n      dup7\n        /* \"#utility.yul\":13292:13306   */\n      add\n        /* \"#utility.yul\":13285:13323   */\n      mstore\n        /* \"#utility.yul\":13344:13417   */\n      tag_359\n        /* \"#utility.yul\":13412:13416   */\n      dup3\n        /* \"#utility.yul\":13398:13410   */\n      dup3\n        /* \"#utility.yul\":13344:13417   */\n      tag_184\n      jump\t// in\n    tag_359:\n        /* \"#utility.yul\":13336:13417   */\n      swap2\n      pop\n        /* \"#utility.yul\":13190:13428   */\n      pop\n        /* \"#utility.yul\":13515:13519   */\n      0x60\n        /* \"#utility.yul\":13508:13513   */\n      dup4\n        /* \"#utility.yul\":13504:13520   */\n      add\n        /* \"#utility.yul\":13498:13521   */\n      mload\n        /* \"#utility.yul\":13534:13597   */\n      tag_360\n        /* \"#utility.yul\":13591:13595   */\n      0x60\n        /* \"#utility.yul\":13586:13589   */\n      dup7\n        /* \"#utility.yul\":13582:13596   */\n      add\n        /* \"#utility.yul\":13568:13580   */\n      dup3\n        /* \"#utility.yul\":13534:13597   */\n      tag_181\n      jump\t// in\n    tag_360:\n        /* \"#utility.yul\":13438:13607   */\n      pop\n        /* \"#utility.yul\":13690:13694   */\n      0x80\n        /* \"#utility.yul\":13683:13688   */\n      dup4\n        /* \"#utility.yul\":13679:13695   */\n      add\n        /* \"#utility.yul\":13673:13696   */\n      mload\n        /* \"#utility.yul\":13709:13772   */\n      tag_361\n        /* \"#utility.yul\":13766:13770   */\n      0x80\n        /* \"#utility.yul\":13761:13764   */\n      dup7\n        /* \"#utility.yul\":13757:13771   */\n      add\n        /* \"#utility.yul\":13743:13755   */\n      dup3\n        /* \"#utility.yul\":13709:13772   */\n      tag_181\n      jump\t// in\n    tag_361:\n        /* \"#utility.yul\":13617:13782   */\n      pop\n        /* \"#utility.yul\":13799:13803   */\n      dup1\n        /* \"#utility.yul\":13792:13803   */\n      swap2\n      pop\n        /* \"#utility.yul\":12796:13809   */\n      pop\n        /* \"#utility.yul\":12678:13809   */\n      swap3\n      swap2\n      pop\n      pop\n      jump\t// out\n        /* \"#utility.yul\":13815:14176   */\n    tag_56:\n        /* \"#utility.yul\":13952:13956   */\n      0x00\n        /* \"#utility.yul\":13990:13992   */\n      0x20\n        /* \"#utility.yul\":13979:13988   */\n      dup3\n        /* \"#utility.yul\":13975:13993   */\n      add\n        /* \"#utility.yul\":13967:13993   */\n      swap1\n      pop\n        /* \"#utility.yul\":14039:14048   */\n      dup2\n        /* \"#utility.yul\":14033:14037   */\n      dup2\n        /* \"#utility.yul\":14029:14049   */\n      sub\n        /* \"#utility.yul\":14025:14026   */\n      0x00\n        /* \"#utility.yul\":14014:14023   */\n      dup4\n        /* \"#utility.yul\":14010:14027   */\n      add\n        /* \"#utility.yul\":14003:14050   */\n      mstore\n        /* \"#utility.yul\":14067:14169   */\n      tag_363\n        /* \"#utility.yul\":14164:14168   */\n      dup2\n        /* \"#utility.yul\":14155:14161   */\n      dup5\n        /* \"#utility.yul\":14067:14169   */\n      tag_202\n      jump\t// in\n    tag_363:\n        /* \"#utility.yul\":14059:14169   */\n      swap1\n      pop\n        /* \"#utility.yul\":13815:14176   */\n      swap3\n      swap2\n      pop\n      pop\n      jump\t// out\n        /* \"#utility.yul\":14182:14362   */\n    tag_203:\n        /* \"#utility.yul\":14230:14307   */\n      0x4e487b7100000000000000000000000000000000000000000000000000000000\n        /* \"#utility.yul\":14227:14228   */\n      0x00\n        /* \"#utility.yul\":14220:14308   */\n      mstore\n        /* \"#utility.yul\":14327:14331   */\n      0x22\n        /* \"#utility.yul\":14324:14325   */\n      0x04\n        /* \"#utility.yul\":14317:14332   */\n      mstore\n        /* \"#utility.yul\":14351:14355   */\n      0x24\n        /* \"#utility.yul\":14348:14349   */\n      0x00\n        /* \"#utility.yul\":14341:14356   */\n      revert\n        /* \"#utility.yul\":14368:14688   */\n    tag_63:\n        /* \"#utility.yul\":14412:14418   */\n      0x00\n        /* \"#utility.yul\":14449:14450   */\n      0x02\n        /* \"#utility.yul\":14443:14447   */\n      dup3\n        /* \"#utility.yul\":14439:14451   */\n      div\n        /* \"#utility.yul\":14429:14451   */\n      swap1\n      pop\n        /* \"#utility.yul\":14496:14497   */\n      0x01\n        /* \"#utility.yul\":14490:14494   */\n      dup3\n        /* \"#utility.yul\":14486:14498   */\n      and\n        /* \"#utility.yul\":14517:14535   */\n      dup1\n        /* \"#utility.yul\":14507:14588   */\n      tag_366\n      jumpi\n        /* \"#utility.yul\":14573:14577   */\n      0x7f\n        /* \"#utility.yul\":14565:14571   */\n      dup3\n        /* \"#utility.yul\":14561:14578   */\n      and\n        /* \"#utility.yul\":14551:14578   */\n      swap2\n      pop\n        /* \"#utility.yul\":14507:14588   */\n    tag_366:\n        /* \"#utility.yul\":14635:14637   */\n      0x20\n        /* \"#utility.yul\":14627:14633   */\n      dup3\n        /* \"#utility.yul\":14624:14638   */\n      lt\n        /* \"#utility.yul\":14604:14622   */\n      dup2\n        /* \"#utility.yul\":14601:14639   */\n      sub\n        /* \"#utility.yul\":14598:14682   */\n      tag_367\n      jumpi\n        /* \"#utility.yul\":14654:14672   */\n      tag_368\n      tag_203\n      jump\t// in\n    tag_368:\n        /* \"#utility.yul\":14598:14682   */\n    tag_367:\n        /* \"#utility.yul\":14419:14688   */\n      pop\n        /* \"#utility.yul\":14368:14688   */\n      swap2\n      swap1\n      pop\n      jump\t// out\n        /* \"#utility.yul\":14694:14874   */\n    tag_80:\n        /* \"#utility.yul\":14742:14819   */\n      0x4e487b7100000000000000000000000000000000000000000000000000000000\n        /* \"#utility.yul\":14739:14740   */\n      0x00\n        /* \"#utility.yul\":14732:14820   */\n      mstore\n        /* \"#utility.yul\":14839:14843   */\n      0x32\n        /* \"#utility.yul\":14836:14837   */\n      0x04\n        /* \"#utility.yul\":14829:14844   */\n      mstore\n        /* \"#utility.yul\":14863:14867   */\n      0x24\n        /* \"#utility.yul\":14860:14861   */\n      0x00\n        /* \"#utility.yul\":14853:14868   */\n      revert\n        /* \"#utility.yul\":14880:15050   */\n    tag_204:\n        /* \"#utility.yul\":15020:15042   */\n      0x545745455420444f4553204e4f54204558495354000000000000000000000000\n        /* \"#utility.yul\":15016:15017   */\n      0x00\n        /* \"#utility.yul\":15008:15014   */\n      dup3\n        /* \"#utility.yul\":15004:15018   */\n      add\n        /* \"#utility.yul\":14997:15043   */\n      mstore\n        /* \"#utility.yul\":14880:15050   */\n      pop\n      jump\t// out\n        /* \"#utility.yul\":15056:15422   */\n    tag_205:\n        /* \"#utility.yul\":15198:15201   */\n      0x00\n        /* \"#utility.yul\":15219:15286   */\n      tag_372\n        /* \"#utility.yul\":15283:15285   */\n      0x14\n        /* \"#utility.yul\":15278:15281   */\n      dup4\n        /* \"#utility.yul\":15219:15286   */\n      tag_174\n      jump\t// in\n    tag_372:\n        /* \"#utility.yul\":15212:15286   */\n      swap2\n      pop\n        /* \"#utility.yul\":15295:15388   */\n      tag_373\n        /* \"#utility.yul\":15384:15387   */\n      dup3\n        /* \"#utility.yul\":15295:15388   */\n      tag_204\n      jump\t// in\n    tag_373:\n        /* \"#utility.yul\":15413:15415   */\n      0x20\n        /* \"#utility.yul\":15408:15411   */\n      dup3\n        /* \"#utility.yul\":15404:15416   */\n      add\n        /* \"#utility.yul\":15397:15416   */\n      swap1\n      pop\n        /* \"#utility.yul\":15056:15422   */\n      swap2\n      swap1\n      pop\n      jump\t// out\n        /* \"#utility.yul\":15428:15847   */\n    tag_84:\n        /* \"#utility.yul\":15594:15598   */\n      0x00\n        /* \"#utility.yul\":15632:15634   */\n      0x20\n        /* \"#utility.yul\":15621:15630   */\n      dup3\n        /* \"#utility.yul\":15617:15635   */\n      add\n        /* \"#utility.yul\":15609:15635   */\n      swap1\n      pop\n        /* \"#utility.yul\":15681:15690   */\n      dup2\n        /* \"#utility.yul\":15675:15679   */\n      dup2\n        /* \"#utility.yul\":15671:15691   */\n      sub\n        /* \"#utility.yul\":15667:15668   */\n      0x00\n        /* \"#utility.yul\":15656:15665   */\n      dup4\n        /* \"#utility.yul\":15652:15669   */\n      add\n        /* \"#utility.yul\":15645:15692   */\n      mstore\n        /* \"#utility.yul\":15709:15840   */\n      tag_375\n        /* \"#utility.yul\":15835:15839   */\n      dup2\n        /* \"#utility.yul\":15709:15840   */\n      tag_205\n      jump\t// in\n    tag_375:\n        /* \"#utility.yul\":15701:15840   */\n      swap1\n      pop\n        /* \"#utility.yul\":15428:15847   */\n      swap2\n      swap1\n      pop\n      jump\t// out\n        /* \"#utility.yul\":15853:16021   */\n    tag_206:\n        /* \"#utility.yul\":15993:16013   */\n      0x545745455420484153204e4f204c494b45530000000000000000000000000000\n        /* \"#utility.yul\":15989:15990   */\n      0x00\n        /* \"#utility.yul\":15981:15987   */\n      dup3\n        /* \"#utility.yul\":15977:15991   */\n      add\n        /* \"#utility.yul\":15970:16014   */\n      mstore\n        /* \"#utility.yul\":15853:16021   */\n      pop\n      jump\t// out\n        /* \"#utility.yul\":16027:16393   */\n    tag_207:\n        /* \"#utility.yul\":16169:16172   */\n      0x00\n        /* \"#utility.yul\":16190:16257   */\n      tag_378\n        /* \"#utility.yul\":16254:16256   */\n      0x12\n        /* \"#utility.yul\":16249:16252   */\n      dup4\n        /* \"#utility.yul\":16190:16257   */\n      tag_174\n      jump\t// in\n    tag_378:\n        /* \"#utility.yul\":16183:16257   */\n      swap2\n      pop\n        /* \"#utility.yul\":16266:16359   */\n      tag_379\n        /* \"#utility.yul\":16355:16358   */\n      dup3\n        /* \"#utility.yul\":16266:16359   */\n      tag_206\n      jump\t// in\n    tag_379:\n        /* \"#utility.yul\":16384:16386   */\n      0x20\n        /* \"#utility.yul\":16379:16382   */\n      dup3\n        /* \"#utility.yul\":16375:16387   */\n      add\n        /* \"#utility.yul\":16368:16387   */\n      swap1\n      pop\n        /* \"#utility.yul\":16027:16393   */\n      swap2\n      swap1\n      pop\n      jump\t// out\n        /* \"#utility.yul\":16399:16818   */\n    tag_90:\n        /* \"#utility.yul\":16565:16569   */\n      0x00\n        /* \"#utility.yul\":16603:16605   */\n      0x20\n        /* \"#utility.yul\":16592:16601   */\n      dup3\n        /* \"#utility.yul\":16588:16606   */\n      add\n        /* \"#utility.yul\":16580:16606   */\n      swap1\n      pop\n        /* \"#utility.yul\":16652:16661   */\n      dup2\n        /* \"#utility.yul\":16646:16650   */\n      dup2\n        /* \"#utility.yul\":16642:16662   */\n      sub\n        /* \"#utility.yul\":16638:16639   */\n      0x00\n        /* \"#utility.yul\":16627:16636   */\n      dup4\n        /* \"#utility.yul\":16623:16640   */\n      add\n        /* \"#utility.yul\":16616:16663   */\n      mstore\n        /* \"#utility.yul\":16680:16811   */\n      tag_381\n        /* \"#utility.yul\":16806:16810   */\n      dup2\n        /* \"#utility.yul\":16680:16811   */\n      tag_207\n      jump\t// in\n    tag_381:\n        /* \"#utility.yul\":16672:16811   */\n      swap1\n      pop\n        /* \"#utility.yul\":16399:16818   */\n      swap2\n      swap1\n      pop\n      jump\t// out\n        /* \"#utility.yul\":16824:17004   */\n    tag_208:\n        /* \"#utility.yul\":16872:16949   */\n      0x4e487b7100000000000000000000000000000000000000000000000000000000\n        /* \"#utility.yul\":16869:16870   */\n      0x00\n        /* \"#utility.yul\":16862:16950   */\n      mstore\n        /* \"#utility.yul\":16969:16973   */\n      0x11\n        /* \"#utility.yul\":16966:16967   */\n      0x04\n        /* \"#utility.yul\":16959:16974   */\n      mstore\n        /* \"#utility.yul\":16993:16997   */\n      0x24\n        /* \"#utility.yul\":16990:16991   */\n      0x00\n        /* \"#utility.yul\":16983:16998   */\n      revert\n        /* \"#utility.yul\":17010:17181   */\n    tag_95:\n        /* \"#utility.yul\":17049:17052   */\n      0x00\n        /* \"#utility.yul\":17072:17096   */\n      tag_384\n        /* \"#utility.yul\":17090:17095   */\n      dup3\n        /* \"#utility.yul\":17072:17096   */\n      tag_168\n      jump\t// in\n    tag_384:\n        /* \"#utility.yul\":17063:17096   */\n      swap2\n      pop\n        /* \"#utility.yul\":17118:17122   */\n      0x00\n        /* \"#utility.yul\":17111:17116   */\n      dup3\n        /* \"#utility.yul\":17108:17123   */\n      sub\n        /* \"#utility.yul\":17105:17146   */\n      tag_385\n      jumpi\n        /* \"#utility.yul\":17126:17144   */\n      tag_386\n      tag_208\n      jump\t// in\n    tag_386:\n        /* \"#utility.yul\":17105:17146   */\n    tag_385:\n        /* \"#utility.yul\":17173:17174   */\n      0x01\n        /* \"#utility.yul\":17166:17171   */\n      dup3\n        /* \"#utility.yul\":17162:17175   */\n      sub\n        /* \"#utility.yul\":17155:17175   */\n      swap1\n      pop\n        /* \"#utility.yul\":17010:17181   */\n      swap2\n      swap1\n      pop\n      jump\t// out\n        /* \"#utility.yul\":17187:17740   */\n    tag_100:\n        /* \"#utility.yul\":17364:17368   */\n      0x00\n        /* \"#utility.yul\":17402:17405   */\n      0x80\n        /* \"#utility.yul\":17391:17400   */\n      dup3\n        /* \"#utility.yul\":17387:17406   */\n      add\n        /* \"#utility.yul\":17379:17406   */\n      swap1\n      pop\n        /* \"#utility.yul\":17416:17487   */\n      tag_388\n        /* \"#utility.yul\":17484:17485   */\n      0x00\n        /* \"#utility.yul\":17473:17482   */\n      dup4\n        /* \"#utility.yul\":17469:17486   */\n      add\n        /* \"#utility.yul\":17460:17466   */\n      dup8\n        /* \"#utility.yul\":17416:17487   */\n      tag_172\n      jump\t// in\n    tag_388:\n        /* \"#utility.yul\":17497:17569   */\n      tag_389\n        /* \"#utility.yul\":17565:17567   */\n      0x20\n        /* \"#utility.yul\":17554:17563   */\n      dup4\n        /* \"#utility.yul\":17550:17568   */\n      add\n        /* \"#utility.yul\":17541:17547   */\n      dup7\n        /* \"#utility.yul\":17497:17569   */\n      tag_172\n      jump\t// in\n    tag_389:\n        /* \"#utility.yul\":17579:17651   */\n      tag_390\n        /* \"#utility.yul\":17647:17649   */\n      0x40\n        /* \"#utility.yul\":17636:17645   */\n      dup4\n        /* \"#utility.yul\":17632:17650   */\n      add\n        /* \"#utility.yul\":17623:17629   */\n      dup6\n        /* \"#utility.yul\":17579:17651   */\n      tag_171\n      jump\t// in\n    tag_390:\n        /* \"#utility.yul\":17661:17733   */\n      tag_391\n        /* \"#utility.yul\":17729:17731   */\n      0x60\n        /* \"#utility.yul\":17718:17727   */\n      dup4\n        /* \"#utility.yul\":17714:17732   */\n      add\n        /* \"#utility.yul\":17705:17711   */\n      dup5\n        /* \"#utility.yul\":17661:17733   */\n      tag_171\n      jump\t// in\n    tag_391:\n        /* \"#utility.yul\":17187:17740   */\n      swap6\n      swap5\n      pop\n      pop\n      pop\n      pop\n      pop\n      jump\t// out\n        /* \"#utility.yul\":17746:17979   */\n    tag_115:\n        /* \"#utility.yul\":17785:17788   */\n      0x00\n        /* \"#utility.yul\":17808:17832   */\n      tag_393\n        /* \"#utility.yul\":17826:17831   */\n      dup3\n        /* \"#utility.yul\":17808:17832   */\n      tag_168\n      jump\t// in\n    tag_393:\n        /* \"#utility.yul\":17799:17832   */\n      swap2\n      pop\n        /* \"#utility.yul\":17854:17920   */\n      0xffffffffffffffffffffffffffffffffffffffffffffffffffffffffffffffff\n        /* \"#utility.yul\":17847:17852   */\n      dup3\n        /* \"#utility.yul\":17844:17921   */\n      sub\n        /* \"#utility.yul\":17841:17944   */\n      tag_394\n      jumpi\n        /* \"#utility.yul\":17924:17942   */\n      tag_395\n      tag_208\n      jump\t// in\n    tag_395:\n        /* \"#utility.yul\":17841:17944   */\n    tag_394:\n        /* \"#utility.yul\":17971:17972   */\n      0x01\n        /* \"#utility.yul\":17964:17969   */\n      dup3\n        /* \"#utility.yul\":17960:17973   */\n      add\n        /* \"#utility.yul\":17953:17973   */\n      swap1\n      pop\n        /* \"#utility.yul\":17746:17979   */\n      swap2\n      swap1\n      pop\n      jump\t// out\n        /* \"#utility.yul\":17985:18157   */\n    tag_209:\n        /* \"#utility.yul\":18125:18149   */\n      0x547765657420697320746f6f206c6f6e672062726f2100000000000000000000\n        /* \"#utility.yul\":18121:18122   */\n      0x00\n        /* \"#utility.yul\":18113:18119   */\n      dup3\n        /* \"#utility.yul\":18109:18123   */\n      add\n        /* \"#utility.yul\":18102:18150   */\n      mstore\n        /* \"#utility.yul\":17985:18157   */\n      pop\n      jump\t// out\n        /* \"#utility.yul\":18163:18529   */\n    tag_210:\n        /* \"#utility.yul\":18305:18308   */\n      0x00\n        /* \"#utility.yul\":18326:18393   */\n      tag_398\n        /* \"#utility.yul\":18390:18392   */\n      0x16\n        /* \"#utility.yul\":18385:18388   */\n      dup4\n        /* \"#utility.yul\":18326:18393   */\n      tag_174\n      jump\t// in\n    tag_398:\n        /* \"#utility.yul\":18319:18393   */\n      swap2\n      pop\n        /* \"#utility.yul\":18402:18495   */\n      tag_399\n        /* \"#utility.yul\":18491:18494   */\n      dup3\n        /* \"#utility.yul\":18402:18495   */\n      tag_209\n      jump\t// in\n    tag_399:\n        /* \"#utility.yul\":18520:18522   */\n      0x20\n        /* \"#utility.yul\":18515:18518   */\n      dup3\n        /* \"#utility.yul\":18511:18523   */\n      add\n        /* \"#utility.yul\":18504:18523   */\n      swap1\n      pop\n        /* \"#utility.yul\":18163:18529   */\n      swap2\n      swap1\n      pop\n      jump\t// out\n        /* \"#utility.yul\":18535:18954   */\n    tag_128:\n        /* \"#utility.yul\":18701:18705   */\n      0x00\n        /* \"#utility.yul\":18739:18741   */\n      0x20\n        /* \"#utility.yul\":18728:18737   */\n      dup3\n        /* \"#utility.yul\":18724:18742   */\n      add\n        /* \"#utility.yul\":18716:18742   */\n      swap1\n      pop\n        /* \"#utility.yul\":18788:18797   */\n      dup2\n        /* \"#utility.yul\":18782:18786   */\n      dup2\n        /* \"#utility.yul\":18778:18798   */\n      sub\n        /* \"#utility.yul\":18774:18775   */\n      0x00\n        /* \"#utility.yul\":18763:18772   */\n      dup4\n        /* \"#utility.yul\":18759:18776   */\n      add\n        /* \"#utility.yul\":18752:18799   */\n      mstore\n        /* \"#utility.yul\":18816:18947   */\n      tag_401\n        /* \"#utility.yul\":18942:18946   */\n      dup2\n        /* \"#utility.yul\":18816:18947   */\n      tag_210\n      jump\t// in\n    tag_401:\n        /* \"#utility.yul\":18808:18947   */\n      swap1\n      pop\n        /* \"#utility.yul\":18535:18954   */\n      swap2\n      swap1\n      pop\n      jump\t// out\n        /* \"#utility.yul\":18960:19101   */\n    tag_211:\n        /* \"#utility.yul\":19009:19013   */\n      0x00\n        /* \"#utility.yul\":19032:19035   */\n      dup2\n        /* \"#utility.yul\":19024:19035   */\n      swap1\n      pop\n        /* \"#utility.yul\":19055:19058   */\n      dup2\n        /* \"#utility.yul\":19052:19053   */\n      0x00\n        /* \"#utility.yul\":19045:19059   */\n      mstore\n        /* \"#utility.yul\":19089:19093   */\n      0x20\n        /* \"#utility.yul\":19086:19087   */\n      0x00\n        /* \"#utility.yul\":19076:19094   */\n      keccak256\n        /* \"#utility.yul\":19068:19094   */\n      swap1\n      pop\n        /* \"#utility.yul\":18960:19101   */\n      swap2\n      swap1\n      pop\n      jump\t// out\n        /* \"#utility.yul\":19107:19200   */\n    tag_212:\n        /* \"#utility.yul\":19144:19150   */\n      0x00\n        /* \"#utility.yul\":19191:19193   */\n      0x20\n        /* \"#utility.yul\":19186:19188   */\n      0x1f\n        /* \"#utility.yul\":19179:19184   */\n      dup4\n        /* \"#utility.yul\":19175:19189   */\n      add\n        /* \"#utility.yul\":19171:19194   */\n      div\n        /* \"#utility.yul\":19161:19194   */\n      swap1\n      pop\n        /* \"#utility.yul\":19107:19200   */\n      swap2\n      swap1\n      pop\n      jump\t// out\n        /* \"#utility.yul\":19206:19313   */\n    tag_213:\n        /* \"#utility.yul\":19250:19258   */\n      0x00\n        /* \"#utility.yul\":19300:19305   */\n      dup3\n        /* \"#utility.yul\":19294:19298   */\n      dup3\n        /* \"#utility.yul\":19290:19306   */\n      shl\n        /* \"#utility.yul\":19269:19306   */\n      swap1\n      pop\n        /* \"#utility.yul\":19206:19313   */\n      swap3\n      swap2\n      pop\n      pop\n      jump\t// out\n        /* \"#utility.yul\":19319:19712   */\n    tag_214:\n        /* \"#utility.yul\":19388:19394   */\n      0x00\n        /* \"#utility.yul\":19438:19439   */\n      0x08\n        /* \"#utility.yul\":19426:19436   */\n      dup4\n        /* \"#utility.yul\":19422:19440   */\n      mul\n        /* \"#utility.yul\":19461:19558   */\n      tag_406\n        /* \"#utility.yul\":19491:19557   */\n      0xffffffffffffffffffffffffffffffffffffffffffffffffffffffffffffffff\n        /* \"#utility.yul\":19480:19489   */\n      dup3\n        /* \"#utility.yul\":19461:19558   */\n      tag_213\n      jump\t// in\n    tag_406:\n        /* \"#utility.yul\":19579:19618   */\n      tag_407\n        /* \"#utility.yul\":19609:19617   */\n      dup7\n        /* \"#utility.yul\":19598:19607   */\n      dup4\n        /* \"#utility.yul\":19579:19618   */\n      tag_213\n      jump\t// in\n    tag_407:\n        /* \"#utility.yul\":19567:19618   */\n      swap6\n      pop\n        /* \"#utility.yul\":19651:19655   */\n      dup1\n        /* \"#utility.yul\":19647:19656   */\n      not\n        /* \"#utility.yul\":19640:19645   */\n      dup5\n        /* \"#utility.yul\":19636:19657   */\n      and\n        /* \"#utility.yul\":19627:19657   */\n      swap4\n      pop\n        /* \"#utility.yul\":19700:19704   */\n      dup1\n        /* \"#utility.yul\":19690:19698   */\n      dup7\n        /* \"#utility.yul\":19686:19705   */\n      and\n        /* \"#utility.yul\":19679:19684   */\n      dup5\n        /* \"#utility.yul\":19676:19706   */\n      or\n        /* \"#utility.yul\":19666:19706   */\n      swap3\n      pop\n        /* \"#utility.yul\":19395:19712   */\n      pop\n      pop\n        /* \"#utility.yul\":19319:19712   */\n      swap4\n      swap3\n      pop\n      pop\n      pop\n      jump\t// out\n        /* \"#utility.yul\":19718:19778   */\n    tag_215:\n        /* \"#utility.yul\":19746:19749   */\n      0x00\n        /* \"#utility.yul\":19767:19772   */\n      dup2\n        /* \"#utility.yul\":19760:19772   */\n      swap1\n      pop\n        /* \"#utility.yul\":19718:19778   */\n      swap2\n      swap1\n      pop\n      jump\t// out\n        /* \"#utility.yul\":19784:19926   */\n    tag_216:\n        /* \"#utility.yul\":19834:19843   */\n      0x00\n        /* \"#utility.yul\":19867:19920   */\n      tag_410\n        /* \"#utility.yul\":19885:19919   */\n      tag_411\n        /* \"#utility.yul\":19894:19918   */\n      tag_412\n        /* \"#utility.yul\":19912:19917   */\n      dup5\n        /* \"#utility.yul\":19894:19918   */\n      tag_168\n      jump\t// in\n    tag_412:\n        /* \"#utility.yul\":19885:19919   */\n      tag_215\n      jump\t// in\n    tag_411:\n        /* \"#utility.yul\":19867:19920   */\n      tag_168\n      jump\t// in\n    tag_410:\n        /* \"#utility.yul\":19854:19920   */\n      swap1\n      pop\n        /* \"#utility.yul\":19784:19926   */\n      swap2\n      swap1\n      pop\n      jump\t// out\n        /* \"#utility.yul\":19932:20007   */\n    tag_217:\n        /* \"#utility.yul\":19975:19978   */\n      0x00\n        /* \"#utility.yul\":19996:20001   */\n      dup2\n        /* \"#utility.yul\":19989:20001   */\n      swap1\n      pop\n        /* \"#utility.yul\":19932:20007   */\n      swap2\n      swap1\n      pop\n      jump\t// out\n        /* \"#utility.yul\":20013:20282   */\n    tag_218:\n        /* \"#utility.yul\":20123:20162   */\n      tag_415\n        /* \"#utility.yul\":20154:20161   */\n      dup4\n        /* \"#utility.yul\":20123:20162   */\n      tag_216\n      jump\t// in\n    tag_415:\n        /* \"#utility.yul\":20184:20275   */\n      tag_416\n        /* \"#utility.yul\":20233:20274   */\n      tag_417\n        /* \"#utility.yul\":20257:20273   */\n      dup3\n        /* \"#utility.yul\":20233:20274   */\n      tag_217\n      jump\t// in\n    tag_417:\n        /* \"#utility.yul\":20225:20231   */\n      dup5\n        /* \"#utility.yul\":20218:20222   */\n      dup5\n        /* \"#utility.yul\":20212:20223   */\n      sload\n        /* \"#utility.yul\":20184:20275   */\n      tag_214\n      jump\t// in\n    tag_416:\n        /* \"#utility.yul\":20178:20182   */\n      dup3\n        /* \"#utility.yul\":20171:20276   */\n      sstore\n        /* \"#utility.yul\":20089:20282   */\n      pop\n        /* \"#utility.yul\":20013:20282   */\n      pop\n      pop\n      pop\n      jump\t// out\n        /* \"#utility.yul\":20288:20361   */\n    tag_219:\n        /* \"#utility.yul\":20333:20336   */\n      0x00\n        /* \"#utility.yul\":20288:20361   */\n      swap1\n      jump\t// out\n        /* \"#utility.yul\":20367:20556   */\n    tag_220:\n        /* \"#utility.yul\":20444:20476   */\n      tag_420\n      tag_219\n      jump\t// in\n    tag_420:\n        /* \"#utility.yul\":20485:20550   */\n      tag_421\n        /* \"#utility.yul\":20543:20549   */\n      dup2\n        /* \"#utility.yul\":20535:20541   */\n      dup5\n        /* \"#utility.yul\":20529:20533   */\n      dup5\n        /* \"#utility.yul\":20485:20550   */\n      tag_218\n      jump\t// in\n    tag_421:\n        /* \"#utility.yul\":20420:20556   */\n      pop\n        /* \"#utility.yul\":20367:20556   */\n      pop\n      pop\n      jump\t// out\n        /* \"#utility.yul\":20562:20748   */\n    tag_221:\n        /* \"#utility.yul\":20622:20742   */\n    tag_423:\n        /* \"#utility.yul\":20639:20642   */\n      dup2\n        /* \"#utility.yul\":20632:20637   */\n      dup2\n        /* \"#utility.yul\":20629:20643   */\n      lt\n        /* \"#utility.yul\":20622:20742   */\n      iszero\n      tag_425\n      jumpi\n        /* \"#utility.yul\":20693:20732   */\n      tag_426\n        /* \"#utility.yul\":20730:20731   */\n      0x00\n        /* \"#utility.yul\":20723:20728   */\n      dup3\n        /* \"#utility.yul\":20693:20732   */\n      tag_220\n      jump\t// in\n    tag_426:\n        /* \"#utility.yul\":20666:20667   */\n      0x01\n        /* \"#utility.yul\":20659:20664   */\n      dup2\n        /* \"#utility.yul\":20655:20668   */\n      add\n        /* \"#utility.yul\":20646:20668   */\n      swap1\n      pop\n        /* \"#utility.yul\":20622:20742   */\n      jump(tag_423)\n    tag_425:\n        /* \"#utility.yul\":20562:20748   */\n      pop\n      pop\n      jump\t// out\n        /* \"#utility.yul\":20754:21297   */\n    tag_222:\n        /* \"#utility.yul\":20855:20857   */\n      0x1f\n        /* \"#utility.yul\":20850:20853   */\n      dup3\n        /* \"#utility.yul\":20847:20858   */\n      gt\n        /* \"#utility.yul\":20844:21290   */\n      iszero\n      tag_428\n      jumpi\n        /* \"#utility.yul\":20889:20927   */\n      tag_429\n        /* \"#utility.yul\":20921:20926   */\n      dup2\n        /* \"#utility.yul\":20889:20927   */\n      tag_211\n      jump\t// in\n    tag_429:\n        /* \"#utility.yul\":20973:21002   */\n      tag_430\n        /* \"#utility.yul\":20991:21001   */\n      dup5\n        /* \"#utility.yul\":20973:21002   */\n      tag_212\n      jump\t// in\n    tag_430:\n        /* \"#utility.yul\":20963:20971   */\n      dup2\n        /* \"#utility.yul\":20959:21003   */\n      add\n        /* \"#utility.yul\":21156:21158   */\n      0x20\n        /* \"#utility.yul\":21144:21154   */\n      dup6\n        /* \"#utility.yul\":21141:21159   */\n      lt\n        /* \"#utility.yul\":21138:21187   */\n      iszero\n      tag_431\n      jumpi\n        /* \"#utility.yul\":21177:21185   */\n      dup2\n        /* \"#utility.yul\":21162:21185   */\n      swap1\n      pop\n        /* \"#utility.yul\":21138:21187   */\n    tag_431:\n        /* \"#utility.yul\":21200:21280   */\n      tag_432\n        /* \"#utility.yul\":21256:21278   */\n      tag_433\n        /* \"#utility.yul\":21274:21277   */\n      dup6\n        /* \"#utility.yul\":21256:21278   */\n      tag_212\n      jump\t// in\n    tag_433:\n        /* \"#utility.yul\":21246:21254   */\n      dup4\n        /* \"#utility.yul\":21242:21279   */\n      add\n        /* \"#utility.yul\":21229:21240   */\n      dup3\n        /* \"#utility.yul\":21200:21280   */\n      tag_221\n      jump\t// in\n    tag_432:\n        /* \"#utility.yul\":20859:21290   */\n      pop\n      pop\n        /* \"#utility.yul\":20844:21290   */\n    tag_428:\n        /* \"#utility.yul\":20754:21297   */\n      pop\n      pop\n      pop\n      jump\t// out\n        /* \"#utility.yul\":21303:21420   */\n    tag_223:\n        /* \"#utility.yul\":21357:21365   */\n      0x00\n        /* \"#utility.yul\":21407:21412   */\n      dup3\n        /* \"#utility.yul\":21401:21405   */\n      dup3\n        /* \"#utility.yul\":21397:21413   */\n      shr\n        /* \"#utility.yul\":21376:21413   */\n      swap1\n      pop\n        /* \"#utility.yul\":21303:21420   */\n      swap3\n      swap2\n      pop\n      pop\n      jump\t// out\n        /* \"#utility.yul\":21426:21595   */\n    tag_224:\n        /* \"#utility.yul\":21470:21476   */\n      0x00\n        /* \"#utility.yul\":21503:21554   */\n      tag_436\n        /* \"#utility.yul\":21551:21552   */\n      0x00\n        /* \"#utility.yul\":21547:21553   */\n      not\n        /* \"#utility.yul\":21539:21544   */\n      dup5\n        /* \"#utility.yul\":21536:21537   */\n      0x08\n        /* \"#utility.yul\":21532:21545   */\n      mul\n        /* \"#utility.yul\":21503:21554   */\n      tag_223\n      jump\t// in\n    tag_436:\n        /* \"#utility.yul\":21499:21555   */\n      not\n        /* \"#utility.yul\":21584:21588   */\n      dup1\n        /* \"#utility.yul\":21578:21582   */\n      dup4\n        /* \"#utility.yul\":21574:21589   */\n      and\n        /* \"#utility.yul\":21564:21589   */\n      swap2\n      pop\n        /* \"#utility.yul\":21477:21595   */\n      pop\n        /* \"#utility.yul\":21426:21595   */\n      swap3\n      swap2\n      pop\n      pop\n      jump\t// out\n        /* \"#utility.yul\":21600:21895   */\n    tag_225:\n        /* \"#utility.yul\":21676:21680   */\n      0x00\n        /* \"#utility.yul\":21822:21851   */\n      tag_438\n        /* \"#utility.yul\":21847:21850   */\n      dup4\n        /* \"#utility.yul\":21841:21845   */\n      dup4\n        /* \"#utility.yul\":21822:21851   */\n      tag_224\n      jump\t// in\n    tag_438:\n        /* \"#utility.yul\":21814:21851   */\n      swap2\n      pop\n        /* \"#utility.yul\":21884:21887   */\n      dup3\n        /* \"#utility.yul\":21881:21882   */\n      0x02\n        /* \"#utility.yul\":21877:21888   */\n      mul\n        /* \"#utility.yul\":21871:21875   */\n      dup3\n        /* \"#utility.yul\":21868:21889   */\n      or\n        /* \"#utility.yul\":21860:21889   */\n      swap1\n      pop\n        /* \"#utility.yul\":21600:21895   */\n      swap3\n      swap2\n      pop\n      pop\n      jump\t// out\n        /* \"#utility.yul\":21900:23295   */\n    tag_131:\n        /* \"#utility.yul\":22017:22054   */\n      tag_440\n        /* \"#utility.yul\":22050:22053   */\n      dup3\n        /* \"#utility.yul\":22017:22054   */\n      tag_173\n      jump\t// in\n    tag_440:\n        /* \"#utility.yul\":22119:22137   */\n      0xffffffffffffffff\n        /* \"#utility.yul\":22111:22117   */\n      dup2\n        /* \"#utility.yul\":22108:22138   */\n      gt\n        /* \"#utility.yul\":22105:22161   */\n      iszero\n      tag_441\n      jumpi\n        /* \"#utility.yul\":22141:22159   */\n      tag_442\n      tag_195\n      jump\t// in\n    tag_442:\n        /* \"#utility.yul\":22105:22161   */\n    tag_441:\n        /* \"#utility.yul\":22185:22223   */\n      tag_443\n        /* \"#utility.yul\":22217:22221   */\n      dup3\n        /* \"#utility.yul\":22211:22222   */\n      sload\n        /* \"#utility.yul\":22185:22223   */\n      tag_63\n      jump\t// in\n    tag_443:\n        /* \"#utility.yul\":22270:22337   */\n      tag_444\n        /* \"#utility.yul\":22330:22336   */\n      dup3\n        /* \"#utility.yul\":22322:22328   */\n      dup3\n        /* \"#utility.yul\":22316:22320   */\n      dup6\n        /* \"#utility.yul\":22270:22337   */\n      tag_222\n      jump\t// in\n    tag_444:\n        /* \"#utility.yul\":22364:22365   */\n      0x00\n        /* \"#utility.yul\":22388:22392   */\n      0x20\n        /* \"#utility.yul\":22375:22392   */\n      swap1\n      pop\n        /* \"#utility.yul\":22420:22422   */\n      0x1f\n        /* \"#utility.yul\":22412:22418   */\n      dup4\n        /* \"#utility.yul\":22409:22423   */\n      gt\n        /* \"#utility.yul\":22437:22438   */\n      0x01\n        /* \"#utility.yul\":22432:23050   */\n      dup2\n      eq\n      tag_446\n      jumpi\n        /* \"#utility.yul\":23094:23095   */\n      0x00\n        /* \"#utility.yul\":23111:23117   */\n      dup5\n        /* \"#utility.yul\":23108:23185   */\n      iszero\n      tag_447\n      jumpi\n        /* \"#utility.yul\":23160:23169   */\n      dup3\n        /* \"#utility.yul\":23155:23158   */\n      dup8\n        /* \"#utility.yul\":23151:23170   */\n      add\n        /* \"#utility.yul\":23145:23171   */\n      mload\n        /* \"#utility.yul\":23136:23171   */\n      swap1\n      pop\n        /* \"#utility.yul\":23108:23185   */\n    tag_447:\n        /* \"#utility.yul\":23211:23278   */\n      tag_448\n        /* \"#utility.yul\":23271:23277   */\n      dup6\n        /* \"#utility.yul\":23264:23269   */\n      dup3\n        /* \"#utility.yul\":23211:23278   */\n      tag_225\n      jump\t// in\n    tag_448:\n        /* \"#utility.yul\":23205:23209   */\n      dup7\n        /* \"#utility.yul\":23198:23279   */\n      sstore\n        /* \"#utility.yul\":23067:23289   */\n      pop\n        /* \"#utility.yul\":22402:23289   */\n      jump(tag_445)\n        /* \"#utility.yul\":22432:23050   */\n    tag_446:\n        /* \"#utility.yul\":22484:22488   */\n      0x1f\n        /* \"#utility.yul\":22480:22489   */\n      not\n        /* \"#utility.yul\":22472:22478   */\n      dup5\n        /* \"#utility.yul\":22468:22490   */\n      and\n        /* \"#utility.yul\":22518:22555   */\n      tag_449\n        /* \"#utility.yul\":22550:22554   */\n      dup7\n        /* \"#utility.yul\":22518:22555   */\n      tag_211\n      jump\t// in\n    tag_449:\n        /* \"#utility.yul\":22577:22578   */\n      0x00\n        /* \"#utility.yul\":22591:22799   */\n    tag_450:\n        /* \"#utility.yul\":22605:22612   */\n      dup3\n        /* \"#utility.yul\":22602:22603   */\n      dup2\n        /* \"#utility.yul\":22599:22613   */\n      lt\n        /* \"#utility.yul\":22591:22799   */\n      iszero\n      tag_452\n      jumpi\n        /* \"#utility.yul\":22684:22693   */\n      dup5\n        /* \"#utility.yul\":22679:22682   */\n      dup10\n        /* \"#utility.yul\":22675:22694   */\n      add\n        /* \"#utility.yul\":22669:22695   */\n      mload\n        /* \"#utility.yul\":22661:22667   */\n      dup3\n        /* \"#utility.yul\":22654:22696   */\n      sstore\n        /* \"#utility.yul\":22735:22736   */\n      0x01\n        /* \"#utility.yul\":22727:22733   */\n      dup3\n        /* \"#utility.yul\":22723:22737   */\n      add\n        /* \"#utility.yul\":22713:22737   */\n      swap2\n      pop\n        /* \"#utility.yul\":22782:22784   */\n      0x20\n        /* \"#utility.yul\":22771:22780   */\n      dup6\n        /* \"#utility.yul\":22767:22785   */\n      add\n        /* \"#utility.yul\":22754:22785   */\n      swap5\n      pop\n        /* \"#utility.yul\":22628:22632   */\n      0x20\n        /* \"#utility.yul\":22625:22626   */\n      dup2\n        /* \"#utility.yul\":22621:22633   */\n      add\n        /* \"#utility.yul\":22616:22633   */\n      swap1\n      pop\n        /* \"#utility.yul\":22591:22799   */\n      jump(tag_450)\n    tag_452:\n        /* \"#utility.yul\":22827:22833   */\n      dup7\n        /* \"#utility.yul\":22818:22825   */\n      dup4\n        /* \"#utility.yul\":22815:22834   */\n      lt\n        /* \"#utility.yul\":22812:22991   */\n      iszero\n      tag_453\n      jumpi\n        /* \"#utility.yul\":22885:22894   */\n      dup5\n        /* \"#utility.yul\":22880:22883   */\n      dup10\n        /* \"#utility.yul\":22876:22895   */\n      add\n        /* \"#utility.yul\":22870:22896   */\n      mload\n        /* \"#utility.yul\":22928:22976   */\n      tag_454\n        /* \"#utility.yul\":22970:22974   */\n      0x1f\n        /* \"#utility.yul\":22962:22968   */\n      dup10\n        /* \"#utility.yul\":22958:22975   */\n      and\n        /* \"#utility.yul\":22947:22956   */\n      dup3\n        /* \"#utility.yul\":22928:22976   */\n      tag_224\n      jump\t// in\n    tag_454:\n        /* \"#utility.yul\":22920:22926   */\n      dup4\n        /* \"#utility.yul\":22913:22977   */\n      sstore\n        /* \"#utility.yul\":22835:22991   */\n      pop\n        /* \"#utility.yul\":22812:22991   */\n    tag_453:\n        /* \"#utility.yul\":23037:23038   */\n      0x01\n        /* \"#utility.yul\":23033:23034   */\n      0x02\n        /* \"#utility.yul\":23025:23031   */\n      dup9\n        /* \"#utility.yul\":23021:23035   */\n      mul\n        /* \"#utility.yul\":23017:23039   */\n      add\n        /* \"#utility.yul\":23011:23015   */\n      dup9\n        /* \"#utility.yul\":23004:23040   */\n      sstore\n        /* \"#utility.yul\":22439:23050   */\n      pop\n      pop\n      pop\n        /* \"#utility.yul\":22402:23289   */\n    tag_445:\n      pop\n        /* \"#utility.yul\":21992:23295   */\n      pop\n      pop\n      pop\n        /* \"#utility.yul\":21900:23295   */\n      pop\n      pop\n      jump\t// out\n        /* \"#utility.yul\":23301:23945   */\n    tag_133:\n        /* \"#utility.yul\":23498:23502   */\n      0x00\n        /* \"#utility.yul\":23536:23539   */\n      0x80\n        /* \"#utility.yul\":23525:23534   */\n      dup3\n        /* \"#utility.yul\":23521:23540   */\n      add\n        /* \"#utility.yul\":23513:23540   */\n      swap1\n      pop\n        /* \"#utility.yul\":23550:23621   */\n      tag_456\n        /* \"#utility.yul\":23618:23619   */\n      0x00\n        /* \"#utility.yul\":23607:23616   */\n      dup4\n        /* \"#utility.yul\":23603:23620   */\n      add\n        /* \"#utility.yul\":23594:23600   */\n      dup8\n        /* \"#utility.yul\":23550:23621   */\n      tag_171\n      jump\t// in\n    tag_456:\n        /* \"#utility.yul\":23631:23703   */\n      tag_457\n        /* \"#utility.yul\":23699:23701   */\n      0x20\n        /* \"#utility.yul\":23688:23697   */\n      dup4\n        /* \"#utility.yul\":23684:23702   */\n      add\n        /* \"#utility.yul\":23675:23681   */\n      dup7\n        /* \"#utility.yul\":23631:23703   */\n      tag_172\n      jump\t// in\n    tag_457:\n        /* \"#utility.yul\":23750:23759   */\n      dup2\n        /* \"#utility.yul\":23744:23748   */\n      dup2\n        /* \"#utility.yul\":23740:23760   */\n      sub\n        /* \"#utility.yul\":23735:23737   */\n      0x40\n        /* \"#utility.yul\":23724:23733   */\n      dup4\n        /* \"#utility.yul\":23720:23738   */\n      add\n        /* \"#utility.yul\":23713:23761   */\n      mstore\n        /* \"#utility.yul\":23778:23856   */\n      tag_458\n        /* \"#utility.yul\":23851:23855   */\n      dup2\n        /* \"#utility.yul\":23842:23848   */\n      dup6\n        /* \"#utility.yul\":23778:23856   */\n      tag_177\n      jump\t// in\n    tag_458:\n        /* \"#utility.yul\":23770:23856   */\n      swap1\n      pop\n        /* \"#utility.yul\":23866:23938   */\n      tag_459\n        /* \"#utility.yul\":23934:23936   */\n      0x60\n        /* \"#utility.yul\":23923:23932   */\n      dup4\n        /* \"#utility.yul\":23919:23937   */\n      add\n        /* \"#utility.yul\":23910:23916   */\n      dup5\n        /* \"#utility.yul\":23866:23938   */\n      tag_171\n      jump\t// in\n    tag_459:\n        /* \"#utility.yul\":23301:23945   */\n      swap6\n      swap5\n      pop\n      pop\n      pop\n      pop\n      pop\n      jump\t// out\n\n    auxdata: 0xa2646970667358221220726199b013b8f03fd079461d03c6bca164c652253c22295aeb101b6911d537eb64736f6c63430008190033\n}\n",
				"bytecode": {
					"linkReferences": {},
					"object": "60806040526101185f60146101000a81548161ffff021916908361ffff16021790555034801561002d575f80fd5b50335f73ffffffffffffffffffffffffffffffffffffffff168173ffffffffffffffffffffffffffffffffffffffff160361009f575f6040517f1e4fbdf700000000000000000000000000000000000000000000000000000000815260040161009691906101b4565b60405180910390fd5b6100ae816100b460201b60201c565b506101cd565b5f805f9054906101000a900473ffffffffffffffffffffffffffffffffffffffff169050815f806101000a81548173ffffffffffffffffffffffffffffffffffffffff021916908373ffffffffffffffffffffffffffffffffffffffff1602179055508173ffffffffffffffffffffffffffffffffffffffff168173ffffffffffffffffffffffffffffffffffffffff167f8be0079c531659141344cd1fd0a4f28419497f9722a3daafe3b4186f6b6457e060405160405180910390a35050565b5f73ffffffffffffffffffffffffffffffffffffffff82169050919050565b5f61019e82610175565b9050919050565b6101ae81610194565b82525050565b5f6020820190506101c75f8301846101a5565b92915050565b611aa4806101da5f395ff3fe608060405234801561000f575f80fd5b50600436106100a7575f3560e01c80636eb107971161006f5780636eb1079714610163578063715018a6146101815780637c9cd2bc1461018b5780638da5cb5b146101a7578063c3ad5ecb146101c5578063f2fde38b146101f5576100a7565b806305a1b4a9146100ab57806312e7ee1c146100df5780633d9b569f1461010f57806358bfa4ab1461012b5780636337821614610147575b5f80fd5b6100c560048036038101906100c09190610f41565b610211565b6040516100d695949392919061100d565b60405180910390f35b6100f960048036038101906100f49190611065565b610302565b6040516101069190611224565b60405180910390f35b61012960048036038101906101249190610f41565b61049d565b005b6101456004803603810190610140919061127b565b6106ee565b005b610161600480360381019061015c9190610f41565b610715565b005b61016b6108c6565b60405161017891906112b5565b60405180910390f35b6101896108d9565b005b6101a560048036038101906101a091906113fa565b6108ec565b005b6101af610af1565b6040516101bc9190611441565b60405180910390f35b6101df60048036038101906101da919061145a565b610b18565b6040516101ec91906114f8565b60405180910390f35b61020f600480360381019061020a9190611065565b610c8f565b005b6001602052815f5260405f20818154811061022a575f80fd5b905f5260205f2090600502015f9150915050805f015490806001015f9054906101000a900473ffffffffffffffffffffffffffffffffffffffff169080600201805461027590611545565b80601f01602080910402602001604051908101604052809291908181526020018280546102a190611545565b80156102ec5780601f106102c3576101008083540402835291602001916102ec565b820191905f5260205f20905b8154815290600101906020018083116102cf57829003601f168201915b5050505050908060030154908060040154905085565b606060015f8373ffffffffffffffffffffffffffffffffffffffff1673ffffffffffffffffffffffffffffffffffffffff1681526020019081526020015f20805480602002602001604051908101604052809291908181526020015f905b82821015610492578382905f5260205f2090600502016040518060a00160405290815f8201548152602001600182015f9054906101000a900473ffffffffffffffffffffffffffffffffffffffff1673ffffffffffffffffffffffffffffffffffffffff1673ffffffffffffffffffffffffffffffffffffffff1681526020016002820180546103ef90611545565b80601f016020809104026020016040519081016040528092919081815260200182805461041b90611545565b80156104665780601f1061043d57610100808354040283529160200191610466565b820191905f5260205f20905b81548152906001019060200180831161044957829003601f168201915b505050505081526020016003820154815260200160048201548152505081526020019060010190610360565b505050509050919050565b8060015f8473ffffffffffffffffffffffffffffffffffffffff1673ffffffffffffffffffffffffffffffffffffffff1681526020019081526020015f2082815481106104ed576104ec611575565b5b905f5260205f2090600502015f01541461053c576040517f08c379a0000000000000000000000000000000000000000000000000000000008152600401610533906115ec565b60405180910390fd5b5f60015f8473ffffffffffffffffffffffffffffffffffffffff1673ffffffffffffffffffffffffffffffffffffffff1681526020019081526020015f20828154811061058c5761058b611575565b5b905f5260205f20906005020160040154116105dc576040517f08c379a00000000000000000000000000000000000000000000000000000000081526004016105d390611654565b60405180910390fd5b60015f8373ffffffffffffffffffffffffffffffffffffffff1673ffffffffffffffffffffffffffffffffffffffff1681526020019081526020015f20818154811061062b5761062a611575565b5b905f5260205f2090600502016004015f81548092919061064a9061169f565b91905055507f762c2616349603ac16eba0de8e6141b79129a07ab63bd99e0a80b3a47171694333838360015f8773ffffffffffffffffffffffffffffffffffffffff1673ffffffffffffffffffffffffffffffffffffffff1681526020019081526020015f2085815481106106c2576106c1611575565b5b905f5260205f209060050201600401546040516106e294939291906116c6565b60405180910390a15050565b6106f6610d13565b805f60146101000a81548161ffff021916908361ffff16021790555050565b8060015f8473ffffffffffffffffffffffffffffffffffffffff1673ffffffffffffffffffffffffffffffffffffffff1681526020019081526020015f20828154811061076557610764611575565b5b905f5260205f2090600502015f0154146107b4576040517f08c379a00000000000000000000000000000000000000000000000000000000081526004016107ab906115ec565b60405180910390fd5b60015f8373ffffffffffffffffffffffffffffffffffffffff1673ffffffffffffffffffffffffffffffffffffffff1681526020019081526020015f20818154811061080357610802611575565b5b905f5260205f2090600502016004015f81548092919061082290611709565b91905055507fe8a76fc0f16d11a00d1e93b689b63d76cf60af914dd3d915375dc41d01a0c3c833838360015f8773ffffffffffffffffffffffffffffffffffffffff1673ffffffffffffffffffffffffffffffffffffffff1681526020019081526020015f20858154811061089a57610899611575565b5b905f5260205f209060050201600401546040516108ba94939291906116c6565b60405180910390a15050565b5f60149054906101000a900461ffff1681565b6108e1610d13565b6108ea5f610d9a565b565b5f60149054906101000a900461ffff1661ffff1681511115610943576040517f08c379a000000000000000000000000000000000000000000000000000000000815260040161093a9061179a565b60405180910390fd5b5f6040518060a0016040528060015f3373ffffffffffffffffffffffffffffffffffffffff1673ffffffffffffffffffffffffffffffffffffffff1681526020019081526020015f208054905081526020013373ffffffffffffffffffffffffffffffffffffffff1681526020018381526020014281526020015f815250905060015f3373ffffffffffffffffffffffffffffffffffffffff1673ffffffffffffffffffffffffffffffffffffffff1681526020019081526020015f2081908060018154018082558091505060019003905f5260205f2090600502015f909190919091505f820151815f01556020820151816001015f6101000a81548173ffffffffffffffffffffffffffffffffffffffff021916908373ffffffffffffffffffffffffffffffffffffffff1602179055506040820151816002019081610a8a9190611955565b50606082015181600301556080820151816004015550507f16fd3c13e9d46923e0a8bce11c7b473ec508a72e6c96cd2404b29ce972afc29e815f0151826020015183604001518460600151604051610ae59493929190611a24565b60405180910390a15050565b5f805f9054906101000a900473ffffffffffffffffffffffffffffffffffffffff16905090565b610b20610e62565b60015f3373ffffffffffffffffffffffffffffffffffffffff1673ffffffffffffffffffffffffffffffffffffffff1681526020019081526020015f208281548110610b6f57610b6e611575565b5b905f5260205f2090600502016040518060a00160405290815f8201548152602001600182015f9054906101000a900473ffffffffffffffffffffffffffffffffffffffff1673ffffffffffffffffffffffffffffffffffffffff1673ffffffffffffffffffffffffffffffffffffffff168152602001600282018054610bf490611545565b80601f0160208091040260200160405190810160405280929190818152602001828054610c2090611545565b8015610c6b5780601f10610c4257610100808354040283529160200191610c6b565b820191905f5260205f20905b815481529060010190602001808311610c4e57829003601f168201915b50505050508152602001600382015481526020016004820154815250509050919050565b610c97610d13565b5f73ffffffffffffffffffffffffffffffffffffffff168173ffffffffffffffffffffffffffffffffffffffff1603610d07575f6040517f1e4fbdf7000000000000000000000000000000000000000000000000000000008152600401610cfe9190611441565b60405180910390fd5b610d1081610d9a565b50565b610d1b610e5b565b73ffffffffffffffffffffffffffffffffffffffff16610d39610af1565b73ffffffffffffffffffffffffffffffffffffffff1614610d9857610d5c610e5b565b6040517f118cdaa7000000000000000000000000000000000000000000000000000000008152600401610d8f9190611441565b60405180910390fd5b565b5f805f9054906101000a900473ffffffffffffffffffffffffffffffffffffffff169050815f806101000a81548173ffffffffffffffffffffffffffffffffffffffff021916908373ffffffffffffffffffffffffffffffffffffffff1602179055508173ffffffffffffffffffffffffffffffffffffffff168173ffffffffffffffffffffffffffffffffffffffff167f8be0079c531659141344cd1fd0a4f28419497f9722a3daafe3b4186f6b6457e060405160405180910390a35050565b5f33905090565b6040518060a001604052805f81526020015f73ffffffffffffffffffffffffffffffffffffffff168152602001606081526020015f81526020015f81525090565b5f604051905090565b5f80fd5b5f80fd5b5f73ffffffffffffffffffffffffffffffffffffffff82169050919050565b5f610edd82610eb4565b9050919050565b610eed81610ed3565b8114610ef7575f80fd5b50565b5f81359050610f0881610ee4565b92915050565b5f819050919050565b610f2081610f0e565b8114610f2a575f80fd5b50565b5f81359050610f3b81610f17565b92915050565b5f8060408385031215610f5757610f56610eac565b5b5f610f6485828601610efa565b9250506020610f7585828601610f2d565b9150509250929050565b610f8881610f0e565b82525050565b610f9781610ed3565b82525050565b5f81519050919050565b5f82825260208201905092915050565b8281835e5f83830152505050565b5f601f19601f8301169050919050565b5f610fdf82610f9d565b610fe98185610fa7565b9350610ff9818560208601610fb7565b61100281610fc5565b840191505092915050565b5f60a0820190506110205f830188610f7f565b61102d6020830187610f8e565b818103604083015261103f8186610fd5565b905061104e6060830185610f7f565b61105b6080830184610f7f565b9695505050505050565b5f6020828403121561107a57611079610eac565b5b5f61108784828501610efa565b91505092915050565b5f81519050919050565b5f82825260208201905092915050565b5f819050602082019050919050565b6110c281610f0e565b82525050565b6110d181610ed3565b82525050565b5f82825260208201905092915050565b5f6110f182610f9d565b6110fb81856110d7565b935061110b818560208601610fb7565b61111481610fc5565b840191505092915050565b5f60a083015f8301516111345f8601826110b9565b50602083015161114760208601826110c8565b506040830151848203604086015261115f82826110e7565b915050606083015161117460608601826110b9565b50608083015161118760808601826110b9565b508091505092915050565b5f61119d838361111f565b905092915050565b5f602082019050919050565b5f6111bb82611090565b6111c5818561109a565b9350836020820285016111d7856110aa565b805f5b8581101561121257848403895281516111f38582611192565b94506111fe836111a5565b925060208a019950506001810190506111da565b50829750879550505050505092915050565b5f6020820190508181035f83015261123c81846111b1565b905092915050565b5f61ffff82169050919050565b61125a81611244565b8114611264575f80fd5b50565b5f8135905061127581611251565b92915050565b5f602082840312156112905761128f610eac565b5b5f61129d84828501611267565b91505092915050565b6112af81611244565b82525050565b5f6020820190506112c85f8301846112a6565b92915050565b5f80fd5b5f80fd5b7f4e487b71000000000000000000000000000000000000000000000000000000005f52604160045260245ffd5b61130c82610fc5565b810181811067ffffffffffffffff8211171561132b5761132a6112d6565b5b80604052505050565b5f61133d610ea3565b90506113498282611303565b919050565b5f67ffffffffffffffff821115611368576113676112d6565b5b61137182610fc5565b9050602081019050919050565b828183375f83830152505050565b5f61139e6113998461134e565b611334565b9050828152602081018484840111156113ba576113b96112d2565b5b6113c584828561137e565b509392505050565b5f82601f8301126113e1576113e06112ce565b5b81356113f184826020860161138c565b91505092915050565b5f6020828403121561140f5761140e610eac565b5b5f82013567ffffffffffffffff81111561142c5761142b610eb0565b5b611438848285016113cd565b91505092915050565b5f6020820190506114545f830184610f8e565b92915050565b5f6020828403121561146f5761146e610eac565b5b5f61147c84828501610f2d565b91505092915050565b5f60a083015f83015161149a5f8601826110b9565b5060208301516114ad60208601826110c8565b50604083015184820360408601526114c582826110e7565b91505060608301516114da60608601826110b9565b5060808301516114ed60808601826110b9565b508091505092915050565b5f6020820190508181035f8301526115108184611485565b905092915050565b7f4e487b71000000000000000000000000000000000000000000000000000000005f52602260045260245ffd5b5f600282049050600182168061155c57607f821691505b60208210810361156f5761156e611518565b5b50919050565b7f4e487b71000000000000000000000000000000000000000000000000000000005f52603260045260245ffd5b7f545745455420444f4553204e4f542045584953540000000000000000000000005f82015250565b5f6115d6601483610fa7565b91506115e1826115a2565b602082019050919050565b5f6020820190508181035f830152611603816115ca565b9050919050565b7f545745455420484153204e4f204c494b455300000000000000000000000000005f82015250565b5f61163e601283610fa7565b91506116498261160a565b602082019050919050565b5f6020820190508181035f83015261166b81611632565b9050919050565b7f4e487b71000000000000000000000000000000000000000000000000000000005f52601160045260245ffd5b5f6116a982610f0e565b91505f82036116bb576116ba611672565b5b600182039050919050565b5f6080820190506116d95f830187610f8e565b6116e66020830186610f8e565b6116f36040830185610f7f565b6117006060830184610f7f565b95945050505050565b5f61171382610f0e565b91507fffffffffffffffffffffffffffffffffffffffffffffffffffffffffffffffff820361174557611744611672565b5b600182019050919050565b7f547765657420697320746f6f206c6f6e672062726f21000000000000000000005f82015250565b5f611784601683610fa7565b915061178f82611750565b602082019050919050565b5f6020820190508181035f8301526117b181611778565b9050919050565b5f819050815f5260205f209050919050565b5f6020601f8301049050919050565b5f82821b905092915050565b5f600883026118147fffffffffffffffffffffffffffffffffffffffffffffffffffffffffffffffff826117d9565b61181e86836117d9565b95508019841693508086168417925050509392505050565b5f819050919050565b5f61185961185461184f84610f0e565b611836565b610f0e565b9050919050565b5f819050919050565b6118728361183f565b61188661187e82611860565b8484546117e5565b825550505050565b5f90565b61189a61188e565b6118a5818484611869565b505050565b5b818110156118c8576118bd5f82611892565b6001810190506118ab565b5050565b601f82111561190d576118de816117b8565b6118e7846117ca565b810160208510156118f6578190505b61190a611902856117ca565b8301826118aa565b50505b505050565b5f82821c905092915050565b5f61192d5f1984600802611912565b1980831691505092915050565b5f611945838361191e565b9150826002028217905092915050565b61195e82610f9d565b67ffffffffffffffff811115611977576119766112d6565b5b6119818254611545565b61198c8282856118cc565b5f60209050601f8311600181146119bd575f84156119ab578287015190505b6119b5858261193a565b865550611a1c565b601f1984166119cb866117b8565b5f5b828110156119f2578489015182556001820191506020850194506020810190506119cd565b86831015611a0f5784890151611a0b601f89168261191e565b8355505b6001600288020188555050505b505050505050565b5f608082019050611a375f830187610f7f565b611a446020830186610f8e565b8181036040830152611a568185610fd5565b9050611a656060830184610f7f565b9594505050505056fea2646970667358221220726199b013b8f03fd079461d03c6bca164c652253c22295aeb101b6911d537eb64736f6c63430008190033",
					"opcodes": "PUSH1 0x80 PUSH1 0x40 MSTORE PUSH2 0x118 PUSH0 PUSH1 0x14 PUSH2 0x100 EXP DUP2 SLOAD DUP2 PUSH2 0xFFFF MUL NOT AND SWAP1 DUP4 PUSH2 0xFFFF AND MUL OR SWAP1 SSTORE POP CALLVALUE DUP1 ISZERO PUSH2 0x2D JUMPI PUSH0 DUP1 REVERT JUMPDEST POP CALLER PUSH0 PUSH20 0xFFFFFFFFFFFFFFFFFFFFFFFFFFFFFFFFFFFFFFFF AND DUP2 PUSH20 0xFFFFFFFFFFFFFFFFFFFFFFFFFFFFFFFFFFFFFFFF AND SUB PUSH2 0x9F JUMPI PUSH0 PUSH1 0x40 MLOAD PUSH32 0x1E4FBDF700000000000000000000000000000000000000000000000000000000 DUP2 MSTORE PUSH1 0x4 ADD PUSH2 0x96 SWAP2 SWAP1 PUSH2 0x1B4 JUMP JUMPDEST PUSH1 0x40 MLOAD DUP1 SWAP2 SUB SWAP1 REVERT JUMPDEST PUSH2 0xAE DUP2 PUSH2 0xB4 PUSH1 0x20 SHL PUSH1 0x20 SHR JUMP JUMPDEST POP PUSH2 0x1CD JUMP JUMPDEST PUSH0 DUP1 PUSH0 SWAP1 SLOAD SWAP1 PUSH2 0x100 EXP SWAP1 DIV PUSH20 0xFFFFFFFFFFFFFFFFFFFFFFFFFFFFFFFFFFFFFFFF AND SWAP1 POP DUP2 PUSH0 DUP1 PUSH2 0x100 EXP DUP2 SLOAD DUP2 PUSH20 0xFFFFFFFFFFFFFFFFFFFFFFFFFFFFFFFFFFFFFFFF MUL NOT AND SWAP1 DUP4 PUSH20 0xFFFFFFFFFFFFFFFFFFFFFFFFFFFFFFFFFFFFFFFF AND MUL OR SWAP1 SSTORE POP DUP2 PUSH20 0xFFFFFFFFFFFFFFFFFFFFFFFFFFFFFFFFFFFFFFFF AND DUP2 PUSH20 0xFFFFFFFFFFFFFFFFFFFFFFFFFFFFFFFFFFFFFFFF AND PUSH32 0x8BE0079C531659141344CD1FD0A4F28419497F9722A3DAAFE3B4186F6B6457E0 PUSH1 0x40 MLOAD PUSH1 0x40 MLOAD DUP1 SWAP2 SUB SWAP1 LOG3 POP POP JUMP JUMPDEST PUSH0 PUSH20 0xFFFFFFFFFFFFFFFFFFFFFFFFFFFFFFFFFFFFFFFF DUP3 AND SWAP1 POP SWAP2 SWAP1 POP JUMP JUMPDEST PUSH0 PUSH2 0x19E DUP3 PUSH2 0x175 JUMP JUMPDEST SWAP1 POP SWAP2 SWAP1 POP JUMP JUMPDEST PUSH2 0x1AE DUP2 PUSH2 0x194 JUMP JUMPDEST DUP3 MSTORE POP POP JUMP JUMPDEST PUSH0 PUSH1 0x20 DUP3 ADD SWAP1 POP PUSH2 0x1C7 PUSH0 DUP4 ADD DUP5 PUSH2 0x1A5 JUMP JUMPDEST SWAP3 SWAP2 POP POP JUMP JUMPDEST PUSH2 0x1AA4 DUP1 PUSH2 0x1DA PUSH0 CODECOPY PUSH0 RETURN INVALID PUSH1 0x80 PUSH1 0x40 MSTORE CALLVALUE DUP1 ISZERO PUSH2 0xF JUMPI PUSH0 DUP1 REVERT JUMPDEST POP PUSH1 0x4 CALLDATASIZE LT PUSH2 0xA7 JUMPI PUSH0 CALLDATALOAD PUSH1 0xE0 SHR DUP1 PUSH4 0x6EB10797 GT PUSH2 0x6F JUMPI DUP1 PUSH4 0x6EB10797 EQ PUSH2 0x163 JUMPI DUP1 PUSH4 0x715018A6 EQ PUSH2 0x181 JUMPI DUP1 PUSH4 0x7C9CD2BC EQ PUSH2 0x18B JUMPI DUP1 PUSH4 0x8DA5CB5B EQ PUSH2 0x1A7 JUMPI DUP1 PUSH4 0xC3AD5ECB EQ PUSH2 0x1C5 JUMPI DUP1 PUSH4 0xF2FDE38B EQ PUSH2 0x1F5 JUMPI PUSH2 0xA7 JUMP JUMPDEST DUP1 PUSH4 0x5A1B4A9 EQ PUSH2 0xAB JUMPI DUP1 PUSH4 0x12E7EE1C EQ PUSH2 0xDF JUMPI DUP1 PUSH4 0x3D9B569F EQ PUSH2 0x10F JUMPI DUP1 PUSH4 0x58BFA4AB EQ PUSH2 0x12B JUMPI DUP1 PUSH4 0x63378216 EQ PUSH2 0x147 JUMPI JUMPDEST PUSH0 DUP1 REVERT JUMPDEST PUSH2 0xC5 PUSH1 0x4 DUP1 CALLDATASIZE SUB DUP2 ADD SWAP1 PUSH2 0xC0 SWAP2 SWAP1 PUSH2 0xF41 JUMP JUMPDEST PUSH2 0x211 JUMP JUMPDEST PUSH1 0x40 MLOAD PUSH2 0xD6 SWAP6 SWAP5 SWAP4 SWAP3 SWAP2 SWAP1 PUSH2 0x100D JUMP JUMPDEST PUSH1 0x40 MLOAD DUP1 SWAP2 SUB SWAP1 RETURN JUMPDEST PUSH2 0xF9 PUSH1 0x4 DUP1 CALLDATASIZE SUB DUP2 ADD SWAP1 PUSH2 0xF4 SWAP2 SWAP1 PUSH2 0x1065 JUMP JUMPDEST PUSH2 0x302 JUMP JUMPDEST PUSH1 0x40 MLOAD PUSH2 0x106 SWAP2 SWAP1 PUSH2 0x1224 JUMP JUMPDEST PUSH1 0x40 MLOAD DUP1 SWAP2 SUB SWAP1 RETURN JUMPDEST PUSH2 0x129 PUSH1 0x4 DUP1 CALLDATASIZE SUB DUP2 ADD SWAP1 PUSH2 0x124 SWAP2 SWAP1 PUSH2 0xF41 JUMP JUMPDEST PUSH2 0x49D JUMP JUMPDEST STOP JUMPDEST PUSH2 0x145 PUSH1 0x4 DUP1 CALLDATASIZE SUB DUP2 ADD SWAP1 PUSH2 0x140 SWAP2 SWAP1 PUSH2 0x127B JUMP JUMPDEST PUSH2 0x6EE JUMP JUMPDEST STOP JUMPDEST PUSH2 0x161 PUSH1 0x4 DUP1 CALLDATASIZE SUB DUP2 ADD SWAP1 PUSH2 0x15C SWAP2 SWAP1 PUSH2 0xF41 JUMP JUMPDEST PUSH2 0x715 JUMP JUMPDEST STOP JUMPDEST PUSH2 0x16B PUSH2 0x8C6 JUMP JUMPDEST PUSH1 0x40 MLOAD PUSH2 0x178 SWAP2 SWAP1 PUSH2 0x12B5 JUMP JUMPDEST PUSH1 0x40 MLOAD DUP1 SWAP2 SUB SWAP1 RETURN JUMPDEST PUSH2 0x189 PUSH2 0x8D9 JUMP JUMPDEST STOP JUMPDEST PUSH2 0x1A5 PUSH1 0x4 DUP1 CALLDATASIZE SUB DUP2 ADD SWAP1 PUSH2 0x1A0 SWAP2 SWAP1 PUSH2 0x13FA JUMP JUMPDEST PUSH2 0x8EC JUMP JUMPDEST STOP JUMPDEST PUSH2 0x1AF PUSH2 0xAF1 JUMP JUMPDEST PUSH1 0x40 MLOAD PUSH2 0x1BC SWAP2 SWAP1 PUSH2 0x1441 JUMP JUMPDEST PUSH1 0x40 MLOAD DUP1 SWAP2 SUB SWAP1 RETURN JUMPDEST PUSH2 0x1DF PUSH1 0x4 DUP1 CALLDATASIZE SUB DUP2 ADD SWAP1 PUSH2 0x1DA SWAP2 SWAP1 PUSH2 0x145A JUMP JUMPDEST PUSH2 0xB18 JUMP JUMPDEST PUSH1 0x40 MLOAD PUSH2 0x1EC SWAP2 SWAP1 PUSH2 0x14F8 JUMP JUMPDEST PUSH1 0x40 MLOAD DUP1 SWAP2 SUB SWAP1 RETURN JUMPDEST PUSH2 0x20F PUSH1 0x4 DUP1 CALLDATASIZE SUB DUP2 ADD SWAP1 PUSH2 0x20A SWAP2 SWAP1 PUSH2 0x1065 JUMP JUMPDEST PUSH2 0xC8F JUMP JUMPDEST STOP JUMPDEST PUSH1 0x1 PUSH1 0x20 MSTORE DUP2 PUSH0 MSTORE PUSH1 0x40 PUSH0 KECCAK256 DUP2 DUP2 SLOAD DUP2 LT PUSH2 0x22A JUMPI PUSH0 DUP1 REVERT JUMPDEST SWAP1 PUSH0 MSTORE PUSH1 0x20 PUSH0 KECCAK256 SWAP1 PUSH1 0x5 MUL ADD PUSH0 SWAP2 POP SWAP2 POP POP DUP1 PUSH0 ADD SLOAD SWAP1 DUP1 PUSH1 0x1 ADD PUSH0 SWAP1 SLOAD SWAP1 PUSH2 0x100 EXP SWAP1 DIV PUSH20 0xFFFFFFFFFFFFFFFFFFFFFFFFFFFFFFFFFFFFFFFF AND SWAP1 DUP1 PUSH1 0x2 ADD DUP1 SLOAD PUSH2 0x275 SWAP1 PUSH2 0x1545 JUMP JUMPDEST DUP1 PUSH1 0x1F ADD PUSH1 0x20 DUP1 SWAP2 DIV MUL PUSH1 0x20 ADD PUSH1 0x40 MLOAD SWAP1 DUP2 ADD PUSH1 0x40 MSTORE DUP1 SWAP3 SWAP2 SWAP1 DUP2 DUP2 MSTORE PUSH1 0x20 ADD DUP3 DUP1 SLOAD PUSH2 0x2A1 SWAP1 PUSH2 0x1545 JUMP JUMPDEST DUP1 ISZERO PUSH2 0x2EC JUMPI DUP1 PUSH1 0x1F LT PUSH2 0x2C3 JUMPI PUSH2 0x100 DUP1 DUP4 SLOAD DIV MUL DUP4 MSTORE SWAP2 PUSH1 0x20 ADD SWAP2 PUSH2 0x2EC JUMP JUMPDEST DUP3 ADD SWAP2 SWAP1 PUSH0 MSTORE PUSH1 0x20 PUSH0 KECCAK256 SWAP1 JUMPDEST DUP2 SLOAD DUP2 MSTORE SWAP1 PUSH1 0x1 ADD SWAP1 PUSH1 0x20 ADD DUP1 DUP4 GT PUSH2 0x2CF JUMPI DUP3 SWAP1 SUB PUSH1 0x1F AND DUP3 ADD SWAP2 JUMPDEST POP POP POP POP POP SWAP1 DUP1 PUSH1 0x3 ADD SLOAD SWAP1 DUP1 PUSH1 0x4 ADD SLOAD SWAP1 POP DUP6 JUMP JUMPDEST PUSH1 0x60 PUSH1 0x1 PUSH0 DUP4 PUSH20 0xFFFFFFFFFFFFFFFFFFFFFFFFFFFFFFFFFFFFFFFF AND PUSH20 0xFFFFFFFFFFFFFFFFFFFFFFFFFFFFFFFFFFFFFFFF AND DUP2 MSTORE PUSH1 0x20 ADD SWAP1 DUP2 MSTORE PUSH1 0x20 ADD PUSH0 KECCAK256 DUP1 SLOAD DUP1 PUSH1 0x20 MUL PUSH1 0x20 ADD PUSH1 0x40 MLOAD SWAP1 DUP2 ADD PUSH1 0x40 MSTORE DUP1 SWAP3 SWAP2 SWAP1 DUP2 DUP2 MSTORE PUSH1 0x20 ADD PUSH0 SWAP1 JUMPDEST DUP3 DUP3 LT ISZERO PUSH2 0x492 JUMPI DUP4 DUP3 SWAP1 PUSH0 MSTORE PUSH1 0x20 PUSH0 KECCAK256 SWAP1 PUSH1 0x5 MUL ADD PUSH1 0x40 MLOAD DUP1 PUSH1 0xA0 ADD PUSH1 0x40 MSTORE SWAP1 DUP2 PUSH0 DUP3 ADD SLOAD DUP2 MSTORE PUSH1 0x20 ADD PUSH1 0x1 DUP3 ADD PUSH0 SWAP1 SLOAD SWAP1 PUSH2 0x100 EXP SWAP1 DIV PUSH20 0xFFFFFFFFFFFFFFFFFFFFFFFFFFFFFFFFFFFFFFFF AND PUSH20 0xFFFFFFFFFFFFFFFFFFFFFFFFFFFFFFFFFFFFFFFF AND PUSH20 0xFFFFFFFFFFFFFFFFFFFFFFFFFFFFFFFFFFFFFFFF AND DUP2 MSTORE PUSH1 0x20 ADD PUSH1 0x2 DUP3 ADD DUP1 SLOAD PUSH2 0x3EF SWAP1 PUSH2 0x1545 JUMP JUMPDEST DUP1 PUSH1 0x1F ADD PUSH1 0x20 DUP1 SWAP2 DIV MUL PUSH1 0x20 ADD PUSH1 0x40 MLOAD SWAP1 DUP2 ADD PUSH1 0x40 MSTORE DUP1 SWAP3 SWAP2 SWAP1 DUP2 DUP2 MSTORE PUSH1 0x20 ADD DUP3 DUP1 SLOAD PUSH2 0x41B SWAP1 PUSH2 0x1545 JUMP JUMPDEST DUP1 ISZERO PUSH2 0x466 JUMPI DUP1 PUSH1 0x1F LT PUSH2 0x43D JUMPI PUSH2 0x100 DUP1 DUP4 SLOAD DIV MUL DUP4 MSTORE SWAP2 PUSH1 0x20 ADD SWAP2 PUSH2 0x466 JUMP JUMPDEST DUP3 ADD SWAP2 SWAP1 PUSH0 MSTORE PUSH1 0x20 PUSH0 KECCAK256 SWAP1 JUMPDEST DUP2 SLOAD DUP2 MSTORE SWAP1 PUSH1 0x1 ADD SWAP1 PUSH1 0x20 ADD DUP1 DUP4 GT PUSH2 0x449 JUMPI DUP3 SWAP1 SUB PUSH1 0x1F AND DUP3 ADD SWAP2 JUMPDEST POP POP POP POP POP DUP2 MSTORE PUSH1 0x20 ADD PUSH1 0x3 DUP3 ADD SLOAD DUP2 MSTORE PUSH1 0x20 ADD PUSH1 0x4 DUP3 ADD SLOAD DUP2 MSTORE POP POP DUP2 MSTORE PUSH1 0x20 ADD SWAP1 PUSH1 0x1 ADD SWAP1 PUSH2 0x360 JUMP JUMPDEST POP POP POP POP SWAP1 POP SWAP2 SWAP1 POP JUMP JUMPDEST DUP1 PUSH1 0x1 PUSH0 DUP5 PUSH20 0xFFFFFFFFFFFFFFFFFFFFFFFFFFFFFFFFFFFFFFFF AND PUSH20 0xFFFFFFFFFFFFFFFFFFFFFFFFFFFFFFFFFFFFFFFF AND DUP2 MSTORE PUSH1 0x20 ADD SWAP1 DUP2 MSTORE PUSH1 0x20 ADD PUSH0 KECCAK256 DUP3 DUP2 SLOAD DUP2 LT PUSH2 0x4ED JUMPI PUSH2 0x4EC PUSH2 0x1575 JUMP JUMPDEST JUMPDEST SWAP1 PUSH0 MSTORE PUSH1 0x20 PUSH0 KECCAK256 SWAP1 PUSH1 0x5 MUL ADD PUSH0 ADD SLOAD EQ PUSH2 0x53C JUMPI PUSH1 0x40 MLOAD PUSH32 0x8C379A000000000000000000000000000000000000000000000000000000000 DUP2 MSTORE PUSH1 0x4 ADD PUSH2 0x533 SWAP1 PUSH2 0x15EC JUMP JUMPDEST PUSH1 0x40 MLOAD DUP1 SWAP2 SUB SWAP1 REVERT JUMPDEST PUSH0 PUSH1 0x1 PUSH0 DUP5 PUSH20 0xFFFFFFFFFFFFFFFFFFFFFFFFFFFFFFFFFFFFFFFF AND PUSH20 0xFFFFFFFFFFFFFFFFFFFFFFFFFFFFFFFFFFFFFFFF AND DUP2 MSTORE PUSH1 0x20 ADD SWAP1 DUP2 MSTORE PUSH1 0x20 ADD PUSH0 KECCAK256 DUP3 DUP2 SLOAD DUP2 LT PUSH2 0x58C JUMPI PUSH2 0x58B PUSH2 0x1575 JUMP JUMPDEST JUMPDEST SWAP1 PUSH0 MSTORE PUSH1 0x20 PUSH0 KECCAK256 SWAP1 PUSH1 0x5 MUL ADD PUSH1 0x4 ADD SLOAD GT PUSH2 0x5DC JUMPI PUSH1 0x40 MLOAD PUSH32 0x8C379A000000000000000000000000000000000000000000000000000000000 DUP2 MSTORE PUSH1 0x4 ADD PUSH2 0x5D3 SWAP1 PUSH2 0x1654 JUMP JUMPDEST PUSH1 0x40 MLOAD DUP1 SWAP2 SUB SWAP1 REVERT JUMPDEST PUSH1 0x1 PUSH0 DUP4 PUSH20 0xFFFFFFFFFFFFFFFFFFFFFFFFFFFFFFFFFFFFFFFF AND PUSH20 0xFFFFFFFFFFFFFFFFFFFFFFFFFFFFFFFFFFFFFFFF AND DUP2 MSTORE PUSH1 0x20 ADD SWAP1 DUP2 MSTORE PUSH1 0x20 ADD PUSH0 KECCAK256 DUP2 DUP2 SLOAD DUP2 LT PUSH2 0x62B JUMPI PUSH2 0x62A PUSH2 0x1575 JUMP JUMPDEST JUMPDEST SWAP1 PUSH0 MSTORE PUSH1 0x20 PUSH0 KECCAK256 SWAP1 PUSH1 0x5 MUL ADD PUSH1 0x4 ADD PUSH0 DUP2 SLOAD DUP1 SWAP3 SWAP2 SWAP1 PUSH2 0x64A SWAP1 PUSH2 0x169F JUMP JUMPDEST SWAP2 SWAP1 POP SSTORE POP PUSH32 0x762C2616349603AC16EBA0DE8E6141B79129A07AB63BD99E0A80B3A471716943 CALLER DUP4 DUP4 PUSH1 0x1 PUSH0 DUP8 PUSH20 0xFFFFFFFFFFFFFFFFFFFFFFFFFFFFFFFFFFFFFFFF AND PUSH20 0xFFFFFFFFFFFFFFFFFFFFFFFFFFFFFFFFFFFFFFFF AND DUP2 MSTORE PUSH1 0x20 ADD SWAP1 DUP2 MSTORE PUSH1 0x20 ADD PUSH0 KECCAK256 DUP6 DUP2 SLOAD DUP2 LT PUSH2 0x6C2 JUMPI PUSH2 0x6C1 PUSH2 0x1575 JUMP JUMPDEST JUMPDEST SWAP1 PUSH0 MSTORE PUSH1 0x20 PUSH0 KECCAK256 SWAP1 PUSH1 0x5 MUL ADD PUSH1 0x4 ADD SLOAD PUSH1 0x40 MLOAD PUSH2 0x6E2 SWAP5 SWAP4 SWAP3 SWAP2 SWAP1 PUSH2 0x16C6 JUMP JUMPDEST PUSH1 0x40 MLOAD DUP1 SWAP2 SUB SWAP1 LOG1 POP POP JUMP JUMPDEST PUSH2 0x6F6 PUSH2 0xD13 JUMP JUMPDEST DUP1 PUSH0 PUSH1 0x14 PUSH2 0x100 EXP DUP2 SLOAD DUP2 PUSH2 0xFFFF MUL NOT AND SWAP1 DUP4 PUSH2 0xFFFF AND MUL OR SWAP1 SSTORE POP POP JUMP JUMPDEST DUP1 PUSH1 0x1 PUSH0 DUP5 PUSH20 0xFFFFFFFFFFFFFFFFFFFFFFFFFFFFFFFFFFFFFFFF AND PUSH20 0xFFFFFFFFFFFFFFFFFFFFFFFFFFFFFFFFFFFFFFFF AND DUP2 MSTORE PUSH1 0x20 ADD SWAP1 DUP2 MSTORE PUSH1 0x20 ADD PUSH0 KECCAK256 DUP3 DUP2 SLOAD DUP2 LT PUSH2 0x765 JUMPI PUSH2 0x764 PUSH2 0x1575 JUMP JUMPDEST JUMPDEST SWAP1 PUSH0 MSTORE PUSH1 0x20 PUSH0 KECCAK256 SWAP1 PUSH1 0x5 MUL ADD PUSH0 ADD SLOAD EQ PUSH2 0x7B4 JUMPI PUSH1 0x40 MLOAD PUSH32 0x8C379A000000000000000000000000000000000000000000000000000000000 DUP2 MSTORE PUSH1 0x4 ADD PUSH2 0x7AB SWAP1 PUSH2 0x15EC JUMP JUMPDEST PUSH1 0x40 MLOAD DUP1 SWAP2 SUB SWAP1 REVERT JUMPDEST PUSH1 0x1 PUSH0 DUP4 PUSH20 0xFFFFFFFFFFFFFFFFFFFFFFFFFFFFFFFFFFFFFFFF AND PUSH20 0xFFFFFFFFFFFFFFFFFFFFFFFFFFFFFFFFFFFFFFFF AND DUP2 MSTORE PUSH1 0x20 ADD SWAP1 DUP2 MSTORE PUSH1 0x20 ADD PUSH0 KECCAK256 DUP2 DUP2 SLOAD DUP2 LT PUSH2 0x803 JUMPI PUSH2 0x802 PUSH2 0x1575 JUMP JUMPDEST JUMPDEST SWAP1 PUSH0 MSTORE PUSH1 0x20 PUSH0 KECCAK256 SWAP1 PUSH1 0x5 MUL ADD PUSH1 0x4 ADD PUSH0 DUP2 SLOAD DUP1 SWAP3 SWAP2 SWAP1 PUSH2 0x822 SWAP1 PUSH2 0x1709 JUMP JUMPDEST SWAP2 SWAP1 POP SSTORE POP PUSH32 0xE8A76FC0F16D11A00D1E93B689B63D76CF60AF914DD3D915375DC41D01A0C3C8 CALLER DUP4 DUP4 PUSH1 0x1 PUSH0 DUP8 PUSH20 0xFFFFFFFFFFFFFFFFFFFFFFFFFFFFFFFFFFFFFFFF AND PUSH20 0xFFFFFFFFFFFFFFFFFFFFFFFFFFFFFFFFFFFFFFFF AND DUP2 MSTORE PUSH1 0x20 ADD SWAP1 DUP2 MSTORE PUSH1 0x20 ADD PUSH0 KECCAK256 DUP6 DUP2 SLOAD DUP2 LT PUSH2 0x89A JUMPI PUSH2 0x899 PUSH2 0x1575 JUMP JUMPDEST JUMPDEST SWAP1 PUSH0 MSTORE PUSH1 0x20 PUSH0 KECCAK256 SWAP1 PUSH1 0x5 MUL ADD PUSH1 0x4 ADD SLOAD PUSH1 0x40 MLOAD PUSH2 0x8BA SWAP5 SWAP4 SWAP3 SWAP2 SWAP1 PUSH2 0x16C6 JUMP JUMPDEST PUSH1 0x40 MLOAD DUP1 SWAP2 SUB SWAP1 LOG1 POP POP JUMP JUMPDEST PUSH0 PUSH1 0x14 SWAP1 SLOAD SWAP1 PUSH2 0x100 EXP SWAP1 DIV PUSH2 0xFFFF AND DUP2 JUMP JUMPDEST PUSH2 0x8E1 PUSH2 0xD13 JUMP JUMPDEST PUSH2 0x8EA PUSH0 PUSH2 0xD9A JUMP JUMPDEST JUMP JUMPDEST PUSH0 PUSH1 0x14 SWAP1 SLOAD SWAP1 PUSH2 0x100 EXP SWAP1 DIV PUSH2 0xFFFF AND PUSH2 0xFFFF AND DUP2 MLOAD GT ISZERO PUSH2 0x943 JUMPI PUSH1 0x40 MLOAD PUSH32 0x8C379A000000000000000000000000000000000000000000000000000000000 DUP2 MSTORE PUSH1 0x4 ADD PUSH2 0x93A SWAP1 PUSH2 0x179A JUMP JUMPDEST PUSH1 0x40 MLOAD DUP1 SWAP2 SUB SWAP1 REVERT JUMPDEST PUSH0 PUSH1 0x40 MLOAD DUP1 PUSH1 0xA0 ADD PUSH1 0x40 MSTORE DUP1 PUSH1 0x1 PUSH0 CALLER PUSH20 0xFFFFFFFFFFFFFFFFFFFFFFFFFFFFFFFFFFFFFFFF AND PUSH20 0xFFFFFFFFFFFFFFFFFFFFFFFFFFFFFFFFFFFFFFFF AND DUP2 MSTORE PUSH1 0x20 ADD SWAP1 DUP2 MSTORE PUSH1 0x20 ADD PUSH0 KECCAK256 DUP1 SLOAD SWAP1 POP DUP2 MSTORE PUSH1 0x20 ADD CALLER PUSH20 0xFFFFFFFFFFFFFFFFFFFFFFFFFFFFFFFFFFFFFFFF AND DUP2 MSTORE PUSH1 0x20 ADD DUP4 DUP2 MSTORE PUSH1 0x20 ADD TIMESTAMP DUP2 MSTORE PUSH1 0x20 ADD PUSH0 DUP2 MSTORE POP SWAP1 POP PUSH1 0x1 PUSH0 CALLER PUSH20 0xFFFFFFFFFFFFFFFFFFFFFFFFFFFFFFFFFFFFFFFF AND PUSH20 0xFFFFFFFFFFFFFFFFFFFFFFFFFFFFFFFFFFFFFFFF AND DUP2 MSTORE PUSH1 0x20 ADD SWAP1 DUP2 MSTORE PUSH1 0x20 ADD PUSH0 KECCAK256 DUP2 SWAP1 DUP1 PUSH1 0x1 DUP2 SLOAD ADD DUP1 DUP3 SSTORE DUP1 SWAP2 POP POP PUSH1 0x1 SWAP1 SUB SWAP1 PUSH0 MSTORE PUSH1 0x20 PUSH0 KECCAK256 SWAP1 PUSH1 0x5 MUL ADD PUSH0 SWAP1 SWAP2 SWAP1 SWAP2 SWAP1 SWAP2 POP PUSH0 DUP3 ADD MLOAD DUP2 PUSH0 ADD SSTORE PUSH1 0x20 DUP3 ADD MLOAD DUP2 PUSH1 0x1 ADD PUSH0 PUSH2 0x100 EXP DUP2 SLOAD DUP2 PUSH20 0xFFFFFFFFFFFFFFFFFFFFFFFFFFFFFFFFFFFFFFFF MUL NOT AND SWAP1 DUP4 PUSH20 0xFFFFFFFFFFFFFFFFFFFFFFFFFFFFFFFFFFFFFFFF AND MUL OR SWAP1 SSTORE POP PUSH1 0x40 DUP3 ADD MLOAD DUP2 PUSH1 0x2 ADD SWAP1 DUP2 PUSH2 0xA8A SWAP2 SWAP1 PUSH2 0x1955 JUMP JUMPDEST POP PUSH1 0x60 DUP3 ADD MLOAD DUP2 PUSH1 0x3 ADD SSTORE PUSH1 0x80 DUP3 ADD MLOAD DUP2 PUSH1 0x4 ADD SSTORE POP POP PUSH32 0x16FD3C13E9D46923E0A8BCE11C7B473EC508A72E6C96CD2404B29CE972AFC29E DUP2 PUSH0 ADD MLOAD DUP3 PUSH1 0x20 ADD MLOAD DUP4 PUSH1 0x40 ADD MLOAD DUP5 PUSH1 0x60 ADD MLOAD PUSH1 0x40 MLOAD PUSH2 0xAE5 SWAP5 SWAP4 SWAP3 SWAP2 SWAP1 PUSH2 0x1A24 JUMP JUMPDEST PUSH1 0x40 MLOAD DUP1 SWAP2 SUB SWAP1 LOG1 POP POP JUMP JUMPDEST PUSH0 DUP1 PUSH0 SWAP1 SLOAD SWAP1 PUSH2 0x100 EXP SWAP1 DIV PUSH20 0xFFFFFFFFFFFFFFFFFFFFFFFFFFFFFFFFFFFFFFFF AND SWAP1 POP SWAP1 JUMP JUMPDEST PUSH2 0xB20 PUSH2 0xE62 JUMP JUMPDEST PUSH1 0x1 PUSH0 CALLER PUSH20 0xFFFFFFFFFFFFFFFFFFFFFFFFFFFFFFFFFFFFFFFF AND PUSH20 0xFFFFFFFFFFFFFFFFFFFFFFFFFFFFFFFFFFFFFFFF AND DUP2 MSTORE PUSH1 0x20 ADD SWAP1 DUP2 MSTORE PUSH1 0x20 ADD PUSH0 KECCAK256 DUP3 DUP2 SLOAD DUP2 LT PUSH2 0xB6F JUMPI PUSH2 0xB6E PUSH2 0x1575 JUMP JUMPDEST JUMPDEST SWAP1 PUSH0 MSTORE PUSH1 0x20 PUSH0 KECCAK256 SWAP1 PUSH1 0x5 MUL ADD PUSH1 0x40 MLOAD DUP1 PUSH1 0xA0 ADD PUSH1 0x40 MSTORE SWAP1 DUP2 PUSH0 DUP3 ADD SLOAD DUP2 MSTORE PUSH1 0x20 ADD PUSH1 0x1 DUP3 ADD PUSH0 SWAP1 SLOAD SWAP1 PUSH2 0x100 EXP SWAP1 DIV PUSH20 0xFFFFFFFFFFFFFFFFFFFFFFFFFFFFFFFFFFFFFFFF AND PUSH20 0xFFFFFFFFFFFFFFFFFFFFFFFFFFFFFFFFFFFFFFFF AND PUSH20 0xFFFFFFFFFFFFFFFFFFFFFFFFFFFFFFFFFFFFFFFF AND DUP2 MSTORE PUSH1 0x20 ADD PUSH1 0x2 DUP3 ADD DUP1 SLOAD PUSH2 0xBF4 SWAP1 PUSH2 0x1545 JUMP JUMPDEST DUP1 PUSH1 0x1F ADD PUSH1 0x20 DUP1 SWAP2 DIV MUL PUSH1 0x20 ADD PUSH1 0x40 MLOAD SWAP1 DUP2 ADD PUSH1 0x40 MSTORE DUP1 SWAP3 SWAP2 SWAP1 DUP2 DUP2 MSTORE PUSH1 0x20 ADD DUP3 DUP1 SLOAD PUSH2 0xC20 SWAP1 PUSH2 0x1545 JUMP JUMPDEST DUP1 ISZERO PUSH2 0xC6B JUMPI DUP1 PUSH1 0x1F LT PUSH2 0xC42 JUMPI PUSH2 0x100 DUP1 DUP4 SLOAD DIV MUL DUP4 MSTORE SWAP2 PUSH1 0x20 ADD SWAP2 PUSH2 0xC6B JUMP JUMPDEST DUP3 ADD SWAP2 SWAP1 PUSH0 MSTORE PUSH1 0x20 PUSH0 KECCAK256 SWAP1 JUMPDEST DUP2 SLOAD DUP2 MSTORE SWAP1 PUSH1 0x1 ADD SWAP1 PUSH1 0x20 ADD DUP1 DUP4 GT PUSH2 0xC4E JUMPI DUP3 SWAP1 SUB PUSH1 0x1F AND DUP3 ADD SWAP2 JUMPDEST POP POP POP POP POP DUP2 MSTORE PUSH1 0x20 ADD PUSH1 0x3 DUP3 ADD SLOAD DUP2 MSTORE PUSH1 0x20 ADD PUSH1 0x4 DUP3 ADD SLOAD DUP2 MSTORE POP POP SWAP1 POP SWAP2 SWAP1 POP JUMP JUMPDEST PUSH2 0xC97 PUSH2 0xD13 JUMP JUMPDEST PUSH0 PUSH20 0xFFFFFFFFFFFFFFFFFFFFFFFFFFFFFFFFFFFFFFFF AND DUP2 PUSH20 0xFFFFFFFFFFFFFFFFFFFFFFFFFFFFFFFFFFFFFFFF AND SUB PUSH2 0xD07 JUMPI PUSH0 PUSH1 0x40 MLOAD PUSH32 0x1E4FBDF700000000000000000000000000000000000000000000000000000000 DUP2 MSTORE PUSH1 0x4 ADD PUSH2 0xCFE SWAP2 SWAP1 PUSH2 0x1441 JUMP JUMPDEST PUSH1 0x40 MLOAD DUP1 SWAP2 SUB SWAP1 REVERT JUMPDEST PUSH2 0xD10 DUP2 PUSH2 0xD9A JUMP JUMPDEST POP JUMP JUMPDEST PUSH2 0xD1B PUSH2 0xE5B JUMP JUMPDEST PUSH20 0xFFFFFFFFFFFFFFFFFFFFFFFFFFFFFFFFFFFFFFFF AND PUSH2 0xD39 PUSH2 0xAF1 JUMP JUMPDEST PUSH20 0xFFFFFFFFFFFFFFFFFFFFFFFFFFFFFFFFFFFFFFFF AND EQ PUSH2 0xD98 JUMPI PUSH2 0xD5C PUSH2 0xE5B JUMP JUMPDEST PUSH1 0x40 MLOAD PUSH32 0x118CDAA700000000000000000000000000000000000000000000000000000000 DUP2 MSTORE PUSH1 0x4 ADD PUSH2 0xD8F SWAP2 SWAP1 PUSH2 0x1441 JUMP JUMPDEST PUSH1 0x40 MLOAD DUP1 SWAP2 SUB SWAP1 REVERT JUMPDEST JUMP JUMPDEST PUSH0 DUP1 PUSH0 SWAP1 SLOAD SWAP1 PUSH2 0x100 EXP SWAP1 DIV PUSH20 0xFFFFFFFFFFFFFFFFFFFFFFFFFFFFFFFFFFFFFFFF AND SWAP1 POP DUP2 PUSH0 DUP1 PUSH2 0x100 EXP DUP2 SLOAD DUP2 PUSH20 0xFFFFFFFFFFFFFFFFFFFFFFFFFFFFFFFFFFFFFFFF MUL NOT AND SWAP1 DUP4 PUSH20 0xFFFFFFFFFFFFFFFFFFFFFFFFFFFFFFFFFFFFFFFF AND MUL OR SWAP1 SSTORE POP DUP2 PUSH20 0xFFFFFFFFFFFFFFFFFFFFFFFFFFFFFFFFFFFFFFFF AND DUP2 PUSH20 0xFFFFFFFFFFFFFFFFFFFFFFFFFFFFFFFFFFFFFFFF AND PUSH32 0x8BE0079C531659141344CD1FD0A4F28419497F9722A3DAAFE3B4186F6B6457E0 PUSH1 0x40 MLOAD PUSH1 0x40 MLOAD DUP1 SWAP2 SUB SWAP1 LOG3 POP POP JUMP JUMPDEST PUSH0 CALLER SWAP1 POP SWAP1 JUMP JUMPDEST PUSH1 0x40 MLOAD DUP1 PUSH1 0xA0 ADD PUSH1 0x40 MSTORE DUP1 PUSH0 DUP2 MSTORE PUSH1 0x20 ADD PUSH0 PUSH20 0xFFFFFFFFFFFFFFFFFFFFFFFFFFFFFFFFFFFFFFFF AND DUP2 MSTORE PUSH1 0x20 ADD PUSH1 0x60 DUP2 MSTORE PUSH1 0x20 ADD PUSH0 DUP2 MSTORE PUSH1 0x20 ADD PUSH0 DUP2 MSTORE POP SWAP1 JUMP JUMPDEST PUSH0 PUSH1 0x40 MLOAD SWAP1 POP SWAP1 JUMP JUMPDEST PUSH0 DUP1 REVERT JUMPDEST PUSH0 DUP1 REVERT JUMPDEST PUSH0 PUSH20 0xFFFFFFFFFFFFFFFFFFFFFFFFFFFFFFFFFFFFFFFF DUP3 AND SWAP1 POP SWAP2 SWAP1 POP JUMP JUMPDEST PUSH0 PUSH2 0xEDD DUP3 PUSH2 0xEB4 JUMP JUMPDEST SWAP1 POP SWAP2 SWAP1 POP JUMP JUMPDEST PUSH2 0xEED DUP2 PUSH2 0xED3 JUMP JUMPDEST DUP2 EQ PUSH2 0xEF7 JUMPI PUSH0 DUP1 REVERT JUMPDEST POP JUMP JUMPDEST PUSH0 DUP2 CALLDATALOAD SWAP1 POP PUSH2 0xF08 DUP2 PUSH2 0xEE4 JUMP JUMPDEST SWAP3 SWAP2 POP POP JUMP JUMPDEST PUSH0 DUP2 SWAP1 POP SWAP2 SWAP1 POP JUMP JUMPDEST PUSH2 0xF20 DUP2 PUSH2 0xF0E JUMP JUMPDEST DUP2 EQ PUSH2 0xF2A JUMPI PUSH0 DUP1 REVERT JUMPDEST POP JUMP JUMPDEST PUSH0 DUP2 CALLDATALOAD SWAP1 POP PUSH2 0xF3B DUP2 PUSH2 0xF17 JUMP JUMPDEST SWAP3 SWAP2 POP POP JUMP JUMPDEST PUSH0 DUP1 PUSH1 0x40 DUP4 DUP6 SUB SLT ISZERO PUSH2 0xF57 JUMPI PUSH2 0xF56 PUSH2 0xEAC JUMP JUMPDEST JUMPDEST PUSH0 PUSH2 0xF64 DUP6 DUP3 DUP7 ADD PUSH2 0xEFA JUMP JUMPDEST SWAP3 POP POP PUSH1 0x20 PUSH2 0xF75 DUP6 DUP3 DUP7 ADD PUSH2 0xF2D JUMP JUMPDEST SWAP2 POP POP SWAP3 POP SWAP3 SWAP1 POP JUMP JUMPDEST PUSH2 0xF88 DUP2 PUSH2 0xF0E JUMP JUMPDEST DUP3 MSTORE POP POP JUMP JUMPDEST PUSH2 0xF97 DUP2 PUSH2 0xED3 JUMP JUMPDEST DUP3 MSTORE POP POP JUMP JUMPDEST PUSH0 DUP2 MLOAD SWAP1 POP SWAP2 SWAP1 POP JUMP JUMPDEST PUSH0 DUP3 DUP3 MSTORE PUSH1 0x20 DUP3 ADD SWAP1 POP SWAP3 SWAP2 POP POP JUMP JUMPDEST DUP3 DUP2 DUP4 MCOPY PUSH0 DUP4 DUP4 ADD MSTORE POP POP POP JUMP JUMPDEST PUSH0 PUSH1 0x1F NOT PUSH1 0x1F DUP4 ADD AND SWAP1 POP SWAP2 SWAP1 POP JUMP JUMPDEST PUSH0 PUSH2 0xFDF DUP3 PUSH2 0xF9D JUMP JUMPDEST PUSH2 0xFE9 DUP2 DUP6 PUSH2 0xFA7 JUMP JUMPDEST SWAP4 POP PUSH2 0xFF9 DUP2 DUP6 PUSH1 0x20 DUP7 ADD PUSH2 0xFB7 JUMP JUMPDEST PUSH2 0x1002 DUP2 PUSH2 0xFC5 JUMP JUMPDEST DUP5 ADD SWAP2 POP POP SWAP3 SWAP2 POP POP JUMP JUMPDEST PUSH0 PUSH1 0xA0 DUP3 ADD SWAP1 POP PUSH2 0x1020 PUSH0 DUP4 ADD DUP9 PUSH2 0xF7F JUMP JUMPDEST PUSH2 0x102D PUSH1 0x20 DUP4 ADD DUP8 PUSH2 0xF8E JUMP JUMPDEST DUP2 DUP2 SUB PUSH1 0x40 DUP4 ADD MSTORE PUSH2 0x103F DUP2 DUP7 PUSH2 0xFD5 JUMP JUMPDEST SWAP1 POP PUSH2 0x104E PUSH1 0x60 DUP4 ADD DUP6 PUSH2 0xF7F JUMP JUMPDEST PUSH2 0x105B PUSH1 0x80 DUP4 ADD DUP5 PUSH2 0xF7F JUMP JUMPDEST SWAP7 SWAP6 POP POP POP POP POP POP JUMP JUMPDEST PUSH0 PUSH1 0x20 DUP3 DUP5 SUB SLT ISZERO PUSH2 0x107A JUMPI PUSH2 0x1079 PUSH2 0xEAC JUMP JUMPDEST JUMPDEST PUSH0 PUSH2 0x1087 DUP5 DUP3 DUP6 ADD PUSH2 0xEFA JUMP JUMPDEST SWAP2 POP POP SWAP3 SWAP2 POP POP JUMP JUMPDEST PUSH0 DUP2 MLOAD SWAP1 POP SWAP2 SWAP1 POP JUMP JUMPDEST PUSH0 DUP3 DUP3 MSTORE PUSH1 0x20 DUP3 ADD SWAP1 POP SWAP3 SWAP2 POP POP JUMP JUMPDEST PUSH0 DUP2 SWAP1 POP PUSH1 0x20 DUP3 ADD SWAP1 POP SWAP2 SWAP1 POP JUMP JUMPDEST PUSH2 0x10C2 DUP2 PUSH2 0xF0E JUMP JUMPDEST DUP3 MSTORE POP POP JUMP JUMPDEST PUSH2 0x10D1 DUP2 PUSH2 0xED3 JUMP JUMPDEST DUP3 MSTORE POP POP JUMP JUMPDEST PUSH0 DUP3 DUP3 MSTORE PUSH1 0x20 DUP3 ADD SWAP1 POP SWAP3 SWAP2 POP POP JUMP JUMPDEST PUSH0 PUSH2 0x10F1 DUP3 PUSH2 0xF9D JUMP JUMPDEST PUSH2 0x10FB DUP2 DUP6 PUSH2 0x10D7 JUMP JUMPDEST SWAP4 POP PUSH2 0x110B DUP2 DUP6 PUSH1 0x20 DUP7 ADD PUSH2 0xFB7 JUMP JUMPDEST PUSH2 0x1114 DUP2 PUSH2 0xFC5 JUMP JUMPDEST DUP5 ADD SWAP2 POP POP SWAP3 SWAP2 POP POP JUMP JUMPDEST PUSH0 PUSH1 0xA0 DUP4 ADD PUSH0 DUP4 ADD MLOAD PUSH2 0x1134 PUSH0 DUP7 ADD DUP3 PUSH2 0x10B9 JUMP JUMPDEST POP PUSH1 0x20 DUP4 ADD MLOAD PUSH2 0x1147 PUSH1 0x20 DUP7 ADD DUP3 PUSH2 0x10C8 JUMP JUMPDEST POP PUSH1 0x40 DUP4 ADD MLOAD DUP5 DUP3 SUB PUSH1 0x40 DUP7 ADD MSTORE PUSH2 0x115F DUP3 DUP3 PUSH2 0x10E7 JUMP JUMPDEST SWAP2 POP POP PUSH1 0x60 DUP4 ADD MLOAD PUSH2 0x1174 PUSH1 0x60 DUP7 ADD DUP3 PUSH2 0x10B9 JUMP JUMPDEST POP PUSH1 0x80 DUP4 ADD MLOAD PUSH2 0x1187 PUSH1 0x80 DUP7 ADD DUP3 PUSH2 0x10B9 JUMP JUMPDEST POP DUP1 SWAP2 POP POP SWAP3 SWAP2 POP POP JUMP JUMPDEST PUSH0 PUSH2 0x119D DUP4 DUP4 PUSH2 0x111F JUMP JUMPDEST SWAP1 POP SWAP3 SWAP2 POP POP JUMP JUMPDEST PUSH0 PUSH1 0x20 DUP3 ADD SWAP1 POP SWAP2 SWAP1 POP JUMP JUMPDEST PUSH0 PUSH2 0x11BB DUP3 PUSH2 0x1090 JUMP JUMPDEST PUSH2 0x11C5 DUP2 DUP6 PUSH2 0x109A JUMP JUMPDEST SWAP4 POP DUP4 PUSH1 0x20 DUP3 MUL DUP6 ADD PUSH2 0x11D7 DUP6 PUSH2 0x10AA JUMP JUMPDEST DUP1 PUSH0 JUMPDEST DUP6 DUP2 LT ISZERO PUSH2 0x1212 JUMPI DUP5 DUP5 SUB DUP10 MSTORE DUP2 MLOAD PUSH2 0x11F3 DUP6 DUP3 PUSH2 0x1192 JUMP JUMPDEST SWAP5 POP PUSH2 0x11FE DUP4 PUSH2 0x11A5 JUMP JUMPDEST SWAP3 POP PUSH1 0x20 DUP11 ADD SWAP10 POP POP PUSH1 0x1 DUP2 ADD SWAP1 POP PUSH2 0x11DA JUMP JUMPDEST POP DUP3 SWAP8 POP DUP8 SWAP6 POP POP POP POP POP POP SWAP3 SWAP2 POP POP JUMP JUMPDEST PUSH0 PUSH1 0x20 DUP3 ADD SWAP1 POP DUP2 DUP2 SUB PUSH0 DUP4 ADD MSTORE PUSH2 0x123C DUP2 DUP5 PUSH2 0x11B1 JUMP JUMPDEST SWAP1 POP SWAP3 SWAP2 POP POP JUMP JUMPDEST PUSH0 PUSH2 0xFFFF DUP3 AND SWAP1 POP SWAP2 SWAP1 POP JUMP JUMPDEST PUSH2 0x125A DUP2 PUSH2 0x1244 JUMP JUMPDEST DUP2 EQ PUSH2 0x1264 JUMPI PUSH0 DUP1 REVERT JUMPDEST POP JUMP JUMPDEST PUSH0 DUP2 CALLDATALOAD SWAP1 POP PUSH2 0x1275 DUP2 PUSH2 0x1251 JUMP JUMPDEST SWAP3 SWAP2 POP POP JUMP JUMPDEST PUSH0 PUSH1 0x20 DUP3 DUP5 SUB SLT ISZERO PUSH2 0x1290 JUMPI PUSH2 0x128F PUSH2 0xEAC JUMP JUMPDEST JUMPDEST PUSH0 PUSH2 0x129D DUP5 DUP3 DUP6 ADD PUSH2 0x1267 JUMP JUMPDEST SWAP2 POP POP SWAP3 SWAP2 POP POP JUMP JUMPDEST PUSH2 0x12AF DUP2 PUSH2 0x1244 JUMP JUMPDEST DUP3 MSTORE POP POP JUMP JUMPDEST PUSH0 PUSH1 0x20 DUP3 ADD SWAP1 POP PUSH2 0x12C8 PUSH0 DUP4 ADD DUP5 PUSH2 0x12A6 JUMP JUMPDEST SWAP3 SWAP2 POP POP JUMP JUMPDEST PUSH0 DUP1 REVERT JUMPDEST PUSH0 DUP1 REVERT JUMPDEST PUSH32 0x4E487B7100000000000000000000000000000000000000000000000000000000 PUSH0 MSTORE PUSH1 0x41 PUSH1 0x4 MSTORE PUSH1 0x24 PUSH0 REVERT JUMPDEST PUSH2 0x130C DUP3 PUSH2 0xFC5 JUMP JUMPDEST DUP2 ADD DUP2 DUP2 LT PUSH8 0xFFFFFFFFFFFFFFFF DUP3 GT OR ISZERO PUSH2 0x132B JUMPI PUSH2 0x132A PUSH2 0x12D6 JUMP JUMPDEST JUMPDEST DUP1 PUSH1 0x40 MSTORE POP POP POP JUMP JUMPDEST PUSH0 PUSH2 0x133D PUSH2 0xEA3 JUMP JUMPDEST SWAP1 POP PUSH2 0x1349 DUP3 DUP3 PUSH2 0x1303 JUMP JUMPDEST SWAP2 SWAP1 POP JUMP JUMPDEST PUSH0 PUSH8 0xFFFFFFFFFFFFFFFF DUP3 GT ISZERO PUSH2 0x1368 JUMPI PUSH2 0x1367 PUSH2 0x12D6 JUMP JUMPDEST JUMPDEST PUSH2 0x1371 DUP3 PUSH2 0xFC5 JUMP JUMPDEST SWAP1 POP PUSH1 0x20 DUP2 ADD SWAP1 POP SWAP2 SWAP1 POP JUMP JUMPDEST DUP3 DUP2 DUP4 CALLDATACOPY PUSH0 DUP4 DUP4 ADD MSTORE POP POP POP JUMP JUMPDEST PUSH0 PUSH2 0x139E PUSH2 0x1399 DUP5 PUSH2 0x134E JUMP JUMPDEST PUSH2 0x1334 JUMP JUMPDEST SWAP1 POP DUP3 DUP2 MSTORE PUSH1 0x20 DUP2 ADD DUP5 DUP5 DUP5 ADD GT ISZERO PUSH2 0x13BA JUMPI PUSH2 0x13B9 PUSH2 0x12D2 JUMP JUMPDEST JUMPDEST PUSH2 0x13C5 DUP5 DUP3 DUP6 PUSH2 0x137E JUMP JUMPDEST POP SWAP4 SWAP3 POP POP POP JUMP JUMPDEST PUSH0 DUP3 PUSH1 0x1F DUP4 ADD SLT PUSH2 0x13E1 JUMPI PUSH2 0x13E0 PUSH2 0x12CE JUMP JUMPDEST JUMPDEST DUP2 CALLDATALOAD PUSH2 0x13F1 DUP5 DUP3 PUSH1 0x20 DUP7 ADD PUSH2 0x138C JUMP JUMPDEST SWAP2 POP POP SWAP3 SWAP2 POP POP JUMP JUMPDEST PUSH0 PUSH1 0x20 DUP3 DUP5 SUB SLT ISZERO PUSH2 0x140F JUMPI PUSH2 0x140E PUSH2 0xEAC JUMP JUMPDEST JUMPDEST PUSH0 DUP3 ADD CALLDATALOAD PUSH8 0xFFFFFFFFFFFFFFFF DUP2 GT ISZERO PUSH2 0x142C JUMPI PUSH2 0x142B PUSH2 0xEB0 JUMP JUMPDEST JUMPDEST PUSH2 0x1438 DUP5 DUP3 DUP6 ADD PUSH2 0x13CD JUMP JUMPDEST SWAP2 POP POP SWAP3 SWAP2 POP POP JUMP JUMPDEST PUSH0 PUSH1 0x20 DUP3 ADD SWAP1 POP PUSH2 0x1454 PUSH0 DUP4 ADD DUP5 PUSH2 0xF8E JUMP JUMPDEST SWAP3 SWAP2 POP POP JUMP JUMPDEST PUSH0 PUSH1 0x20 DUP3 DUP5 SUB SLT ISZERO PUSH2 0x146F JUMPI PUSH2 0x146E PUSH2 0xEAC JUMP JUMPDEST JUMPDEST PUSH0 PUSH2 0x147C DUP5 DUP3 DUP6 ADD PUSH2 0xF2D JUMP JUMPDEST SWAP2 POP POP SWAP3 SWAP2 POP POP JUMP JUMPDEST PUSH0 PUSH1 0xA0 DUP4 ADD PUSH0 DUP4 ADD MLOAD PUSH2 0x149A PUSH0 DUP7 ADD DUP3 PUSH2 0x10B9 JUMP JUMPDEST POP PUSH1 0x20 DUP4 ADD MLOAD PUSH2 0x14AD PUSH1 0x20 DUP7 ADD DUP3 PUSH2 0x10C8 JUMP JUMPDEST POP PUSH1 0x40 DUP4 ADD MLOAD DUP5 DUP3 SUB PUSH1 0x40 DUP7 ADD MSTORE PUSH2 0x14C5 DUP3 DUP3 PUSH2 0x10E7 JUMP JUMPDEST SWAP2 POP POP PUSH1 0x60 DUP4 ADD MLOAD PUSH2 0x14DA PUSH1 0x60 DUP7 ADD DUP3 PUSH2 0x10B9 JUMP JUMPDEST POP PUSH1 0x80 DUP4 ADD MLOAD PUSH2 0x14ED PUSH1 0x80 DUP7 ADD DUP3 PUSH2 0x10B9 JUMP JUMPDEST POP DUP1 SWAP2 POP POP SWAP3 SWAP2 POP POP JUMP JUMPDEST PUSH0 PUSH1 0x20 DUP3 ADD SWAP1 POP DUP2 DUP2 SUB PUSH0 DUP4 ADD MSTORE PUSH2 0x1510 DUP2 DUP5 PUSH2 0x1485 JUMP JUMPDEST SWAP1 POP SWAP3 SWAP2 POP POP JUMP JUMPDEST PUSH32 0x4E487B7100000000000000000000000000000000000000000000000000000000 PUSH0 MSTORE PUSH1 0x22 PUSH1 0x4 MSTORE PUSH1 0x24 PUSH0 REVERT JUMPDEST PUSH0 PUSH1 0x2 DUP3 DIV SWAP1 POP PUSH1 0x1 DUP3 AND DUP1 PUSH2 0x155C JUMPI PUSH1 0x7F DUP3 AND SWAP2 POP JUMPDEST PUSH1 0x20 DUP3 LT DUP2 SUB PUSH2 0x156F JUMPI PUSH2 0x156E PUSH2 0x1518 JUMP JUMPDEST JUMPDEST POP SWAP2 SWAP1 POP JUMP JUMPDEST PUSH32 0x4E487B7100000000000000000000000000000000000000000000000000000000 PUSH0 MSTORE PUSH1 0x32 PUSH1 0x4 MSTORE PUSH1 0x24 PUSH0 REVERT JUMPDEST PUSH32 0x545745455420444F4553204E4F54204558495354000000000000000000000000 PUSH0 DUP3 ADD MSTORE POP JUMP JUMPDEST PUSH0 PUSH2 0x15D6 PUSH1 0x14 DUP4 PUSH2 0xFA7 JUMP JUMPDEST SWAP2 POP PUSH2 0x15E1 DUP3 PUSH2 0x15A2 JUMP JUMPDEST PUSH1 0x20 DUP3 ADD SWAP1 POP SWAP2 SWAP1 POP JUMP JUMPDEST PUSH0 PUSH1 0x20 DUP3 ADD SWAP1 POP DUP2 DUP2 SUB PUSH0 DUP4 ADD MSTORE PUSH2 0x1603 DUP2 PUSH2 0x15CA JUMP JUMPDEST SWAP1 POP SWAP2 SWAP1 POP JUMP JUMPDEST PUSH32 0x545745455420484153204E4F204C494B45530000000000000000000000000000 PUSH0 DUP3 ADD MSTORE POP JUMP JUMPDEST PUSH0 PUSH2 0x163E PUSH1 0x12 DUP4 PUSH2 0xFA7 JUMP JUMPDEST SWAP2 POP PUSH2 0x1649 DUP3 PUSH2 0x160A JUMP JUMPDEST PUSH1 0x20 DUP3 ADD SWAP1 POP SWAP2 SWAP1 POP JUMP JUMPDEST PUSH0 PUSH1 0x20 DUP3 ADD SWAP1 POP DUP2 DUP2 SUB PUSH0 DUP4 ADD MSTORE PUSH2 0x166B DUP2 PUSH2 0x1632 JUMP JUMPDEST SWAP1 POP SWAP2 SWAP1 POP JUMP JUMPDEST PUSH32 0x4E487B7100000000000000000000000000000000000000000000000000000000 PUSH0 MSTORE PUSH1 0x11 PUSH1 0x4 MSTORE PUSH1 0x24 PUSH0 REVERT JUMPDEST PUSH0 PUSH2 0x16A9 DUP3 PUSH2 0xF0E JUMP JUMPDEST SWAP2 POP PUSH0 DUP3 SUB PUSH2 0x16BB JUMPI PUSH2 0x16BA PUSH2 0x1672 JUMP JUMPDEST JUMPDEST PUSH1 0x1 DUP3 SUB SWAP1 POP SWAP2 SWAP1 POP JUMP JUMPDEST PUSH0 PUSH1 0x80 DUP3 ADD SWAP1 POP PUSH2 0x16D9 PUSH0 DUP4 ADD DUP8 PUSH2 0xF8E JUMP JUMPDEST PUSH2 0x16E6 PUSH1 0x20 DUP4 ADD DUP7 PUSH2 0xF8E JUMP JUMPDEST PUSH2 0x16F3 PUSH1 0x40 DUP4 ADD DUP6 PUSH2 0xF7F JUMP JUMPDEST PUSH2 0x1700 PUSH1 0x60 DUP4 ADD DUP5 PUSH2 0xF7F JUMP JUMPDEST SWAP6 SWAP5 POP POP POP POP POP JUMP JUMPDEST PUSH0 PUSH2 0x1713 DUP3 PUSH2 0xF0E JUMP JUMPDEST SWAP2 POP PUSH32 0xFFFFFFFFFFFFFFFFFFFFFFFFFFFFFFFFFFFFFFFFFFFFFFFFFFFFFFFFFFFFFFFF DUP3 SUB PUSH2 0x1745 JUMPI PUSH2 0x1744 PUSH2 0x1672 JUMP JUMPDEST JUMPDEST PUSH1 0x1 DUP3 ADD SWAP1 POP SWAP2 SWAP1 POP JUMP JUMPDEST PUSH32 0x547765657420697320746F6F206C6F6E672062726F2100000000000000000000 PUSH0 DUP3 ADD MSTORE POP JUMP JUMPDEST PUSH0 PUSH2 0x1784 PUSH1 0x16 DUP4 PUSH2 0xFA7 JUMP JUMPDEST SWAP2 POP PUSH2 0x178F DUP3 PUSH2 0x1750 JUMP JUMPDEST PUSH1 0x20 DUP3 ADD SWAP1 POP SWAP2 SWAP1 POP JUMP JUMPDEST PUSH0 PUSH1 0x20 DUP3 ADD SWAP1 POP DUP2 DUP2 SUB PUSH0 DUP4 ADD MSTORE PUSH2 0x17B1 DUP2 PUSH2 0x1778 JUMP JUMPDEST SWAP1 POP SWAP2 SWAP1 POP JUMP JUMPDEST PUSH0 DUP2 SWAP1 POP DUP2 PUSH0 MSTORE PUSH1 0x20 PUSH0 KECCAK256 SWAP1 POP SWAP2 SWAP1 POP JUMP JUMPDEST PUSH0 PUSH1 0x20 PUSH1 0x1F DUP4 ADD DIV SWAP1 POP SWAP2 SWAP1 POP JUMP JUMPDEST PUSH0 DUP3 DUP3 SHL SWAP1 POP SWAP3 SWAP2 POP POP JUMP JUMPDEST PUSH0 PUSH1 0x8 DUP4 MUL PUSH2 0x1814 PUSH32 0xFFFFFFFFFFFFFFFFFFFFFFFFFFFFFFFFFFFFFFFFFFFFFFFFFFFFFFFFFFFFFFFF DUP3 PUSH2 0x17D9 JUMP JUMPDEST PUSH2 0x181E DUP7 DUP4 PUSH2 0x17D9 JUMP JUMPDEST SWAP6 POP DUP1 NOT DUP5 AND SWAP4 POP DUP1 DUP7 AND DUP5 OR SWAP3 POP POP POP SWAP4 SWAP3 POP POP POP JUMP JUMPDEST PUSH0 DUP2 SWAP1 POP SWAP2 SWAP1 POP JUMP JUMPDEST PUSH0 PUSH2 0x1859 PUSH2 0x1854 PUSH2 0x184F DUP5 PUSH2 0xF0E JUMP JUMPDEST PUSH2 0x1836 JUMP JUMPDEST PUSH2 0xF0E JUMP JUMPDEST SWAP1 POP SWAP2 SWAP1 POP JUMP JUMPDEST PUSH0 DUP2 SWAP1 POP SWAP2 SWAP1 POP JUMP JUMPDEST PUSH2 0x1872 DUP4 PUSH2 0x183F JUMP JUMPDEST PUSH2 0x1886 PUSH2 0x187E DUP3 PUSH2 0x1860 JUMP JUMPDEST DUP5 DUP5 SLOAD PUSH2 0x17E5 JUMP JUMPDEST DUP3 SSTORE POP POP POP POP JUMP JUMPDEST PUSH0 SWAP1 JUMP JUMPDEST PUSH2 0x189A PUSH2 0x188E JUMP JUMPDEST PUSH2 0x18A5 DUP2 DUP5 DUP5 PUSH2 0x1869 JUMP JUMPDEST POP POP POP JUMP JUMPDEST JUMPDEST DUP2 DUP2 LT ISZERO PUSH2 0x18C8 JUMPI PUSH2 0x18BD PUSH0 DUP3 PUSH2 0x1892 JUMP JUMPDEST PUSH1 0x1 DUP2 ADD SWAP1 POP PUSH2 0x18AB JUMP JUMPDEST POP POP JUMP JUMPDEST PUSH1 0x1F DUP3 GT ISZERO PUSH2 0x190D JUMPI PUSH2 0x18DE DUP2 PUSH2 0x17B8 JUMP JUMPDEST PUSH2 0x18E7 DUP5 PUSH2 0x17CA JUMP JUMPDEST DUP2 ADD PUSH1 0x20 DUP6 LT ISZERO PUSH2 0x18F6 JUMPI DUP2 SWAP1 POP JUMPDEST PUSH2 0x190A PUSH2 0x1902 DUP6 PUSH2 0x17CA JUMP JUMPDEST DUP4 ADD DUP3 PUSH2 0x18AA JUMP JUMPDEST POP POP JUMPDEST POP POP POP JUMP JUMPDEST PUSH0 DUP3 DUP3 SHR SWAP1 POP SWAP3 SWAP2 POP POP JUMP JUMPDEST PUSH0 PUSH2 0x192D PUSH0 NOT DUP5 PUSH1 0x8 MUL PUSH2 0x1912 JUMP JUMPDEST NOT DUP1 DUP4 AND SWAP2 POP POP SWAP3 SWAP2 POP POP JUMP JUMPDEST PUSH0 PUSH2 0x1945 DUP4 DUP4 PUSH2 0x191E JUMP JUMPDEST SWAP2 POP DUP3 PUSH1 0x2 MUL DUP3 OR SWAP1 POP SWAP3 SWAP2 POP POP JUMP JUMPDEST PUSH2 0x195E DUP3 PUSH2 0xF9D JUMP JUMPDEST PUSH8 0xFFFFFFFFFFFFFFFF DUP2 GT ISZERO PUSH2 0x1977 JUMPI PUSH2 0x1976 PUSH2 0x12D6 JUMP JUMPDEST JUMPDEST PUSH2 0x1981 DUP3 SLOAD PUSH2 0x1545 JUMP JUMPDEST PUSH2 0x198C DUP3 DUP3 DUP6 PUSH2 0x18CC JUMP JUMPDEST PUSH0 PUSH1 0x20 SWAP1 POP PUSH1 0x1F DUP4 GT PUSH1 0x1 DUP2 EQ PUSH2 0x19BD JUMPI PUSH0 DUP5 ISZERO PUSH2 0x19AB JUMPI DUP3 DUP8 ADD MLOAD SWAP1 POP JUMPDEST PUSH2 0x19B5 DUP6 DUP3 PUSH2 0x193A JUMP JUMPDEST DUP7 SSTORE POP PUSH2 0x1A1C JUMP JUMPDEST PUSH1 0x1F NOT DUP5 AND PUSH2 0x19CB DUP7 PUSH2 0x17B8 JUMP JUMPDEST PUSH0 JUMPDEST DUP3 DUP2 LT ISZERO PUSH2 0x19F2 JUMPI DUP5 DUP10 ADD MLOAD DUP3 SSTORE PUSH1 0x1 DUP3 ADD SWAP2 POP PUSH1 0x20 DUP6 ADD SWAP5 POP PUSH1 0x20 DUP2 ADD SWAP1 POP PUSH2 0x19CD JUMP JUMPDEST DUP7 DUP4 LT ISZERO PUSH2 0x1A0F JUMPI DUP5 DUP10 ADD MLOAD PUSH2 0x1A0B PUSH1 0x1F DUP10 AND DUP3 PUSH2 0x191E JUMP JUMPDEST DUP4 SSTORE POP JUMPDEST PUSH1 0x1 PUSH1 0x2 DUP9 MUL ADD DUP9 SSTORE POP POP POP JUMPDEST POP POP POP POP POP POP JUMP JUMPDEST PUSH0 PUSH1 0x80 DUP3 ADD SWAP1 POP PUSH2 0x1A37 PUSH0 DUP4 ADD DUP8 PUSH2 0xF7F JUMP JUMPDEST PUSH2 0x1A44 PUSH1 0x20 DUP4 ADD DUP7 PUSH2 0xF8E JUMP JUMPDEST DUP2 DUP2 SUB PUSH1 0x40 DUP4 ADD MSTORE PUSH2 0x1A56 DUP2 DUP6 PUSH2 0xFD5 JUMP JUMPDEST SWAP1 POP PUSH2 0x1A65 PUSH1 0x60 DUP4 ADD DUP5 PUSH2 0xF7F JUMP JUMPDEST SWAP6 SWAP5 POP POP POP POP POP JUMP INVALID LOG2 PUSH5 0x6970667358 0x22 SLT KECCAK256 PUSH19 0x6199B013B8F03FD079461D03C6BCA164C65225 EXTCODECOPY 0x22 0x29 GAS 0xEB LT SHL PUSH10 0x11D537EB64736F6C6343 STOP ADDMOD NOT STOP CALLER "
				},
				"gasEstimates": {
					"creation": {
						"codeDepositCost": "1364000",
						"executionCost": "infinite",
						"totalCost": "infinite"
					},
					"external": {
						"MAX_TWEET_LENGTH()": "2516",
						"changeTweetLength(uint16)": "infinite",
						"createTweet(string)": "infinite",
						"getAllTweets(address)": "infinite",
						"getTweet(uint256)": "infinite",
						"likeTweet(address,uint256)": "infinite",
						"owner()": "2581",
						"renounceOwnership()": "infinite",
						"transferOwnership(address)": "infinite",
						"tweets(address,uint256)": "infinite",
						"unlikeTweet(address,uint256)": "infinite"
					}
				},
				"methodIdentifiers": {
					"MAX_TWEET_LENGTH()": "6eb10797",
					"changeTweetLength(uint16)": "58bfa4ab",
					"createTweet(string)": "7c9cd2bc",
					"getAllTweets(address)": "12e7ee1c",
					"getTweet(uint256)": "c3ad5ecb",
					"likeTweet(address,uint256)": "63378216",
					"owner()": "8da5cb5b",
					"renounceOwnership()": "715018a6",
					"transferOwnership(address)": "f2fde38b",
					"tweets(address,uint256)": "05a1b4a9",
					"unlikeTweet(address,uint256)": "3d9b569f"
				}
			},
			"storageLayout": {
				"storage": [
					{
						"astId": 8,
						"contract": "contracts/14_Twitter.sol:Twitter",
						"label": "_owner",
						"offset": 0,
						"slot": "0",
						"type": "t_address"
					},
					{
						"astId": 185,
						"contract": "contracts/14_Twitter.sol:Twitter",
						"label": "MAX_TWEET_LENGTH",
						"offset": 20,
						"slot": "0",
						"type": "t_uint16"
					},
					{
						"astId": 202,
						"contract": "contracts/14_Twitter.sol:Twitter",
						"label": "tweets",
						"offset": 0,
						"slot": "1",
						"type": "t_mapping(t_address,t_array(t_struct(Tweet)196_storage)dyn_storage)"
					}
				],
				"types": {
					"t_address": {
						"encoding": "inplace",
						"label": "address",
						"numberOfBytes": "20"
					},
					"t_array(t_struct(Tweet)196_storage)dyn_storage": {
						"base": "t_struct(Tweet)196_storage",
						"encoding": "dynamic_array",
						"label": "struct Twitter.Tweet[]",
						"numberOfBytes": "32"
					},
					"t_mapping(t_address,t_array(t_struct(Tweet)196_storage)dyn_storage)": {
						"encoding": "mapping",
						"key": "t_address",
						"label": "mapping(address => struct Twitter.Tweet[])",
						"numberOfBytes": "32",
						"value": "t_array(t_struct(Tweet)196_storage)dyn_storage"
					},
					"t_string_storage": {
						"encoding": "bytes",
						"label": "string",
						"numberOfBytes": "32"
					},
					"t_struct(Tweet)196_storage": {
						"encoding": "inplace",
						"label": "struct Twitter.Tweet",
						"members": [
							{
								"astId": 187,
								"contract": "contracts/14_Twitter.sol:Twitter",
								"label": "id",
								"offset": 0,
								"slot": "0",
								"type": "t_uint256"
							},
							{
								"astId": 189,
								"contract": "contracts/14_Twitter.sol:Twitter",
								"label": "author",
								"offset": 0,
								"slot": "1",
								"type": "t_address"
							},
							{
								"astId": 191,
								"contract": "contracts/14_Twitter.sol:Twitter",
								"label": "content",
								"offset": 0,
								"slot": "2",
								"type": "t_string_storage"
							},
							{
								"astId": 193,
								"contract": "contracts/14_Twitter.sol:Twitter",
								"label": "timestamp",
								"offset": 0,
								"slot": "3",
								"type": "t_uint256"
							},
							{
								"astId": 195,
								"contract": "contracts/14_Twitter.sol:Twitter",
								"label": "likes",
								"offset": 0,
								"slot": "4",
								"type": "t_uint256"
							}
						],
						"numberOfBytes": "160"
					},
					"t_uint16": {
						"encoding": "inplace",
						"label": "uint16",
						"numberOfBytes": "2"
					},
					"t_uint256": {
						"encoding": "inplace",
						"label": "uint256",
						"numberOfBytes": "32"
					}
				}
			},
			"userdoc": {
				"kind": "user",
				"methods": {},
				"version": 1
			}
		}
	}
}