{
	"data": {
		"bytecode": {
			"linkReferences": {},
			"object": "608060405234801561000f575f80fd5b50604051611821380380611821833981810160405281019061003191906101da565b335f806101000a81548173ffffffffffffffffffffffffffffffffffffffff021916908373ffffffffffffffffffffffffffffffffffffffff1602179055505f6003819055508060019081610086919061042e565b50506104fd565b5f604051905090565b5f80fd5b5f80fd5b5f80fd5b5f80fd5b5f601f19601f8301169050919050565b7f4e487b71000000000000000000000000000000000000000000000000000000005f52604160045260245ffd5b6100ec826100a6565b810181811067ffffffffffffffff8211171561010b5761010a6100b6565b5b80604052505050565b5f61011d61008d565b905061012982826100e3565b919050565b5f67ffffffffffffffff821115610148576101476100b6565b5b610151826100a6565b9050602081019050919050565b8281835e5f83830152505050565b5f61017e6101798461012e565b610114565b90508281526020810184848401111561019a576101996100a2565b5b6101a584828561015e565b509392505050565b5f82601f8301126101c1576101c061009e565b5b81516101d184826020860161016c565b91505092915050565b5f602082840312156101ef576101ee610096565b5b5f82015167ffffffffffffffff81111561020c5761020b61009a565b5b610218848285016101ad565b91505092915050565b5f81519050919050565b7f4e487b71000000000000000000000000000000000000000000000000000000005f52602260045260245ffd5b5f600282049050600182168061026f57607f821691505b6020821081036102825761028161022b565b5b50919050565b5f819050815f5260205f209050919050565b5f6020601f8301049050919050565b5f82821b905092915050565b5f600883026102e47fffffffffffffffffffffffffffffffffffffffffffffffffffffffffffffffff826102a9565b6102ee86836102a9565b95508019841693508086168417925050509392505050565b5f819050919050565b5f819050919050565b5f61033261032d61032884610306565b61030f565b610306565b9050919050565b5f819050919050565b61034b83610318565b61035f61035782610339565b8484546102b5565b825550505050565b5f90565b610373610367565b61037e818484610342565b505050565b5b818110156103a1576103965f8261036b565b600181019050610384565b5050565b601f8211156103e6576103b781610288565b6103c08461029a565b810160208510156103cf578190505b6103e36103db8561029a565b830182610383565b50505b505050565b5f82821c905092915050565b5f6104065f19846008026103eb565b1980831691505092915050565b5f61041e83836103f7565b9150826002028217905092915050565b61043782610221565b67ffffffffffffffff8111156104505761044f6100b6565b5b61045a8254610258565b6104658282856103a5565b5f60209050601f831160018114610496575f8415610484578287015190505b61048e8582610413565b8655506104f5565b601f1984166104a486610288565b5f5b828110156104cb578489015182556001820191506020850194506020810190506104a6565b868310156104e857848901516104e4601f8916826103f7565b8355505b6001600288020188555050505b505050505050565b6113178061050a5f395ff3fe608060405234801561000f575f80fd5b506004361061007b575f3560e01c806341c0e1b51161005957806341c0e1b5146100ff578063893d20e814610109578063d1e831eb14610127578063e04110b8146101455761007b565b806325c8203c1461007f5780632c588770146100b15780633b0ab39a146100cf575b5f80fd5b61009960048036038101906100949190610a13565b610175565b6040516100a893929190610aae565b60405180910390f35b6100b9610357565b6040516100c69190610af8565b60405180910390f35b6100e960048036038101906100e49190610c44565b6103e7565b6040516100f69190610d02565b60405180910390f35b6101076104d1565b005b61011161055d565b60405161011e9190610d5a565b60405180910390f35b61012f610584565b60405161013c9190610af8565b60405180910390f35b61015f600480360381019061015a9190610d73565b610818565b60405161016c9190610d02565b60405180910390f35b606080606060025f8581526020019081526020015f205f01805461019890610e58565b80601f01602080910402602001604051908101604052809291908181526020018280546101c490610e58565b801561020f5780601f106101e65761010080835404028352916020019161020f565b820191905f5260205f20905b8154815290600101906020018083116101f257829003601f168201915b5050505050925060025f8581526020019081526020015f20600101805461023590610e58565b80601f016020809104026020016040519081016040528092919081815260200182805461026190610e58565b80156102ac5780601f10610283576101008083540402835291602001916102ac565b820191905f5260205f20905b81548152906001019060200180831161028f57829003601f168201915b5050505050915060025f8581526020019081526020015f2060020180546102d290610e58565b80601f01602080910402602001604051908101604052809291908181526020018280546102fe90610e58565b80156103495780601f1061032057610100808354040283529160200191610349565b820191905f5260205f20905b81548152906001019060200180831161032c57829003601f168201915b505050505090509193909250565b60606001805461036690610e58565b80601f016020809104026020016040519081016040528092919081815260200182805461039290610e58565b80156103dd5780601f106103b4576101008083540402835291602001916103dd565b820191905f5260205f20905b8154815290600101906020018083116103c057829003601f168201915b5050505050905090565b5f805f9054906101000a900473ffffffffffffffffffffffffffffffffffffffff1673ffffffffffffffffffffffffffffffffffffffff163373ffffffffffffffffffffffffffffffffffffffff1614610443575f90506104ca565b8360025f60035481526020019081526020015f205f0190816104659190611025565b508260025f60035481526020019081526020015f2060010190816104899190611025565b508160025f60035481526020019081526020015f2060020190816104ad9190611025565b5060035f8154809291906104c090611121565b9190505550600190505b9392505050565b5f8054906101000a900473ffffffffffffffffffffffffffffffffffffffff1673ffffffffffffffffffffffffffffffffffffffff163373ffffffffffffffffffffffffffffffffffffffff160361055b575f8054906101000a900473ffffffffffffffffffffffffffffffffffffffff1673ffffffffffffffffffffffffffffffffffffffff16ff5b565b5f805f9054906101000a900473ffffffffffffffffffffffffffffffffffffffff16905090565b60605f600354036105a55760405180602001604052805f8152509050610815565b5f805b6003548110156105f857600160025f8381526020019081526020015f205f0180546105d290610e58565b9050836105df9190611168565b6105e99190611168565b915080806001019150506105a8565b505f8167ffffffffffffffff81111561061457610613610b20565b5b6040519080825280601f01601f1916602001820160405280156106465781602001600182028036833780820191505090505b5090505f805b60035481101561080d575f60025f8381526020019081526020015f205f01805461067590610e58565b80601f01602080910402602001604051908101604052809291908181526020018280546106a190610e58565b80156106ec5780601f106106c3576101008083540402835291602001916106ec565b820191905f5260205f20905b8154815290600101906020018083116106cf57829003601f168201915b505050505090505f5b8151811015610778578181815181106107115761071061119b565b5b602001015160f81c60f81b85858151811061072f5761072e61119b565b5b60200101907effffffffffffffffffffffffffffffffffffffffffffffffffffffffffffff191690815f1a905350838061076890611121565b94505080806001019150506106f5565b50600160035461078891906111c8565b82146107ff577f2c000000000000000000000000000000000000000000000000000000000000008484815181106107c2576107c161119b565b5b60200101907effffffffffffffffffffffffffffffffffffffffffffffffffffffffffffff191690815f1a90535082806107fb90611121565b9350505b50808060010191505061064c565b508193505050505b90565b5f805f9054906101000a900473ffffffffffffffffffffffffffffffffffffffff1673ffffffffffffffffffffffffffffffffffffffff163373ffffffffffffffffffffffffffffffffffffffff1614610874575f90506109c7565b5f60025f8781526020019081526020015f209050805f0160405160200161089b9190611285565b60405160208183030381529060405280519060200120856040516020016108c291906112cb565b60405160208183030381529060405280519060200120146108ef5784815f0190816108ed9190611025565b505b806001016040516020016109039190611285565b604051602081830303815290604052805190602001208460405160200161092a91906112cb565b604051602081830303815290604052805190602001201461095857838160010190816109569190611025565b505b8060020160405160200161096c9190611285565b604051602081830303815290604052805190602001208360405160200161099391906112cb565b60405160208183030381529060405280519060200120146109c157828160020190816109bf9190611025565b505b60019150505b949350505050565b5f604051905090565b5f80fd5b5f80fd5b5f819050919050565b6109f2816109e0565b81146109fc575f80fd5b50565b5f81359050610a0d816109e9565b92915050565b5f60208284031215610a2857610a276109d8565b5b5f610a35848285016109ff565b91505092915050565b5f81519050919050565b5f82825260208201905092915050565b8281835e5f83830152505050565b5f601f19601f8301169050919050565b5f610a8082610a3e565b610a8a8185610a48565b9350610a9a818560208601610a58565b610aa381610a66565b840191505092915050565b5f6060820190508181035f830152610ac68186610a76565b90508181036020830152610ada8185610a76565b90508181036040830152610aee8184610a76565b9050949350505050565b5f6020820190508181035f830152610b108184610a76565b905092915050565b5f80fd5b5f80fd5b7f4e487b71000000000000000000000000000000000000000000000000000000005f52604160045260245ffd5b610b5682610a66565b810181811067ffffffffffffffff82111715610b7557610b74610b20565b5b80604052505050565b5f610b876109cf565b9050610b938282610b4d565b919050565b5f67ffffffffffffffff821115610bb257610bb1610b20565b5b610bbb82610a66565b9050602081019050919050565b828183375f83830152505050565b5f610be8610be384610b98565b610b7e565b905082815260208101848484011115610c0457610c03610b1c565b5b610c0f848285610bc8565b509392505050565b5f82601f830112610c2b57610c2a610b18565b5b8135610c3b848260208601610bd6565b91505092915050565b5f805f60608486031215610c5b57610c5a6109d8565b5b5f84013567ffffffffffffffff811115610c7857610c776109dc565b5b610c8486828701610c17565b935050602084013567ffffffffffffffff811115610ca557610ca46109dc565b5b610cb186828701610c17565b925050604084013567ffffffffffffffff811115610cd257610cd16109dc565b5b610cde86828701610c17565b9150509250925092565b5f8115159050919050565b610cfc81610ce8565b82525050565b5f602082019050610d155f830184610cf3565b92915050565b5f73ffffffffffffffffffffffffffffffffffffffff82169050919050565b5f610d4482610d1b565b9050919050565b610d5481610d3a565b82525050565b5f602082019050610d6d5f830184610d4b565b92915050565b5f805f8060808587031215610d8b57610d8a6109d8565b5b5f610d98878288016109ff565b945050602085013567ffffffffffffffff811115610db957610db86109dc565b5b610dc587828801610c17565b935050604085013567ffffffffffffffff811115610de657610de56109dc565b5b610df287828801610c17565b925050606085013567ffffffffffffffff811115610e1357610e126109dc565b5b610e1f87828801610c17565b91505092959194509250565b7f4e487b71000000000000000000000000000000000000000000000000000000005f52602260045260245ffd5b5f6002820490506001821680610e6f57607f821691505b602082108103610e8257610e81610e2b565b5b50919050565b5f819050815f5260205f209050919050565b5f6020601f8301049050919050565b5f82821b905092915050565b5f60088302610ee47fffffffffffffffffffffffffffffffffffffffffffffffffffffffffffffffff82610ea9565b610eee8683610ea9565b95508019841693508086168417925050509392505050565b5f819050919050565b5f610f29610f24610f1f846109e0565b610f06565b6109e0565b9050919050565b5f819050919050565b610f4283610f0f565b610f56610f4e82610f30565b848454610eb5565b825550505050565b5f90565b610f6a610f5e565b610f75818484610f39565b505050565b5b81811015610f9857610f8d5f82610f62565b600181019050610f7b565b5050565b601f821115610fdd57610fae81610e88565b610fb784610e9a565b81016020851015610fc6578190505b610fda610fd285610e9a565b830182610f7a565b50505b505050565b5f82821c905092915050565b5f610ffd5f1984600802610fe2565b1980831691505092915050565b5f6110158383610fee565b9150826002028217905092915050565b61102e82610a3e565b67ffffffffffffffff81111561104757611046610b20565b5b6110518254610e58565b61105c828285610f9c565b5f60209050601f83116001811461108d575f841561107b578287015190505b611085858261100a565b8655506110ec565b601f19841661109b86610e88565b5f5b828110156110c25784890151825560018201915060208501945060208101905061109d565b868310156110df57848901516110db601f891682610fee565b8355505b6001600288020188555050505b505050505050565b7f4e487b71000000000000000000000000000000000000000000000000000000005f52601160045260245ffd5b5f61112b826109e0565b91507fffffffffffffffffffffffffffffffffffffffffffffffffffffffffffffffff820361115d5761115c6110f4565b5b600182019050919050565b5f611172826109e0565b915061117d836109e0565b9250828201905080821115611195576111946110f4565b5b92915050565b7f4e487b71000000000000000000000000000000000000000000000000000000005f52603260045260245ffd5b5f6111d2826109e0565b91506111dd836109e0565b92508282039050818111156111f5576111f46110f4565b5b92915050565b5f81905092915050565b5f815461121181610e58565b61121b81866111fb565b9450600182165f8114611235576001811461124a5761127c565b60ff198316865281151582028601935061127c565b61125385610e88565b5f5b8381101561127457815481890152600182019150602081019050611255565b838801955050505b50505092915050565b5f6112908284611205565b915081905092915050565b5f6112a582610a3e565b6112af81856111fb565b93506112bf818560208601610a58565b80840191505092915050565b5f6112d6828461129b565b91508190509291505056fea26469706673582212207286866fc6269493369a47020bfa2a90200466d9c4bbbe0c4f286bfb7e74c12464736f6c63430008190033",
			"opcodes": "PUSH1 0x80 PUSH1 0x40 MSTORE CALLVALUE DUP1 ISZERO PUSH2 0xF JUMPI PUSH0 DUP1 REVERT JUMPDEST POP PUSH1 0x40 MLOAD PUSH2 0x1821 CODESIZE SUB DUP1 PUSH2 0x1821 DUP4 CODECOPY DUP2 DUP2 ADD PUSH1 0x40 MSTORE DUP2 ADD SWAP1 PUSH2 0x31 SWAP2 SWAP1 PUSH2 0x1DA JUMP JUMPDEST CALLER PUSH0 DUP1 PUSH2 0x100 EXP DUP2 SLOAD DUP2 PUSH20 0xFFFFFFFFFFFFFFFFFFFFFFFFFFFFFFFFFFFFFFFF MUL NOT AND SWAP1 DUP4 PUSH20 0xFFFFFFFFFFFFFFFFFFFFFFFFFFFFFFFFFFFFFFFF AND MUL OR SWAP1 SSTORE POP PUSH0 PUSH1 0x3 DUP2 SWAP1 SSTORE POP DUP1 PUSH1 0x1 SWAP1 DUP2 PUSH2 0x86 SWAP2 SWAP1 PUSH2 0x42E JUMP JUMPDEST POP POP PUSH2 0x4FD JUMP JUMPDEST PUSH0 PUSH1 0x40 MLOAD SWAP1 POP SWAP1 JUMP JUMPDEST PUSH0 DUP1 REVERT JUMPDEST PUSH0 DUP1 REVERT JUMPDEST PUSH0 DUP1 REVERT JUMPDEST PUSH0 DUP1 REVERT JUMPDEST PUSH0 PUSH1 0x1F NOT PUSH1 0x1F DUP4 ADD AND SWAP1 POP SWAP2 SWAP1 POP JUMP JUMPDEST PUSH32 0x4E487B7100000000000000000000000000000000000000000000000000000000 PUSH0 MSTORE PUSH1 0x41 PUSH1 0x4 MSTORE PUSH1 0x24 PUSH0 REVERT JUMPDEST PUSH2 0xEC DUP3 PUSH2 0xA6 JUMP JUMPDEST DUP2 ADD DUP2 DUP2 LT PUSH8 0xFFFFFFFFFFFFFFFF DUP3 GT OR ISZERO PUSH2 0x10B JUMPI PUSH2 0x10A PUSH2 0xB6 JUMP JUMPDEST JUMPDEST DUP1 PUSH1 0x40 MSTORE POP POP POP JUMP JUMPDEST PUSH0 PUSH2 0x11D PUSH2 0x8D JUMP JUMPDEST SWAP1 POP PUSH2 0x129 DUP3 DUP3 PUSH2 0xE3 JUMP JUMPDEST SWAP2 SWAP1 POP JUMP JUMPDEST PUSH0 PUSH8 0xFFFFFFFFFFFFFFFF DUP3 GT ISZERO PUSH2 0x148 JUMPI PUSH2 0x147 PUSH2 0xB6 JUMP JUMPDEST JUMPDEST PUSH2 0x151 DUP3 PUSH2 0xA6 JUMP JUMPDEST SWAP1 POP PUSH1 0x20 DUP2 ADD SWAP1 POP SWAP2 SWAP1 POP JUMP JUMPDEST DUP3 DUP2 DUP4 MCOPY PUSH0 DUP4 DUP4 ADD MSTORE POP POP POP JUMP JUMPDEST PUSH0 PUSH2 0x17E PUSH2 0x179 DUP5 PUSH2 0x12E JUMP JUMPDEST PUSH2 0x114 JUMP JUMPDEST SWAP1 POP DUP3 DUP2 MSTORE PUSH1 0x20 DUP2 ADD DUP5 DUP5 DUP5 ADD GT ISZERO PUSH2 0x19A JUMPI PUSH2 0x199 PUSH2 0xA2 JUMP JUMPDEST JUMPDEST PUSH2 0x1A5 DUP5 DUP3 DUP6 PUSH2 0x15E JUMP JUMPDEST POP SWAP4 SWAP3 POP POP POP JUMP JUMPDEST PUSH0 DUP3 PUSH1 0x1F DUP4 ADD SLT PUSH2 0x1C1 JUMPI PUSH2 0x1C0 PUSH2 0x9E JUMP JUMPDEST JUMPDEST DUP2 MLOAD PUSH2 0x1D1 DUP5 DUP3 PUSH1 0x20 DUP7 ADD PUSH2 0x16C JUMP JUMPDEST SWAP2 POP POP SWAP3 SWAP2 POP POP JUMP JUMPDEST PUSH0 PUSH1 0x20 DUP3 DUP5 SUB SLT ISZERO PUSH2 0x1EF JUMPI PUSH2 0x1EE PUSH2 0x96 JUMP JUMPDEST JUMPDEST PUSH0 DUP3 ADD MLOAD PUSH8 0xFFFFFFFFFFFFFFFF DUP2 GT ISZERO PUSH2 0x20C JUMPI PUSH2 0x20B PUSH2 0x9A JUMP JUMPDEST JUMPDEST PUSH2 0x218 DUP5 DUP3 DUP6 ADD PUSH2 0x1AD JUMP JUMPDEST SWAP2 POP POP SWAP3 SWAP2 POP POP JUMP JUMPDEST PUSH0 DUP2 MLOAD SWAP1 POP SWAP2 SWAP1 POP JUMP JUMPDEST PUSH32 0x4E487B7100000000000000000000000000000000000000000000000000000000 PUSH0 MSTORE PUSH1 0x22 PUSH1 0x4 MSTORE PUSH1 0x24 PUSH0 REVERT JUMPDEST PUSH0 PUSH1 0x2 DUP3 DIV SWAP1 POP PUSH1 0x1 DUP3 AND DUP1 PUSH2 0x26F JUMPI PUSH1 0x7F DUP3 AND SWAP2 POP JUMPDEST PUSH1 0x20 DUP3 LT DUP2 SUB PUSH2 0x282 JUMPI PUSH2 0x281 PUSH2 0x22B JUMP JUMPDEST JUMPDEST POP SWAP2 SWAP1 POP JUMP JUMPDEST PUSH0 DUP2 SWAP1 POP DUP2 PUSH0 MSTORE PUSH1 0x20 PUSH0 KECCAK256 SWAP1 POP SWAP2 SWAP1 POP JUMP JUMPDEST PUSH0 PUSH1 0x20 PUSH1 0x1F DUP4 ADD DIV SWAP1 POP SWAP2 SWAP1 POP JUMP JUMPDEST PUSH0 DUP3 DUP3 SHL SWAP1 POP SWAP3 SWAP2 POP POP JUMP JUMPDEST PUSH0 PUSH1 0x8 DUP4 MUL PUSH2 0x2E4 PUSH32 0xFFFFFFFFFFFFFFFFFFFFFFFFFFFFFFFFFFFFFFFFFFFFFFFFFFFFFFFFFFFFFFFF DUP3 PUSH2 0x2A9 JUMP JUMPDEST PUSH2 0x2EE DUP7 DUP4 PUSH2 0x2A9 JUMP JUMPDEST SWAP6 POP DUP1 NOT DUP5 AND SWAP4 POP DUP1 DUP7 AND DUP5 OR SWAP3 POP POP POP SWAP4 SWAP3 POP POP POP JUMP JUMPDEST PUSH0 DUP2 SWAP1 POP SWAP2 SWAP1 POP JUMP JUMPDEST PUSH0 DUP2 SWAP1 POP SWAP2 SWAP1 POP JUMP JUMPDEST PUSH0 PUSH2 0x332 PUSH2 0x32D PUSH2 0x328 DUP5 PUSH2 0x306 JUMP JUMPDEST PUSH2 0x30F JUMP JUMPDEST PUSH2 0x306 JUMP JUMPDEST SWAP1 POP SWAP2 SWAP1 POP JUMP JUMPDEST PUSH0 DUP2 SWAP1 POP SWAP2 SWAP1 POP JUMP JUMPDEST PUSH2 0x34B DUP4 PUSH2 0x318 JUMP JUMPDEST PUSH2 0x35F PUSH2 0x357 DUP3 PUSH2 0x339 JUMP JUMPDEST DUP5 DUP5 SLOAD PUSH2 0x2B5 JUMP JUMPDEST DUP3 SSTORE POP POP POP POP JUMP JUMPDEST PUSH0 SWAP1 JUMP JUMPDEST PUSH2 0x373 PUSH2 0x367 JUMP JUMPDEST PUSH2 0x37E DUP2 DUP5 DUP5 PUSH2 0x342 JUMP JUMPDEST POP POP POP JUMP JUMPDEST JUMPDEST DUP2 DUP2 LT ISZERO PUSH2 0x3A1 JUMPI PUSH2 0x396 PUSH0 DUP3 PUSH2 0x36B JUMP JUMPDEST PUSH1 0x1 DUP2 ADD SWAP1 POP PUSH2 0x384 JUMP JUMPDEST POP POP JUMP JUMPDEST PUSH1 0x1F DUP3 GT ISZERO PUSH2 0x3E6 JUMPI PUSH2 0x3B7 DUP2 PUSH2 0x288 JUMP JUMPDEST PUSH2 0x3C0 DUP5 PUSH2 0x29A JUMP JUMPDEST DUP2 ADD PUSH1 0x20 DUP6 LT ISZERO PUSH2 0x3CF JUMPI DUP2 SWAP1 POP JUMPDEST PUSH2 0x3E3 PUSH2 0x3DB DUP6 PUSH2 0x29A JUMP JUMPDEST DUP4 ADD DUP3 PUSH2 0x383 JUMP JUMPDEST POP POP JUMPDEST POP POP POP JUMP JUMPDEST PUSH0 DUP3 DUP3 SHR SWAP1 POP SWAP3 SWAP2 POP POP JUMP JUMPDEST PUSH0 PUSH2 0x406 PUSH0 NOT DUP5 PUSH1 0x8 MUL PUSH2 0x3EB JUMP JUMPDEST NOT DUP1 DUP4 AND SWAP2 POP POP SWAP3 SWAP2 POP POP JUMP JUMPDEST PUSH0 PUSH2 0x41E DUP4 DUP4 PUSH2 0x3F7 JUMP JUMPDEST SWAP2 POP DUP3 PUSH1 0x2 MUL DUP3 OR SWAP1 POP SWAP3 SWAP2 POP POP JUMP JUMPDEST PUSH2 0x437 DUP3 PUSH2 0x221 JUMP JUMPDEST PUSH8 0xFFFFFFFFFFFFFFFF DUP2 GT ISZERO PUSH2 0x450 JUMPI PUSH2 0x44F PUSH2 0xB6 JUMP JUMPDEST JUMPDEST PUSH2 0x45A DUP3 SLOAD PUSH2 0x258 JUMP JUMPDEST PUSH2 0x465 DUP3 DUP3 DUP6 PUSH2 0x3A5 JUMP JUMPDEST PUSH0 PUSH1 0x20 SWAP1 POP PUSH1 0x1F DUP4 GT PUSH1 0x1 DUP2 EQ PUSH2 0x496 JUMPI PUSH0 DUP5 ISZERO PUSH2 0x484 JUMPI DUP3 DUP8 ADD MLOAD SWAP1 POP JUMPDEST PUSH2 0x48E DUP6 DUP3 PUSH2 0x413 JUMP JUMPDEST DUP7 SSTORE POP PUSH2 0x4F5 JUMP JUMPDEST PUSH1 0x1F NOT DUP5 AND PUSH2 0x4A4 DUP7 PUSH2 0x288 JUMP JUMPDEST PUSH0 JUMPDEST DUP3 DUP2 LT ISZERO PUSH2 0x4CB JUMPI DUP5 DUP10 ADD MLOAD DUP3 SSTORE PUSH1 0x1 DUP3 ADD SWAP2 POP PUSH1 0x20 DUP6 ADD SWAP5 POP PUSH1 0x20 DUP2 ADD SWAP1 POP PUSH2 0x4A6 JUMP JUMPDEST DUP7 DUP4 LT ISZERO PUSH2 0x4E8 JUMPI DUP5 DUP10 ADD MLOAD PUSH2 0x4E4 PUSH1 0x1F DUP10 AND DUP3 PUSH2 0x3F7 JUMP JUMPDEST DUP4 SSTORE POP JUMPDEST PUSH1 0x1 PUSH1 0x2 DUP9 MUL ADD DUP9 SSTORE POP POP POP JUMPDEST POP POP POP POP POP POP JUMP JUMPDEST PUSH2 0x1317 DUP1 PUSH2 0x50A PUSH0 CODECOPY PUSH0 RETURN INVALID PUSH1 0x80 PUSH1 0x40 MSTORE CALLVALUE DUP1 ISZERO PUSH2 0xF JUMPI PUSH0 DUP1 REVERT JUMPDEST POP PUSH1 0x4 CALLDATASIZE LT PUSH2 0x7B JUMPI PUSH0 CALLDATALOAD PUSH1 0xE0 SHR DUP1 PUSH4 0x41C0E1B5 GT PUSH2 0x59 JUMPI DUP1 PUSH4 0x41C0E1B5 EQ PUSH2 0xFF JUMPI DUP1 PUSH4 0x893D20E8 EQ PUSH2 0x109 JUMPI DUP1 PUSH4 0xD1E831EB EQ PUSH2 0x127 JUMPI DUP1 PUSH4 0xE04110B8 EQ PUSH2 0x145 JUMPI PUSH2 0x7B JUMP JUMPDEST DUP1 PUSH4 0x25C8203C EQ PUSH2 0x7F JUMPI DUP1 PUSH4 0x2C588770 EQ PUSH2 0xB1 JUMPI DUP1 PUSH4 0x3B0AB39A EQ PUSH2 0xCF JUMPI JUMPDEST PUSH0 DUP1 REVERT JUMPDEST PUSH2 0x99 PUSH1 0x4 DUP1 CALLDATASIZE SUB DUP2 ADD SWAP1 PUSH2 0x94 SWAP2 SWAP1 PUSH2 0xA13 JUMP JUMPDEST PUSH2 0x175 JUMP JUMPDEST PUSH1 0x40 MLOAD PUSH2 0xA8 SWAP4 SWAP3 SWAP2 SWAP1 PUSH2 0xAAE JUMP JUMPDEST PUSH1 0x40 MLOAD DUP1 SWAP2 SUB SWAP1 RETURN JUMPDEST PUSH2 0xB9 PUSH2 0x357 JUMP JUMPDEST PUSH1 0x40 MLOAD PUSH2 0xC6 SWAP2 SWAP1 PUSH2 0xAF8 JUMP JUMPDEST PUSH1 0x40 MLOAD DUP1 SWAP2 SUB SWAP1 RETURN JUMPDEST PUSH2 0xE9 PUSH1 0x4 DUP1 CALLDATASIZE SUB DUP2 ADD SWAP1 PUSH2 0xE4 SWAP2 SWAP1 PUSH2 0xC44 JUMP JUMPDEST PUSH2 0x3E7 JUMP JUMPDEST PUSH1 0x40 MLOAD PUSH2 0xF6 SWAP2 SWAP1 PUSH2 0xD02 JUMP JUMPDEST PUSH1 0x40 MLOAD DUP1 SWAP2 SUB SWAP1 RETURN JUMPDEST PUSH2 0x107 PUSH2 0x4D1 JUMP JUMPDEST STOP JUMPDEST PUSH2 0x111 PUSH2 0x55D JUMP JUMPDEST PUSH1 0x40 MLOAD PUSH2 0x11E SWAP2 SWAP1 PUSH2 0xD5A JUMP JUMPDEST PUSH1 0x40 MLOAD DUP1 SWAP2 SUB SWAP1 RETURN JUMPDEST PUSH2 0x12F PUSH2 0x584 JUMP JUMPDEST PUSH1 0x40 MLOAD PUSH2 0x13C SWAP2 SWAP1 PUSH2 0xAF8 JUMP JUMPDEST PUSH1 0x40 MLOAD DUP1 SWAP2 SUB SWAP1 RETURN JUMPDEST PUSH2 0x15F PUSH1 0x4 DUP1 CALLDATASIZE SUB DUP2 ADD SWAP1 PUSH2 0x15A SWAP2 SWAP1 PUSH2 0xD73 JUMP JUMPDEST PUSH2 0x818 JUMP JUMPDEST PUSH1 0x40 MLOAD PUSH2 0x16C SWAP2 SWAP1 PUSH2 0xD02 JUMP JUMPDEST PUSH1 0x40 MLOAD DUP1 SWAP2 SUB SWAP1 RETURN JUMPDEST PUSH1 0x60 DUP1 PUSH1 0x60 PUSH1 0x2 PUSH0 DUP6 DUP2 MSTORE PUSH1 0x20 ADD SWAP1 DUP2 MSTORE PUSH1 0x20 ADD PUSH0 KECCAK256 PUSH0 ADD DUP1 SLOAD PUSH2 0x198 SWAP1 PUSH2 0xE58 JUMP JUMPDEST DUP1 PUSH1 0x1F ADD PUSH1 0x20 DUP1 SWAP2 DIV MUL PUSH1 0x20 ADD PUSH1 0x40 MLOAD SWAP1 DUP2 ADD PUSH1 0x40 MSTORE DUP1 SWAP3 SWAP2 SWAP1 DUP2 DUP2 MSTORE PUSH1 0x20 ADD DUP3 DUP1 SLOAD PUSH2 0x1C4 SWAP1 PUSH2 0xE58 JUMP JUMPDEST DUP1 ISZERO PUSH2 0x20F JUMPI DUP1 PUSH1 0x1F LT PUSH2 0x1E6 JUMPI PUSH2 0x100 DUP1 DUP4 SLOAD DIV MUL DUP4 MSTORE SWAP2 PUSH1 0x20 ADD SWAP2 PUSH2 0x20F JUMP JUMPDEST DUP3 ADD SWAP2 SWAP1 PUSH0 MSTORE PUSH1 0x20 PUSH0 KECCAK256 SWAP1 JUMPDEST DUP2 SLOAD DUP2 MSTORE SWAP1 PUSH1 0x1 ADD SWAP1 PUSH1 0x20 ADD DUP1 DUP4 GT PUSH2 0x1F2 JUMPI DUP3 SWAP1 SUB PUSH1 0x1F AND DUP3 ADD SWAP2 JUMPDEST POP POP POP POP POP SWAP3 POP PUSH1 0x2 PUSH0 DUP6 DUP2 MSTORE PUSH1 0x20 ADD SWAP1 DUP2 MSTORE PUSH1 0x20 ADD PUSH0 KECCAK256 PUSH1 0x1 ADD DUP1 SLOAD PUSH2 0x235 SWAP1 PUSH2 0xE58 JUMP JUMPDEST DUP1 PUSH1 0x1F ADD PUSH1 0x20 DUP1 SWAP2 DIV MUL PUSH1 0x20 ADD PUSH1 0x40 MLOAD SWAP1 DUP2 ADD PUSH1 0x40 MSTORE DUP1 SWAP3 SWAP2 SWAP1 DUP2 DUP2 MSTORE PUSH1 0x20 ADD DUP3 DUP1 SLOAD PUSH2 0x261 SWAP1 PUSH2 0xE58 JUMP JUMPDEST DUP1 ISZERO PUSH2 0x2AC JUMPI DUP1 PUSH1 0x1F LT PUSH2 0x283 JUMPI PUSH2 0x100 DUP1 DUP4 SLOAD DIV MUL DUP4 MSTORE SWAP2 PUSH1 0x20 ADD SWAP2 PUSH2 0x2AC JUMP JUMPDEST DUP3 ADD SWAP2 SWAP1 PUSH0 MSTORE PUSH1 0x20 PUSH0 KECCAK256 SWAP1 JUMPDEST DUP2 SLOAD DUP2 MSTORE SWAP1 PUSH1 0x1 ADD SWAP1 PUSH1 0x20 ADD DUP1 DUP4 GT PUSH2 0x28F JUMPI DUP3 SWAP1 SUB PUSH1 0x1F AND DUP3 ADD SWAP2 JUMPDEST POP POP POP POP POP SWAP2 POP PUSH1 0x2 PUSH0 DUP6 DUP2 MSTORE PUSH1 0x20 ADD SWAP1 DUP2 MSTORE PUSH1 0x20 ADD PUSH0 KECCAK256 PUSH1 0x2 ADD DUP1 SLOAD PUSH2 0x2D2 SWAP1 PUSH2 0xE58 JUMP JUMPDEST DUP1 PUSH1 0x1F ADD PUSH1 0x20 DUP1 SWAP2 DIV MUL PUSH1 0x20 ADD PUSH1 0x40 MLOAD SWAP1 DUP2 ADD PUSH1 0x40 MSTORE DUP1 SWAP3 SWAP2 SWAP1 DUP2 DUP2 MSTORE PUSH1 0x20 ADD DUP3 DUP1 SLOAD PUSH2 0x2FE SWAP1 PUSH2 0xE58 JUMP JUMPDEST DUP1 ISZERO PUSH2 0x349 JUMPI DUP1 PUSH1 0x1F LT PUSH2 0x320 JUMPI PUSH2 0x100 DUP1 DUP4 SLOAD DIV MUL DUP4 MSTORE SWAP2 PUSH1 0x20 ADD SWAP2 PUSH2 0x349 JUMP JUMPDEST DUP3 ADD SWAP2 SWAP1 PUSH0 MSTORE PUSH1 0x20 PUSH0 KECCAK256 SWAP1 JUMPDEST DUP2 SLOAD DUP2 MSTORE SWAP1 PUSH1 0x1 ADD SWAP1 PUSH1 0x20 ADD DUP1 DUP4 GT PUSH2 0x32C JUMPI DUP3 SWAP1 SUB PUSH1 0x1F AND DUP3 ADD SWAP2 JUMPDEST POP POP POP POP POP SWAP1 POP SWAP2 SWAP4 SWAP1 SWAP3 POP JUMP JUMPDEST PUSH1 0x60 PUSH1 0x1 DUP1 SLOAD PUSH2 0x366 SWAP1 PUSH2 0xE58 JUMP JUMPDEST DUP1 PUSH1 0x1F ADD PUSH1 0x20 DUP1 SWAP2 DIV MUL PUSH1 0x20 ADD PUSH1 0x40 MLOAD SWAP1 DUP2 ADD PUSH1 0x40 MSTORE DUP1 SWAP3 SWAP2 SWAP1 DUP2 DUP2 MSTORE PUSH1 0x20 ADD DUP3 DUP1 SLOAD PUSH2 0x392 SWAP1 PUSH2 0xE58 JUMP JUMPDEST DUP1 ISZERO PUSH2 0x3DD JUMPI DUP1 PUSH1 0x1F LT PUSH2 0x3B4 JUMPI PUSH2 0x100 DUP1 DUP4 SLOAD DIV MUL DUP4 MSTORE SWAP2 PUSH1 0x20 ADD SWAP2 PUSH2 0x3DD JUMP JUMPDEST DUP3 ADD SWAP2 SWAP1 PUSH0 MSTORE PUSH1 0x20 PUSH0 KECCAK256 SWAP1 JUMPDEST DUP2 SLOAD DUP2 MSTORE SWAP1 PUSH1 0x1 ADD SWAP1 PUSH1 0x20 ADD DUP1 DUP4 GT PUSH2 0x3C0 JUMPI DUP3 SWAP1 SUB PUSH1 0x1F AND DUP3 ADD SWAP2 JUMPDEST POP POP POP POP POP SWAP1 POP SWAP1 JUMP JUMPDEST PUSH0 DUP1 PUSH0 SWAP1 SLOAD SWAP1 PUSH2 0x100 EXP SWAP1 DIV PUSH20 0xFFFFFFFFFFFFFFFFFFFFFFFFFFFFFFFFFFFFFFFF AND PUSH20 0xFFFFFFFFFFFFFFFFFFFFFFFFFFFFFFFFFFFFFFFF AND CALLER PUSH20 0xFFFFFFFFFFFFFFFFFFFFFFFFFFFFFFFFFFFFFFFF AND EQ PUSH2 0x443 JUMPI PUSH0 SWAP1 POP PUSH2 0x4CA JUMP JUMPDEST DUP4 PUSH1 0x2 PUSH0 PUSH1 0x3 SLOAD DUP2 MSTORE PUSH1 0x20 ADD SWAP1 DUP2 MSTORE PUSH1 0x20 ADD PUSH0 KECCAK256 PUSH0 ADD SWAP1 DUP2 PUSH2 0x465 SWAP2 SWAP1 PUSH2 0x1025 JUMP JUMPDEST POP DUP3 PUSH1 0x2 PUSH0 PUSH1 0x3 SLOAD DUP2 MSTORE PUSH1 0x20 ADD SWAP1 DUP2 MSTORE PUSH1 0x20 ADD PUSH0 KECCAK256 PUSH1 0x1 ADD SWAP1 DUP2 PUSH2 0x489 SWAP2 SWAP1 PUSH2 0x1025 JUMP JUMPDEST POP DUP2 PUSH1 0x2 PUSH0 PUSH1 0x3 SLOAD DUP2 MSTORE PUSH1 0x20 ADD SWAP1 DUP2 MSTORE PUSH1 0x20 ADD PUSH0 KECCAK256 PUSH1 0x2 ADD SWAP1 DUP2 PUSH2 0x4AD SWAP2 SWAP1 PUSH2 0x1025 JUMP JUMPDEST POP PUSH1 0x3 PUSH0 DUP2 SLOAD DUP1 SWAP3 SWAP2 SWAP1 PUSH2 0x4C0 SWAP1 PUSH2 0x1121 JUMP JUMPDEST SWAP2 SWAP1 POP SSTORE POP PUSH1 0x1 SWAP1 POP JUMPDEST SWAP4 SWAP3 POP POP POP JUMP JUMPDEST PUSH0 DUP1 SLOAD SWAP1 PUSH2 0x100 EXP SWAP1 DIV PUSH20 0xFFFFFFFFFFFFFFFFFFFFFFFFFFFFFFFFFFFFFFFF AND PUSH20 0xFFFFFFFFFFFFFFFFFFFFFFFFFFFFFFFFFFFFFFFF AND CALLER PUSH20 0xFFFFFFFFFFFFFFFFFFFFFFFFFFFFFFFFFFFFFFFF AND SUB PUSH2 0x55B JUMPI PUSH0 DUP1 SLOAD SWAP1 PUSH2 0x100 EXP SWAP1 DIV PUSH20 0xFFFFFFFFFFFFFFFFFFFFFFFFFFFFFFFFFFFFFFFF AND PUSH20 0xFFFFFFFFFFFFFFFFFFFFFFFFFFFFFFFFFFFFFFFF AND SELFDESTRUCT JUMPDEST JUMP JUMPDEST PUSH0 DUP1 PUSH0 SWAP1 SLOAD SWAP1 PUSH2 0x100 EXP SWAP1 DIV PUSH20 0xFFFFFFFFFFFFFFFFFFFFFFFFFFFFFFFFFFFFFFFF AND SWAP1 POP SWAP1 JUMP JUMPDEST PUSH1 0x60 PUSH0 PUSH1 0x3 SLOAD SUB PUSH2 0x5A5 JUMPI PUSH1 0x40 MLOAD DUP1 PUSH1 0x20 ADD PUSH1 0x40 MSTORE DUP1 PUSH0 DUP2 MSTORE POP SWAP1 POP PUSH2 0x815 JUMP JUMPDEST PUSH0 DUP1 JUMPDEST PUSH1 0x3 SLOAD DUP2 LT ISZERO PUSH2 0x5F8 JUMPI PUSH1 0x1 PUSH1 0x2 PUSH0 DUP4 DUP2 MSTORE PUSH1 0x20 ADD SWAP1 DUP2 MSTORE PUSH1 0x20 ADD PUSH0 KECCAK256 PUSH0 ADD DUP1 SLOAD PUSH2 0x5D2 SWAP1 PUSH2 0xE58 JUMP JUMPDEST SWAP1 POP DUP4 PUSH2 0x5DF SWAP2 SWAP1 PUSH2 0x1168 JUMP JUMPDEST PUSH2 0x5E9 SWAP2 SWAP1 PUSH2 0x1168 JUMP JUMPDEST SWAP2 POP DUP1 DUP1 PUSH1 0x1 ADD SWAP2 POP POP PUSH2 0x5A8 JUMP JUMPDEST POP PUSH0 DUP2 PUSH8 0xFFFFFFFFFFFFFFFF DUP2 GT ISZERO PUSH2 0x614 JUMPI PUSH2 0x613 PUSH2 0xB20 JUMP JUMPDEST JUMPDEST PUSH1 0x40 MLOAD SWAP1 DUP1 DUP3 MSTORE DUP1 PUSH1 0x1F ADD PUSH1 0x1F NOT AND PUSH1 0x20 ADD DUP3 ADD PUSH1 0x40 MSTORE DUP1 ISZERO PUSH2 0x646 JUMPI DUP2 PUSH1 0x20 ADD PUSH1 0x1 DUP3 MUL DUP1 CALLDATASIZE DUP4 CALLDATACOPY DUP1 DUP3 ADD SWAP2 POP POP SWAP1 POP JUMPDEST POP SWAP1 POP PUSH0 DUP1 JUMPDEST PUSH1 0x3 SLOAD DUP2 LT ISZERO PUSH2 0x80D JUMPI PUSH0 PUSH1 0x2 PUSH0 DUP4 DUP2 MSTORE PUSH1 0x20 ADD SWAP1 DUP2 MSTORE PUSH1 0x20 ADD PUSH0 KECCAK256 PUSH0 ADD DUP1 SLOAD PUSH2 0x675 SWAP1 PUSH2 0xE58 JUMP JUMPDEST DUP1 PUSH1 0x1F ADD PUSH1 0x20 DUP1 SWAP2 DIV MUL PUSH1 0x20 ADD PUSH1 0x40 MLOAD SWAP1 DUP2 ADD PUSH1 0x40 MSTORE DUP1 SWAP3 SWAP2 SWAP1 DUP2 DUP2 MSTORE PUSH1 0x20 ADD DUP3 DUP1 SLOAD PUSH2 0x6A1 SWAP1 PUSH2 0xE58 JUMP JUMPDEST DUP1 ISZERO PUSH2 0x6EC JUMPI DUP1 PUSH1 0x1F LT PUSH2 0x6C3 JUMPI PUSH2 0x100 DUP1 DUP4 SLOAD DIV MUL DUP4 MSTORE SWAP2 PUSH1 0x20 ADD SWAP2 PUSH2 0x6EC JUMP JUMPDEST DUP3 ADD SWAP2 SWAP1 PUSH0 MSTORE PUSH1 0x20 PUSH0 KECCAK256 SWAP1 JUMPDEST DUP2 SLOAD DUP2 MSTORE SWAP1 PUSH1 0x1 ADD SWAP1 PUSH1 0x20 ADD DUP1 DUP4 GT PUSH2 0x6CF JUMPI DUP3 SWAP1 SUB PUSH1 0x1F AND DUP3 ADD SWAP2 JUMPDEST POP POP POP POP POP SWAP1 POP PUSH0 JUMPDEST DUP2 MLOAD DUP2 LT ISZERO PUSH2 0x778 JUMPI DUP2 DUP2 DUP2 MLOAD DUP2 LT PUSH2 0x711 JUMPI PUSH2 0x710 PUSH2 0x119B JUMP JUMPDEST JUMPDEST PUSH1 0x20 ADD ADD MLOAD PUSH1 0xF8 SHR PUSH1 0xF8 SHL DUP6 DUP6 DUP2 MLOAD DUP2 LT PUSH2 0x72F JUMPI PUSH2 0x72E PUSH2 0x119B JUMP JUMPDEST JUMPDEST PUSH1 0x20 ADD ADD SWAP1 PUSH31 0xFFFFFFFFFFFFFFFFFFFFFFFFFFFFFFFFFFFFFFFFFFFFFFFFFFFFFFFFFFFFFF NOT AND SWAP1 DUP2 PUSH0 BYTE SWAP1 MSTORE8 POP DUP4 DUP1 PUSH2 0x768 SWAP1 PUSH2 0x1121 JUMP JUMPDEST SWAP5 POP POP DUP1 DUP1 PUSH1 0x1 ADD SWAP2 POP POP PUSH2 0x6F5 JUMP JUMPDEST POP PUSH1 0x1 PUSH1 0x3 SLOAD PUSH2 0x788 SWAP2 SWAP1 PUSH2 0x11C8 JUMP JUMPDEST DUP3 EQ PUSH2 0x7FF JUMPI PUSH32 0x2C00000000000000000000000000000000000000000000000000000000000000 DUP5 DUP5 DUP2 MLOAD DUP2 LT PUSH2 0x7C2 JUMPI PUSH2 0x7C1 PUSH2 0x119B JUMP JUMPDEST JUMPDEST PUSH1 0x20 ADD ADD SWAP1 PUSH31 0xFFFFFFFFFFFFFFFFFFFFFFFFFFFFFFFFFFFFFFFFFFFFFFFFFFFFFFFFFFFFFF NOT AND SWAP1 DUP2 PUSH0 BYTE SWAP1 MSTORE8 POP DUP3 DUP1 PUSH2 0x7FB SWAP1 PUSH2 0x1121 JUMP JUMPDEST SWAP4 POP POP JUMPDEST POP DUP1 DUP1 PUSH1 0x1 ADD SWAP2 POP POP PUSH2 0x64C JUMP JUMPDEST POP DUP2 SWAP4 POP POP POP POP JUMPDEST SWAP1 JUMP JUMPDEST PUSH0 DUP1 PUSH0 SWAP1 SLOAD SWAP1 PUSH2 0x100 EXP SWAP1 DIV PUSH20 0xFFFFFFFFFFFFFFFFFFFFFFFFFFFFFFFFFFFFFFFF AND PUSH20 0xFFFFFFFFFFFFFFFFFFFFFFFFFFFFFFFFFFFFFFFF AND CALLER PUSH20 0xFFFFFFFFFFFFFFFFFFFFFFFFFFFFFFFFFFFFFFFF AND EQ PUSH2 0x874 JUMPI PUSH0 SWAP1 POP PUSH2 0x9C7 JUMP JUMPDEST PUSH0 PUSH1 0x2 PUSH0 DUP8 DUP2 MSTORE PUSH1 0x20 ADD SWAP1 DUP2 MSTORE PUSH1 0x20 ADD PUSH0 KECCAK256 SWAP1 POP DUP1 PUSH0 ADD PUSH1 0x40 MLOAD PUSH1 0x20 ADD PUSH2 0x89B SWAP2 SWAP1 PUSH2 0x1285 JUMP JUMPDEST PUSH1 0x40 MLOAD PUSH1 0x20 DUP2 DUP4 SUB SUB DUP2 MSTORE SWAP1 PUSH1 0x40 MSTORE DUP1 MLOAD SWAP1 PUSH1 0x20 ADD KECCAK256 DUP6 PUSH1 0x40 MLOAD PUSH1 0x20 ADD PUSH2 0x8C2 SWAP2 SWAP1 PUSH2 0x12CB JUMP JUMPDEST PUSH1 0x40 MLOAD PUSH1 0x20 DUP2 DUP4 SUB SUB DUP2 MSTORE SWAP1 PUSH1 0x40 MSTORE DUP1 MLOAD SWAP1 PUSH1 0x20 ADD KECCAK256 EQ PUSH2 0x8EF JUMPI DUP5 DUP2 PUSH0 ADD SWAP1 DUP2 PUSH2 0x8ED SWAP2 SWAP1 PUSH2 0x1025 JUMP JUMPDEST POP JUMPDEST DUP1 PUSH1 0x1 ADD PUSH1 0x40 MLOAD PUSH1 0x20 ADD PUSH2 0x903 SWAP2 SWAP1 PUSH2 0x1285 JUMP JUMPDEST PUSH1 0x40 MLOAD PUSH1 0x20 DUP2 DUP4 SUB SUB DUP2 MSTORE SWAP1 PUSH1 0x40 MSTORE DUP1 MLOAD SWAP1 PUSH1 0x20 ADD KECCAK256 DUP5 PUSH1 0x40 MLOAD PUSH1 0x20 ADD PUSH2 0x92A SWAP2 SWAP1 PUSH2 0x12CB JUMP JUMPDEST PUSH1 0x40 MLOAD PUSH1 0x20 DUP2 DUP4 SUB SUB DUP2 MSTORE SWAP1 PUSH1 0x40 MSTORE DUP1 MLOAD SWAP1 PUSH1 0x20 ADD KECCAK256 EQ PUSH2 0x958 JUMPI DUP4 DUP2 PUSH1 0x1 ADD SWAP1 DUP2 PUSH2 0x956 SWAP2 SWAP1 PUSH2 0x1025 JUMP JUMPDEST POP JUMPDEST DUP1 PUSH1 0x2 ADD PUSH1 0x40 MLOAD PUSH1 0x20 ADD PUSH2 0x96C SWAP2 SWAP1 PUSH2 0x1285 JUMP JUMPDEST PUSH1 0x40 MLOAD PUSH1 0x20 DUP2 DUP4 SUB SUB DUP2 MSTORE SWAP1 PUSH1 0x40 MSTORE DUP1 MLOAD SWAP1 PUSH1 0x20 ADD KECCAK256 DUP4 PUSH1 0x40 MLOAD PUSH1 0x20 ADD PUSH2 0x993 SWAP2 SWAP1 PUSH2 0x12CB JUMP JUMPDEST PUSH1 0x40 MLOAD PUSH1 0x20 DUP2 DUP4 SUB SUB DUP2 MSTORE SWAP1 PUSH1 0x40 MSTORE DUP1 MLOAD SWAP1 PUSH1 0x20 ADD KECCAK256 EQ PUSH2 0x9C1 JUMPI DUP3 DUP2 PUSH1 0x2 ADD SWAP1 DUP2 PUSH2 0x9BF SWAP2 SWAP1 PUSH2 0x1025 JUMP JUMPDEST POP JUMPDEST PUSH1 0x1 SWAP2 POP POP JUMPDEST SWAP5 SWAP4 POP POP POP POP JUMP JUMPDEST PUSH0 PUSH1 0x40 MLOAD SWAP1 POP SWAP1 JUMP JUMPDEST PUSH0 DUP1 REVERT JUMPDEST PUSH0 DUP1 REVERT JUMPDEST PUSH0 DUP2 SWAP1 POP SWAP2 SWAP1 POP JUMP JUMPDEST PUSH2 0x9F2 DUP2 PUSH2 0x9E0 JUMP JUMPDEST DUP2 EQ PUSH2 0x9FC JUMPI PUSH0 DUP1 REVERT JUMPDEST POP JUMP JUMPDEST PUSH0 DUP2 CALLDATALOAD SWAP1 POP PUSH2 0xA0D DUP2 PUSH2 0x9E9 JUMP JUMPDEST SWAP3 SWAP2 POP POP JUMP JUMPDEST PUSH0 PUSH1 0x20 DUP3 DUP5 SUB SLT ISZERO PUSH2 0xA28 JUMPI PUSH2 0xA27 PUSH2 0x9D8 JUMP JUMPDEST JUMPDEST PUSH0 PUSH2 0xA35 DUP5 DUP3 DUP6 ADD PUSH2 0x9FF JUMP JUMPDEST SWAP2 POP POP SWAP3 SWAP2 POP POP JUMP JUMPDEST PUSH0 DUP2 MLOAD SWAP1 POP SWAP2 SWAP1 POP JUMP JUMPDEST PUSH0 DUP3 DUP3 MSTORE PUSH1 0x20 DUP3 ADD SWAP1 POP SWAP3 SWAP2 POP POP JUMP JUMPDEST DUP3 DUP2 DUP4 MCOPY PUSH0 DUP4 DUP4 ADD MSTORE POP POP POP JUMP JUMPDEST PUSH0 PUSH1 0x1F NOT PUSH1 0x1F DUP4 ADD AND SWAP1 POP SWAP2 SWAP1 POP JUMP JUMPDEST PUSH0 PUSH2 0xA80 DUP3 PUSH2 0xA3E JUMP JUMPDEST PUSH2 0xA8A DUP2 DUP6 PUSH2 0xA48 JUMP JUMPDEST SWAP4 POP PUSH2 0xA9A DUP2 DUP6 PUSH1 0x20 DUP7 ADD PUSH2 0xA58 JUMP JUMPDEST PUSH2 0xAA3 DUP2 PUSH2 0xA66 JUMP JUMPDEST DUP5 ADD SWAP2 POP POP SWAP3 SWAP2 POP POP JUMP JUMPDEST PUSH0 PUSH1 0x60 DUP3 ADD SWAP1 POP DUP2 DUP2 SUB PUSH0 DUP4 ADD MSTORE PUSH2 0xAC6 DUP2 DUP7 PUSH2 0xA76 JUMP JUMPDEST SWAP1 POP DUP2 DUP2 SUB PUSH1 0x20 DUP4 ADD MSTORE PUSH2 0xADA DUP2 DUP6 PUSH2 0xA76 JUMP JUMPDEST SWAP1 POP DUP2 DUP2 SUB PUSH1 0x40 DUP4 ADD MSTORE PUSH2 0xAEE DUP2 DUP5 PUSH2 0xA76 JUMP JUMPDEST SWAP1 POP SWAP5 SWAP4 POP POP POP POP JUMP JUMPDEST PUSH0 PUSH1 0x20 DUP3 ADD SWAP1 POP DUP2 DUP2 SUB PUSH0 DUP4 ADD MSTORE PUSH2 0xB10 DUP2 DUP5 PUSH2 0xA76 JUMP JUMPDEST SWAP1 POP SWAP3 SWAP2 POP POP JUMP JUMPDEST PUSH0 DUP1 REVERT JUMPDEST PUSH0 DUP1 REVERT JUMPDEST PUSH32 0x4E487B7100000000000000000000000000000000000000000000000000000000 PUSH0 MSTORE PUSH1 0x41 PUSH1 0x4 MSTORE PUSH1 0x24 PUSH0 REVERT JUMPDEST PUSH2 0xB56 DUP3 PUSH2 0xA66 JUMP JUMPDEST DUP2 ADD DUP2 DUP2 LT PUSH8 0xFFFFFFFFFFFFFFFF DUP3 GT OR ISZERO PUSH2 0xB75 JUMPI PUSH2 0xB74 PUSH2 0xB20 JUMP JUMPDEST JUMPDEST DUP1 PUSH1 0x40 MSTORE POP POP POP JUMP JUMPDEST PUSH0 PUSH2 0xB87 PUSH2 0x9CF JUMP JUMPDEST SWAP1 POP PUSH2 0xB93 DUP3 DUP3 PUSH2 0xB4D JUMP JUMPDEST SWAP2 SWAP1 POP JUMP JUMPDEST PUSH0 PUSH8 0xFFFFFFFFFFFFFFFF DUP3 GT ISZERO PUSH2 0xBB2 JUMPI PUSH2 0xBB1 PUSH2 0xB20 JUMP JUMPDEST JUMPDEST PUSH2 0xBBB DUP3 PUSH2 0xA66 JUMP JUMPDEST SWAP1 POP PUSH1 0x20 DUP2 ADD SWAP1 POP SWAP2 SWAP1 POP JUMP JUMPDEST DUP3 DUP2 DUP4 CALLDATACOPY PUSH0 DUP4 DUP4 ADD MSTORE POP POP POP JUMP JUMPDEST PUSH0 PUSH2 0xBE8 PUSH2 0xBE3 DUP5 PUSH2 0xB98 JUMP JUMPDEST PUSH2 0xB7E JUMP JUMPDEST SWAP1 POP DUP3 DUP2 MSTORE PUSH1 0x20 DUP2 ADD DUP5 DUP5 DUP5 ADD GT ISZERO PUSH2 0xC04 JUMPI PUSH2 0xC03 PUSH2 0xB1C JUMP JUMPDEST JUMPDEST PUSH2 0xC0F DUP5 DUP3 DUP6 PUSH2 0xBC8 JUMP JUMPDEST POP SWAP4 SWAP3 POP POP POP JUMP JUMPDEST PUSH0 DUP3 PUSH1 0x1F DUP4 ADD SLT PUSH2 0xC2B JUMPI PUSH2 0xC2A PUSH2 0xB18 JUMP JUMPDEST JUMPDEST DUP2 CALLDATALOAD PUSH2 0xC3B DUP5 DUP3 PUSH1 0x20 DUP7 ADD PUSH2 0xBD6 JUMP JUMPDEST SWAP2 POP POP SWAP3 SWAP2 POP POP JUMP JUMPDEST PUSH0 DUP1 PUSH0 PUSH1 0x60 DUP5 DUP7 SUB SLT ISZERO PUSH2 0xC5B JUMPI PUSH2 0xC5A PUSH2 0x9D8 JUMP JUMPDEST JUMPDEST PUSH0 DUP5 ADD CALLDATALOAD PUSH8 0xFFFFFFFFFFFFFFFF DUP2 GT ISZERO PUSH2 0xC78 JUMPI PUSH2 0xC77 PUSH2 0x9DC JUMP JUMPDEST JUMPDEST PUSH2 0xC84 DUP7 DUP3 DUP8 ADD PUSH2 0xC17 JUMP JUMPDEST SWAP4 POP POP PUSH1 0x20 DUP5 ADD CALLDATALOAD PUSH8 0xFFFFFFFFFFFFFFFF DUP2 GT ISZERO PUSH2 0xCA5 JUMPI PUSH2 0xCA4 PUSH2 0x9DC JUMP JUMPDEST JUMPDEST PUSH2 0xCB1 DUP7 DUP3 DUP8 ADD PUSH2 0xC17 JUMP JUMPDEST SWAP3 POP POP PUSH1 0x40 DUP5 ADD CALLDATALOAD PUSH8 0xFFFFFFFFFFFFFFFF DUP2 GT ISZERO PUSH2 0xCD2 JUMPI PUSH2 0xCD1 PUSH2 0x9DC JUMP JUMPDEST JUMPDEST PUSH2 0xCDE DUP7 DUP3 DUP8 ADD PUSH2 0xC17 JUMP JUMPDEST SWAP2 POP POP SWAP3 POP SWAP3 POP SWAP3 JUMP JUMPDEST PUSH0 DUP2 ISZERO ISZERO SWAP1 POP SWAP2 SWAP1 POP JUMP JUMPDEST PUSH2 0xCFC DUP2 PUSH2 0xCE8 JUMP JUMPDEST DUP3 MSTORE POP POP JUMP JUMPDEST PUSH0 PUSH1 0x20 DUP3 ADD SWAP1 POP PUSH2 0xD15 PUSH0 DUP4 ADD DUP5 PUSH2 0xCF3 JUMP JUMPDEST SWAP3 SWAP2 POP POP JUMP JUMPDEST PUSH0 PUSH20 0xFFFFFFFFFFFFFFFFFFFFFFFFFFFFFFFFFFFFFFFF DUP3 AND SWAP1 POP SWAP2 SWAP1 POP JUMP JUMPDEST PUSH0 PUSH2 0xD44 DUP3 PUSH2 0xD1B JUMP JUMPDEST SWAP1 POP SWAP2 SWAP1 POP JUMP JUMPDEST PUSH2 0xD54 DUP2 PUSH2 0xD3A JUMP JUMPDEST DUP3 MSTORE POP POP JUMP JUMPDEST PUSH0 PUSH1 0x20 DUP3 ADD SWAP1 POP PUSH2 0xD6D PUSH0 DUP4 ADD DUP5 PUSH2 0xD4B JUMP JUMPDEST SWAP3 SWAP2 POP POP JUMP JUMPDEST PUSH0 DUP1 PUSH0 DUP1 PUSH1 0x80 DUP6 DUP8 SUB SLT ISZERO PUSH2 0xD8B JUMPI PUSH2 0xD8A PUSH2 0x9D8 JUMP JUMPDEST JUMPDEST PUSH0 PUSH2 0xD98 DUP8 DUP3 DUP9 ADD PUSH2 0x9FF JUMP JUMPDEST SWAP5 POP POP PUSH1 0x20 DUP6 ADD CALLDATALOAD PUSH8 0xFFFFFFFFFFFFFFFF DUP2 GT ISZERO PUSH2 0xDB9 JUMPI PUSH2 0xDB8 PUSH2 0x9DC JUMP JUMPDEST JUMPDEST PUSH2 0xDC5 DUP8 DUP3 DUP9 ADD PUSH2 0xC17 JUMP JUMPDEST SWAP4 POP POP PUSH1 0x40 DUP6 ADD CALLDATALOAD PUSH8 0xFFFFFFFFFFFFFFFF DUP2 GT ISZERO PUSH2 0xDE6 JUMPI PUSH2 0xDE5 PUSH2 0x9DC JUMP JUMPDEST JUMPDEST PUSH2 0xDF2 DUP8 DUP3 DUP9 ADD PUSH2 0xC17 JUMP JUMPDEST SWAP3 POP POP PUSH1 0x60 DUP6 ADD CALLDATALOAD PUSH8 0xFFFFFFFFFFFFFFFF DUP2 GT ISZERO PUSH2 0xE13 JUMPI PUSH2 0xE12 PUSH2 0x9DC JUMP JUMPDEST JUMPDEST PUSH2 0xE1F DUP8 DUP3 DUP9 ADD PUSH2 0xC17 JUMP JUMPDEST SWAP2 POP POP SWAP3 SWAP6 SWAP2 SWAP5 POP SWAP3 POP JUMP JUMPDEST PUSH32 0x4E487B7100000000000000000000000000000000000000000000000000000000 PUSH0 MSTORE PUSH1 0x22 PUSH1 0x4 MSTORE PUSH1 0x24 PUSH0 REVERT JUMPDEST PUSH0 PUSH1 0x2 DUP3 DIV SWAP1 POP PUSH1 0x1 DUP3 AND DUP1 PUSH2 0xE6F JUMPI PUSH1 0x7F DUP3 AND SWAP2 POP JUMPDEST PUSH1 0x20 DUP3 LT DUP2 SUB PUSH2 0xE82 JUMPI PUSH2 0xE81 PUSH2 0xE2B JUMP JUMPDEST JUMPDEST POP SWAP2 SWAP1 POP JUMP JUMPDEST PUSH0 DUP2 SWAP1 POP DUP2 PUSH0 MSTORE PUSH1 0x20 PUSH0 KECCAK256 SWAP1 POP SWAP2 SWAP1 POP JUMP JUMPDEST PUSH0 PUSH1 0x20 PUSH1 0x1F DUP4 ADD DIV SWAP1 POP SWAP2 SWAP1 POP JUMP JUMPDEST PUSH0 DUP3 DUP3 SHL SWAP1 POP SWAP3 SWAP2 POP POP JUMP JUMPDEST PUSH0 PUSH1 0x8 DUP4 MUL PUSH2 0xEE4 PUSH32 0xFFFFFFFFFFFFFFFFFFFFFFFFFFFFFFFFFFFFFFFFFFFFFFFFFFFFFFFFFFFFFFFF DUP3 PUSH2 0xEA9 JUMP JUMPDEST PUSH2 0xEEE DUP7 DUP4 PUSH2 0xEA9 JUMP JUMPDEST SWAP6 POP DUP1 NOT DUP5 AND SWAP4 POP DUP1 DUP7 AND DUP5 OR SWAP3 POP POP POP SWAP4 SWAP3 POP POP POP JUMP JUMPDEST PUSH0 DUP2 SWAP1 POP SWAP2 SWAP1 POP JUMP JUMPDEST PUSH0 PUSH2 0xF29 PUSH2 0xF24 PUSH2 0xF1F DUP5 PUSH2 0x9E0 JUMP JUMPDEST PUSH2 0xF06 JUMP JUMPDEST PUSH2 0x9E0 JUMP JUMPDEST SWAP1 POP SWAP2 SWAP1 POP JUMP JUMPDEST PUSH0 DUP2 SWAP1 POP SWAP2 SWAP1 POP JUMP JUMPDEST PUSH2 0xF42 DUP4 PUSH2 0xF0F JUMP JUMPDEST PUSH2 0xF56 PUSH2 0xF4E DUP3 PUSH2 0xF30 JUMP JUMPDEST DUP5 DUP5 SLOAD PUSH2 0xEB5 JUMP JUMPDEST DUP3 SSTORE POP POP POP POP JUMP JUMPDEST PUSH0 SWAP1 JUMP JUMPDEST PUSH2 0xF6A PUSH2 0xF5E JUMP JUMPDEST PUSH2 0xF75 DUP2 DUP5 DUP5 PUSH2 0xF39 JUMP JUMPDEST POP POP POP JUMP JUMPDEST JUMPDEST DUP2 DUP2 LT ISZERO PUSH2 0xF98 JUMPI PUSH2 0xF8D PUSH0 DUP3 PUSH2 0xF62 JUMP JUMPDEST PUSH1 0x1 DUP2 ADD SWAP1 POP PUSH2 0xF7B JUMP JUMPDEST POP POP JUMP JUMPDEST PUSH1 0x1F DUP3 GT ISZERO PUSH2 0xFDD JUMPI PUSH2 0xFAE DUP2 PUSH2 0xE88 JUMP JUMPDEST PUSH2 0xFB7 DUP5 PUSH2 0xE9A JUMP JUMPDEST DUP2 ADD PUSH1 0x20 DUP6 LT ISZERO PUSH2 0xFC6 JUMPI DUP2 SWAP1 POP JUMPDEST PUSH2 0xFDA PUSH2 0xFD2 DUP6 PUSH2 0xE9A JUMP JUMPDEST DUP4 ADD DUP3 PUSH2 0xF7A JUMP JUMPDEST POP POP JUMPDEST POP POP POP JUMP JUMPDEST PUSH0 DUP3 DUP3 SHR SWAP1 POP SWAP3 SWAP2 POP POP JUMP JUMPDEST PUSH0 PUSH2 0xFFD PUSH0 NOT DUP5 PUSH1 0x8 MUL PUSH2 0xFE2 JUMP JUMPDEST NOT DUP1 DUP4 AND SWAP2 POP POP SWAP3 SWAP2 POP POP JUMP JUMPDEST PUSH0 PUSH2 0x1015 DUP4 DUP4 PUSH2 0xFEE JUMP JUMPDEST SWAP2 POP DUP3 PUSH1 0x2 MUL DUP3 OR SWAP1 POP SWAP3 SWAP2 POP POP JUMP JUMPDEST PUSH2 0x102E DUP3 PUSH2 0xA3E JUMP JUMPDEST PUSH8 0xFFFFFFFFFFFFFFFF DUP2 GT ISZERO PUSH2 0x1047 JUMPI PUSH2 0x1046 PUSH2 0xB20 JUMP JUMPDEST JUMPDEST PUSH2 0x1051 DUP3 SLOAD PUSH2 0xE58 JUMP JUMPDEST PUSH2 0x105C DUP3 DUP3 DUP6 PUSH2 0xF9C JUMP JUMPDEST PUSH0 PUSH1 0x20 SWAP1 POP PUSH1 0x1F DUP4 GT PUSH1 0x1 DUP2 EQ PUSH2 0x108D JUMPI PUSH0 DUP5 ISZERO PUSH2 0x107B JUMPI DUP3 DUP8 ADD MLOAD SWAP1 POP JUMPDEST PUSH2 0x1085 DUP6 DUP3 PUSH2 0x100A JUMP JUMPDEST DUP7 SSTORE POP PUSH2 0x10EC JUMP JUMPDEST PUSH1 0x1F NOT DUP5 AND PUSH2 0x109B DUP7 PUSH2 0xE88 JUMP JUMPDEST PUSH0 JUMPDEST DUP3 DUP2 LT ISZERO PUSH2 0x10C2 JUMPI DUP5 DUP10 ADD MLOAD DUP3 SSTORE PUSH1 0x1 DUP3 ADD SWAP2 POP PUSH1 0x20 DUP6 ADD SWAP5 POP PUSH1 0x20 DUP2 ADD SWAP1 POP PUSH2 0x109D JUMP JUMPDEST DUP7 DUP4 LT ISZERO PUSH2 0x10DF JUMPI DUP5 DUP10 ADD MLOAD PUSH2 0x10DB PUSH1 0x1F DUP10 AND DUP3 PUSH2 0xFEE JUMP JUMPDEST DUP4 SSTORE POP JUMPDEST PUSH1 0x1 PUSH1 0x2 DUP9 MUL ADD DUP9 SSTORE POP POP POP JUMPDEST POP POP POP POP POP POP JUMP JUMPDEST PUSH32 0x4E487B7100000000000000000000000000000000000000000000000000000000 PUSH0 MSTORE PUSH1 0x11 PUSH1 0x4 MSTORE PUSH1 0x24 PUSH0 REVERT JUMPDEST PUSH0 PUSH2 0x112B DUP3 PUSH2 0x9E0 JUMP JUMPDEST SWAP2 POP PUSH32 0xFFFFFFFFFFFFFFFFFFFFFFFFFFFFFFFFFFFFFFFFFFFFFFFFFFFFFFFFFFFFFFFF DUP3 SUB PUSH2 0x115D JUMPI PUSH2 0x115C PUSH2 0x10F4 JUMP JUMPDEST JUMPDEST PUSH1 0x1 DUP3 ADD SWAP1 POP SWAP2 SWAP1 POP JUMP JUMPDEST PUSH0 PUSH2 0x1172 DUP3 PUSH2 0x9E0 JUMP JUMPDEST SWAP2 POP PUSH2 0x117D DUP4 PUSH2 0x9E0 JUMP JUMPDEST SWAP3 POP DUP3 DUP3 ADD SWAP1 POP DUP1 DUP3 GT ISZERO PUSH2 0x1195 JUMPI PUSH2 0x1194 PUSH2 0x10F4 JUMP JUMPDEST JUMPDEST SWAP3 SWAP2 POP POP JUMP JUMPDEST PUSH32 0x4E487B7100000000000000000000000000000000000000000000000000000000 PUSH0 MSTORE PUSH1 0x32 PUSH1 0x4 MSTORE PUSH1 0x24 PUSH0 REVERT JUMPDEST PUSH0 PUSH2 0x11D2 DUP3 PUSH2 0x9E0 JUMP JUMPDEST SWAP2 POP PUSH2 0x11DD DUP4 PUSH2 0x9E0 JUMP JUMPDEST SWAP3 POP DUP3 DUP3 SUB SWAP1 POP DUP2 DUP2 GT ISZERO PUSH2 0x11F5 JUMPI PUSH2 0x11F4 PUSH2 0x10F4 JUMP JUMPDEST JUMPDEST SWAP3 SWAP2 POP POP JUMP JUMPDEST PUSH0 DUP2 SWAP1 POP SWAP3 SWAP2 POP POP JUMP JUMPDEST PUSH0 DUP2 SLOAD PUSH2 0x1211 DUP2 PUSH2 0xE58 JUMP JUMPDEST PUSH2 0x121B DUP2 DUP7 PUSH2 0x11FB JUMP JUMPDEST SWAP5 POP PUSH1 0x1 DUP3 AND PUSH0 DUP2 EQ PUSH2 0x1235 JUMPI PUSH1 0x1 DUP2 EQ PUSH2 0x124A JUMPI PUSH2 0x127C JUMP JUMPDEST PUSH1 0xFF NOT DUP4 AND DUP7 MSTORE DUP2 ISZERO ISZERO DUP3 MUL DUP7 ADD SWAP4 POP PUSH2 0x127C JUMP JUMPDEST PUSH2 0x1253 DUP6 PUSH2 0xE88 JUMP JUMPDEST PUSH0 JUMPDEST DUP4 DUP2 LT ISZERO PUSH2 0x1274 JUMPI DUP2 SLOAD DUP2 DUP10 ADD MSTORE PUSH1 0x1 DUP3 ADD SWAP2 POP PUSH1 0x20 DUP2 ADD SWAP1 POP PUSH2 0x1255 JUMP JUMPDEST DUP4 DUP9 ADD SWAP6 POP POP POP JUMPDEST POP POP POP SWAP3 SWAP2 POP POP JUMP JUMPDEST PUSH0 PUSH2 0x1290 DUP3 DUP5 PUSH2 0x1205 JUMP JUMPDEST SWAP2 POP DUP2 SWAP1 POP SWAP3 SWAP2 POP POP JUMP JUMPDEST PUSH0 PUSH2 0x12A5 DUP3 PUSH2 0xA3E JUMP JUMPDEST PUSH2 0x12AF DUP2 DUP6 PUSH2 0x11FB JUMP JUMPDEST SWAP4 POP PUSH2 0x12BF DUP2 DUP6 PUSH1 0x20 DUP7 ADD PUSH2 0xA58 JUMP JUMPDEST DUP1 DUP5 ADD SWAP2 POP POP SWAP3 SWAP2 POP POP JUMP JUMPDEST PUSH0 PUSH2 0x12D6 DUP3 DUP5 PUSH2 0x129B JUMP JUMPDEST SWAP2 POP DUP2 SWAP1 POP SWAP3 SWAP2 POP POP JUMP INVALID LOG2 PUSH5 0x6970667358 0x22 SLT KECCAK256 PUSH19 0x86866FC6269493369A47020BFA2A90200466D9 0xC4 0xBB 0xBE 0xC 0x4F 0x28 PUSH12 0xFB7E74C12464736F6C634300 ADDMOD NOT STOP CALLER "
		},
		"gasEstimates": {
			"creation": {
				"codeDepositCost": "977400",
				"executionCost": "infinite",
				"totalCost": "infinite"
			},
			"external": {
				"addLogin(string,string,string)": "infinite",
				"getLogin(uint256)": "infinite",
				"getLogins()": "infinite",
				"getOwner()": "2537",
				"getTestPhrase()": "infinite",
				"kill()": "32040",
				"setLogin(uint256,string,string,string)": "infinite"
			}
		},
		"methodIdentifiers": {
			"addLogin(string,string,string)": "3b0ab39a",
			"getLogin(uint256)": "25c8203c",
			"getLogins()": "d1e831eb",
			"getOwner()": "893d20e8",
			"getTestPhrase()": "2c588770",
			"kill()": "41c0e1b5",
			"setLogin(uint256,string,string,string)": "e04110b8"
		}
	},
	"abi": [
		{
			"inputs": [
				{
					"internalType": "string",
					"name": "encryptedTestPhrase",
					"type": "string"
				}
			],
			"stateMutability": "nonpayable",
			"type": "constructor"
		},
		{
			"inputs": [
				{
					"internalType": "string",
					"name": "name",
					"type": "string"
				},
				{
					"internalType": "string",
					"name": "username",
					"type": "string"
				},
				{
					"internalType": "string",
					"name": "password",
					"type": "string"
				}
			],
			"name": "addLogin",
			"outputs": [
				{
					"internalType": "bool",
					"name": "success",
					"type": "bool"
				}
			],
			"stateMutability": "nonpayable",
			"type": "function"
		},
		{
			"inputs": [
				{
					"internalType": "uint256",
					"name": "id",
					"type": "uint256"
				}
			],
			"name": "getLogin",
			"outputs": [
				{
					"internalType": "string",
					"name": "name",
					"type": "string"
				},
				{
					"internalType": "string",
					"name": "username",
					"type": "string"
				},
				{
					"internalType": "string",
					"name": "password",
					"type": "string"
				}
			],
			"stateMutability": "view",
			"type": "function"
		},
		{
			"inputs": [],
			"name": "getLogins",
			"outputs": [
				{
					"internalType": "string",
					"name": "allLogins",
					"type": "string"
				}
			],
			"stateMutability": "view",
			"type": "function"
		},
		{
			"inputs": [],
			"name": "getOwner",
			"outputs": [
				{
					"internalType": "address",
					"name": "ownerAddress",
					"type": "address"
				}
			],
			"stateMutability": "view",
			"type": "function"
		},
		{
			"inputs": [],
			"name": "getTestPhrase",
			"outputs": [
				{
					"internalType": "string",
					"name": "phrase",
					"type": "string"
				}
			],
			"stateMutability": "view",
			"type": "function"
		},
		{
			"inputs": [],
			"name": "kill",
			"outputs": [],
			"stateMutability": "nonpayable",
			"type": "function"
		},
		{
			"inputs": [
				{
					"internalType": "uint256",
					"name": "index",
					"type": "uint256"
				},
				{
					"internalType": "string",
					"name": "name",
					"type": "string"
				},
				{
					"internalType": "string",
					"name": "username",
					"type": "string"
				},
				{
					"internalType": "string",
					"name": "password",
					"type": "string"
				}
			],
			"name": "setLogin",
			"outputs": [
				{
					"internalType": "bool",
					"name": "success",
					"type": "bool"
				}
			],
			"stateMutability": "nonpayable",
			"type": "function"
		}
	]
}